{
	"contracts/bloc.sol": {
		"Bloc": {
			"abi": [
				{
					"inputs": [
						{
							"internalType": "string",
							"name": "_task",
							"type": "string"
						}
					],
					"name": "addTask",
					"outputs": [],
					"stateMutability": "nonpayable",
					"type": "function"
				},
				{
					"inputs": [
						{
							"internalType": "uint256",
							"name": "_taskIndex",
							"type": "uint256"
						}
					],
					"name": "deleteTask",
					"outputs": [],
					"stateMutability": "nonpayable",
					"type": "function"
				},
				{
					"inputs": [
						{
							"internalType": "uint256",
							"name": "_taskIndex",
							"type": "uint256"
						}
					],
					"name": "getTask",
					"outputs": [
						{
							"components": [
								{
									"internalType": "string",
									"name": "task",
									"type": "string"
								},
								{
									"internalType": "bool",
									"name": "isDone",
									"type": "bool"
								}
							],
							"internalType": "struct Bloc.Task",
							"name": "",
							"type": "tuple"
						}
					],
					"stateMutability": "view",
					"type": "function"
				},
				{
					"inputs": [],
					"name": "getTaskCount",
					"outputs": [
						{
							"internalType": "uint256",
							"name": "",
							"type": "uint256"
						}
					],
					"stateMutability": "view",
					"type": "function"
				},
				{
					"inputs": [
						{
							"internalType": "uint256",
							"name": "_taskIndex",
							"type": "uint256"
						},
						{
							"internalType": "bool",
							"name": "_status",
							"type": "bool"
						}
					],
					"name": "updateStatus",
					"outputs": [],
					"stateMutability": "nonpayable",
					"type": "function"
				}
			],
			"devdoc": {
				"kind": "dev",
				"methods": {
					"addTask(string)": {
						"params": {
							"_task": "The description of the task to add"
						}
					},
					"deleteTask(uint256)": {
						"params": {
							"_taskIndex": "The index of the task to delete"
						}
					},
					"getTask(uint256)": {
						"params": {
							"_taskIndex": "The index of the task to retrieve"
						},
						"returns": {
							"_0": "The task details (description and status)"
						}
					},
					"getTaskCount()": {
						"returns": {
							"_0": "The count of tasks"
						}
					},
					"updateStatus(uint256,bool)": {
						"params": {
							"_status": "The new status of the task (true for done, false for not done)",
							"_taskIndex": "The index of the task to update"
						}
					}
				},
				"title": "A contract to demonstrate how to build a to-do list application",
				"version": 1
			},
			"evm": {
				"assembly": "    /* \"contracts/bloc.sol\":248:2448  contract Bloc {... */\n  mstore(0x40, 0x80)\n  callvalue\n  dup1\n  iszero\n  tag_1\n  jumpi\n  0x00\n  dup1\n  revert\ntag_1:\n  pop\n  dataSize(sub_0)\n  dup1\n  dataOffset(sub_0)\n  0x00\n  codecopy\n  0x00\n  return\nstop\n\nsub_0: assembly {\n        /* \"contracts/bloc.sol\":248:2448  contract Bloc {... */\n      mstore(0x40, 0x80)\n      callvalue\n      dup1\n      iszero\n      tag_1\n      jumpi\n      0x00\n      dup1\n      revert\n    tag_1:\n      pop\n      jumpi(tag_2, lt(calldatasize, 0x04))\n      shr(0xe0, calldataload(0x00))\n      dup1\n      0x1d65e77e\n      eq\n      tag_3\n      jumpi\n      dup1\n      0x387008c2\n      eq\n      tag_4\n      jumpi\n      dup1\n      0x560f3192\n      eq\n      tag_5\n      jumpi\n      dup1\n      0x67238562\n      eq\n      tag_6\n      jumpi\n      dup1\n      0xc17a340e\n      eq\n      tag_7\n      jumpi\n    tag_2:\n      0x00\n      dup1\n      revert\n        /* \"contracts/bloc.sol\":1165:1404  function getTask(uint _taskIndex) external view returns (Task memory) {... */\n    tag_3:\n      tag_8\n      0x04\n      dup1\n      calldatasize\n      sub\n      dup2\n      add\n      swap1\n      tag_9\n      swap2\n      swap1\n      tag_10\n      jump\t// in\n    tag_9:\n      tag_11\n      jump\t// in\n    tag_8:\n      mload(0x40)\n      tag_12\n      swap2\n      swap1\n      tag_13\n      jump\t// in\n    tag_12:\n      mload(0x40)\n      dup1\n      swap2\n      sub\n      swap1\n      return\n        /* \"contracts/bloc.sol\":1633:1855  function updateStatus(uint256 _taskIndex, bool _status) external {... */\n    tag_4:\n      tag_14\n      0x04\n      dup1\n      calldatasize\n      sub\n      dup2\n      add\n      swap1\n      tag_15\n      swap2\n      swap1\n      tag_16\n      jump\t// in\n    tag_15:\n      tag_17\n      jump\t// in\n    tag_14:\n      stop\n        /* \"contracts/bloc.sol\":1985:2167  function deleteTask(uint256 _taskIndex) external {... */\n    tag_5:\n      tag_18\n      0x04\n      dup1\n      calldatasize\n      sub\n      dup2\n      add\n      swap1\n      tag_19\n      swap2\n      swap1\n      tag_10\n      jump\t// in\n    tag_19:\n      tag_20\n      jump\t// in\n    tag_18:\n      stop\n        /* \"contracts/bloc.sol\":706:962  function addTask(string calldata _task) external {... */\n    tag_6:\n      tag_21\n      0x04\n      dup1\n      calldatasize\n      sub\n      dup2\n      add\n      swap1\n      tag_22\n      swap2\n      swap1\n      tag_23\n      jump\t// in\n    tag_22:\n      tag_24\n      jump\t// in\n    tag_21:\n      stop\n        /* \"contracts/bloc.sol\":2282:2445  function getTaskCount() external view returns (uint256) {... */\n    tag_7:\n      tag_25\n      tag_26\n      jump\t// in\n    tag_25:\n      mload(0x40)\n      tag_27\n      swap2\n      swap1\n      tag_28\n      jump\t// in\n    tag_27:\n      mload(0x40)\n      dup1\n      swap2\n      sub\n      swap1\n      return\n        /* \"contracts/bloc.sol\":1165:1404  function getTask(uint _taskIndex) external view returns (Task memory) {... */\n    tag_11:\n        /* \"contracts/bloc.sol\":1222:1233  Task memory */\n      tag_29\n      tag_30\n      jump\t// in\n    tag_29:\n        /* \"contracts/bloc.sol\":1325:1342  Task storage task */\n      0x00\n        /* \"contracts/bloc.sol\":1345:1350  Users */\n      dup1\n        /* \"contracts/bloc.sol\":1345:1362  Users[msg.sender] */\n      0x00\n        /* \"contracts/bloc.sol\":1351:1361  msg.sender */\n      caller\n        /* \"contracts/bloc.sol\":1345:1362  Users[msg.sender] */\n      0xffffffffffffffffffffffffffffffffffffffff\n      and\n      0xffffffffffffffffffffffffffffffffffffffff\n      and\n      dup2\n      mstore\n      0x20\n      add\n      swap1\n      dup2\n      mstore\n      0x20\n      add\n      0x00\n      keccak256\n        /* \"contracts/bloc.sol\":1363:1373  _taskIndex */\n      dup4\n        /* \"contracts/bloc.sol\":1345:1374  Users[msg.sender][_taskIndex] */\n      dup2\n      sload\n      dup2\n      lt\n      tag_32\n      jumpi\n      tag_33\n      tag_34\n      jump\t// in\n    tag_33:\n    tag_32:\n      swap1\n      0x00\n      mstore\n      keccak256(0x00, 0x20)\n      swap1\n      0x02\n      mul\n      add\n        /* \"contracts/bloc.sol\":1325:1374  Task storage task = Users[msg.sender][_taskIndex] */\n      swap1\n      pop\n        /* \"contracts/bloc.sol\":1392:1396  task */\n      dup1\n        /* \"contracts/bloc.sol\":1385:1396  return task */\n      mload(0x40)\n      dup1\n      0x40\n      add\n      0x40\n      mstore\n      swap1\n      dup2\n      0x00\n      dup3\n      add\n      dup1\n      sload\n      tag_36\n      swap1\n      tag_37\n      jump\t// in\n    tag_36:\n      dup1\n      0x1f\n      add\n      0x20\n      dup1\n      swap2\n      div\n      mul\n      0x20\n      add\n      mload(0x40)\n      swap1\n      dup2\n      add\n      0x40\n      mstore\n      dup1\n      swap3\n      swap2\n      swap1\n      dup2\n      dup2\n      mstore\n      0x20\n      add\n      dup3\n      dup1\n      sload\n      tag_38\n      swap1\n      tag_37\n      jump\t// in\n    tag_38:\n      dup1\n      iszero\n      tag_39\n      jumpi\n      dup1\n      0x1f\n      lt\n      tag_40\n      jumpi\n      0x0100\n      dup1\n      dup4\n      sload\n      div\n      mul\n      dup4\n      mstore\n      swap2\n      0x20\n      add\n      swap2\n      jump(tag_39)\n    tag_40:\n      dup3\n      add\n      swap2\n      swap1\n      0x00\n      mstore\n      keccak256(0x00, 0x20)\n      swap1\n    tag_41:\n      dup2\n      sload\n      dup2\n      mstore\n      swap1\n      0x01\n      add\n      swap1\n      0x20\n      add\n      dup1\n      dup4\n      gt\n      tag_41\n      jumpi\n      dup3\n      swap1\n      sub\n      0x1f\n      and\n      dup3\n      add\n      swap2\n    tag_39:\n      pop\n      pop\n      pop\n      pop\n      pop\n      dup2\n      mstore\n      0x20\n      add\n      0x01\n      dup3\n      add\n      0x00\n      swap1\n      sload\n      swap1\n      0x0100\n      exp\n      swap1\n      div\n      0xff\n      and\n      iszero\n      iszero\n      iszero\n      iszero\n      dup2\n      mstore\n      pop\n      pop\n      swap2\n      pop\n      pop\n        /* \"contracts/bloc.sol\":1165:1404  function getTask(uint _taskIndex) external view returns (Task memory) {... */\n      swap2\n      swap1\n      pop\n      jump\t// out\n        /* \"contracts/bloc.sol\":1633:1855  function updateStatus(uint256 _taskIndex, bool _status) external {... */\n    tag_17:\n        /* \"contracts/bloc.sol\":1840:1847  _status */\n      dup1\n        /* \"contracts/bloc.sol\":1801:1806  Users */\n      0x00\n        /* \"contracts/bloc.sol\":1801:1818  Users[msg.sender] */\n      dup1\n        /* \"contracts/bloc.sol\":1807:1817  msg.sender */\n      caller\n        /* \"contracts/bloc.sol\":1801:1818  Users[msg.sender] */\n      0xffffffffffffffffffffffffffffffffffffffff\n      and\n      0xffffffffffffffffffffffffffffffffffffffff\n      and\n      dup2\n      mstore\n      0x20\n      add\n      swap1\n      dup2\n      mstore\n      0x20\n      add\n      0x00\n      keccak256\n        /* \"contracts/bloc.sol\":1819:1829  _taskIndex */\n      dup4\n        /* \"contracts/bloc.sol\":1801:1830  Users[msg.sender][_taskIndex] */\n      dup2\n      sload\n      dup2\n      lt\n      tag_43\n      jumpi\n      tag_44\n      tag_34\n      jump\t// in\n    tag_44:\n    tag_43:\n      swap1\n      0x00\n      mstore\n      keccak256(0x00, 0x20)\n      swap1\n      0x02\n      mul\n      add\n        /* \"contracts/bloc.sol\":1801:1837  Users[msg.sender][_taskIndex].isDone */\n      0x01\n      add\n      0x00\n        /* \"contracts/bloc.sol\":1801:1847  Users[msg.sender][_taskIndex].isDone = _status */\n      0x0100\n      exp\n      dup2\n      sload\n      dup2\n      0xff\n      mul\n      not\n      and\n      swap1\n      dup4\n      iszero\n      iszero\n      mul\n      or\n      swap1\n      sstore\n      pop\n        /* \"contracts/bloc.sol\":1633:1855  function updateStatus(uint256 _taskIndex, bool _status) external {... */\n      pop\n      pop\n      jump\t// out\n        /* \"contracts/bloc.sol\":1985:2167  function deleteTask(uint256 _taskIndex) external {... */\n    tag_20:\n        /* \"contracts/bloc.sol\":2130:2135  Users */\n      0x00\n        /* \"contracts/bloc.sol\":2130:2147  Users[msg.sender] */\n      dup1\n        /* \"contracts/bloc.sol\":2136:2146  msg.sender */\n      caller\n        /* \"contracts/bloc.sol\":2130:2147  Users[msg.sender] */\n      0xffffffffffffffffffffffffffffffffffffffff\n      and\n      0xffffffffffffffffffffffffffffffffffffffff\n      and\n      dup2\n      mstore\n      0x20\n      add\n      swap1\n      dup2\n      mstore\n      0x20\n      add\n      0x00\n      keccak256\n        /* \"contracts/bloc.sol\":2148:2158  _taskIndex */\n      dup2\n        /* \"contracts/bloc.sol\":2130:2159  Users[msg.sender][_taskIndex] */\n      dup2\n      sload\n      dup2\n      lt\n      tag_47\n      jumpi\n      tag_48\n      tag_34\n      jump\t// in\n    tag_48:\n    tag_47:\n      swap1\n      0x00\n      mstore\n      keccak256(0x00, 0x20)\n      swap1\n      0x02\n      mul\n      add\n      0x00\n        /* \"contracts/bloc.sol\":2123:2159  delete Users[msg.sender][_taskIndex] */\n      dup1\n      dup3\n      add\n      0x00\n      tag_50\n      swap2\n      swap1\n      tag_51\n      jump\t// in\n    tag_50:\n      0x01\n      dup3\n      add\n      exp(0x0100, 0x00)\n      dup2\n      sload\n      swap1\n      0xff\n      mul\n      not\n      and\n      swap1\n      sstore\n      pop\n      pop\n        /* \"contracts/bloc.sol\":1985:2167  function deleteTask(uint256 _taskIndex) external {... */\n      pop\n      jump\t// out\n        /* \"contracts/bloc.sol\":706:962  function addTask(string calldata _task) external {... */\n    tag_24:\n        /* \"contracts/bloc.sol\":859:864  Users */\n      0x00\n        /* \"contracts/bloc.sol\":859:876  Users[msg.sender] */\n      dup1\n        /* \"contracts/bloc.sol\":865:875  msg.sender */\n      caller\n        /* \"contracts/bloc.sol\":859:876  Users[msg.sender] */\n      0xffffffffffffffffffffffffffffffffffffffff\n      and\n      0xffffffffffffffffffffffffffffffffffffffff\n      and\n      dup2\n      mstore\n      0x20\n      add\n      swap1\n      dup2\n      mstore\n      0x20\n      add\n      0x00\n      keccak256\n        /* \"contracts/bloc.sol\":882:953  Task({... */\n      mload(0x40)\n      dup1\n      0x40\n      add\n      0x40\n      mstore\n      dup1\n        /* \"contracts/bloc.sol\":908:913  _task */\n      dup5\n      dup5\n        /* \"contracts/bloc.sol\":882:953  Task({... */\n      dup1\n      dup1\n      0x1f\n      add\n      0x20\n      dup1\n      swap2\n      div\n      mul\n      0x20\n      add\n      mload(0x40)\n      swap1\n      dup2\n      add\n      0x40\n      mstore\n      dup1\n      swap4\n      swap3\n      swap2\n      swap1\n      dup2\n      dup2\n      mstore\n      0x20\n      add\n      dup4\n      dup4\n      dup1\n      dup3\n      dup5\n      calldatacopy\n      0x00\n      dup2\n      dup5\n      add\n      mstore\n      not(0x1f)\n      0x1f\n      dup3\n      add\n      and\n      swap1\n      pop\n      dup1\n      dup4\n      add\n      swap3\n      pop\n      pop\n      pop\n      pop\n      pop\n      pop\n      pop\n      dup2\n      mstore\n      0x20\n      add\n        /* \"contracts/bloc.sol\":936:941  false */\n      0x00\n        /* \"contracts/bloc.sol\":882:953  Task({... */\n      iszero\n      iszero\n      dup2\n      mstore\n      pop\n        /* \"contracts/bloc.sol\":859:954  Users[msg.sender].push(Task({... */\n      swap1\n      dup1\n      0x01\n      dup2\n      sload\n      add\n      dup1\n      dup3\n      sstore\n      dup1\n      swap2\n      pop\n      pop\n      0x01\n      swap1\n      sub\n      swap1\n      0x00\n      mstore\n      keccak256(0x00, 0x20)\n      swap1\n      0x02\n      mul\n      add\n      0x00\n      swap1\n      swap2\n      swap1\n      swap2\n      swap1\n      swap2\n      pop\n      0x00\n      dup3\n      add\n      mload\n      dup2\n      0x00\n      add\n      swap1\n      dup2\n      tag_54\n      swap2\n      swap1\n      tag_55\n      jump\t// in\n    tag_54:\n      pop\n      0x20\n      dup3\n      add\n      mload\n      dup2\n      0x01\n      add\n      exp(0x0100, 0x00)\n      dup2\n      sload\n      dup2\n      0xff\n      mul\n      not\n      and\n      swap1\n      dup4\n      iszero\n      iszero\n      mul\n      or\n      swap1\n      sstore\n      pop\n      pop\n      pop\n        /* \"contracts/bloc.sol\":706:962  function addTask(string calldata _task) external {... */\n      pop\n      pop\n      jump\t// out\n        /* \"contracts/bloc.sol\":2282:2445  function getTaskCount() external view returns (uint256) {... */\n    tag_26:\n        /* \"contracts/bloc.sol\":2329:2336  uint256 */\n      0x00\n        /* \"contracts/bloc.sol\":2413:2418  Users */\n      dup1\n        /* \"contracts/bloc.sol\":2413:2430  Users[msg.sender] */\n      0x00\n        /* \"contracts/bloc.sol\":2419:2429  msg.sender */\n      caller\n        /* \"contracts/bloc.sol\":2413:2430  Users[msg.sender] */\n      0xffffffffffffffffffffffffffffffffffffffff\n      and\n      0xffffffffffffffffffffffffffffffffffffffff\n      and\n      dup2\n      mstore\n      0x20\n      add\n      swap1\n      dup2\n      mstore\n      0x20\n      add\n      0x00\n      keccak256\n        /* \"contracts/bloc.sol\":2413:2437  Users[msg.sender].length */\n      dup1\n      sload\n      swap1\n      pop\n        /* \"contracts/bloc.sol\":2406:2437  return Users[msg.sender].length */\n      swap1\n      pop\n        /* \"contracts/bloc.sol\":2282:2445  function getTaskCount() external view returns (uint256) {... */\n      swap1\n      jump\t// out\n    tag_30:\n      mload(0x40)\n      dup1\n      0x40\n      add\n      0x40\n      mstore\n      dup1\n      0x60\n      dup2\n      mstore\n      0x20\n      add\n      iszero(iszero(0x00))\n      dup2\n      mstore\n      pop\n      swap1\n      jump\t// out\n    tag_51:\n      pop\n      dup1\n      sload\n      tag_57\n      swap1\n      tag_37\n      jump\t// in\n    tag_57:\n      0x00\n      dup3\n      sstore\n      dup1\n      0x1f\n      lt\n      tag_59\n      jumpi\n      pop\n      jump(tag_58)\n    tag_59:\n      0x1f\n      add\n      0x20\n      swap1\n      div\n      swap1\n      0x00\n      mstore\n      keccak256(0x00, 0x20)\n      swap1\n      dup2\n      add\n      swap1\n      tag_60\n      swap2\n      swap1\n      tag_61\n      jump\t// in\n    tag_60:\n    tag_58:\n      pop\n      jump\t// out\n    tag_61:\n    tag_62:\n      dup1\n      dup3\n      gt\n      iszero\n      tag_63\n      jumpi\n      0x00\n      dup2\n      0x00\n      swap1\n      sstore\n      pop\n      0x01\n      add\n      jump(tag_62)\n    tag_63:\n      pop\n      swap1\n      jump\t// out\n        /* \"#utility.yul\":88:205   */\n    tag_65:\n        /* \"#utility.yul\":197:198   */\n      0x00\n        /* \"#utility.yul\":194:195   */\n      dup1\n        /* \"#utility.yul\":187:199   */\n      revert\n        /* \"#utility.yul\":211:328   */\n    tag_66:\n        /* \"#utility.yul\":320:321   */\n      0x00\n        /* \"#utility.yul\":317:318   */\n      dup1\n        /* \"#utility.yul\":310:322   */\n      revert\n        /* \"#utility.yul\":334:411   */\n    tag_67:\n        /* \"#utility.yul\":371:378   */\n      0x00\n        /* \"#utility.yul\":400:405   */\n      dup2\n        /* \"#utility.yul\":389:405   */\n      swap1\n      pop\n        /* \"#utility.yul\":334:411   */\n      swap2\n      swap1\n      pop\n      jump\t// out\n        /* \"#utility.yul\":417:539   */\n    tag_68:\n        /* \"#utility.yul\":490:514   */\n      tag_108\n        /* \"#utility.yul\":508:513   */\n      dup2\n        /* \"#utility.yul\":490:514   */\n      tag_67\n      jump\t// in\n    tag_108:\n        /* \"#utility.yul\":483:488   */\n      dup2\n        /* \"#utility.yul\":480:515   */\n      eq\n        /* \"#utility.yul\":470:533   */\n      tag_109\n      jumpi\n        /* \"#utility.yul\":529:530   */\n      0x00\n        /* \"#utility.yul\":526:527   */\n      dup1\n        /* \"#utility.yul\":519:531   */\n      revert\n        /* \"#utility.yul\":470:533   */\n    tag_109:\n        /* \"#utility.yul\":417:539   */\n      pop\n      jump\t// out\n        /* \"#utility.yul\":545:684   */\n    tag_69:\n        /* \"#utility.yul\":591:596   */\n      0x00\n        /* \"#utility.yul\":629:635   */\n      dup2\n        /* \"#utility.yul\":616:636   */\n      calldataload\n        /* \"#utility.yul\":607:636   */\n      swap1\n      pop\n        /* \"#utility.yul\":645:678   */\n      tag_111\n        /* \"#utility.yul\":672:677   */\n      dup2\n        /* \"#utility.yul\":645:678   */\n      tag_68\n      jump\t// in\n    tag_111:\n        /* \"#utility.yul\":545:684   */\n      swap3\n      swap2\n      pop\n      pop\n      jump\t// out\n        /* \"#utility.yul\":690:1019   */\n    tag_10:\n        /* \"#utility.yul\":749:755   */\n      0x00\n        /* \"#utility.yul\":798:800   */\n      0x20\n        /* \"#utility.yul\":786:795   */\n      dup3\n        /* \"#utility.yul\":777:784   */\n      dup5\n        /* \"#utility.yul\":773:796   */\n      sub\n        /* \"#utility.yul\":769:801   */\n      slt\n        /* \"#utility.yul\":766:885   */\n      iszero\n      tag_113\n      jumpi\n        /* \"#utility.yul\":804:883   */\n      tag_114\n      tag_65\n      jump\t// in\n    tag_114:\n        /* \"#utility.yul\":766:885   */\n    tag_113:\n        /* \"#utility.yul\":924:925   */\n      0x00\n        /* \"#utility.yul\":949:1002   */\n      tag_115\n        /* \"#utility.yul\":994:1001   */\n      dup5\n        /* \"#utility.yul\":985:991   */\n      dup3\n        /* \"#utility.yul\":974:983   */\n      dup6\n        /* \"#utility.yul\":970:992   */\n      add\n        /* \"#utility.yul\":949:1002   */\n      tag_69\n      jump\t// in\n    tag_115:\n        /* \"#utility.yul\":939:1002   */\n      swap2\n      pop\n        /* \"#utility.yul\":895:1012   */\n      pop\n        /* \"#utility.yul\":690:1019   */\n      swap3\n      swap2\n      pop\n      pop\n      jump\t// out\n        /* \"#utility.yul\":1025:1124   */\n    tag_70:\n        /* \"#utility.yul\":1077:1083   */\n      0x00\n        /* \"#utility.yul\":1111:1116   */\n      dup2\n        /* \"#utility.yul\":1105:1117   */\n      mload\n        /* \"#utility.yul\":1095:1117   */\n      swap1\n      pop\n        /* \"#utility.yul\":1025:1124   */\n      swap2\n      swap1\n      pop\n      jump\t// out\n        /* \"#utility.yul\":1130:1289   */\n    tag_71:\n        /* \"#utility.yul\":1204:1215   */\n      0x00\n        /* \"#utility.yul\":1238:1244   */\n      dup3\n        /* \"#utility.yul\":1233:1236   */\n      dup3\n        /* \"#utility.yul\":1226:1245   */\n      mstore\n        /* \"#utility.yul\":1278:1282   */\n      0x20\n        /* \"#utility.yul\":1273:1276   */\n      dup3\n        /* \"#utility.yul\":1269:1283   */\n      add\n        /* \"#utility.yul\":1254:1283   */\n      swap1\n      pop\n        /* \"#utility.yul\":1130:1289   */\n      swap3\n      swap2\n      pop\n      pop\n      jump\t// out\n        /* \"#utility.yul\":1295:1434   */\n    tag_72:\n        /* \"#utility.yul\":1384:1390   */\n      dup3\n        /* \"#utility.yul\":1379:1382   */\n      dup2\n        /* \"#utility.yul\":1374:1377   */\n      dup4\n        /* \"#utility.yul\":1368:1391   */\n      mcopy\n        /* \"#utility.yul\":1425:1426   */\n      0x00\n        /* \"#utility.yul\":1416:1422   */\n      dup4\n        /* \"#utility.yul\":1411:1414   */\n      dup4\n        /* \"#utility.yul\":1407:1423   */\n      add\n        /* \"#utility.yul\":1400:1427   */\n      mstore\n        /* \"#utility.yul\":1295:1434   */\n      pop\n      pop\n      pop\n      jump\t// out\n        /* \"#utility.yul\":1440:1542   */\n    tag_73:\n        /* \"#utility.yul\":1481:1487   */\n      0x00\n        /* \"#utility.yul\":1532:1534   */\n      0x1f\n        /* \"#utility.yul\":1528:1535   */\n      not\n        /* \"#utility.yul\":1523:1525   */\n      0x1f\n        /* \"#utility.yul\":1516:1521   */\n      dup4\n        /* \"#utility.yul\":1512:1526   */\n      add\n        /* \"#utility.yul\":1508:1536   */\n      and\n        /* \"#utility.yul\":1498:1536   */\n      swap1\n      pop\n        /* \"#utility.yul\":1440:1542   */\n      swap2\n      swap1\n      pop\n      jump\t// out\n        /* \"#utility.yul\":1548:1905   */\n    tag_74:\n        /* \"#utility.yul\":1626:1629   */\n      0x00\n        /* \"#utility.yul\":1654:1693   */\n      tag_121\n        /* \"#utility.yul\":1687:1692   */\n      dup3\n        /* \"#utility.yul\":1654:1693   */\n      tag_70\n      jump\t// in\n    tag_121:\n        /* \"#utility.yul\":1709:1770   */\n      tag_122\n        /* \"#utility.yul\":1763:1769   */\n      dup2\n        /* \"#utility.yul\":1758:1761   */\n      dup6\n        /* \"#utility.yul\":1709:1770   */\n      tag_71\n      jump\t// in\n    tag_122:\n        /* \"#utility.yul\":1702:1770   */\n      swap4\n      pop\n        /* \"#utility.yul\":1779:1844   */\n      tag_123\n        /* \"#utility.yul\":1837:1843   */\n      dup2\n        /* \"#utility.yul\":1832:1835   */\n      dup6\n        /* \"#utility.yul\":1825:1829   */\n      0x20\n        /* \"#utility.yul\":1818:1823   */\n      dup7\n        /* \"#utility.yul\":1814:1830   */\n      add\n        /* \"#utility.yul\":1779:1844   */\n      tag_72\n      jump\t// in\n    tag_123:\n        /* \"#utility.yul\":1869:1898   */\n      tag_124\n        /* \"#utility.yul\":1891:1897   */\n      dup2\n        /* \"#utility.yul\":1869:1898   */\n      tag_73\n      jump\t// in\n    tag_124:\n        /* \"#utility.yul\":1864:1867   */\n      dup5\n        /* \"#utility.yul\":1860:1899   */\n      add\n        /* \"#utility.yul\":1853:1899   */\n      swap2\n      pop\n        /* \"#utility.yul\":1630:1905   */\n      pop\n        /* \"#utility.yul\":1548:1905   */\n      swap3\n      swap2\n      pop\n      pop\n      jump\t// out\n        /* \"#utility.yul\":1911:2001   */\n    tag_75:\n        /* \"#utility.yul\":1945:1952   */\n      0x00\n        /* \"#utility.yul\":1988:1993   */\n      dup2\n        /* \"#utility.yul\":1981:1994   */\n      iszero\n        /* \"#utility.yul\":1974:1995   */\n      iszero\n        /* \"#utility.yul\":1963:1995   */\n      swap1\n      pop\n        /* \"#utility.yul\":1911:2001   */\n      swap2\n      swap1\n      pop\n      jump\t// out\n        /* \"#utility.yul\":2007:2106   */\n    tag_76:\n        /* \"#utility.yul\":2078:2099   */\n      tag_127\n        /* \"#utility.yul\":2093:2098   */\n      dup2\n        /* \"#utility.yul\":2078:2099   */\n      tag_75\n      jump\t// in\n    tag_127:\n        /* \"#utility.yul\":2073:2076   */\n      dup3\n        /* \"#utility.yul\":2066:2100   */\n      mstore\n        /* \"#utility.yul\":2007:2106   */\n      pop\n      pop\n      jump\t// out\n        /* \"#utility.yul\":2156:2746   */\n    tag_77:\n        /* \"#utility.yul\":2263:2266   */\n      0x00\n        /* \"#utility.yul\":2299:2303   */\n      0x40\n        /* \"#utility.yul\":2294:2297   */\n      dup4\n        /* \"#utility.yul\":2290:2304   */\n      add\n        /* \"#utility.yul\":2386:2390   */\n      0x00\n        /* \"#utility.yul\":2379:2384   */\n      dup4\n        /* \"#utility.yul\":2375:2391   */\n      add\n        /* \"#utility.yul\":2369:2392   */\n      mload\n        /* \"#utility.yul\":2439:2442   */\n      dup5\n        /* \"#utility.yul\":2433:2437   */\n      dup3\n        /* \"#utility.yul\":2429:2443   */\n      sub\n        /* \"#utility.yul\":2422:2426   */\n      0x00\n        /* \"#utility.yul\":2417:2420   */\n      dup7\n        /* \"#utility.yul\":2413:2427   */\n      add\n        /* \"#utility.yul\":2406:2444   */\n      mstore\n        /* \"#utility.yul\":2465:2538   */\n      tag_129\n        /* \"#utility.yul\":2533:2537   */\n      dup3\n        /* \"#utility.yul\":2519:2531   */\n      dup3\n        /* \"#utility.yul\":2465:2538   */\n      tag_74\n      jump\t// in\n    tag_129:\n        /* \"#utility.yul\":2457:2538   */\n      swap2\n      pop\n        /* \"#utility.yul\":2314:2549   */\n      pop\n        /* \"#utility.yul\":2633:2637   */\n      0x20\n        /* \"#utility.yul\":2626:2631   */\n      dup4\n        /* \"#utility.yul\":2622:2638   */\n      add\n        /* \"#utility.yul\":2616:2639   */\n      mload\n        /* \"#utility.yul\":2652:2709   */\n      tag_130\n        /* \"#utility.yul\":2703:2707   */\n      0x20\n        /* \"#utility.yul\":2698:2701   */\n      dup7\n        /* \"#utility.yul\":2694:2708   */\n      add\n        /* \"#utility.yul\":2680:2692   */\n      dup3\n        /* \"#utility.yul\":2652:2709   */\n      tag_76\n      jump\t// in\n    tag_130:\n        /* \"#utility.yul\":2559:2719   */\n      pop\n        /* \"#utility.yul\":2736:2740   */\n      dup1\n        /* \"#utility.yul\":2729:2740   */\n      swap2\n      pop\n        /* \"#utility.yul\":2268:2746   */\n      pop\n        /* \"#utility.yul\":2156:2746   */\n      swap3\n      swap2\n      pop\n      pop\n      jump\t// out\n        /* \"#utility.yul\":2752:3101   */\n    tag_13:\n        /* \"#utility.yul\":2883:2887   */\n      0x00\n        /* \"#utility.yul\":2921:2923   */\n      0x20\n        /* \"#utility.yul\":2910:2919   */\n      dup3\n        /* \"#utility.yul\":2906:2924   */\n      add\n        /* \"#utility.yul\":2898:2924   */\n      swap1\n      pop\n        /* \"#utility.yul\":2970:2979   */\n      dup2\n        /* \"#utility.yul\":2964:2968   */\n      dup2\n        /* \"#utility.yul\":2960:2980   */\n      sub\n        /* \"#utility.yul\":2956:2957   */\n      0x00\n        /* \"#utility.yul\":2945:2954   */\n      dup4\n        /* \"#utility.yul\":2941:2958   */\n      add\n        /* \"#utility.yul\":2934:2981   */\n      mstore\n        /* \"#utility.yul\":2998:3094   */\n      tag_132\n        /* \"#utility.yul\":3089:3093   */\n      dup2\n        /* \"#utility.yul\":3080:3086   */\n      dup5\n        /* \"#utility.yul\":2998:3094   */\n      tag_77\n      jump\t// in\n    tag_132:\n        /* \"#utility.yul\":2990:3094   */\n      swap1\n      pop\n        /* \"#utility.yul\":2752:3101   */\n      swap3\n      swap2\n      pop\n      pop\n      jump\t// out\n        /* \"#utility.yul\":3107:3223   */\n    tag_78:\n        /* \"#utility.yul\":3177:3198   */\n      tag_134\n        /* \"#utility.yul\":3192:3197   */\n      dup2\n        /* \"#utility.yul\":3177:3198   */\n      tag_75\n      jump\t// in\n    tag_134:\n        /* \"#utility.yul\":3170:3175   */\n      dup2\n        /* \"#utility.yul\":3167:3199   */\n      eq\n        /* \"#utility.yul\":3157:3217   */\n      tag_135\n      jumpi\n        /* \"#utility.yul\":3213:3214   */\n      0x00\n        /* \"#utility.yul\":3210:3211   */\n      dup1\n        /* \"#utility.yul\":3203:3215   */\n      revert\n        /* \"#utility.yul\":3157:3217   */\n    tag_135:\n        /* \"#utility.yul\":3107:3223   */\n      pop\n      jump\t// out\n        /* \"#utility.yul\":3229:3362   */\n    tag_79:\n        /* \"#utility.yul\":3272:3277   */\n      0x00\n        /* \"#utility.yul\":3310:3316   */\n      dup2\n        /* \"#utility.yul\":3297:3317   */\n      calldataload\n        /* \"#utility.yul\":3288:3317   */\n      swap1\n      pop\n        /* \"#utility.yul\":3326:3356   */\n      tag_137\n        /* \"#utility.yul\":3350:3355   */\n      dup2\n        /* \"#utility.yul\":3326:3356   */\n      tag_78\n      jump\t// in\n    tag_137:\n        /* \"#utility.yul\":3229:3362   */\n      swap3\n      swap2\n      pop\n      pop\n      jump\t// out\n        /* \"#utility.yul\":3368:3836   */\n    tag_16:\n        /* \"#utility.yul\":3433:3439   */\n      0x00\n        /* \"#utility.yul\":3441:3447   */\n      dup1\n        /* \"#utility.yul\":3490:3492   */\n      0x40\n        /* \"#utility.yul\":3478:3487   */\n      dup4\n        /* \"#utility.yul\":3469:3476   */\n      dup6\n        /* \"#utility.yul\":3465:3488   */\n      sub\n        /* \"#utility.yul\":3461:3493   */\n      slt\n        /* \"#utility.yul\":3458:3577   */\n      iszero\n      tag_139\n      jumpi\n        /* \"#utility.yul\":3496:3575   */\n      tag_140\n      tag_65\n      jump\t// in\n    tag_140:\n        /* \"#utility.yul\":3458:3577   */\n    tag_139:\n        /* \"#utility.yul\":3616:3617   */\n      0x00\n        /* \"#utility.yul\":3641:3694   */\n      tag_141\n        /* \"#utility.yul\":3686:3693   */\n      dup6\n        /* \"#utility.yul\":3677:3683   */\n      dup3\n        /* \"#utility.yul\":3666:3675   */\n      dup7\n        /* \"#utility.yul\":3662:3684   */\n      add\n        /* \"#utility.yul\":3641:3694   */\n      tag_69\n      jump\t// in\n    tag_141:\n        /* \"#utility.yul\":3631:3694   */\n      swap3\n      pop\n        /* \"#utility.yul\":3587:3704   */\n      pop\n        /* \"#utility.yul\":3743:3745   */\n      0x20\n        /* \"#utility.yul\":3769:3819   */\n      tag_142\n        /* \"#utility.yul\":3811:3818   */\n      dup6\n        /* \"#utility.yul\":3802:3808   */\n      dup3\n        /* \"#utility.yul\":3791:3800   */\n      dup7\n        /* \"#utility.yul\":3787:3809   */\n      add\n        /* \"#utility.yul\":3769:3819   */\n      tag_79\n      jump\t// in\n    tag_142:\n        /* \"#utility.yul\":3759:3819   */\n      swap2\n      pop\n        /* \"#utility.yul\":3714:3829   */\n      pop\n        /* \"#utility.yul\":3368:3836   */\n      swap3\n      pop\n      swap3\n      swap1\n      pop\n      jump\t// out\n        /* \"#utility.yul\":3842:3959   */\n    tag_80:\n        /* \"#utility.yul\":3951:3952   */\n      0x00\n        /* \"#utility.yul\":3948:3949   */\n      dup1\n        /* \"#utility.yul\":3941:3953   */\n      revert\n        /* \"#utility.yul\":3965:4082   */\n    tag_81:\n        /* \"#utility.yul\":4074:4075   */\n      0x00\n        /* \"#utility.yul\":4071:4072   */\n      dup1\n        /* \"#utility.yul\":4064:4076   */\n      revert\n        /* \"#utility.yul\":4088:4205   */\n    tag_82:\n        /* \"#utility.yul\":4197:4198   */\n      0x00\n        /* \"#utility.yul\":4194:4195   */\n      dup1\n        /* \"#utility.yul\":4187:4199   */\n      revert\n        /* \"#utility.yul\":4225:4778   */\n    tag_83:\n        /* \"#utility.yul\":4283:4291   */\n      0x00\n        /* \"#utility.yul\":4293:4299   */\n      dup1\n        /* \"#utility.yul\":4343:4346   */\n      dup4\n        /* \"#utility.yul\":4336:4340   */\n      0x1f\n        /* \"#utility.yul\":4328:4334   */\n      dup5\n        /* \"#utility.yul\":4324:4341   */\n      add\n        /* \"#utility.yul\":4320:4347   */\n      slt\n        /* \"#utility.yul\":4310:4432   */\n      tag_147\n      jumpi\n        /* \"#utility.yul\":4351:4430   */\n      tag_148\n      tag_80\n      jump\t// in\n    tag_148:\n        /* \"#utility.yul\":4310:4432   */\n    tag_147:\n        /* \"#utility.yul\":4464:4470   */\n      dup3\n        /* \"#utility.yul\":4451:4471   */\n      calldataload\n        /* \"#utility.yul\":4441:4471   */\n      swap1\n      pop\n        /* \"#utility.yul\":4494:4512   */\n      0xffffffffffffffff\n        /* \"#utility.yul\":4486:4492   */\n      dup2\n        /* \"#utility.yul\":4483:4513   */\n      gt\n        /* \"#utility.yul\":4480:4597   */\n      iszero\n      tag_149\n      jumpi\n        /* \"#utility.yul\":4516:4595   */\n      tag_150\n      tag_81\n      jump\t// in\n    tag_150:\n        /* \"#utility.yul\":4480:4597   */\n    tag_149:\n        /* \"#utility.yul\":4630:4634   */\n      0x20\n        /* \"#utility.yul\":4622:4628   */\n      dup4\n        /* \"#utility.yul\":4618:4635   */\n      add\n        /* \"#utility.yul\":4606:4635   */\n      swap2\n      pop\n        /* \"#utility.yul\":4684:4687   */\n      dup4\n        /* \"#utility.yul\":4676:4680   */\n      0x01\n        /* \"#utility.yul\":4668:4674   */\n      dup3\n        /* \"#utility.yul\":4664:4681   */\n      mul\n        /* \"#utility.yul\":4654:4662   */\n      dup4\n        /* \"#utility.yul\":4650:4682   */\n      add\n        /* \"#utility.yul\":4647:4688   */\n      gt\n        /* \"#utility.yul\":4644:4772   */\n      iszero\n      tag_151\n      jumpi\n        /* \"#utility.yul\":4691:4770   */\n      tag_152\n      tag_82\n      jump\t// in\n    tag_152:\n        /* \"#utility.yul\":4644:4772   */\n    tag_151:\n        /* \"#utility.yul\":4225:4778   */\n      swap3\n      pop\n      swap3\n      swap1\n      pop\n      jump\t// out\n        /* \"#utility.yul\":4784:5313   */\n    tag_23:\n        /* \"#utility.yul\":4855:4861   */\n      0x00\n        /* \"#utility.yul\":4863:4869   */\n      dup1\n        /* \"#utility.yul\":4912:4914   */\n      0x20\n        /* \"#utility.yul\":4900:4909   */\n      dup4\n        /* \"#utility.yul\":4891:4898   */\n      dup6\n        /* \"#utility.yul\":4887:4910   */\n      sub\n        /* \"#utility.yul\":4883:4915   */\n      slt\n        /* \"#utility.yul\":4880:4999   */\n      iszero\n      tag_154\n      jumpi\n        /* \"#utility.yul\":4918:4997   */\n      tag_155\n      tag_65\n      jump\t// in\n    tag_155:\n        /* \"#utility.yul\":4880:4999   */\n    tag_154:\n        /* \"#utility.yul\":5066:5067   */\n      0x00\n        /* \"#utility.yul\":5055:5064   */\n      dup4\n        /* \"#utility.yul\":5051:5068   */\n      add\n        /* \"#utility.yul\":5038:5069   */\n      calldataload\n        /* \"#utility.yul\":5096:5114   */\n      0xffffffffffffffff\n        /* \"#utility.yul\":5088:5094   */\n      dup2\n        /* \"#utility.yul\":5085:5115   */\n      gt\n        /* \"#utility.yul\":5082:5199   */\n      iszero\n      tag_156\n      jumpi\n        /* \"#utility.yul\":5118:5197   */\n      tag_157\n      tag_66\n      jump\t// in\n    tag_157:\n        /* \"#utility.yul\":5082:5199   */\n    tag_156:\n        /* \"#utility.yul\":5231:5296   */\n      tag_158\n        /* \"#utility.yul\":5288:5295   */\n      dup6\n        /* \"#utility.yul\":5279:5285   */\n      dup3\n        /* \"#utility.yul\":5268:5277   */\n      dup7\n        /* \"#utility.yul\":5264:5286   */\n      add\n        /* \"#utility.yul\":5231:5296   */\n      tag_83\n      jump\t// in\n    tag_158:\n        /* \"#utility.yul\":5213:5296   */\n      swap3\n      pop\n      swap3\n      pop\n        /* \"#utility.yul\":5009:5306   */\n      pop\n        /* \"#utility.yul\":4784:5313   */\n      swap3\n      pop\n      swap3\n      swap1\n      pop\n      jump\t// out\n        /* \"#utility.yul\":5319:5437   */\n    tag_84:\n        /* \"#utility.yul\":5406:5430   */\n      tag_160\n        /* \"#utility.yul\":5424:5429   */\n      dup2\n        /* \"#utility.yul\":5406:5430   */\n      tag_67\n      jump\t// in\n    tag_160:\n        /* \"#utility.yul\":5401:5404   */\n      dup3\n        /* \"#utility.yul\":5394:5431   */\n      mstore\n        /* \"#utility.yul\":5319:5437   */\n      pop\n      pop\n      jump\t// out\n        /* \"#utility.yul\":5443:5665   */\n    tag_28:\n        /* \"#utility.yul\":5536:5540   */\n      0x00\n        /* \"#utility.yul\":5574:5576   */\n      0x20\n        /* \"#utility.yul\":5563:5572   */\n      dup3\n        /* \"#utility.yul\":5559:5577   */\n      add\n        /* \"#utility.yul\":5551:5577   */\n      swap1\n      pop\n        /* \"#utility.yul\":5587:5658   */\n      tag_162\n        /* \"#utility.yul\":5655:5656   */\n      0x00\n        /* \"#utility.yul\":5644:5653   */\n      dup4\n        /* \"#utility.yul\":5640:5657   */\n      add\n        /* \"#utility.yul\":5631:5637   */\n      dup5\n        /* \"#utility.yul\":5587:5658   */\n      tag_84\n      jump\t// in\n    tag_162:\n        /* \"#utility.yul\":5443:5665   */\n      swap3\n      swap2\n      pop\n      pop\n      jump\t// out\n        /* \"#utility.yul\":5671:5851   */\n    tag_34:\n        /* \"#utility.yul\":5719:5796   */\n      0x4e487b7100000000000000000000000000000000000000000000000000000000\n        /* \"#utility.yul\":5716:5717   */\n      0x00\n        /* \"#utility.yul\":5709:5797   */\n      mstore\n        /* \"#utility.yul\":5816:5820   */\n      0x32\n        /* \"#utility.yul\":5813:5814   */\n      0x04\n        /* \"#utility.yul\":5806:5821   */\n      mstore\n        /* \"#utility.yul\":5840:5844   */\n      0x24\n        /* \"#utility.yul\":5837:5838   */\n      0x00\n        /* \"#utility.yul\":5830:5845   */\n      revert\n        /* \"#utility.yul\":5857:6037   */\n    tag_85:\n        /* \"#utility.yul\":5905:5982   */\n      0x4e487b7100000000000000000000000000000000000000000000000000000000\n        /* \"#utility.yul\":5902:5903   */\n      0x00\n        /* \"#utility.yul\":5895:5983   */\n      mstore\n        /* \"#utility.yul\":6002:6006   */\n      0x22\n        /* \"#utility.yul\":5999:6000   */\n      0x04\n        /* \"#utility.yul\":5992:6007   */\n      mstore\n        /* \"#utility.yul\":6026:6030   */\n      0x24\n        /* \"#utility.yul\":6023:6024   */\n      0x00\n        /* \"#utility.yul\":6016:6031   */\n      revert\n        /* \"#utility.yul\":6043:6363   */\n    tag_37:\n        /* \"#utility.yul\":6087:6093   */\n      0x00\n        /* \"#utility.yul\":6124:6125   */\n      0x02\n        /* \"#utility.yul\":6118:6122   */\n      dup3\n        /* \"#utility.yul\":6114:6126   */\n      div\n        /* \"#utility.yul\":6104:6126   */\n      swap1\n      pop\n        /* \"#utility.yul\":6171:6172   */\n      0x01\n        /* \"#utility.yul\":6165:6169   */\n      dup3\n        /* \"#utility.yul\":6161:6173   */\n      and\n        /* \"#utility.yul\":6192:6210   */\n      dup1\n        /* \"#utility.yul\":6182:6263   */\n      tag_166\n      jumpi\n        /* \"#utility.yul\":6248:6252   */\n      0x7f\n        /* \"#utility.yul\":6240:6246   */\n      dup3\n        /* \"#utility.yul\":6236:6253   */\n      and\n        /* \"#utility.yul\":6226:6253   */\n      swap2\n      pop\n        /* \"#utility.yul\":6182:6263   */\n    tag_166:\n        /* \"#utility.yul\":6310:6312   */\n      0x20\n        /* \"#utility.yul\":6302:6308   */\n      dup3\n        /* \"#utility.yul\":6299:6313   */\n      lt\n        /* \"#utility.yul\":6279:6297   */\n      dup2\n        /* \"#utility.yul\":6276:6314   */\n      sub\n        /* \"#utility.yul\":6273:6357   */\n      tag_167\n      jumpi\n        /* \"#utility.yul\":6329:6347   */\n      tag_168\n      tag_85\n      jump\t// in\n    tag_168:\n        /* \"#utility.yul\":6273:6357   */\n    tag_167:\n        /* \"#utility.yul\":6094:6363   */\n      pop\n        /* \"#utility.yul\":6043:6363   */\n      swap2\n      swap1\n      pop\n      jump\t// out\n        /* \"#utility.yul\":6369:6549   */\n    tag_86:\n        /* \"#utility.yul\":6417:6494   */\n      0x4e487b7100000000000000000000000000000000000000000000000000000000\n        /* \"#utility.yul\":6414:6415   */\n      0x00\n        /* \"#utility.yul\":6407:6495   */\n      mstore\n        /* \"#utility.yul\":6514:6518   */\n      0x41\n        /* \"#utility.yul\":6511:6512   */\n      0x04\n        /* \"#utility.yul\":6504:6519   */\n      mstore\n        /* \"#utility.yul\":6538:6542   */\n      0x24\n        /* \"#utility.yul\":6535:6536   */\n      0x00\n        /* \"#utility.yul\":6528:6543   */\n      revert\n        /* \"#utility.yul\":6555:6696   */\n    tag_87:\n        /* \"#utility.yul\":6604:6608   */\n      0x00\n        /* \"#utility.yul\":6627:6630   */\n      dup2\n        /* \"#utility.yul\":6619:6630   */\n      swap1\n      pop\n        /* \"#utility.yul\":6650:6653   */\n      dup2\n        /* \"#utility.yul\":6647:6648   */\n      0x00\n        /* \"#utility.yul\":6640:6654   */\n      mstore\n        /* \"#utility.yul\":6684:6688   */\n      0x20\n        /* \"#utility.yul\":6681:6682   */\n      0x00\n        /* \"#utility.yul\":6671:6689   */\n      keccak256\n        /* \"#utility.yul\":6663:6689   */\n      swap1\n      pop\n        /* \"#utility.yul\":6555:6696   */\n      swap2\n      swap1\n      pop\n      jump\t// out\n        /* \"#utility.yul\":6702:6795   */\n    tag_88:\n        /* \"#utility.yul\":6739:6745   */\n      0x00\n        /* \"#utility.yul\":6786:6788   */\n      0x20\n        /* \"#utility.yul\":6781:6783   */\n      0x1f\n        /* \"#utility.yul\":6774:6779   */\n      dup4\n        /* \"#utility.yul\":6770:6784   */\n      add\n        /* \"#utility.yul\":6766:6789   */\n      div\n        /* \"#utility.yul\":6756:6789   */\n      swap1\n      pop\n        /* \"#utility.yul\":6702:6795   */\n      swap2\n      swap1\n      pop\n      jump\t// out\n        /* \"#utility.yul\":6801:6908   */\n    tag_89:\n        /* \"#utility.yul\":6845:6853   */\n      0x00\n        /* \"#utility.yul\":6895:6900   */\n      dup3\n        /* \"#utility.yul\":6889:6893   */\n      dup3\n        /* \"#utility.yul\":6885:6901   */\n      shl\n        /* \"#utility.yul\":6864:6901   */\n      swap1\n      pop\n        /* \"#utility.yul\":6801:6908   */\n      swap3\n      swap2\n      pop\n      pop\n      jump\t// out\n        /* \"#utility.yul\":6914:7307   */\n    tag_90:\n        /* \"#utility.yul\":6983:6989   */\n      0x00\n        /* \"#utility.yul\":7033:7034   */\n      0x08\n        /* \"#utility.yul\":7021:7031   */\n      dup4\n        /* \"#utility.yul\":7017:7035   */\n      mul\n        /* \"#utility.yul\":7056:7153   */\n      tag_174\n        /* \"#utility.yul\":7086:7152   */\n      0xffffffffffffffffffffffffffffffffffffffffffffffffffffffffffffffff\n        /* \"#utility.yul\":7075:7084   */\n      dup3\n        /* \"#utility.yul\":7056:7153   */\n      tag_89\n      jump\t// in\n    tag_174:\n        /* \"#utility.yul\":7174:7213   */\n      tag_175\n        /* \"#utility.yul\":7204:7212   */\n      dup7\n        /* \"#utility.yul\":7193:7202   */\n      dup4\n        /* \"#utility.yul\":7174:7213   */\n      tag_89\n      jump\t// in\n    tag_175:\n        /* \"#utility.yul\":7162:7213   */\n      swap6\n      pop\n        /* \"#utility.yul\":7246:7250   */\n      dup1\n        /* \"#utility.yul\":7242:7251   */\n      not\n        /* \"#utility.yul\":7235:7240   */\n      dup5\n        /* \"#utility.yul\":7231:7252   */\n      and\n        /* \"#utility.yul\":7222:7252   */\n      swap4\n      pop\n        /* \"#utility.yul\":7295:7299   */\n      dup1\n        /* \"#utility.yul\":7285:7293   */\n      dup7\n        /* \"#utility.yul\":7281:7300   */\n      and\n        /* \"#utility.yul\":7274:7279   */\n      dup5\n        /* \"#utility.yul\":7271:7301   */\n      or\n        /* \"#utility.yul\":7261:7301   */\n      swap3\n      pop\n        /* \"#utility.yul\":6990:7307   */\n      pop\n      pop\n        /* \"#utility.yul\":6914:7307   */\n      swap4\n      swap3\n      pop\n      pop\n      pop\n      jump\t// out\n        /* \"#utility.yul\":7313:7373   */\n    tag_91:\n        /* \"#utility.yul\":7341:7344   */\n      0x00\n        /* \"#utility.yul\":7362:7367   */\n      dup2\n        /* \"#utility.yul\":7355:7367   */\n      swap1\n      pop\n        /* \"#utility.yul\":7313:7373   */\n      swap2\n      swap1\n      pop\n      jump\t// out\n        /* \"#utility.yul\":7379:7521   */\n    tag_92:\n        /* \"#utility.yul\":7429:7438   */\n      0x00\n        /* \"#utility.yul\":7462:7515   */\n      tag_178\n        /* \"#utility.yul\":7480:7514   */\n      tag_179\n        /* \"#utility.yul\":7489:7513   */\n      tag_180\n        /* \"#utility.yul\":7507:7512   */\n      dup5\n        /* \"#utility.yul\":7489:7513   */\n      tag_67\n      jump\t// in\n    tag_180:\n        /* \"#utility.yul\":7480:7514   */\n      tag_91\n      jump\t// in\n    tag_179:\n        /* \"#utility.yul\":7462:7515   */\n      tag_67\n      jump\t// in\n    tag_178:\n        /* \"#utility.yul\":7449:7515   */\n      swap1\n      pop\n        /* \"#utility.yul\":7379:7521   */\n      swap2\n      swap1\n      pop\n      jump\t// out\n        /* \"#utility.yul\":7527:7602   */\n    tag_93:\n        /* \"#utility.yul\":7570:7573   */\n      0x00\n        /* \"#utility.yul\":7591:7596   */\n      dup2\n        /* \"#utility.yul\":7584:7596   */\n      swap1\n      pop\n        /* \"#utility.yul\":7527:7602   */\n      swap2\n      swap1\n      pop\n      jump\t// out\n        /* \"#utility.yul\":7608:7877   */\n    tag_94:\n        /* \"#utility.yul\":7718:7757   */\n      tag_183\n        /* \"#utility.yul\":7749:7756   */\n      dup4\n        /* \"#utility.yul\":7718:7757   */\n      tag_92\n      jump\t// in\n    tag_183:\n        /* \"#utility.yul\":7779:7870   */\n      tag_184\n        /* \"#utility.yul\":7828:7869   */\n      tag_185\n        /* \"#utility.yul\":7852:7868   */\n      dup3\n        /* \"#utility.yul\":7828:7869   */\n      tag_93\n      jump\t// in\n    tag_185:\n        /* \"#utility.yul\":7820:7826   */\n      dup5\n        /* \"#utility.yul\":7813:7817   */\n      dup5\n        /* \"#utility.yul\":7807:7818   */\n      sload\n        /* \"#utility.yul\":7779:7870   */\n      tag_90\n      jump\t// in\n    tag_184:\n        /* \"#utility.yul\":7773:7777   */\n      dup3\n        /* \"#utility.yul\":7766:7871   */\n      sstore\n        /* \"#utility.yul\":7684:7877   */\n      pop\n        /* \"#utility.yul\":7608:7877   */\n      pop\n      pop\n      pop\n      jump\t// out\n        /* \"#utility.yul\":7883:7956   */\n    tag_95:\n        /* \"#utility.yul\":7928:7931   */\n      0x00\n        /* \"#utility.yul\":7883:7956   */\n      swap1\n      jump\t// out\n        /* \"#utility.yul\":7962:8151   */\n    tag_96:\n        /* \"#utility.yul\":8039:8071   */\n      tag_188\n      tag_95\n      jump\t// in\n    tag_188:\n        /* \"#utility.yul\":8080:8145   */\n      tag_189\n        /* \"#utility.yul\":8138:8144   */\n      dup2\n        /* \"#utility.yul\":8130:8136   */\n      dup5\n        /* \"#utility.yul\":8124:8128   */\n      dup5\n        /* \"#utility.yul\":8080:8145   */\n      tag_94\n      jump\t// in\n    tag_189:\n        /* \"#utility.yul\":8015:8151   */\n      pop\n        /* \"#utility.yul\":7962:8151   */\n      pop\n      pop\n      jump\t// out\n        /* \"#utility.yul\":8157:8343   */\n    tag_97:\n        /* \"#utility.yul\":8217:8337   */\n    tag_191:\n        /* \"#utility.yul\":8234:8237   */\n      dup2\n        /* \"#utility.yul\":8227:8232   */\n      dup2\n        /* \"#utility.yul\":8224:8238   */\n      lt\n        /* \"#utility.yul\":8217:8337   */\n      iszero\n      tag_193\n      jumpi\n        /* \"#utility.yul\":8288:8327   */\n      tag_194\n        /* \"#utility.yul\":8325:8326   */\n      0x00\n        /* \"#utility.yul\":8318:8323   */\n      dup3\n        /* \"#utility.yul\":8288:8327   */\n      tag_96\n      jump\t// in\n    tag_194:\n        /* \"#utility.yul\":8261:8262   */\n      0x01\n        /* \"#utility.yul\":8254:8259   */\n      dup2\n        /* \"#utility.yul\":8250:8263   */\n      add\n        /* \"#utility.yul\":8241:8263   */\n      swap1\n      pop\n        /* \"#utility.yul\":8217:8337   */\n      jump(tag_191)\n    tag_193:\n        /* \"#utility.yul\":8157:8343   */\n      pop\n      pop\n      jump\t// out\n        /* \"#utility.yul\":8349:8892   */\n    tag_98:\n        /* \"#utility.yul\":8450:8452   */\n      0x1f\n        /* \"#utility.yul\":8445:8448   */\n      dup3\n        /* \"#utility.yul\":8442:8453   */\n      gt\n        /* \"#utility.yul\":8439:8885   */\n      iszero\n      tag_196\n      jumpi\n        /* \"#utility.yul\":8484:8522   */\n      tag_197\n        /* \"#utility.yul\":8516:8521   */\n      dup2\n        /* \"#utility.yul\":8484:8522   */\n      tag_87\n      jump\t// in\n    tag_197:\n        /* \"#utility.yul\":8568:8597   */\n      tag_198\n        /* \"#utility.yul\":8586:8596   */\n      dup5\n        /* \"#utility.yul\":8568:8597   */\n      tag_88\n      jump\t// in\n    tag_198:\n        /* \"#utility.yul\":8558:8566   */\n      dup2\n        /* \"#utility.yul\":8554:8598   */\n      add\n        /* \"#utility.yul\":8751:8753   */\n      0x20\n        /* \"#utility.yul\":8739:8749   */\n      dup6\n        /* \"#utility.yul\":8736:8754   */\n      lt\n        /* \"#utility.yul\":8733:8782   */\n      iszero\n      tag_199\n      jumpi\n        /* \"#utility.yul\":8772:8780   */\n      dup2\n        /* \"#utility.yul\":8757:8780   */\n      swap1\n      pop\n        /* \"#utility.yul\":8733:8782   */\n    tag_199:\n        /* \"#utility.yul\":8795:8875   */\n      tag_200\n        /* \"#utility.yul\":8851:8873   */\n      tag_201\n        /* \"#utility.yul\":8869:8872   */\n      dup6\n        /* \"#utility.yul\":8851:8873   */\n      tag_88\n      jump\t// in\n    tag_201:\n        /* \"#utility.yul\":8841:8849   */\n      dup4\n        /* \"#utility.yul\":8837:8874   */\n      add\n        /* \"#utility.yul\":8824:8835   */\n      dup3\n        /* \"#utility.yul\":8795:8875   */\n      tag_97\n      jump\t// in\n    tag_200:\n        /* \"#utility.yul\":8454:8885   */\n      pop\n      pop\n        /* \"#utility.yul\":8439:8885   */\n    tag_196:\n        /* \"#utility.yul\":8349:8892   */\n      pop\n      pop\n      pop\n      jump\t// out\n        /* \"#utility.yul\":8898:9015   */\n    tag_99:\n        /* \"#utility.yul\":8952:8960   */\n      0x00\n        /* \"#utility.yul\":9002:9007   */\n      dup3\n        /* \"#utility.yul\":8996:9000   */\n      dup3\n        /* \"#utility.yul\":8992:9008   */\n      shr\n        /* \"#utility.yul\":8971:9008   */\n      swap1\n      pop\n        /* \"#utility.yul\":8898:9015   */\n      swap3\n      swap2\n      pop\n      pop\n      jump\t// out\n        /* \"#utility.yul\":9021:9190   */\n    tag_100:\n        /* \"#utility.yul\":9065:9071   */\n      0x00\n        /* \"#utility.yul\":9098:9149   */\n      tag_204\n        /* \"#utility.yul\":9146:9147   */\n      0x00\n        /* \"#utility.yul\":9142:9148   */\n      not\n        /* \"#utility.yul\":9134:9139   */\n      dup5\n        /* \"#utility.yul\":9131:9132   */\n      0x08\n        /* \"#utility.yul\":9127:9140   */\n      mul\n        /* \"#utility.yul\":9098:9149   */\n      tag_99\n      jump\t// in\n    tag_204:\n        /* \"#utility.yul\":9094:9150   */\n      not\n        /* \"#utility.yul\":9179:9183   */\n      dup1\n        /* \"#utility.yul\":9173:9177   */\n      dup4\n        /* \"#utility.yul\":9169:9184   */\n      and\n        /* \"#utility.yul\":9159:9184   */\n      swap2\n      pop\n        /* \"#utility.yul\":9072:9190   */\n      pop\n        /* \"#utility.yul\":9021:9190   */\n      swap3\n      swap2\n      pop\n      pop\n      jump\t// out\n        /* \"#utility.yul\":9195:9490   */\n    tag_101:\n        /* \"#utility.yul\":9271:9275   */\n      0x00\n        /* \"#utility.yul\":9417:9446   */\n      tag_206\n        /* \"#utility.yul\":9442:9445   */\n      dup4\n        /* \"#utility.yul\":9436:9440   */\n      dup4\n        /* \"#utility.yul\":9417:9446   */\n      tag_100\n      jump\t// in\n    tag_206:\n        /* \"#utility.yul\":9409:9446   */\n      swap2\n      pop\n        /* \"#utility.yul\":9479:9482   */\n      dup3\n        /* \"#utility.yul\":9476:9477   */\n      0x02\n        /* \"#utility.yul\":9472:9483   */\n      mul\n        /* \"#utility.yul\":9466:9470   */\n      dup3\n        /* \"#utility.yul\":9463:9484   */\n      or\n        /* \"#utility.yul\":9455:9484   */\n      swap1\n      pop\n        /* \"#utility.yul\":9195:9490   */\n      swap3\n      swap2\n      pop\n      pop\n      jump\t// out\n        /* \"#utility.yul\":9495:10890   */\n    tag_55:\n        /* \"#utility.yul\":9612:9649   */\n      tag_208\n        /* \"#utility.yul\":9645:9648   */\n      dup3\n        /* \"#utility.yul\":9612:9649   */\n      tag_70\n      jump\t// in\n    tag_208:\n        /* \"#utility.yul\":9714:9732   */\n      0xffffffffffffffff\n        /* \"#utility.yul\":9706:9712   */\n      dup2\n        /* \"#utility.yul\":9703:9733   */\n      gt\n        /* \"#utility.yul\":9700:9756   */\n      iszero\n      tag_209\n      jumpi\n        /* \"#utility.yul\":9736:9754   */\n      tag_210\n      tag_86\n      jump\t// in\n    tag_210:\n        /* \"#utility.yul\":9700:9756   */\n    tag_209:\n        /* \"#utility.yul\":9780:9818   */\n      tag_211\n        /* \"#utility.yul\":9812:9816   */\n      dup3\n        /* \"#utility.yul\":9806:9817   */\n      sload\n        /* \"#utility.yul\":9780:9818   */\n      tag_37\n      jump\t// in\n    tag_211:\n        /* \"#utility.yul\":9865:9932   */\n      tag_212\n        /* \"#utility.yul\":9925:9931   */\n      dup3\n        /* \"#utility.yul\":9917:9923   */\n      dup3\n        /* \"#utility.yul\":9911:9915   */\n      dup6\n        /* \"#utility.yul\":9865:9932   */\n      tag_98\n      jump\t// in\n    tag_212:\n        /* \"#utility.yul\":9959:9960   */\n      0x00\n        /* \"#utility.yul\":9983:9987   */\n      0x20\n        /* \"#utility.yul\":9970:9987   */\n      swap1\n      pop\n        /* \"#utility.yul\":10015:10017   */\n      0x1f\n        /* \"#utility.yul\":10007:10013   */\n      dup4\n        /* \"#utility.yul\":10004:10018   */\n      gt\n        /* \"#utility.yul\":10032:10033   */\n      0x01\n        /* \"#utility.yul\":10027:10645   */\n      dup2\n      eq\n      tag_214\n      jumpi\n        /* \"#utility.yul\":10689:10690   */\n      0x00\n        /* \"#utility.yul\":10706:10712   */\n      dup5\n        /* \"#utility.yul\":10703:10780   */\n      iszero\n      tag_215\n      jumpi\n        /* \"#utility.yul\":10755:10764   */\n      dup3\n        /* \"#utility.yul\":10750:10753   */\n      dup8\n        /* \"#utility.yul\":10746:10765   */\n      add\n        /* \"#utility.yul\":10740:10766   */\n      mload\n        /* \"#utility.yul\":10731:10766   */\n      swap1\n      pop\n        /* \"#utility.yul\":10703:10780   */\n    tag_215:\n        /* \"#utility.yul\":10806:10873   */\n      tag_216\n        /* \"#utility.yul\":10866:10872   */\n      dup6\n        /* \"#utility.yul\":10859:10864   */\n      dup3\n        /* \"#utility.yul\":10806:10873   */\n      tag_101\n      jump\t// in\n    tag_216:\n        /* \"#utility.yul\":10800:10804   */\n      dup7\n        /* \"#utility.yul\":10793:10874   */\n      sstore\n        /* \"#utility.yul\":10662:10884   */\n      pop\n        /* \"#utility.yul\":9997:10884   */\n      jump(tag_213)\n        /* \"#utility.yul\":10027:10645   */\n    tag_214:\n        /* \"#utility.yul\":10079:10083   */\n      0x1f\n        /* \"#utility.yul\":10075:10084   */\n      not\n        /* \"#utility.yul\":10067:10073   */\n      dup5\n        /* \"#utility.yul\":10063:10085   */\n      and\n        /* \"#utility.yul\":10113:10150   */\n      tag_217\n        /* \"#utility.yul\":10145:10149   */\n      dup7\n        /* \"#utility.yul\":10113:10150   */\n      tag_87\n      jump\t// in\n    tag_217:\n        /* \"#utility.yul\":10172:10173   */\n      0x00\n        /* \"#utility.yul\":10186:10394   */\n    tag_218:\n        /* \"#utility.yul\":10200:10207   */\n      dup3\n        /* \"#utility.yul\":10197:10198   */\n      dup2\n        /* \"#utility.yul\":10194:10208   */\n      lt\n        /* \"#utility.yul\":10186:10394   */\n      iszero\n      tag_220\n      jumpi\n        /* \"#utility.yul\":10279:10288   */\n      dup5\n        /* \"#utility.yul\":10274:10277   */\n      dup10\n        /* \"#utility.yul\":10270:10289   */\n      add\n        /* \"#utility.yul\":10264:10290   */\n      mload\n        /* \"#utility.yul\":10256:10262   */\n      dup3\n        /* \"#utility.yul\":10249:10291   */\n      sstore\n        /* \"#utility.yul\":10330:10331   */\n      0x01\n        /* \"#utility.yul\":10322:10328   */\n      dup3\n        /* \"#utility.yul\":10318:10332   */\n      add\n        /* \"#utility.yul\":10308:10332   */\n      swap2\n      pop\n        /* \"#utility.yul\":10377:10379   */\n      0x20\n        /* \"#utility.yul\":10366:10375   */\n      dup6\n        /* \"#utility.yul\":10362:10380   */\n      add\n        /* \"#utility.yul\":10349:10380   */\n      swap5\n      pop\n        /* \"#utility.yul\":10223:10227   */\n      0x20\n        /* \"#utility.yul\":10220:10221   */\n      dup2\n        /* \"#utility.yul\":10216:10228   */\n      add\n        /* \"#utility.yul\":10211:10228   */\n      swap1\n      pop\n        /* \"#utility.yul\":10186:10394   */\n      jump(tag_218)\n    tag_220:\n        /* \"#utility.yul\":10422:10428   */\n      dup7\n        /* \"#utility.yul\":10413:10420   */\n      dup4\n        /* \"#utility.yul\":10410:10429   */\n      lt\n        /* \"#utility.yul\":10407:10586   */\n      iszero\n      tag_221\n      jumpi\n        /* \"#utility.yul\":10480:10489   */\n      dup5\n        /* \"#utility.yul\":10475:10478   */\n      dup10\n        /* \"#utility.yul\":10471:10490   */\n      add\n        /* \"#utility.yul\":10465:10491   */\n      mload\n        /* \"#utility.yul\":10523:10571   */\n      tag_222\n        /* \"#utility.yul\":10565:10569   */\n      0x1f\n        /* \"#utility.yul\":10557:10563   */\n      dup10\n        /* \"#utility.yul\":10553:10570   */\n      and\n        /* \"#utility.yul\":10542:10551   */\n      dup3\n        /* \"#utility.yul\":10523:10571   */\n      tag_100\n      jump\t// in\n    tag_222:\n        /* \"#utility.yul\":10515:10521   */\n      dup4\n        /* \"#utility.yul\":10508:10572   */\n      sstore\n        /* \"#utility.yul\":10430:10586   */\n      pop\n        /* \"#utility.yul\":10407:10586   */\n    tag_221:\n        /* \"#utility.yul\":10632:10633   */\n      0x01\n        /* \"#utility.yul\":10628:10629   */\n      0x02\n        /* \"#utility.yul\":10620:10626   */\n      dup9\n        /* \"#utility.yul\":10616:10630   */\n      mul\n        /* \"#utility.yul\":10612:10634   */\n      add\n        /* \"#utility.yul\":10606:10610   */\n      dup9\n        /* \"#utility.yul\":10599:10635   */\n      sstore\n        /* \"#utility.yul\":10034:10645   */\n      pop\n      pop\n      pop\n        /* \"#utility.yul\":9997:10884   */\n    tag_213:\n      pop\n        /* \"#utility.yul\":9587:10890   */\n      pop\n      pop\n      pop\n        /* \"#utility.yul\":9495:10890   */\n      pop\n      pop\n      jump\t// out\n\n    auxdata: 0xa26469706673582212207afc85f7bc08ab307f0716f70f5740646c2eae41202afc7e00aef5c9f37c270664736f6c634300081a0033\n}\n",
				"bytecode": {
					"linkReferences": {},
					"object": "6080604052348015600e575f80fd5b50610aa38061001c5f395ff3fe608060405234801561000f575f80fd5b5060043610610055575f3560e01c80631d65e77e14610059578063387008c214610089578063560f3192146100a557806367238562146100c1578063c17a340e146100dd575b5f80fd5b610073600480360381019061006e91906104ff565b6100fb565b60405161008091906105ee565b60405180910390f35b6100a3600480360381019061009e9190610638565b61021d565b005b6100bf60048036038101906100ba91906104ff565b610295565b005b6100db60048036038101906100d691906106d7565b610316565b005b6100e561040b565b6040516100f29190610731565b60405180910390f35b610103610451565b5f805f3373ffffffffffffffffffffffffffffffffffffffff1673ffffffffffffffffffffffffffffffffffffffff1681526020019081526020015f2083815481106101525761015161074a565b5b905f5260205f2090600202019050806040518060400160405290815f8201805461017b906107a4565b80601f01602080910402602001604051908101604052809291908181526020018280546101a7906107a4565b80156101f25780601f106101c9576101008083540402835291602001916101f2565b820191905f5260205f20905b8154815290600101906020018083116101d557829003601f168201915b50505050508152602001600182015f9054906101000a900460ff161515151581525050915050919050565b805f803373ffffffffffffffffffffffffffffffffffffffff1673ffffffffffffffffffffffffffffffffffffffff1681526020019081526020015f20838154811061026c5761026b61074a565b5b905f5260205f2090600202016001015f6101000a81548160ff0219169083151502179055505050565b5f803373ffffffffffffffffffffffffffffffffffffffff1673ffffffffffffffffffffffffffffffffffffffff1681526020019081526020015f2081815481106102e3576102e261074a565b5b905f5260205f2090600202015f8082015f6102fe919061046c565b600182015f6101000a81549060ff0219169055505050565b5f803373ffffffffffffffffffffffffffffffffffffffff1673ffffffffffffffffffffffffffffffffffffffff1681526020019081526020015f20604051806040016040528084848080601f0160208091040260200160405190810160405280939291908181526020018383808284375f81840152601f19601f8201169050808301925050505050505081526020015f1515815250908060018154018082558091505060019003905f5260205f2090600202015f909190919091505f820151815f0190816103e5919061099e565b506020820151816001015f6101000a81548160ff02191690831515021790555050505050565b5f805f3373ffffffffffffffffffffffffffffffffffffffff1673ffffffffffffffffffffffffffffffffffffffff1681526020019081526020015f2080549050905090565b6040518060400160405280606081526020015f151581525090565b508054610478906107a4565b5f825580601f1061048957506104a6565b601f0160209004905f5260205f20908101906104a591906104a9565b5b50565b5b808211156104c0575f815f9055506001016104aa565b5090565b5f80fd5b5f80fd5b5f819050919050565b6104de816104cc565b81146104e8575f80fd5b50565b5f813590506104f9816104d5565b92915050565b5f60208284031215610514576105136104c4565b5b5f610521848285016104eb565b91505092915050565b5f81519050919050565b5f82825260208201905092915050565b8281835e5f83830152505050565b5f601f19601f8301169050919050565b5f61056c8261052a565b6105768185610534565b9350610586818560208601610544565b61058f81610552565b840191505092915050565b5f8115159050919050565b6105ae8161059a565b82525050565b5f604083015f8301518482035f8601526105ce8282610562565b91505060208301516105e360208601826105a5565b508091505092915050565b5f6020820190508181035f83015261060681846105b4565b905092915050565b6106178161059a565b8114610621575f80fd5b50565b5f813590506106328161060e565b92915050565b5f806040838503121561064e5761064d6104c4565b5b5f61065b858286016104eb565b925050602061066c85828601610624565b9150509250929050565b5f80fd5b5f80fd5b5f80fd5b5f8083601f84011261069757610696610676565b5b8235905067ffffffffffffffff8111156106b4576106b361067a565b5b6020830191508360018202830111156106d0576106cf61067e565b5b9250929050565b5f80602083850312156106ed576106ec6104c4565b5b5f83013567ffffffffffffffff81111561070a576107096104c8565b5b61071685828601610682565b92509250509250929050565b61072b816104cc565b82525050565b5f6020820190506107445f830184610722565b92915050565b7f4e487b71000000000000000000000000000000000000000000000000000000005f52603260045260245ffd5b7f4e487b71000000000000000000000000000000000000000000000000000000005f52602260045260245ffd5b5f60028204905060018216806107bb57607f821691505b6020821081036107ce576107cd610777565b5b50919050565b7f4e487b71000000000000000000000000000000000000000000000000000000005f52604160045260245ffd5b5f819050815f5260205f209050919050565b5f6020601f8301049050919050565b5f82821b905092915050565b5f6008830261085d7fffffffffffffffffffffffffffffffffffffffffffffffffffffffffffffffff82610822565b6108678683610822565b95508019841693508086168417925050509392505050565b5f819050919050565b5f6108a261089d610898846104cc565b61087f565b6104cc565b9050919050565b5f819050919050565b6108bb83610888565b6108cf6108c7826108a9565b84845461082e565b825550505050565b5f90565b6108e36108d7565b6108ee8184846108b2565b505050565b5b81811015610911576109065f826108db565b6001810190506108f4565b5050565b601f8211156109565761092781610801565b61093084610813565b8101602085101561093f578190505b61095361094b85610813565b8301826108f3565b50505b505050565b5f82821c905092915050565b5f6109765f198460080261095b565b1980831691505092915050565b5f61098e8383610967565b9150826002028217905092915050565b6109a78261052a565b67ffffffffffffffff8111156109c0576109bf6107d4565b5b6109ca82546107a4565b6109d5828285610915565b5f60209050601f831160018114610a06575f84156109f4578287015190505b6109fe8582610983565b865550610a65565b601f198416610a1486610801565b5f5b82811015610a3b57848901518255600182019150602085019450602081019050610a16565b86831015610a585784890151610a54601f891682610967565b8355505b6001600288020188555050505b50505050505056fea26469706673582212207afc85f7bc08ab307f0716f70f5740646c2eae41202afc7e00aef5c9f37c270664736f6c634300081a0033",
					"opcodes": "PUSH1 0x80 PUSH1 0x40 MSTORE CALLVALUE DUP1 ISZERO PUSH1 0xE JUMPI PUSH0 DUP1 REVERT JUMPDEST POP PUSH2 0xAA3 DUP1 PUSH2 0x1C PUSH0 CODECOPY PUSH0 RETURN INVALID PUSH1 0x80 PUSH1 0x40 MSTORE CALLVALUE DUP1 ISZERO PUSH2 0xF JUMPI PUSH0 DUP1 REVERT JUMPDEST POP PUSH1 0x4 CALLDATASIZE LT PUSH2 0x55 JUMPI PUSH0 CALLDATALOAD PUSH1 0xE0 SHR DUP1 PUSH4 0x1D65E77E EQ PUSH2 0x59 JUMPI DUP1 PUSH4 0x387008C2 EQ PUSH2 0x89 JUMPI DUP1 PUSH4 0x560F3192 EQ PUSH2 0xA5 JUMPI DUP1 PUSH4 0x67238562 EQ PUSH2 0xC1 JUMPI DUP1 PUSH4 0xC17A340E EQ PUSH2 0xDD JUMPI JUMPDEST PUSH0 DUP1 REVERT JUMPDEST PUSH2 0x73 PUSH1 0x4 DUP1 CALLDATASIZE SUB DUP2 ADD SWAP1 PUSH2 0x6E SWAP2 SWAP1 PUSH2 0x4FF JUMP JUMPDEST PUSH2 0xFB JUMP JUMPDEST PUSH1 0x40 MLOAD PUSH2 0x80 SWAP2 SWAP1 PUSH2 0x5EE JUMP JUMPDEST PUSH1 0x40 MLOAD DUP1 SWAP2 SUB SWAP1 RETURN JUMPDEST PUSH2 0xA3 PUSH1 0x4 DUP1 CALLDATASIZE SUB DUP2 ADD SWAP1 PUSH2 0x9E SWAP2 SWAP1 PUSH2 0x638 JUMP JUMPDEST PUSH2 0x21D JUMP JUMPDEST STOP JUMPDEST PUSH2 0xBF PUSH1 0x4 DUP1 CALLDATASIZE SUB DUP2 ADD SWAP1 PUSH2 0xBA SWAP2 SWAP1 PUSH2 0x4FF JUMP JUMPDEST PUSH2 0x295 JUMP JUMPDEST STOP JUMPDEST PUSH2 0xDB PUSH1 0x4 DUP1 CALLDATASIZE SUB DUP2 ADD SWAP1 PUSH2 0xD6 SWAP2 SWAP1 PUSH2 0x6D7 JUMP JUMPDEST PUSH2 0x316 JUMP JUMPDEST STOP JUMPDEST PUSH2 0xE5 PUSH2 0x40B JUMP JUMPDEST PUSH1 0x40 MLOAD PUSH2 0xF2 SWAP2 SWAP1 PUSH2 0x731 JUMP JUMPDEST PUSH1 0x40 MLOAD DUP1 SWAP2 SUB SWAP1 RETURN JUMPDEST PUSH2 0x103 PUSH2 0x451 JUMP JUMPDEST PUSH0 DUP1 PUSH0 CALLER PUSH20 0xFFFFFFFFFFFFFFFFFFFFFFFFFFFFFFFFFFFFFFFF AND PUSH20 0xFFFFFFFFFFFFFFFFFFFFFFFFFFFFFFFFFFFFFFFF AND DUP2 MSTORE PUSH1 0x20 ADD SWAP1 DUP2 MSTORE PUSH1 0x20 ADD PUSH0 KECCAK256 DUP4 DUP2 SLOAD DUP2 LT PUSH2 0x152 JUMPI PUSH2 0x151 PUSH2 0x74A JUMP JUMPDEST JUMPDEST SWAP1 PUSH0 MSTORE PUSH1 0x20 PUSH0 KECCAK256 SWAP1 PUSH1 0x2 MUL ADD SWAP1 POP DUP1 PUSH1 0x40 MLOAD DUP1 PUSH1 0x40 ADD PUSH1 0x40 MSTORE SWAP1 DUP2 PUSH0 DUP3 ADD DUP1 SLOAD PUSH2 0x17B SWAP1 PUSH2 0x7A4 JUMP JUMPDEST DUP1 PUSH1 0x1F ADD PUSH1 0x20 DUP1 SWAP2 DIV MUL PUSH1 0x20 ADD PUSH1 0x40 MLOAD SWAP1 DUP2 ADD PUSH1 0x40 MSTORE DUP1 SWAP3 SWAP2 SWAP1 DUP2 DUP2 MSTORE PUSH1 0x20 ADD DUP3 DUP1 SLOAD PUSH2 0x1A7 SWAP1 PUSH2 0x7A4 JUMP JUMPDEST DUP1 ISZERO PUSH2 0x1F2 JUMPI DUP1 PUSH1 0x1F LT PUSH2 0x1C9 JUMPI PUSH2 0x100 DUP1 DUP4 SLOAD DIV MUL DUP4 MSTORE SWAP2 PUSH1 0x20 ADD SWAP2 PUSH2 0x1F2 JUMP JUMPDEST DUP3 ADD SWAP2 SWAP1 PUSH0 MSTORE PUSH1 0x20 PUSH0 KECCAK256 SWAP1 JUMPDEST DUP2 SLOAD DUP2 MSTORE SWAP1 PUSH1 0x1 ADD SWAP1 PUSH1 0x20 ADD DUP1 DUP4 GT PUSH2 0x1D5 JUMPI DUP3 SWAP1 SUB PUSH1 0x1F AND DUP3 ADD SWAP2 JUMPDEST POP POP POP POP POP DUP2 MSTORE PUSH1 0x20 ADD PUSH1 0x1 DUP3 ADD PUSH0 SWAP1 SLOAD SWAP1 PUSH2 0x100 EXP SWAP1 DIV PUSH1 0xFF AND ISZERO ISZERO ISZERO ISZERO DUP2 MSTORE POP POP SWAP2 POP POP SWAP2 SWAP1 POP JUMP JUMPDEST DUP1 PUSH0 DUP1 CALLER PUSH20 0xFFFFFFFFFFFFFFFFFFFFFFFFFFFFFFFFFFFFFFFF AND PUSH20 0xFFFFFFFFFFFFFFFFFFFFFFFFFFFFFFFFFFFFFFFF AND DUP2 MSTORE PUSH1 0x20 ADD SWAP1 DUP2 MSTORE PUSH1 0x20 ADD PUSH0 KECCAK256 DUP4 DUP2 SLOAD DUP2 LT PUSH2 0x26C JUMPI PUSH2 0x26B PUSH2 0x74A JUMP JUMPDEST JUMPDEST SWAP1 PUSH0 MSTORE PUSH1 0x20 PUSH0 KECCAK256 SWAP1 PUSH1 0x2 MUL ADD PUSH1 0x1 ADD PUSH0 PUSH2 0x100 EXP DUP2 SLOAD DUP2 PUSH1 0xFF MUL NOT AND SWAP1 DUP4 ISZERO ISZERO MUL OR SWAP1 SSTORE POP POP POP JUMP JUMPDEST PUSH0 DUP1 CALLER PUSH20 0xFFFFFFFFFFFFFFFFFFFFFFFFFFFFFFFFFFFFFFFF AND PUSH20 0xFFFFFFFFFFFFFFFFFFFFFFFFFFFFFFFFFFFFFFFF AND DUP2 MSTORE PUSH1 0x20 ADD SWAP1 DUP2 MSTORE PUSH1 0x20 ADD PUSH0 KECCAK256 DUP2 DUP2 SLOAD DUP2 LT PUSH2 0x2E3 JUMPI PUSH2 0x2E2 PUSH2 0x74A JUMP JUMPDEST JUMPDEST SWAP1 PUSH0 MSTORE PUSH1 0x20 PUSH0 KECCAK256 SWAP1 PUSH1 0x2 MUL ADD PUSH0 DUP1 DUP3 ADD PUSH0 PUSH2 0x2FE SWAP2 SWAP1 PUSH2 0x46C JUMP JUMPDEST PUSH1 0x1 DUP3 ADD PUSH0 PUSH2 0x100 EXP DUP2 SLOAD SWAP1 PUSH1 0xFF MUL NOT AND SWAP1 SSTORE POP POP POP JUMP JUMPDEST PUSH0 DUP1 CALLER PUSH20 0xFFFFFFFFFFFFFFFFFFFFFFFFFFFFFFFFFFFFFFFF AND PUSH20 0xFFFFFFFFFFFFFFFFFFFFFFFFFFFFFFFFFFFFFFFF AND DUP2 MSTORE PUSH1 0x20 ADD SWAP1 DUP2 MSTORE PUSH1 0x20 ADD PUSH0 KECCAK256 PUSH1 0x40 MLOAD DUP1 PUSH1 0x40 ADD PUSH1 0x40 MSTORE DUP1 DUP5 DUP5 DUP1 DUP1 PUSH1 0x1F ADD PUSH1 0x20 DUP1 SWAP2 DIV MUL PUSH1 0x20 ADD PUSH1 0x40 MLOAD SWAP1 DUP2 ADD PUSH1 0x40 MSTORE DUP1 SWAP4 SWAP3 SWAP2 SWAP1 DUP2 DUP2 MSTORE PUSH1 0x20 ADD DUP4 DUP4 DUP1 DUP3 DUP5 CALLDATACOPY PUSH0 DUP2 DUP5 ADD MSTORE PUSH1 0x1F NOT PUSH1 0x1F DUP3 ADD AND SWAP1 POP DUP1 DUP4 ADD SWAP3 POP POP POP POP POP POP POP DUP2 MSTORE PUSH1 0x20 ADD PUSH0 ISZERO ISZERO DUP2 MSTORE POP SWAP1 DUP1 PUSH1 0x1 DUP2 SLOAD ADD DUP1 DUP3 SSTORE DUP1 SWAP2 POP POP PUSH1 0x1 SWAP1 SUB SWAP1 PUSH0 MSTORE PUSH1 0x20 PUSH0 KECCAK256 SWAP1 PUSH1 0x2 MUL ADD PUSH0 SWAP1 SWAP2 SWAP1 SWAP2 SWAP1 SWAP2 POP PUSH0 DUP3 ADD MLOAD DUP2 PUSH0 ADD SWAP1 DUP2 PUSH2 0x3E5 SWAP2 SWAP1 PUSH2 0x99E JUMP JUMPDEST POP PUSH1 0x20 DUP3 ADD MLOAD DUP2 PUSH1 0x1 ADD PUSH0 PUSH2 0x100 EXP DUP2 SLOAD DUP2 PUSH1 0xFF MUL NOT AND SWAP1 DUP4 ISZERO ISZERO MUL OR SWAP1 SSTORE POP POP POP POP POP JUMP JUMPDEST PUSH0 DUP1 PUSH0 CALLER PUSH20 0xFFFFFFFFFFFFFFFFFFFFFFFFFFFFFFFFFFFFFFFF AND PUSH20 0xFFFFFFFFFFFFFFFFFFFFFFFFFFFFFFFFFFFFFFFF AND DUP2 MSTORE PUSH1 0x20 ADD SWAP1 DUP2 MSTORE PUSH1 0x20 ADD PUSH0 KECCAK256 DUP1 SLOAD SWAP1 POP SWAP1 POP SWAP1 JUMP JUMPDEST PUSH1 0x40 MLOAD DUP1 PUSH1 0x40 ADD PUSH1 0x40 MSTORE DUP1 PUSH1 0x60 DUP2 MSTORE PUSH1 0x20 ADD PUSH0 ISZERO ISZERO DUP2 MSTORE POP SWAP1 JUMP JUMPDEST POP DUP1 SLOAD PUSH2 0x478 SWAP1 PUSH2 0x7A4 JUMP JUMPDEST PUSH0 DUP3 SSTORE DUP1 PUSH1 0x1F LT PUSH2 0x489 JUMPI POP PUSH2 0x4A6 JUMP JUMPDEST PUSH1 0x1F ADD PUSH1 0x20 SWAP1 DIV SWAP1 PUSH0 MSTORE PUSH1 0x20 PUSH0 KECCAK256 SWAP1 DUP2 ADD SWAP1 PUSH2 0x4A5 SWAP2 SWAP1 PUSH2 0x4A9 JUMP JUMPDEST JUMPDEST POP JUMP JUMPDEST JUMPDEST DUP1 DUP3 GT ISZERO PUSH2 0x4C0 JUMPI PUSH0 DUP2 PUSH0 SWAP1 SSTORE POP PUSH1 0x1 ADD PUSH2 0x4AA JUMP JUMPDEST POP SWAP1 JUMP JUMPDEST PUSH0 DUP1 REVERT JUMPDEST PUSH0 DUP1 REVERT JUMPDEST PUSH0 DUP2 SWAP1 POP SWAP2 SWAP1 POP JUMP JUMPDEST PUSH2 0x4DE DUP2 PUSH2 0x4CC JUMP JUMPDEST DUP2 EQ PUSH2 0x4E8 JUMPI PUSH0 DUP1 REVERT JUMPDEST POP JUMP JUMPDEST PUSH0 DUP2 CALLDATALOAD SWAP1 POP PUSH2 0x4F9 DUP2 PUSH2 0x4D5 JUMP JUMPDEST SWAP3 SWAP2 POP POP JUMP JUMPDEST PUSH0 PUSH1 0x20 DUP3 DUP5 SUB SLT ISZERO PUSH2 0x514 JUMPI PUSH2 0x513 PUSH2 0x4C4 JUMP JUMPDEST JUMPDEST PUSH0 PUSH2 0x521 DUP5 DUP3 DUP6 ADD PUSH2 0x4EB JUMP JUMPDEST SWAP2 POP POP SWAP3 SWAP2 POP POP JUMP JUMPDEST PUSH0 DUP2 MLOAD SWAP1 POP SWAP2 SWAP1 POP JUMP JUMPDEST PUSH0 DUP3 DUP3 MSTORE PUSH1 0x20 DUP3 ADD SWAP1 POP SWAP3 SWAP2 POP POP JUMP JUMPDEST DUP3 DUP2 DUP4 MCOPY PUSH0 DUP4 DUP4 ADD MSTORE POP POP POP JUMP JUMPDEST PUSH0 PUSH1 0x1F NOT PUSH1 0x1F DUP4 ADD AND SWAP1 POP SWAP2 SWAP1 POP JUMP JUMPDEST PUSH0 PUSH2 0x56C DUP3 PUSH2 0x52A JUMP JUMPDEST PUSH2 0x576 DUP2 DUP6 PUSH2 0x534 JUMP JUMPDEST SWAP4 POP PUSH2 0x586 DUP2 DUP6 PUSH1 0x20 DUP7 ADD PUSH2 0x544 JUMP JUMPDEST PUSH2 0x58F DUP2 PUSH2 0x552 JUMP JUMPDEST DUP5 ADD SWAP2 POP POP SWAP3 SWAP2 POP POP JUMP JUMPDEST PUSH0 DUP2 ISZERO ISZERO SWAP1 POP SWAP2 SWAP1 POP JUMP JUMPDEST PUSH2 0x5AE DUP2 PUSH2 0x59A JUMP JUMPDEST DUP3 MSTORE POP POP JUMP JUMPDEST PUSH0 PUSH1 0x40 DUP4 ADD PUSH0 DUP4 ADD MLOAD DUP5 DUP3 SUB PUSH0 DUP7 ADD MSTORE PUSH2 0x5CE DUP3 DUP3 PUSH2 0x562 JUMP JUMPDEST SWAP2 POP POP PUSH1 0x20 DUP4 ADD MLOAD PUSH2 0x5E3 PUSH1 0x20 DUP7 ADD DUP3 PUSH2 0x5A5 JUMP JUMPDEST POP DUP1 SWAP2 POP POP SWAP3 SWAP2 POP POP JUMP JUMPDEST PUSH0 PUSH1 0x20 DUP3 ADD SWAP1 POP DUP2 DUP2 SUB PUSH0 DUP4 ADD MSTORE PUSH2 0x606 DUP2 DUP5 PUSH2 0x5B4 JUMP JUMPDEST SWAP1 POP SWAP3 SWAP2 POP POP JUMP JUMPDEST PUSH2 0x617 DUP2 PUSH2 0x59A JUMP JUMPDEST DUP2 EQ PUSH2 0x621 JUMPI PUSH0 DUP1 REVERT JUMPDEST POP JUMP JUMPDEST PUSH0 DUP2 CALLDATALOAD SWAP1 POP PUSH2 0x632 DUP2 PUSH2 0x60E JUMP JUMPDEST SWAP3 SWAP2 POP POP JUMP JUMPDEST PUSH0 DUP1 PUSH1 0x40 DUP4 DUP6 SUB SLT ISZERO PUSH2 0x64E JUMPI PUSH2 0x64D PUSH2 0x4C4 JUMP JUMPDEST JUMPDEST PUSH0 PUSH2 0x65B DUP6 DUP3 DUP7 ADD PUSH2 0x4EB JUMP JUMPDEST SWAP3 POP POP PUSH1 0x20 PUSH2 0x66C DUP6 DUP3 DUP7 ADD PUSH2 0x624 JUMP JUMPDEST SWAP2 POP POP SWAP3 POP SWAP3 SWAP1 POP JUMP JUMPDEST PUSH0 DUP1 REVERT JUMPDEST PUSH0 DUP1 REVERT JUMPDEST PUSH0 DUP1 REVERT JUMPDEST PUSH0 DUP1 DUP4 PUSH1 0x1F DUP5 ADD SLT PUSH2 0x697 JUMPI PUSH2 0x696 PUSH2 0x676 JUMP JUMPDEST JUMPDEST DUP3 CALLDATALOAD SWAP1 POP PUSH8 0xFFFFFFFFFFFFFFFF DUP2 GT ISZERO PUSH2 0x6B4 JUMPI PUSH2 0x6B3 PUSH2 0x67A JUMP JUMPDEST JUMPDEST PUSH1 0x20 DUP4 ADD SWAP2 POP DUP4 PUSH1 0x1 DUP3 MUL DUP4 ADD GT ISZERO PUSH2 0x6D0 JUMPI PUSH2 0x6CF PUSH2 0x67E JUMP JUMPDEST JUMPDEST SWAP3 POP SWAP3 SWAP1 POP JUMP JUMPDEST PUSH0 DUP1 PUSH1 0x20 DUP4 DUP6 SUB SLT ISZERO PUSH2 0x6ED JUMPI PUSH2 0x6EC PUSH2 0x4C4 JUMP JUMPDEST JUMPDEST PUSH0 DUP4 ADD CALLDATALOAD PUSH8 0xFFFFFFFFFFFFFFFF DUP2 GT ISZERO PUSH2 0x70A JUMPI PUSH2 0x709 PUSH2 0x4C8 JUMP JUMPDEST JUMPDEST PUSH2 0x716 DUP6 DUP3 DUP7 ADD PUSH2 0x682 JUMP JUMPDEST SWAP3 POP SWAP3 POP POP SWAP3 POP SWAP3 SWAP1 POP JUMP JUMPDEST PUSH2 0x72B DUP2 PUSH2 0x4CC JUMP JUMPDEST DUP3 MSTORE POP POP JUMP JUMPDEST PUSH0 PUSH1 0x20 DUP3 ADD SWAP1 POP PUSH2 0x744 PUSH0 DUP4 ADD DUP5 PUSH2 0x722 JUMP JUMPDEST SWAP3 SWAP2 POP POP JUMP JUMPDEST PUSH32 0x4E487B7100000000000000000000000000000000000000000000000000000000 PUSH0 MSTORE PUSH1 0x32 PUSH1 0x4 MSTORE PUSH1 0x24 PUSH0 REVERT JUMPDEST PUSH32 0x4E487B7100000000000000000000000000000000000000000000000000000000 PUSH0 MSTORE PUSH1 0x22 PUSH1 0x4 MSTORE PUSH1 0x24 PUSH0 REVERT JUMPDEST PUSH0 PUSH1 0x2 DUP3 DIV SWAP1 POP PUSH1 0x1 DUP3 AND DUP1 PUSH2 0x7BB JUMPI PUSH1 0x7F DUP3 AND SWAP2 POP JUMPDEST PUSH1 0x20 DUP3 LT DUP2 SUB PUSH2 0x7CE JUMPI PUSH2 0x7CD PUSH2 0x777 JUMP JUMPDEST JUMPDEST POP SWAP2 SWAP1 POP JUMP JUMPDEST PUSH32 0x4E487B7100000000000000000000000000000000000000000000000000000000 PUSH0 MSTORE PUSH1 0x41 PUSH1 0x4 MSTORE PUSH1 0x24 PUSH0 REVERT JUMPDEST PUSH0 DUP2 SWAP1 POP DUP2 PUSH0 MSTORE PUSH1 0x20 PUSH0 KECCAK256 SWAP1 POP SWAP2 SWAP1 POP JUMP JUMPDEST PUSH0 PUSH1 0x20 PUSH1 0x1F DUP4 ADD DIV SWAP1 POP SWAP2 SWAP1 POP JUMP JUMPDEST PUSH0 DUP3 DUP3 SHL SWAP1 POP SWAP3 SWAP2 POP POP JUMP JUMPDEST PUSH0 PUSH1 0x8 DUP4 MUL PUSH2 0x85D PUSH32 0xFFFFFFFFFFFFFFFFFFFFFFFFFFFFFFFFFFFFFFFFFFFFFFFFFFFFFFFFFFFFFFFF DUP3 PUSH2 0x822 JUMP JUMPDEST PUSH2 0x867 DUP7 DUP4 PUSH2 0x822 JUMP JUMPDEST SWAP6 POP DUP1 NOT DUP5 AND SWAP4 POP DUP1 DUP7 AND DUP5 OR SWAP3 POP POP POP SWAP4 SWAP3 POP POP POP JUMP JUMPDEST PUSH0 DUP2 SWAP1 POP SWAP2 SWAP1 POP JUMP JUMPDEST PUSH0 PUSH2 0x8A2 PUSH2 0x89D PUSH2 0x898 DUP5 PUSH2 0x4CC JUMP JUMPDEST PUSH2 0x87F JUMP JUMPDEST PUSH2 0x4CC JUMP JUMPDEST SWAP1 POP SWAP2 SWAP1 POP JUMP JUMPDEST PUSH0 DUP2 SWAP1 POP SWAP2 SWAP1 POP JUMP JUMPDEST PUSH2 0x8BB DUP4 PUSH2 0x888 JUMP JUMPDEST PUSH2 0x8CF PUSH2 0x8C7 DUP3 PUSH2 0x8A9 JUMP JUMPDEST DUP5 DUP5 SLOAD PUSH2 0x82E JUMP JUMPDEST DUP3 SSTORE POP POP POP POP JUMP JUMPDEST PUSH0 SWAP1 JUMP JUMPDEST PUSH2 0x8E3 PUSH2 0x8D7 JUMP JUMPDEST PUSH2 0x8EE DUP2 DUP5 DUP5 PUSH2 0x8B2 JUMP JUMPDEST POP POP POP JUMP JUMPDEST JUMPDEST DUP2 DUP2 LT ISZERO PUSH2 0x911 JUMPI PUSH2 0x906 PUSH0 DUP3 PUSH2 0x8DB JUMP JUMPDEST PUSH1 0x1 DUP2 ADD SWAP1 POP PUSH2 0x8F4 JUMP JUMPDEST POP POP JUMP JUMPDEST PUSH1 0x1F DUP3 GT ISZERO PUSH2 0x956 JUMPI PUSH2 0x927 DUP2 PUSH2 0x801 JUMP JUMPDEST PUSH2 0x930 DUP5 PUSH2 0x813 JUMP JUMPDEST DUP2 ADD PUSH1 0x20 DUP6 LT ISZERO PUSH2 0x93F JUMPI DUP2 SWAP1 POP JUMPDEST PUSH2 0x953 PUSH2 0x94B DUP6 PUSH2 0x813 JUMP JUMPDEST DUP4 ADD DUP3 PUSH2 0x8F3 JUMP JUMPDEST POP POP JUMPDEST POP POP POP JUMP JUMPDEST PUSH0 DUP3 DUP3 SHR SWAP1 POP SWAP3 SWAP2 POP POP JUMP JUMPDEST PUSH0 PUSH2 0x976 PUSH0 NOT DUP5 PUSH1 0x8 MUL PUSH2 0x95B JUMP JUMPDEST NOT DUP1 DUP4 AND SWAP2 POP POP SWAP3 SWAP2 POP POP JUMP JUMPDEST PUSH0 PUSH2 0x98E DUP4 DUP4 PUSH2 0x967 JUMP JUMPDEST SWAP2 POP DUP3 PUSH1 0x2 MUL DUP3 OR SWAP1 POP SWAP3 SWAP2 POP POP JUMP JUMPDEST PUSH2 0x9A7 DUP3 PUSH2 0x52A JUMP JUMPDEST PUSH8 0xFFFFFFFFFFFFFFFF DUP2 GT ISZERO PUSH2 0x9C0 JUMPI PUSH2 0x9BF PUSH2 0x7D4 JUMP JUMPDEST JUMPDEST PUSH2 0x9CA DUP3 SLOAD PUSH2 0x7A4 JUMP JUMPDEST PUSH2 0x9D5 DUP3 DUP3 DUP6 PUSH2 0x915 JUMP JUMPDEST PUSH0 PUSH1 0x20 SWAP1 POP PUSH1 0x1F DUP4 GT PUSH1 0x1 DUP2 EQ PUSH2 0xA06 JUMPI PUSH0 DUP5 ISZERO PUSH2 0x9F4 JUMPI DUP3 DUP8 ADD MLOAD SWAP1 POP JUMPDEST PUSH2 0x9FE DUP6 DUP3 PUSH2 0x983 JUMP JUMPDEST DUP7 SSTORE POP PUSH2 0xA65 JUMP JUMPDEST PUSH1 0x1F NOT DUP5 AND PUSH2 0xA14 DUP7 PUSH2 0x801 JUMP JUMPDEST PUSH0 JUMPDEST DUP3 DUP2 LT ISZERO PUSH2 0xA3B JUMPI DUP5 DUP10 ADD MLOAD DUP3 SSTORE PUSH1 0x1 DUP3 ADD SWAP2 POP PUSH1 0x20 DUP6 ADD SWAP5 POP PUSH1 0x20 DUP2 ADD SWAP1 POP PUSH2 0xA16 JUMP JUMPDEST DUP7 DUP4 LT ISZERO PUSH2 0xA58 JUMPI DUP5 DUP10 ADD MLOAD PUSH2 0xA54 PUSH1 0x1F DUP10 AND DUP3 PUSH2 0x967 JUMP JUMPDEST DUP4 SSTORE POP JUMPDEST PUSH1 0x1 PUSH1 0x2 DUP9 MUL ADD DUP9 SSTORE POP POP POP JUMPDEST POP POP POP POP POP POP JUMP INVALID LOG2 PUSH5 0x6970667358 0x22 SLT KECCAK256 PUSH27 0xFC85F7BC08AB307F0716F70F5740646C2EAE41202AFC7E00AEF5C9 RETURN PUSH29 0x270664736F6C634300081A003300000000000000000000000000000000 "
				},
				"gasEstimates": {
					"creation": {
						"codeDepositCost": "544600",
						"executionCost": "579",
						"totalCost": "545179"
					},
					"external": {
						"addTask(string)": "infinite",
						"deleteTask(uint256)": "infinite",
						"getTask(uint256)": "infinite",
						"getTaskCount()": "2593",
						"updateStatus(uint256,bool)": "27126"
					}
				},
				"methodIdentifiers": {
					"addTask(string)": "67238562",
					"deleteTask(uint256)": "560f3192",
					"getTask(uint256)": "1d65e77e",
					"getTaskCount()": "c17a340e",
					"updateStatus(uint256,bool)": "387008c2"
				}
			},
			"storageLayout": {
				"storage": [
					{
						"astId": 13,
						"contract": "contracts/bloc.sol:Bloc",
						"label": "Users",
						"offset": 0,
						"slot": "0",
						"type": "t_mapping(t_address,t_array(t_struct(Task)7_storage)dyn_storage)"
					}
				],
				"types": {
					"t_address": {
						"encoding": "inplace",
						"label": "address",
						"numberOfBytes": "20"
					},
					"t_array(t_struct(Task)7_storage)dyn_storage": {
						"base": "t_struct(Task)7_storage",
						"encoding": "dynamic_array",
						"label": "struct Bloc.Task[]",
						"numberOfBytes": "32"
					},
					"t_bool": {
						"encoding": "inplace",
						"label": "bool",
						"numberOfBytes": "1"
					},
					"t_mapping(t_address,t_array(t_struct(Task)7_storage)dyn_storage)": {
						"encoding": "mapping",
						"key": "t_address",
						"label": "mapping(address => struct Bloc.Task[])",
						"numberOfBytes": "32",
						"value": "t_array(t_struct(Task)7_storage)dyn_storage"
					},
					"t_string_storage": {
						"encoding": "bytes",
						"label": "string",
						"numberOfBytes": "32"
					},
					"t_struct(Task)7_storage": {
						"encoding": "inplace",
						"label": "struct Bloc.Task",
						"members": [
							{
								"astId": 4,
								"contract": "contracts/bloc.sol:Bloc",
								"label": "task",
								"offset": 0,
								"slot": "0",
								"type": "t_string_storage"
							},
							{
								"astId": 6,
								"contract": "contracts/bloc.sol:Bloc",
								"label": "isDone",
								"offset": 0,
								"slot": "1",
								"type": "t_bool"
							}
						],
						"numberOfBytes": "64"
					}
				}
			},
			"userdoc": {
				"kind": "user",
				"methods": {
					"addTask(string)": {
						"notice": "Adds a new task to the caller's to-do list"
					},
					"deleteTask(uint256)": {
						"notice": "Deletes a task from the caller's to-do list"
					},
					"getTask(uint256)": {
						"notice": "Gets the details of a task from the caller's to-do list"
					},
					"getTaskCount()": {
						"notice": "Gets the number of tasks in the caller's to-do list"
					},
					"updateStatus(uint256,bool)": {
						"notice": "Updates the status of a task in the caller's to-do list"
					}
				},
				"notice": "This contract shows how to add, delete, get, update, and count tasks in a to-do list",
				"version": 1
			}
		}
	}
}