{
	"contracts/multi.sol": {
		"MultiSigWallet": {
			"abi": [
				{
					"inputs": [
						{
							"internalType": "address[]",
							"name": "_owners",
							"type": "address[]"
						},
						{
							"internalType": "uint256",
							"name": "_numConfirmationsRequired",
							"type": "uint256"
						}
					],
					"stateMutability": "nonpayable",
					"type": "constructor"
				},
				{
					"anonymous": false,
					"inputs": [
						{
							"indexed": true,
							"internalType": "address",
							"name": "owner",
							"type": "address"
						},
						{
							"indexed": true,
							"internalType": "uint256",
							"name": "txIndex",
							"type": "uint256"
						}
					],
					"name": "ConfirmTransaction",
					"type": "event"
				},
				{
					"anonymous": false,
					"inputs": [
						{
							"indexed": true,
							"internalType": "address",
							"name": "sender",
							"type": "address"
						},
						{
							"indexed": false,
							"internalType": "uint256",
							"name": "amount",
							"type": "uint256"
						},
						{
							"indexed": false,
							"internalType": "uint256",
							"name": "balance",
							"type": "uint256"
						}
					],
					"name": "Deposit",
					"type": "event"
				},
				{
					"anonymous": false,
					"inputs": [
						{
							"indexed": true,
							"internalType": "address",
							"name": "owner",
							"type": "address"
						},
						{
							"indexed": true,
							"internalType": "uint256",
							"name": "txIndex",
							"type": "uint256"
						}
					],
					"name": "ExecuteTransaction",
					"type": "event"
				},
				{
					"anonymous": false,
					"inputs": [
						{
							"indexed": true,
							"internalType": "address",
							"name": "owner",
							"type": "address"
						},
						{
							"indexed": true,
							"internalType": "uint256",
							"name": "txIndex",
							"type": "uint256"
						}
					],
					"name": "RevokeConfirmation",
					"type": "event"
				},
				{
					"anonymous": false,
					"inputs": [
						{
							"indexed": true,
							"internalType": "address",
							"name": "owner",
							"type": "address"
						},
						{
							"indexed": true,
							"internalType": "uint256",
							"name": "txIndex",
							"type": "uint256"
						},
						{
							"indexed": true,
							"internalType": "address",
							"name": "to",
							"type": "address"
						},
						{
							"indexed": false,
							"internalType": "uint256",
							"name": "value",
							"type": "uint256"
						},
						{
							"indexed": false,
							"internalType": "bytes",
							"name": "data",
							"type": "bytes"
						}
					],
					"name": "SubmitTransaction",
					"type": "event"
				},
				{
					"inputs": [
						{
							"internalType": "uint256",
							"name": "_txIndex",
							"type": "uint256"
						}
					],
					"name": "confirmTransaction",
					"outputs": [],
					"stateMutability": "nonpayable",
					"type": "function"
				},
				{
					"inputs": [
						{
							"internalType": "uint256",
							"name": "_txIndex",
							"type": "uint256"
						}
					],
					"name": "executeTransaction",
					"outputs": [],
					"stateMutability": "nonpayable",
					"type": "function"
				},
				{
					"inputs": [],
					"name": "getOwners",
					"outputs": [
						{
							"internalType": "address[]",
							"name": "",
							"type": "address[]"
						}
					],
					"stateMutability": "view",
					"type": "function"
				},
				{
					"inputs": [
						{
							"internalType": "uint256",
							"name": "_txIndex",
							"type": "uint256"
						}
					],
					"name": "getTransaction",
					"outputs": [
						{
							"internalType": "address",
							"name": "to",
							"type": "address"
						},
						{
							"internalType": "uint256",
							"name": "value",
							"type": "uint256"
						},
						{
							"internalType": "bytes",
							"name": "data",
							"type": "bytes"
						},
						{
							"internalType": "bool",
							"name": "executed",
							"type": "bool"
						},
						{
							"internalType": "uint256",
							"name": "numConfirmations",
							"type": "uint256"
						}
					],
					"stateMutability": "view",
					"type": "function"
				},
				{
					"inputs": [],
					"name": "getTransactionCount",
					"outputs": [
						{
							"internalType": "uint256",
							"name": "",
							"type": "uint256"
						}
					],
					"stateMutability": "view",
					"type": "function"
				},
				{
					"inputs": [
						{
							"internalType": "uint256",
							"name": "",
							"type": "uint256"
						},
						{
							"internalType": "address",
							"name": "",
							"type": "address"
						}
					],
					"name": "isConfirmed",
					"outputs": [
						{
							"internalType": "bool",
							"name": "",
							"type": "bool"
						}
					],
					"stateMutability": "view",
					"type": "function"
				},
				{
					"inputs": [
						{
							"internalType": "address",
							"name": "",
							"type": "address"
						}
					],
					"name": "isOwner",
					"outputs": [
						{
							"internalType": "bool",
							"name": "",
							"type": "bool"
						}
					],
					"stateMutability": "view",
					"type": "function"
				},
				{
					"inputs": [],
					"name": "numConfirmationsRequired",
					"outputs": [
						{
							"internalType": "uint256",
							"name": "",
							"type": "uint256"
						}
					],
					"stateMutability": "view",
					"type": "function"
				},
				{
					"inputs": [
						{
							"internalType": "uint256",
							"name": "",
							"type": "uint256"
						}
					],
					"name": "owners",
					"outputs": [
						{
							"internalType": "address",
							"name": "",
							"type": "address"
						}
					],
					"stateMutability": "view",
					"type": "function"
				},
				{
					"inputs": [
						{
							"internalType": "uint256",
							"name": "_txIndex",
							"type": "uint256"
						}
					],
					"name": "revokeConfirmation",
					"outputs": [],
					"stateMutability": "nonpayable",
					"type": "function"
				},
				{
					"inputs": [
						{
							"internalType": "address",
							"name": "_to",
							"type": "address"
						},
						{
							"internalType": "uint256",
							"name": "_value",
							"type": "uint256"
						},
						{
							"internalType": "bytes",
							"name": "_data",
							"type": "bytes"
						}
					],
					"name": "submitTransaction",
					"outputs": [],
					"stateMutability": "nonpayable",
					"type": "function"
				},
				{
					"inputs": [
						{
							"internalType": "uint256",
							"name": "",
							"type": "uint256"
						}
					],
					"name": "transactions",
					"outputs": [
						{
							"internalType": "address",
							"name": "to",
							"type": "address"
						},
						{
							"internalType": "uint256",
							"name": "value",
							"type": "uint256"
						},
						{
							"internalType": "bytes",
							"name": "data",
							"type": "bytes"
						},
						{
							"internalType": "bool",
							"name": "executed",
							"type": "bool"
						},
						{
							"internalType": "uint256",
							"name": "numConfirmations",
							"type": "uint256"
						}
					],
					"stateMutability": "view",
					"type": "function"
				},
				{
					"stateMutability": "payable",
					"type": "receive"
				}
			],
			"devdoc": {
				"kind": "dev",
				"methods": {},
				"version": 1
			},
			"evm": {
				"assembly": "    /* \"contracts/multi.sol\":61:5335  contract MultiSigWallet {... */\n  mstore(0x40, 0x80)\n    /* \"contracts/multi.sol\":1594:2303  constructor(address[] memory _owners, uint256 _numConfirmationsRequired) {... */\n  callvalue\n  dup1\n  iszero\n  tag_1\n  jumpi\n  0x00\n  dup1\n  revert\ntag_1:\n  pop\n  mload(0x40)\n  sub(codesize, bytecodeSize)\n  dup1\n  bytecodeSize\n  dup4\n  codecopy\n  dup2\n  dup2\n  add\n  0x40\n  mstore\n  dup2\n  add\n  swap1\n  tag_2\n  swap2\n  swap1\n  tag_3\n  jump\t// in\ntag_2:\n    /* \"contracts/multi.sol\":1703:1704  0 */\n  0x00\n    /* \"contracts/multi.sol\":1686:1693  _owners */\n  dup3\n    /* \"contracts/multi.sol\":1686:1700  _owners.length */\n  mload\n    /* \"contracts/multi.sol\":1686:1704  _owners.length > 0 */\n  gt\n    /* \"contracts/multi.sol\":1678:1724  require(_owners.length > 0, \"owners required\") */\n  tag_6\n  jumpi\n  mload(0x40)\n  0x08c379a000000000000000000000000000000000000000000000000000000000\n  dup2\n  mstore\n  0x04\n  add\n  tag_7\n  swap1\n  tag_8\n  jump\t// in\ntag_7:\n  mload(0x40)\n  dup1\n  swap2\n  sub\n  swap1\n  revert\ntag_6:\n    /* \"contracts/multi.sol\":1785:1786  0 */\n  0x00\n    /* \"contracts/multi.sol\":1757:1782  _numConfirmationsRequired */\n  dup2\n    /* \"contracts/multi.sol\":1757:1786  _numConfirmationsRequired > 0 */\n  gt\n    /* \"contracts/multi.sol\":1757:1850  _numConfirmationsRequired > 0... */\n  dup1\n  iszero\n  tag_9\n  jumpi\n  pop\n    /* \"contracts/multi.sol\":1836:1843  _owners */\n  dup2\n    /* \"contracts/multi.sol\":1836:1850  _owners.length */\n  mload\n    /* \"contracts/multi.sol\":1807:1832  _numConfirmationsRequired */\n  dup2\n    /* \"contracts/multi.sol\":1807:1850  _numConfirmationsRequired <= _owners.length */\n  gt\n  iszero\n    /* \"contracts/multi.sol\":1757:1850  _numConfirmationsRequired > 0... */\ntag_9:\n    /* \"contracts/multi.sol\":1735:1918  require(... */\n  tag_10\n  jumpi\n  mload(0x40)\n  0x08c379a000000000000000000000000000000000000000000000000000000000\n  dup2\n  mstore\n  0x04\n  add\n  tag_11\n  swap1\n  tag_12\n  jump\t// in\ntag_11:\n  mload(0x40)\n  dup1\n  swap2\n  sub\n  swap1\n  revert\ntag_10:\n    /* \"contracts/multi.sol\":1936:1945  uint256 i */\n  0x00\n    /* \"contracts/multi.sol\":1931:2221  for (uint256 i = 0; i < _owners.length; i++) {... */\ntag_13:\n    /* \"contracts/multi.sol\":1955:1962  _owners */\n  dup3\n    /* \"contracts/multi.sol\":1955:1969  _owners.length */\n  mload\n    /* \"contracts/multi.sol\":1951:1952  i */\n  dup2\n    /* \"contracts/multi.sol\":1951:1969  i < _owners.length */\n  lt\n    /* \"contracts/multi.sol\":1931:2221  for (uint256 i = 0; i < _owners.length; i++) {... */\n  iszero\n  tag_14\n  jumpi\n    /* \"contracts/multi.sol\":1991:2004  address owner */\n  0x00\n    /* \"contracts/multi.sol\":2007:2014  _owners */\n  dup4\n    /* \"contracts/multi.sol\":2015:2016  i */\n  dup3\n    /* \"contracts/multi.sol\":2007:2017  _owners[i] */\n  dup2\n  mload\n  dup2\n  lt\n  tag_16\n  jumpi\n  tag_17\n  tag_18\n  jump\t// in\ntag_17:\ntag_16:\n  0x20\n  mul\n  0x20\n  add\n  add\n  mload\n    /* \"contracts/multi.sol\":1991:2017  address owner = _owners[i] */\n  swap1\n  pop\n    /* \"contracts/multi.sol\":2059:2060  0 */\n  0x00\n    /* \"contracts/multi.sol\":2042:2061  owner != address(0) */\n  0xffffffffffffffffffffffffffffffffffffffff\n  and\n    /* \"contracts/multi.sol\":2042:2047  owner */\n  dup2\n    /* \"contracts/multi.sol\":2042:2061  owner != address(0) */\n  0xffffffffffffffffffffffffffffffffffffffff\n  and\n  sub\n    /* \"contracts/multi.sol\":2034:2079  require(owner != address(0), \"invalid owner\") */\n  tag_19\n  jumpi\n  mload(0x40)\n  0x08c379a000000000000000000000000000000000000000000000000000000000\n  dup2\n  mstore\n  0x04\n  add\n  tag_20\n  swap1\n  tag_21\n  jump\t// in\ntag_20:\n  mload(0x40)\n  dup1\n  swap2\n  sub\n  swap1\n  revert\ntag_19:\n    /* \"contracts/multi.sol\":2103:2110  isOwner */\n  0x01\n    /* \"contracts/multi.sol\":2103:2117  isOwner[owner] */\n  0x00\n    /* \"contracts/multi.sol\":2111:2116  owner */\n  dup3\n    /* \"contracts/multi.sol\":2103:2117  isOwner[owner] */\n  0xffffffffffffffffffffffffffffffffffffffff\n  and\n  0xffffffffffffffffffffffffffffffffffffffff\n  and\n  dup2\n  mstore\n  0x20\n  add\n  swap1\n  dup2\n  mstore\n  0x20\n  add\n  0x00\n  keccak256\n  0x00\n  swap1\n  sload\n  swap1\n  0x0100\n  exp\n  swap1\n  div\n  0xff\n  and\n    /* \"contracts/multi.sol\":2102:2117  !isOwner[owner] */\n  iszero\n    /* \"contracts/multi.sol\":2094:2138  require(!isOwner[owner], \"owner not unique\") */\n  tag_22\n  jumpi\n  mload(0x40)\n  0x08c379a000000000000000000000000000000000000000000000000000000000\n  dup2\n  mstore\n  0x04\n  add\n  tag_23\n  swap1\n  tag_24\n  jump\t// in\ntag_23:\n  mload(0x40)\n  dup1\n  swap2\n  sub\n  swap1\n  revert\ntag_22:\n    /* \"contracts/multi.sol\":2172:2176  true */\n  0x01\n    /* \"contracts/multi.sol\":2155:2162  isOwner */\n  dup1\n    /* \"contracts/multi.sol\":2155:2169  isOwner[owner] */\n  0x00\n    /* \"contracts/multi.sol\":2163:2168  owner */\n  dup4\n    /* \"contracts/multi.sol\":2155:2169  isOwner[owner] */\n  0xffffffffffffffffffffffffffffffffffffffff\n  and\n  0xffffffffffffffffffffffffffffffffffffffff\n  and\n  dup2\n  mstore\n  0x20\n  add\n  swap1\n  dup2\n  mstore\n  0x20\n  add\n  0x00\n  keccak256\n  0x00\n    /* \"contracts/multi.sol\":2155:2176  isOwner[owner] = true */\n  0x0100\n  exp\n  dup2\n  sload\n  dup2\n  0xff\n  mul\n  not\n  and\n  swap1\n  dup4\n  iszero\n  iszero\n  mul\n  or\n  swap1\n  sstore\n  pop\n    /* \"contracts/multi.sol\":2191:2197  owners */\n  0x00\n    /* \"contracts/multi.sol\":2203:2208  owner */\n  dup2\n    /* \"contracts/multi.sol\":2191:2209  owners.push(owner) */\n  swap1\n  dup1\n  0x01\n  dup2\n  sload\n  add\n  dup1\n  dup3\n  sstore\n  dup1\n  swap2\n  pop\n  pop\n  0x01\n  swap1\n  sub\n  swap1\n  0x00\n  mstore\n  keccak256(0x00, 0x20)\n  add\n  0x00\n  swap1\n  swap2\n  swap1\n  swap2\n  swap1\n  swap2\n  0x0100\n  exp\n  dup2\n  sload\n  dup2\n  0xffffffffffffffffffffffffffffffffffffffff\n  mul\n  not\n  and\n  swap1\n  dup4\n  0xffffffffffffffffffffffffffffffffffffffff\n  and\n  mul\n  or\n  swap1\n  sstore\n  pop\n    /* \"contracts/multi.sol\":1976:2221  {... */\n  pop\n    /* \"contracts/multi.sol\":1971:1974  i++ */\n  dup1\n  dup1\n  0x01\n  add\n  swap2\n  pop\n  pop\n    /* \"contracts/multi.sol\":1931:2221  for (uint256 i = 0; i < _owners.length; i++) {... */\n  jump(tag_13)\ntag_14:\n  pop\n    /* \"contracts/multi.sol\":2260:2285  _numConfirmationsRequired */\n  dup1\n    /* \"contracts/multi.sol\":2233:2257  numConfirmationsRequired */\n  0x02\n    /* \"contracts/multi.sol\":2233:2285  numConfirmationsRequired = _numConfirmationsRequired */\n  dup2\n  swap1\n  sstore\n  pop\n    /* \"contracts/multi.sol\":1594:2303  constructor(address[] memory _owners, uint256 _numConfirmationsRequired) {... */\n  pop\n  pop\n    /* \"contracts/multi.sol\":61:5335  contract MultiSigWallet {... */\n  jump(tag_26)\n    /* \"#utility.yul\":7:82   */\ntag_27:\n    /* \"#utility.yul\":40:46   */\n  0x00\n    /* \"#utility.yul\":73:75   */\n  0x40\n    /* \"#utility.yul\":67:76   */\n  mload\n    /* \"#utility.yul\":57:76   */\n  swap1\n  pop\n    /* \"#utility.yul\":7:82   */\n  swap1\n  jump\t// out\n    /* \"#utility.yul\":88:205   */\ntag_28:\n    /* \"#utility.yul\":197:198   */\n  0x00\n    /* \"#utility.yul\":194:195   */\n  dup1\n    /* \"#utility.yul\":187:199   */\n  revert\n    /* \"#utility.yul\":211:328   */\ntag_29:\n    /* \"#utility.yul\":320:321   */\n  0x00\n    /* \"#utility.yul\":317:318   */\n  dup1\n    /* \"#utility.yul\":310:322   */\n  revert\n    /* \"#utility.yul\":334:451   */\ntag_30:\n    /* \"#utility.yul\":443:444   */\n  0x00\n    /* \"#utility.yul\":440:441   */\n  dup1\n    /* \"#utility.yul\":433:445   */\n  revert\n    /* \"#utility.yul\":457:559   */\ntag_31:\n    /* \"#utility.yul\":498:504   */\n  0x00\n    /* \"#utility.yul\":549:551   */\n  0x1f\n    /* \"#utility.yul\":545:552   */\n  not\n    /* \"#utility.yul\":540:542   */\n  0x1f\n    /* \"#utility.yul\":533:538   */\n  dup4\n    /* \"#utility.yul\":529:543   */\n  add\n    /* \"#utility.yul\":525:553   */\n  and\n    /* \"#utility.yul\":515:553   */\n  swap1\n  pop\n    /* \"#utility.yul\":457:559   */\n  swap2\n  swap1\n  pop\n  jump\t// out\n    /* \"#utility.yul\":565:745   */\ntag_32:\n    /* \"#utility.yul\":613:690   */\n  0x4e487b7100000000000000000000000000000000000000000000000000000000\n    /* \"#utility.yul\":610:611   */\n  0x00\n    /* \"#utility.yul\":603:691   */\n  mstore\n    /* \"#utility.yul\":710:714   */\n  0x41\n    /* \"#utility.yul\":707:708   */\n  0x04\n    /* \"#utility.yul\":700:715   */\n  mstore\n    /* \"#utility.yul\":734:738   */\n  0x24\n    /* \"#utility.yul\":731:732   */\n  0x00\n    /* \"#utility.yul\":724:739   */\n  revert\n    /* \"#utility.yul\":751:1032   */\ntag_33:\n    /* \"#utility.yul\":834:861   */\n  tag_63\n    /* \"#utility.yul\":856:860   */\n  dup3\n    /* \"#utility.yul\":834:861   */\n  tag_31\n  jump\t// in\ntag_63:\n    /* \"#utility.yul\":826:832   */\n  dup2\n    /* \"#utility.yul\":822:862   */\n  add\n    /* \"#utility.yul\":964:970   */\n  dup2\n    /* \"#utility.yul\":952:962   */\n  dup2\n    /* \"#utility.yul\":949:971   */\n  lt\n    /* \"#utility.yul\":928:946   */\n  0xffffffffffffffff\n    /* \"#utility.yul\":916:926   */\n  dup3\n    /* \"#utility.yul\":913:947   */\n  gt\n    /* \"#utility.yul\":910:972   */\n  or\n    /* \"#utility.yul\":907:995   */\n  iszero\n  tag_64\n  jumpi\n    /* \"#utility.yul\":975:993   */\n  tag_65\n  tag_32\n  jump\t// in\ntag_65:\n    /* \"#utility.yul\":907:995   */\ntag_64:\n    /* \"#utility.yul\":1015:1025   */\n  dup1\n    /* \"#utility.yul\":1011:1013   */\n  0x40\n    /* \"#utility.yul\":1004:1026   */\n  mstore\n    /* \"#utility.yul\":794:1032   */\n  pop\n    /* \"#utility.yul\":751:1032   */\n  pop\n  pop\n  jump\t// out\n    /* \"#utility.yul\":1038:1167   */\ntag_34:\n    /* \"#utility.yul\":1072:1078   */\n  0x00\n    /* \"#utility.yul\":1099:1119   */\n  tag_67\n  tag_27\n  jump\t// in\ntag_67:\n    /* \"#utility.yul\":1089:1119   */\n  swap1\n  pop\n    /* \"#utility.yul\":1128:1161   */\n  tag_68\n    /* \"#utility.yul\":1156:1160   */\n  dup3\n    /* \"#utility.yul\":1148:1154   */\n  dup3\n    /* \"#utility.yul\":1128:1161   */\n  tag_33\n  jump\t// in\ntag_68:\n    /* \"#utility.yul\":1038:1167   */\n  swap2\n  swap1\n  pop\n  jump\t// out\n    /* \"#utility.yul\":1173:1484   */\ntag_35:\n    /* \"#utility.yul\":1250:1254   */\n  0x00\n    /* \"#utility.yul\":1340:1358   */\n  0xffffffffffffffff\n    /* \"#utility.yul\":1332:1338   */\n  dup3\n    /* \"#utility.yul\":1329:1359   */\n  gt\n    /* \"#utility.yul\":1326:1382   */\n  iszero\n  tag_70\n  jumpi\n    /* \"#utility.yul\":1362:1380   */\n  tag_71\n  tag_32\n  jump\t// in\ntag_71:\n    /* \"#utility.yul\":1326:1382   */\ntag_70:\n    /* \"#utility.yul\":1412:1416   */\n  0x20\n    /* \"#utility.yul\":1404:1410   */\n  dup3\n    /* \"#utility.yul\":1400:1417   */\n  mul\n    /* \"#utility.yul\":1392:1417   */\n  swap1\n  pop\n    /* \"#utility.yul\":1472:1476   */\n  0x20\n    /* \"#utility.yul\":1466:1470   */\n  dup2\n    /* \"#utility.yul\":1462:1477   */\n  add\n    /* \"#utility.yul\":1454:1477   */\n  swap1\n  pop\n    /* \"#utility.yul\":1173:1484   */\n  swap2\n  swap1\n  pop\n  jump\t// out\n    /* \"#utility.yul\":1490:1607   */\ntag_36:\n    /* \"#utility.yul\":1599:1600   */\n  0x00\n    /* \"#utility.yul\":1596:1597   */\n  dup1\n    /* \"#utility.yul\":1589:1601   */\n  revert\n    /* \"#utility.yul\":1613:1739   */\ntag_37:\n    /* \"#utility.yul\":1650:1657   */\n  0x00\n    /* \"#utility.yul\":1690:1732   */\n  0xffffffffffffffffffffffffffffffffffffffff\n    /* \"#utility.yul\":1683:1688   */\n  dup3\n    /* \"#utility.yul\":1679:1733   */\n  and\n    /* \"#utility.yul\":1668:1733   */\n  swap1\n  pop\n    /* \"#utility.yul\":1613:1739   */\n  swap2\n  swap1\n  pop\n  jump\t// out\n    /* \"#utility.yul\":1745:1841   */\ntag_38:\n    /* \"#utility.yul\":1782:1789   */\n  0x00\n    /* \"#utility.yul\":1811:1835   */\n  tag_75\n    /* \"#utility.yul\":1829:1834   */\n  dup3\n    /* \"#utility.yul\":1811:1835   */\n  tag_37\n  jump\t// in\ntag_75:\n    /* \"#utility.yul\":1800:1835   */\n  swap1\n  pop\n    /* \"#utility.yul\":1745:1841   */\n  swap2\n  swap1\n  pop\n  jump\t// out\n    /* \"#utility.yul\":1847:1969   */\ntag_39:\n    /* \"#utility.yul\":1920:1944   */\n  tag_77\n    /* \"#utility.yul\":1938:1943   */\n  dup2\n    /* \"#utility.yul\":1920:1944   */\n  tag_38\n  jump\t// in\ntag_77:\n    /* \"#utility.yul\":1913:1918   */\n  dup2\n    /* \"#utility.yul\":1910:1945   */\n  eq\n    /* \"#utility.yul\":1900:1963   */\n  tag_78\n  jumpi\n    /* \"#utility.yul\":1959:1960   */\n  0x00\n    /* \"#utility.yul\":1956:1957   */\n  dup1\n    /* \"#utility.yul\":1949:1961   */\n  revert\n    /* \"#utility.yul\":1900:1963   */\ntag_78:\n    /* \"#utility.yul\":1847:1969   */\n  pop\n  jump\t// out\n    /* \"#utility.yul\":1975:2118   */\ntag_40:\n    /* \"#utility.yul\":2032:2037   */\n  0x00\n    /* \"#utility.yul\":2063:2069   */\n  dup2\n    /* \"#utility.yul\":2057:2070   */\n  mload\n    /* \"#utility.yul\":2048:2070   */\n  swap1\n  pop\n    /* \"#utility.yul\":2079:2112   */\n  tag_80\n    /* \"#utility.yul\":2106:2111   */\n  dup2\n    /* \"#utility.yul\":2079:2112   */\n  tag_39\n  jump\t// in\ntag_80:\n    /* \"#utility.yul\":1975:2118   */\n  swap3\n  swap2\n  pop\n  pop\n  jump\t// out\n    /* \"#utility.yul\":2141:2873   */\ntag_41:\n    /* \"#utility.yul\":2248:2253   */\n  0x00\n    /* \"#utility.yul\":2273:2354   */\n  tag_82\n    /* \"#utility.yul\":2289:2353   */\n  tag_83\n    /* \"#utility.yul\":2346:2352   */\n  dup5\n    /* \"#utility.yul\":2289:2353   */\n  tag_35\n  jump\t// in\ntag_83:\n    /* \"#utility.yul\":2273:2354   */\n  tag_34\n  jump\t// in\ntag_82:\n    /* \"#utility.yul\":2264:2354   */\n  swap1\n  pop\n    /* \"#utility.yul\":2374:2379   */\n  dup1\n    /* \"#utility.yul\":2403:2409   */\n  dup4\n    /* \"#utility.yul\":2396:2401   */\n  dup3\n    /* \"#utility.yul\":2389:2410   */\n  mstore\n    /* \"#utility.yul\":2437:2441   */\n  0x20\n    /* \"#utility.yul\":2430:2435   */\n  dup3\n    /* \"#utility.yul\":2426:2442   */\n  add\n    /* \"#utility.yul\":2419:2442   */\n  swap1\n  pop\n    /* \"#utility.yul\":2490:2494   */\n  0x20\n    /* \"#utility.yul\":2482:2488   */\n  dup5\n    /* \"#utility.yul\":2478:2495   */\n  mul\n    /* \"#utility.yul\":2470:2476   */\n  dup4\n    /* \"#utility.yul\":2466:2496   */\n  add\n    /* \"#utility.yul\":2519:2522   */\n  dup6\n    /* \"#utility.yul\":2511:2517   */\n  dup2\n    /* \"#utility.yul\":2508:2523   */\n  gt\n    /* \"#utility.yul\":2505:2627   */\n  iszero\n  tag_84\n  jumpi\n    /* \"#utility.yul\":2538:2617   */\n  tag_85\n  tag_36\n  jump\t// in\ntag_85:\n    /* \"#utility.yul\":2505:2627   */\ntag_84:\n    /* \"#utility.yul\":2653:2659   */\n  dup4\n    /* \"#utility.yul\":2636:2867   */\ntag_86:\n    /* \"#utility.yul\":2670:2676   */\n  dup2\n    /* \"#utility.yul\":2665:2668   */\n  dup2\n    /* \"#utility.yul\":2662:2677   */\n  lt\n    /* \"#utility.yul\":2636:2867   */\n  iszero\n  tag_88\n  jumpi\n    /* \"#utility.yul\":2745:2748   */\n  dup1\n    /* \"#utility.yul\":2774:2822   */\n  tag_89\n    /* \"#utility.yul\":2818:2821   */\n  dup9\n    /* \"#utility.yul\":2806:2816   */\n  dup3\n    /* \"#utility.yul\":2774:2822   */\n  tag_40\n  jump\t// in\ntag_89:\n    /* \"#utility.yul\":2769:2772   */\n  dup5\n    /* \"#utility.yul\":2762:2823   */\n  mstore\n    /* \"#utility.yul\":2852:2856   */\n  0x20\n    /* \"#utility.yul\":2847:2850   */\n  dup5\n    /* \"#utility.yul\":2843:2857   */\n  add\n    /* \"#utility.yul\":2836:2857   */\n  swap4\n  pop\n    /* \"#utility.yul\":2712:2867   */\n  pop\n    /* \"#utility.yul\":2696:2700   */\n  0x20\n    /* \"#utility.yul\":2691:2694   */\n  dup2\n    /* \"#utility.yul\":2687:2701   */\n  add\n    /* \"#utility.yul\":2680:2701   */\n  swap1\n  pop\n    /* \"#utility.yul\":2636:2867   */\n  jump(tag_86)\ntag_88:\n    /* \"#utility.yul\":2640:2661   */\n  pop\n    /* \"#utility.yul\":2254:2873   */\n  pop\n  pop\n    /* \"#utility.yul\":2141:2873   */\n  swap4\n  swap3\n  pop\n  pop\n  pop\n  jump\t// out\n    /* \"#utility.yul\":2896:3281   */\ntag_42:\n    /* \"#utility.yul\":2978:2983   */\n  0x00\n    /* \"#utility.yul\":3027:3030   */\n  dup3\n    /* \"#utility.yul\":3020:3024   */\n  0x1f\n    /* \"#utility.yul\":3012:3018   */\n  dup4\n    /* \"#utility.yul\":3008:3025   */\n  add\n    /* \"#utility.yul\":3004:3031   */\n  slt\n    /* \"#utility.yul\":2994:3116   */\n  tag_91\n  jumpi\n    /* \"#utility.yul\":3035:3114   */\n  tag_92\n  tag_30\n  jump\t// in\ntag_92:\n    /* \"#utility.yul\":2994:3116   */\ntag_91:\n    /* \"#utility.yul\":3145:3151   */\n  dup2\n    /* \"#utility.yul\":3139:3152   */\n  mload\n    /* \"#utility.yul\":3170:3275   */\n  tag_93\n    /* \"#utility.yul\":3271:3274   */\n  dup5\n    /* \"#utility.yul\":3263:3269   */\n  dup3\n    /* \"#utility.yul\":3256:3260   */\n  0x20\n    /* \"#utility.yul\":3248:3254   */\n  dup7\n    /* \"#utility.yul\":3244:3261   */\n  add\n    /* \"#utility.yul\":3170:3275   */\n  tag_41\n  jump\t// in\ntag_93:\n    /* \"#utility.yul\":3161:3275   */\n  swap2\n  pop\n    /* \"#utility.yul\":2984:3281   */\n  pop\n    /* \"#utility.yul\":2896:3281   */\n  swap3\n  swap2\n  pop\n  pop\n  jump\t// out\n    /* \"#utility.yul\":3287:3364   */\ntag_43:\n    /* \"#utility.yul\":3324:3331   */\n  0x00\n    /* \"#utility.yul\":3353:3358   */\n  dup2\n    /* \"#utility.yul\":3342:3358   */\n  swap1\n  pop\n    /* \"#utility.yul\":3287:3364   */\n  swap2\n  swap1\n  pop\n  jump\t// out\n    /* \"#utility.yul\":3370:3492   */\ntag_44:\n    /* \"#utility.yul\":3443:3467   */\n  tag_96\n    /* \"#utility.yul\":3461:3466   */\n  dup2\n    /* \"#utility.yul\":3443:3467   */\n  tag_43\n  jump\t// in\ntag_96:\n    /* \"#utility.yul\":3436:3441   */\n  dup2\n    /* \"#utility.yul\":3433:3468   */\n  eq\n    /* \"#utility.yul\":3423:3486   */\n  tag_97\n  jumpi\n    /* \"#utility.yul\":3482:3483   */\n  0x00\n    /* \"#utility.yul\":3479:3480   */\n  dup1\n    /* \"#utility.yul\":3472:3484   */\n  revert\n    /* \"#utility.yul\":3423:3486   */\ntag_97:\n    /* \"#utility.yul\":3370:3492   */\n  pop\n  jump\t// out\n    /* \"#utility.yul\":3498:3641   */\ntag_45:\n    /* \"#utility.yul\":3555:3560   */\n  0x00\n    /* \"#utility.yul\":3586:3592   */\n  dup2\n    /* \"#utility.yul\":3580:3593   */\n  mload\n    /* \"#utility.yul\":3571:3593   */\n  swap1\n  pop\n    /* \"#utility.yul\":3602:3635   */\n  tag_99\n    /* \"#utility.yul\":3629:3634   */\n  dup2\n    /* \"#utility.yul\":3602:3635   */\n  tag_44\n  jump\t// in\ntag_99:\n    /* \"#utility.yul\":3498:3641   */\n  swap3\n  swap2\n  pop\n  pop\n  jump\t// out\n    /* \"#utility.yul\":3647:4357   */\ntag_3:\n    /* \"#utility.yul\":3751:3757   */\n  0x00\n    /* \"#utility.yul\":3759:3765   */\n  dup1\n    /* \"#utility.yul\":3808:3810   */\n  0x40\n    /* \"#utility.yul\":3796:3805   */\n  dup4\n    /* \"#utility.yul\":3787:3794   */\n  dup6\n    /* \"#utility.yul\":3783:3806   */\n  sub\n    /* \"#utility.yul\":3779:3811   */\n  slt\n    /* \"#utility.yul\":3776:3895   */\n  iszero\n  tag_101\n  jumpi\n    /* \"#utility.yul\":3814:3893   */\n  tag_102\n  tag_28\n  jump\t// in\ntag_102:\n    /* \"#utility.yul\":3776:3895   */\ntag_101:\n    /* \"#utility.yul\":3955:3956   */\n  0x00\n    /* \"#utility.yul\":3944:3953   */\n  dup4\n    /* \"#utility.yul\":3940:3957   */\n  add\n    /* \"#utility.yul\":3934:3958   */\n  mload\n    /* \"#utility.yul\":3985:4003   */\n  0xffffffffffffffff\n    /* \"#utility.yul\":3977:3983   */\n  dup2\n    /* \"#utility.yul\":3974:4004   */\n  gt\n    /* \"#utility.yul\":3971:4088   */\n  iszero\n  tag_103\n  jumpi\n    /* \"#utility.yul\":4007:4086   */\n  tag_104\n  tag_29\n  jump\t// in\ntag_104:\n    /* \"#utility.yul\":3971:4088   */\ntag_103:\n    /* \"#utility.yul\":4112:4201   */\n  tag_105\n    /* \"#utility.yul\":4193:4200   */\n  dup6\n    /* \"#utility.yul\":4184:4190   */\n  dup3\n    /* \"#utility.yul\":4173:4182   */\n  dup7\n    /* \"#utility.yul\":4169:4191   */\n  add\n    /* \"#utility.yul\":4112:4201   */\n  tag_42\n  jump\t// in\ntag_105:\n    /* \"#utility.yul\":4102:4201   */\n  swap3\n  pop\n    /* \"#utility.yul\":3905:4211   */\n  pop\n    /* \"#utility.yul\":4250:4252   */\n  0x20\n    /* \"#utility.yul\":4276:4340   */\n  tag_106\n    /* \"#utility.yul\":4332:4339   */\n  dup6\n    /* \"#utility.yul\":4323:4329   */\n  dup3\n    /* \"#utility.yul\":4312:4321   */\n  dup7\n    /* \"#utility.yul\":4308:4330   */\n  add\n    /* \"#utility.yul\":4276:4340   */\n  tag_45\n  jump\t// in\ntag_106:\n    /* \"#utility.yul\":4266:4340   */\n  swap2\n  pop\n    /* \"#utility.yul\":4221:4350   */\n  pop\n    /* \"#utility.yul\":3647:4357   */\n  swap3\n  pop\n  swap3\n  swap1\n  pop\n  jump\t// out\n    /* \"#utility.yul\":4363:4532   */\ntag_46:\n    /* \"#utility.yul\":4447:4458   */\n  0x00\n    /* \"#utility.yul\":4481:4487   */\n  dup3\n    /* \"#utility.yul\":4476:4479   */\n  dup3\n    /* \"#utility.yul\":4469:4488   */\n  mstore\n    /* \"#utility.yul\":4521:4525   */\n  0x20\n    /* \"#utility.yul\":4516:4519   */\n  dup3\n    /* \"#utility.yul\":4512:4526   */\n  add\n    /* \"#utility.yul\":4497:4526   */\n  swap1\n  pop\n    /* \"#utility.yul\":4363:4532   */\n  swap3\n  swap2\n  pop\n  pop\n  jump\t// out\n    /* \"#utility.yul\":4538:4703   */\ntag_47:\n    /* \"#utility.yul\":4678:4695   */\n  0x6f776e6572732072657175697265640000000000000000000000000000000000\n    /* \"#utility.yul\":4674:4675   */\n  0x00\n    /* \"#utility.yul\":4666:4672   */\n  dup3\n    /* \"#utility.yul\":4662:4676   */\n  add\n    /* \"#utility.yul\":4655:4696   */\n  mstore\n    /* \"#utility.yul\":4538:4703   */\n  pop\n  jump\t// out\n    /* \"#utility.yul\":4709:5075   */\ntag_48:\n    /* \"#utility.yul\":4851:4854   */\n  0x00\n    /* \"#utility.yul\":4872:4939   */\n  tag_110\n    /* \"#utility.yul\":4936:4938   */\n  0x0f\n    /* \"#utility.yul\":4931:4934   */\n  dup4\n    /* \"#utility.yul\":4872:4939   */\n  tag_46\n  jump\t// in\ntag_110:\n    /* \"#utility.yul\":4865:4939   */\n  swap2\n  pop\n    /* \"#utility.yul\":4948:5041   */\n  tag_111\n    /* \"#utility.yul\":5037:5040   */\n  dup3\n    /* \"#utility.yul\":4948:5041   */\n  tag_47\n  jump\t// in\ntag_111:\n    /* \"#utility.yul\":5066:5068   */\n  0x20\n    /* \"#utility.yul\":5061:5064   */\n  dup3\n    /* \"#utility.yul\":5057:5069   */\n  add\n    /* \"#utility.yul\":5050:5069   */\n  swap1\n  pop\n    /* \"#utility.yul\":4709:5075   */\n  swap2\n  swap1\n  pop\n  jump\t// out\n    /* \"#utility.yul\":5081:5500   */\ntag_8:\n    /* \"#utility.yul\":5247:5251   */\n  0x00\n    /* \"#utility.yul\":5285:5287   */\n  0x20\n    /* \"#utility.yul\":5274:5283   */\n  dup3\n    /* \"#utility.yul\":5270:5288   */\n  add\n    /* \"#utility.yul\":5262:5288   */\n  swap1\n  pop\n    /* \"#utility.yul\":5334:5343   */\n  dup2\n    /* \"#utility.yul\":5328:5332   */\n  dup2\n    /* \"#utility.yul\":5324:5344   */\n  sub\n    /* \"#utility.yul\":5320:5321   */\n  0x00\n    /* \"#utility.yul\":5309:5318   */\n  dup4\n    /* \"#utility.yul\":5305:5322   */\n  add\n    /* \"#utility.yul\":5298:5345   */\n  mstore\n    /* \"#utility.yul\":5362:5493   */\n  tag_113\n    /* \"#utility.yul\":5488:5492   */\n  dup2\n    /* \"#utility.yul\":5362:5493   */\n  tag_48\n  jump\t// in\ntag_113:\n    /* \"#utility.yul\":5354:5493   */\n  swap1\n  pop\n    /* \"#utility.yul\":5081:5500   */\n  swap2\n  swap1\n  pop\n  jump\t// out\n    /* \"#utility.yul\":5506:5733   */\ntag_49:\n    /* \"#utility.yul\":5646:5680   */\n  0x696e76616c6964206e756d626572206f6620726571756972656420636f6e6669\n    /* \"#utility.yul\":5642:5643   */\n  0x00\n    /* \"#utility.yul\":5634:5640   */\n  dup3\n    /* \"#utility.yul\":5630:5644   */\n  add\n    /* \"#utility.yul\":5623:5681   */\n  mstore\n    /* \"#utility.yul\":5715:5725   */\n  0x726d6174696f6e73000000000000000000000000000000000000000000000000\n    /* \"#utility.yul\":5710:5712   */\n  0x20\n    /* \"#utility.yul\":5702:5708   */\n  dup3\n    /* \"#utility.yul\":5698:5713   */\n  add\n    /* \"#utility.yul\":5691:5726   */\n  mstore\n    /* \"#utility.yul\":5506:5733   */\n  pop\n  jump\t// out\n    /* \"#utility.yul\":5739:6105   */\ntag_50:\n    /* \"#utility.yul\":5881:5884   */\n  0x00\n    /* \"#utility.yul\":5902:5969   */\n  tag_116\n    /* \"#utility.yul\":5966:5968   */\n  0x28\n    /* \"#utility.yul\":5961:5964   */\n  dup4\n    /* \"#utility.yul\":5902:5969   */\n  tag_46\n  jump\t// in\ntag_116:\n    /* \"#utility.yul\":5895:5969   */\n  swap2\n  pop\n    /* \"#utility.yul\":5978:6071   */\n  tag_117\n    /* \"#utility.yul\":6067:6070   */\n  dup3\n    /* \"#utility.yul\":5978:6071   */\n  tag_49\n  jump\t// in\ntag_117:\n    /* \"#utility.yul\":6096:6098   */\n  0x40\n    /* \"#utility.yul\":6091:6094   */\n  dup3\n    /* \"#utility.yul\":6087:6099   */\n  add\n    /* \"#utility.yul\":6080:6099   */\n  swap1\n  pop\n    /* \"#utility.yul\":5739:6105   */\n  swap2\n  swap1\n  pop\n  jump\t// out\n    /* \"#utility.yul\":6111:6530   */\ntag_12:\n    /* \"#utility.yul\":6277:6281   */\n  0x00\n    /* \"#utility.yul\":6315:6317   */\n  0x20\n    /* \"#utility.yul\":6304:6313   */\n  dup3\n    /* \"#utility.yul\":6300:6318   */\n  add\n    /* \"#utility.yul\":6292:6318   */\n  swap1\n  pop\n    /* \"#utility.yul\":6364:6373   */\n  dup2\n    /* \"#utility.yul\":6358:6362   */\n  dup2\n    /* \"#utility.yul\":6354:6374   */\n  sub\n    /* \"#utility.yul\":6350:6351   */\n  0x00\n    /* \"#utility.yul\":6339:6348   */\n  dup4\n    /* \"#utility.yul\":6335:6352   */\n  add\n    /* \"#utility.yul\":6328:6375   */\n  mstore\n    /* \"#utility.yul\":6392:6523   */\n  tag_119\n    /* \"#utility.yul\":6518:6522   */\n  dup2\n    /* \"#utility.yul\":6392:6523   */\n  tag_50\n  jump\t// in\ntag_119:\n    /* \"#utility.yul\":6384:6523   */\n  swap1\n  pop\n    /* \"#utility.yul\":6111:6530   */\n  swap2\n  swap1\n  pop\n  jump\t// out\n    /* \"#utility.yul\":6536:6716   */\ntag_18:\n    /* \"#utility.yul\":6584:6661   */\n  0x4e487b7100000000000000000000000000000000000000000000000000000000\n    /* \"#utility.yul\":6581:6582   */\n  0x00\n    /* \"#utility.yul\":6574:6662   */\n  mstore\n    /* \"#utility.yul\":6681:6685   */\n  0x32\n    /* \"#utility.yul\":6678:6679   */\n  0x04\n    /* \"#utility.yul\":6671:6686   */\n  mstore\n    /* \"#utility.yul\":6705:6709   */\n  0x24\n    /* \"#utility.yul\":6702:6703   */\n  0x00\n    /* \"#utility.yul\":6695:6710   */\n  revert\n    /* \"#utility.yul\":6722:6885   */\ntag_51:\n    /* \"#utility.yul\":6862:6877   */\n  0x696e76616c6964206f776e657200000000000000000000000000000000000000\n    /* \"#utility.yul\":6858:6859   */\n  0x00\n    /* \"#utility.yul\":6850:6856   */\n  dup3\n    /* \"#utility.yul\":6846:6860   */\n  add\n    /* \"#utility.yul\":6839:6878   */\n  mstore\n    /* \"#utility.yul\":6722:6885   */\n  pop\n  jump\t// out\n    /* \"#utility.yul\":6891:7257   */\ntag_52:\n    /* \"#utility.yul\":7033:7036   */\n  0x00\n    /* \"#utility.yul\":7054:7121   */\n  tag_123\n    /* \"#utility.yul\":7118:7120   */\n  0x0d\n    /* \"#utility.yul\":7113:7116   */\n  dup4\n    /* \"#utility.yul\":7054:7121   */\n  tag_46\n  jump\t// in\ntag_123:\n    /* \"#utility.yul\":7047:7121   */\n  swap2\n  pop\n    /* \"#utility.yul\":7130:7223   */\n  tag_124\n    /* \"#utility.yul\":7219:7222   */\n  dup3\n    /* \"#utility.yul\":7130:7223   */\n  tag_51\n  jump\t// in\ntag_124:\n    /* \"#utility.yul\":7248:7250   */\n  0x20\n    /* \"#utility.yul\":7243:7246   */\n  dup3\n    /* \"#utility.yul\":7239:7251   */\n  add\n    /* \"#utility.yul\":7232:7251   */\n  swap1\n  pop\n    /* \"#utility.yul\":6891:7257   */\n  swap2\n  swap1\n  pop\n  jump\t// out\n    /* \"#utility.yul\":7263:7682   */\ntag_21:\n    /* \"#utility.yul\":7429:7433   */\n  0x00\n    /* \"#utility.yul\":7467:7469   */\n  0x20\n    /* \"#utility.yul\":7456:7465   */\n  dup3\n    /* \"#utility.yul\":7452:7470   */\n  add\n    /* \"#utility.yul\":7444:7470   */\n  swap1\n  pop\n    /* \"#utility.yul\":7516:7525   */\n  dup2\n    /* \"#utility.yul\":7510:7514   */\n  dup2\n    /* \"#utility.yul\":7506:7526   */\n  sub\n    /* \"#utility.yul\":7502:7503   */\n  0x00\n    /* \"#utility.yul\":7491:7500   */\n  dup4\n    /* \"#utility.yul\":7487:7504   */\n  add\n    /* \"#utility.yul\":7480:7527   */\n  mstore\n    /* \"#utility.yul\":7544:7675   */\n  tag_126\n    /* \"#utility.yul\":7670:7674   */\n  dup2\n    /* \"#utility.yul\":7544:7675   */\n  tag_52\n  jump\t// in\ntag_126:\n    /* \"#utility.yul\":7536:7675   */\n  swap1\n  pop\n    /* \"#utility.yul\":7263:7682   */\n  swap2\n  swap1\n  pop\n  jump\t// out\n    /* \"#utility.yul\":7688:7854   */\ntag_53:\n    /* \"#utility.yul\":7828:7846   */\n  0x6f776e6572206e6f7420756e6971756500000000000000000000000000000000\n    /* \"#utility.yul\":7824:7825   */\n  0x00\n    /* \"#utility.yul\":7816:7822   */\n  dup3\n    /* \"#utility.yul\":7812:7826   */\n  add\n    /* \"#utility.yul\":7805:7847   */\n  mstore\n    /* \"#utility.yul\":7688:7854   */\n  pop\n  jump\t// out\n    /* \"#utility.yul\":7860:8226   */\ntag_54:\n    /* \"#utility.yul\":8002:8005   */\n  0x00\n    /* \"#utility.yul\":8023:8090   */\n  tag_129\n    /* \"#utility.yul\":8087:8089   */\n  0x10\n    /* \"#utility.yul\":8082:8085   */\n  dup4\n    /* \"#utility.yul\":8023:8090   */\n  tag_46\n  jump\t// in\ntag_129:\n    /* \"#utility.yul\":8016:8090   */\n  swap2\n  pop\n    /* \"#utility.yul\":8099:8192   */\n  tag_130\n    /* \"#utility.yul\":8188:8191   */\n  dup3\n    /* \"#utility.yul\":8099:8192   */\n  tag_53\n  jump\t// in\ntag_130:\n    /* \"#utility.yul\":8217:8219   */\n  0x20\n    /* \"#utility.yul\":8212:8215   */\n  dup3\n    /* \"#utility.yul\":8208:8220   */\n  add\n    /* \"#utility.yul\":8201:8220   */\n  swap1\n  pop\n    /* \"#utility.yul\":7860:8226   */\n  swap2\n  swap1\n  pop\n  jump\t// out\n    /* \"#utility.yul\":8232:8651   */\ntag_24:\n    /* \"#utility.yul\":8398:8402   */\n  0x00\n    /* \"#utility.yul\":8436:8438   */\n  0x20\n    /* \"#utility.yul\":8425:8434   */\n  dup3\n    /* \"#utility.yul\":8421:8439   */\n  add\n    /* \"#utility.yul\":8413:8439   */\n  swap1\n  pop\n    /* \"#utility.yul\":8485:8494   */\n  dup2\n    /* \"#utility.yul\":8479:8483   */\n  dup2\n    /* \"#utility.yul\":8475:8495   */\n  sub\n    /* \"#utility.yul\":8471:8472   */\n  0x00\n    /* \"#utility.yul\":8460:8469   */\n  dup4\n    /* \"#utility.yul\":8456:8473   */\n  add\n    /* \"#utility.yul\":8449:8496   */\n  mstore\n    /* \"#utility.yul\":8513:8644   */\n  tag_132\n    /* \"#utility.yul\":8639:8643   */\n  dup2\n    /* \"#utility.yul\":8513:8644   */\n  tag_54\n  jump\t// in\ntag_132:\n    /* \"#utility.yul\":8505:8644   */\n  swap1\n  pop\n    /* \"#utility.yul\":8232:8651   */\n  swap2\n  swap1\n  pop\n  jump\t// out\n    /* \"contracts/multi.sol\":61:5335  contract MultiSigWallet {... */\ntag_26:\n  dataSize(sub_0)\n  dup1\n  dataOffset(sub_0)\n  0x00\n  codecopy\n  0x00\n  return\nstop\n\nsub_0: assembly {\n        /* \"contracts/multi.sol\":61:5335  contract MultiSigWallet {... */\n      mstore(0x40, 0x80)\n      jumpi(tag_1, lt(calldatasize, 0x04))\n      shr(0xe0, calldataload(0x00))\n      dup1\n      0x9ace38c2\n      gt\n      tag_15\n      jumpi\n      dup1\n      0x9ace38c2\n      eq\n      tag_9\n      jumpi\n      dup1\n      0xa0e67e2b\n      eq\n      tag_10\n      jumpi\n      dup1\n      0xc01a8c84\n      eq\n      tag_11\n      jumpi\n      dup1\n      0xc6427474\n      eq\n      tag_12\n      jumpi\n      dup1\n      0xd0549b85\n      eq\n      tag_13\n      jumpi\n      dup1\n      0xee22610b\n      eq\n      tag_14\n      jumpi\n      jump(tag_2)\n    tag_15:\n      dup1\n      0x025e7c27\n      eq\n      tag_3\n      jumpi\n      dup1\n      0x20ea8d86\n      eq\n      tag_4\n      jumpi\n      dup1\n      0x2e7700f0\n      eq\n      tag_5\n      jumpi\n      dup1\n      0x2f54bf6e\n      eq\n      tag_6\n      jumpi\n      dup1\n      0x33ea3dc8\n      eq\n      tag_7\n      jumpi\n      dup1\n      0x80f59a65\n      eq\n      tag_8\n      jumpi\n      jump(tag_2)\n    tag_1:\n      jumpi(tag_2, calldatasize)\n        /* \"contracts/multi.sol\":2362:2372  msg.sender */\n      caller\n        /* \"contracts/multi.sol\":2354:2407  Deposit(msg.sender, msg.value, address(this).balance) */\n      0xffffffffffffffffffffffffffffffffffffffff\n      and\n      0x90890809c654f11d6e72a28fa60149770a0d11ec6c92319d6ceb2bb0a4ea1a15\n        /* \"contracts/multi.sol\":2374:2383  msg.value */\n      callvalue\n        /* \"contracts/multi.sol\":2385:2406  address(this).balance */\n      selfbalance\n        /* \"contracts/multi.sol\":2354:2407  Deposit(msg.sender, msg.value, address(this).balance) */\n      mload(0x40)\n      tag_18\n      swap3\n      swap2\n      swap1\n      tag_19\n      jump\t// in\n    tag_18:\n      mload(0x40)\n      dup1\n      swap2\n      sub\n      swap1\n      log2\n        /* \"contracts/multi.sol\":61:5335  contract MultiSigWallet {... */\n      stop\n    tag_2:\n      0x00\n      dup1\n      revert\n        /* \"contracts/multi.sol\":585:608  address[] public owners */\n    tag_3:\n      callvalue\n      dup1\n      iszero\n      tag_20\n      jumpi\n      0x00\n      dup1\n      revert\n    tag_20:\n      pop\n      tag_21\n      0x04\n      dup1\n      calldatasize\n      sub\n      dup2\n      add\n      swap1\n      tag_22\n      swap2\n      swap1\n      tag_23\n      jump\t// in\n    tag_22:\n      tag_24\n      jump\t// in\n    tag_21:\n      mload(0x40)\n      tag_25\n      swap2\n      swap1\n      tag_26\n      jump\t// in\n    tag_25:\n      mload(0x40)\n      dup1\n      swap2\n      sub\n      swap1\n      return\n        /* \"contracts/multi.sol\":4167:4576  function revokeConfirmation(uint256 _txIndex)... */\n    tag_4:\n      callvalue\n      dup1\n      iszero\n      tag_27\n      jumpi\n      0x00\n      dup1\n      revert\n    tag_27:\n      pop\n      tag_28\n      0x04\n      dup1\n      calldatasize\n      sub\n      dup2\n      add\n      swap1\n      tag_29\n      swap2\n      swap1\n      tag_23\n      jump\t// in\n    tag_29:\n      tag_30\n      jump\t// in\n    tag_28:\n      stop\n        /* \"contracts/multi.sol\":4684:4790  function getTransactionCount() public view returns (uint256) {... */\n    tag_5:\n      callvalue\n      dup1\n      iszero\n      tag_31\n      jumpi\n      0x00\n      dup1\n      revert\n    tag_31:\n      pop\n      tag_32\n      tag_33\n      jump\t// in\n    tag_32:\n      mload(0x40)\n      tag_34\n      swap2\n      swap1\n      tag_35\n      jump\t// in\n    tag_34:\n      mload(0x40)\n      dup1\n      swap2\n      sub\n      swap1\n      return\n        /* \"contracts/multi.sol\":615:654  mapping(address => bool) public isOwner */\n    tag_6:\n      callvalue\n      dup1\n      iszero\n      tag_36\n      jumpi\n      0x00\n      dup1\n      revert\n    tag_36:\n      pop\n      tag_37\n      0x04\n      dup1\n      calldatasize\n      sub\n      dup2\n      add\n      swap1\n      tag_38\n      swap2\n      swap1\n      tag_39\n      jump\t// in\n    tag_38:\n      tag_40\n      jump\t// in\n    tag_37:\n      mload(0x40)\n      tag_41\n      swap2\n      swap1\n      tag_42\n      jump\t// in\n    tag_41:\n      mload(0x40)\n      dup1\n      swap2\n      sub\n      swap1\n      return\n        /* \"contracts/multi.sol\":4798:5332  function getTransaction(uint256 _txIndex)... */\n    tag_7:\n      callvalue\n      dup1\n      iszero\n      tag_43\n      jumpi\n      0x00\n      dup1\n      revert\n    tag_43:\n      pop\n      tag_44\n      0x04\n      dup1\n      calldatasize\n      sub\n      dup2\n      add\n      swap1\n      tag_45\n      swap2\n      swap1\n      tag_23\n      jump\t// in\n    tag_45:\n      tag_46\n      jump\t// in\n    tag_44:\n      mload(0x40)\n      tag_47\n      swap6\n      swap5\n      swap4\n      swap3\n      swap2\n      swap1\n      tag_48\n      jump\t// in\n    tag_47:\n      mload(0x40)\n      dup1\n      swap2\n      sub\n      swap1\n      return\n        /* \"contracts/multi.sol\":916:979  mapping(uint256 => mapping(address => bool)) public isConfirmed */\n    tag_8:\n      callvalue\n      dup1\n      iszero\n      tag_49\n      jumpi\n      0x00\n      dup1\n      revert\n    tag_49:\n      pop\n      tag_50\n      0x04\n      dup1\n      calldatasize\n      sub\n      dup2\n      add\n      swap1\n      tag_51\n      swap2\n      swap1\n      tag_52\n      jump\t// in\n    tag_51:\n      tag_53\n      jump\t// in\n    tag_50:\n      mload(0x40)\n      tag_54\n      swap2\n      swap1\n      tag_42\n      jump\t// in\n    tag_54:\n      mload(0x40)\n      dup1\n      swap2\n      sub\n      swap1\n      return\n        /* \"contracts/multi.sol\":988:1021  Transaction[] public transactions */\n    tag_9:\n      callvalue\n      dup1\n      iszero\n      tag_55\n      jumpi\n      0x00\n      dup1\n      revert\n    tag_55:\n      pop\n      tag_56\n      0x04\n      dup1\n      calldatasize\n      sub\n      dup2\n      add\n      swap1\n      tag_57\n      swap2\n      swap1\n      tag_23\n      jump\t// in\n    tag_57:\n      tag_58\n      jump\t// in\n    tag_56:\n      mload(0x40)\n      tag_59\n      swap6\n      swap5\n      swap4\n      swap3\n      swap2\n      swap1\n      tag_48\n      jump\t// in\n    tag_59:\n      mload(0x40)\n      dup1\n      swap2\n      sub\n      swap1\n      return\n        /* \"contracts/multi.sol\":4584:4676  function getOwners() public view returns (address[] memory) {... */\n    tag_10:\n      callvalue\n      dup1\n      iszero\n      tag_60\n      jumpi\n      0x00\n      dup1\n      revert\n    tag_60:\n      pop\n      tag_61\n      tag_62\n      jump\t// in\n    tag_61:\n      mload(0x40)\n      tag_63\n      swap2\n      swap1\n      tag_64\n      jump\t// in\n    tag_63:\n      mload(0x40)\n      dup1\n      swap2\n      sub\n      swap1\n      return\n        /* \"contracts/multi.sol\":2926:3555  function confirmTransaction(uint256 _txIndex)... */\n    tag_11:\n      callvalue\n      dup1\n      iszero\n      tag_65\n      jumpi\n      0x00\n      dup1\n      revert\n    tag_65:\n      pop\n      tag_66\n      0x04\n      dup1\n      calldatasize\n      sub\n      dup2\n      add\n      swap1\n      tag_67\n      swap2\n      swap1\n      tag_23\n      jump\t// in\n    tag_67:\n      tag_68\n      jump\t// in\n    tag_66:\n      stop\n        /* \"contracts/multi.sol\":2425:2918  function submitTransaction(address _to, uint256 _value, bytes memory _data)... */\n    tag_12:\n      callvalue\n      dup1\n      iszero\n      tag_69\n      jumpi\n      0x00\n      dup1\n      revert\n    tag_69:\n      pop\n      tag_70\n      0x04\n      dup1\n      calldatasize\n      sub\n      dup2\n      add\n      swap1\n      tag_71\n      swap2\n      swap1\n      tag_72\n      jump\t// in\n    tag_71:\n      tag_73\n      jump\t// in\n    tag_70:\n      stop\n        /* \"contracts/multi.sol\":661:700  uint256 public numConfirmationsRequired */\n    tag_13:\n      callvalue\n      dup1\n      iszero\n      tag_74\n      jumpi\n      0x00\n      dup1\n      revert\n    tag_74:\n      pop\n      tag_75\n      tag_76\n      jump\t// in\n    tag_75:\n      mload(0x40)\n      tag_77\n      swap2\n      swap1\n      tag_35\n      jump\t// in\n    tag_77:\n      mload(0x40)\n      dup1\n      swap2\n      sub\n      swap1\n      return\n        /* \"contracts/multi.sol\":3563:4159  function executeTransaction(uint256 _txIndex)... */\n    tag_14:\n      callvalue\n      dup1\n      iszero\n      tag_78\n      jumpi\n      0x00\n      dup1\n      revert\n    tag_78:\n      pop\n      tag_79\n      0x04\n      dup1\n      calldatasize\n      sub\n      dup2\n      add\n      swap1\n      tag_80\n      swap2\n      swap1\n      tag_23\n      jump\t// in\n    tag_80:\n      tag_81\n      jump\t// in\n    tag_79:\n      stop\n        /* \"contracts/multi.sol\":585:608  address[] public owners */\n    tag_24:\n      0x00\n      dup2\n      dup2\n      sload\n      dup2\n      lt\n      tag_82\n      jumpi\n      0x00\n      dup1\n      revert\n    tag_82:\n      swap1\n      0x00\n      mstore\n      keccak256(0x00, 0x20)\n      add\n      0x00\n      swap2\n      pop\n      sload\n      swap1\n      0x0100\n      exp\n      swap1\n      div\n      0xffffffffffffffffffffffffffffffffffffffff\n      and\n      dup2\n      jump\t// out\n        /* \"contracts/multi.sol\":4167:4576  function revokeConfirmation(uint256 _txIndex)... */\n    tag_30:\n        /* \"contracts/multi.sol\":1070:1077  isOwner */\n      0x01\n        /* \"contracts/multi.sol\":1070:1089  isOwner[msg.sender] */\n      0x00\n        /* \"contracts/multi.sol\":1078:1088  msg.sender */\n      caller\n        /* \"contracts/multi.sol\":1070:1089  isOwner[msg.sender] */\n      0xffffffffffffffffffffffffffffffffffffffff\n      and\n      0xffffffffffffffffffffffffffffffffffffffff\n      and\n      dup2\n      mstore\n      0x20\n      add\n      swap1\n      dup2\n      mstore\n      0x20\n      add\n      0x00\n      keccak256\n      0x00\n      swap1\n      sload\n      swap1\n      0x0100\n      exp\n      swap1\n      div\n      0xff\n      and\n        /* \"contracts/multi.sol\":1062:1103  require(isOwner[msg.sender], \"not owner\") */\n      tag_85\n      jumpi\n      mload(0x40)\n      0x08c379a000000000000000000000000000000000000000000000000000000000\n      dup2\n      mstore\n      0x04\n      add\n      tag_86\n      swap1\n      tag_87\n      jump\t// in\n    tag_86:\n      mload(0x40)\n      dup1\n      swap2\n      sub\n      swap1\n      revert\n    tag_85:\n        /* \"contracts/multi.sol\":4266:4274  _txIndex */\n      dup1\n        /* \"contracts/multi.sol\":1208:1220  transactions */\n      0x04\n        /* \"contracts/multi.sol\":1208:1227  transactions.length */\n      dup1\n      sload\n      swap1\n      pop\n        /* \"contracts/multi.sol\":1197:1205  _txIndex */\n      dup2\n        /* \"contracts/multi.sol\":1197:1227  _txIndex < transactions.length */\n      lt\n        /* \"contracts/multi.sol\":1189:1258  require(_txIndex < transactions.length, \"Transaction does not exist\") */\n      tag_89\n      jumpi\n      mload(0x40)\n      0x08c379a000000000000000000000000000000000000000000000000000000000\n      dup2\n      mstore\n      0x04\n      add\n      tag_90\n      swap1\n      tag_91\n      jump\t// in\n    tag_90:\n      mload(0x40)\n      dup1\n      swap2\n      sub\n      swap1\n      revert\n    tag_89:\n        /* \"contracts/multi.sol\":4297:4305  _txIndex */\n      dup2\n        /* \"contracts/multi.sol\":1355:1367  transactions */\n      0x04\n        /* \"contracts/multi.sol\":1368:1376  _txIndex */\n      dup2\n        /* \"contracts/multi.sol\":1355:1377  transactions[_txIndex] */\n      dup2\n      sload\n      dup2\n      lt\n      tag_93\n      jumpi\n      tag_94\n      tag_95\n      jump\t// in\n    tag_94:\n    tag_93:\n      swap1\n      0x00\n      mstore\n      keccak256(0x00, 0x20)\n      swap1\n      0x05\n      mul\n      add\n        /* \"contracts/multi.sol\":1355:1386  transactions[_txIndex].executed */\n      0x03\n      add\n      0x00\n      swap1\n      sload\n      swap1\n      0x0100\n      exp\n      swap1\n      div\n      0xff\n      and\n        /* \"contracts/multi.sol\":1354:1386  !transactions[_txIndex].executed */\n      iszero\n        /* \"contracts/multi.sol\":1346:1410  require(!transactions[_txIndex].executed, \"tx already executed\") */\n      tag_97\n      jumpi\n      mload(0x40)\n      0x08c379a000000000000000000000000000000000000000000000000000000000\n      dup2\n      mstore\n      0x04\n      add\n      tag_98\n      swap1\n      tag_99\n      jump\t// in\n    tag_98:\n      mload(0x40)\n      dup1\n      swap2\n      sub\n      swap1\n      revert\n    tag_97:\n        /* \"contracts/multi.sol\":4331:4342  isConfirmed */\n      0x03\n        /* \"contracts/multi.sol\":4331:4352  isConfirmed[_txIndex] */\n      0x00\n        /* \"contracts/multi.sol\":4343:4351  _txIndex */\n      dup5\n        /* \"contracts/multi.sol\":4331:4352  isConfirmed[_txIndex] */\n      dup2\n      mstore\n      0x20\n      add\n      swap1\n      dup2\n      mstore\n      0x20\n      add\n      0x00\n      keccak256\n        /* \"contracts/multi.sol\":4331:4364  isConfirmed[_txIndex][msg.sender] */\n      0x00\n        /* \"contracts/multi.sol\":4353:4363  msg.sender */\n      caller\n        /* \"contracts/multi.sol\":4331:4364  isConfirmed[_txIndex][msg.sender] */\n      0xffffffffffffffffffffffffffffffffffffffff\n      and\n      0xffffffffffffffffffffffffffffffffffffffff\n      and\n      dup2\n      mstore\n      0x20\n      add\n      swap1\n      dup2\n      mstore\n      0x20\n      add\n      0x00\n      keccak256\n      0x00\n      swap1\n      sload\n      swap1\n      0x0100\n      exp\n      swap1\n      div\n      0xff\n      and\n        /* \"contracts/multi.sol\":4323:4394  require(isConfirmed[_txIndex][msg.sender], \"Transaction not confirmed\") */\n      tag_101\n      jumpi\n      mload(0x40)\n      0x08c379a000000000000000000000000000000000000000000000000000000000\n      dup2\n      mstore\n      0x04\n      add\n      tag_102\n      swap1\n      tag_103\n      jump\t// in\n    tag_102:\n      mload(0x40)\n      dup1\n      swap2\n      sub\n      swap1\n      revert\n    tag_101:\n        /* \"contracts/multi.sol\":4443:4448  false */\n      0x00\n        /* \"contracts/multi.sol\":4407:4418  isConfirmed */\n      0x03\n        /* \"contracts/multi.sol\":4407:4428  isConfirmed[_txIndex] */\n      0x00\n        /* \"contracts/multi.sol\":4419:4427  _txIndex */\n      dup6\n        /* \"contracts/multi.sol\":4407:4428  isConfirmed[_txIndex] */\n      dup2\n      mstore\n      0x20\n      add\n      swap1\n      dup2\n      mstore\n      0x20\n      add\n      0x00\n      keccak256\n        /* \"contracts/multi.sol\":4407:4440  isConfirmed[_txIndex][msg.sender] */\n      0x00\n        /* \"contracts/multi.sol\":4429:4439  msg.sender */\n      caller\n        /* \"contracts/multi.sol\":4407:4440  isConfirmed[_txIndex][msg.sender] */\n      0xffffffffffffffffffffffffffffffffffffffff\n      and\n      0xffffffffffffffffffffffffffffffffffffffff\n      and\n      dup2\n      mstore\n      0x20\n      add\n      swap1\n      dup2\n      mstore\n      0x20\n      add\n      0x00\n      keccak256\n      0x00\n        /* \"contracts/multi.sol\":4407:4448  isConfirmed[_txIndex][msg.sender] = false */\n      0x0100\n      exp\n      dup2\n      sload\n      dup2\n      0xff\n      mul\n      not\n      and\n      swap1\n      dup4\n      iszero\n      iszero\n      mul\n      or\n      swap1\n      sstore\n      pop\n        /* \"contracts/multi.sol\":4459:4471  transactions */\n      0x04\n        /* \"contracts/multi.sol\":4472:4480  _txIndex */\n      dup4\n        /* \"contracts/multi.sol\":4459:4481  transactions[_txIndex] */\n      dup2\n      sload\n      dup2\n      lt\n      tag_104\n      jumpi\n      tag_105\n      tag_95\n      jump\t// in\n    tag_105:\n    tag_104:\n      swap1\n      0x00\n      mstore\n      keccak256(0x00, 0x20)\n      swap1\n      0x05\n      mul\n      add\n        /* \"contracts/multi.sol\":4459:4498  transactions[_txIndex].numConfirmations */\n      0x04\n      add\n      0x00\n        /* \"contracts/multi.sol\":4459:4500  transactions[_txIndex].numConfirmations-- */\n      dup2\n      sload\n      dup1\n      swap3\n      swap2\n      swap1\n      tag_107\n      swap1\n      tag_108\n      jump\t// in\n    tag_107:\n      swap2\n      swap1\n      pop\n      sstore\n      pop\n        /* \"contracts/multi.sol\":4549:4557  _txIndex */\n      dup3\n        /* \"contracts/multi.sol\":4537:4547  msg.sender */\n      caller\n        /* \"contracts/multi.sol\":4518:4558  RevokeConfirmation(msg.sender, _txIndex) */\n      0xffffffffffffffffffffffffffffffffffffffff\n      and\n      0xf0dca620e2e81f7841d07bcc105e1704fb01475b278a9d4c236e1c62945edd55\n      mload(0x40)\n      mload(0x40)\n      dup1\n      swap2\n      sub\n      swap1\n      log3\n        /* \"contracts/multi.sol\":1269:1270  _ */\n      pop\n        /* \"contracts/multi.sol\":1114:1115  _ */\n      pop\n        /* \"contracts/multi.sol\":4167:4576  function revokeConfirmation(uint256 _txIndex)... */\n      pop\n      jump\t// out\n        /* \"contracts/multi.sol\":4684:4790  function getTransactionCount() public view returns (uint256) {... */\n    tag_33:\n        /* \"contracts/multi.sol\":4736:4743  uint256 */\n      0x00\n        /* \"contracts/multi.sol\":4763:4775  transactions */\n      0x04\n        /* \"contracts/multi.sol\":4763:4782  transactions.length */\n      dup1\n      sload\n      swap1\n      pop\n        /* \"contracts/multi.sol\":4756:4782  return transactions.length */\n      swap1\n      pop\n        /* \"contracts/multi.sol\":4684:4790  function getTransactionCount() public view returns (uint256) {... */\n      swap1\n      jump\t// out\n        /* \"contracts/multi.sol\":615:654  mapping(address => bool) public isOwner */\n    tag_40:\n      mstore(0x20, 0x01)\n      dup1\n      0x00\n      mstore\n      keccak256(0x00, 0x40)\n      0x00\n      swap2\n      pop\n      sload\n      swap1\n      0x0100\n      exp\n      swap1\n      div\n      0xff\n      and\n      dup2\n      jump\t// out\n        /* \"contracts/multi.sol\":4798:5332  function getTransaction(uint256 _txIndex)... */\n    tag_46:\n        /* \"contracts/multi.sol\":4902:4912  address to */\n      0x00\n        /* \"contracts/multi.sol\":4927:4940  uint256 value */\n      dup1\n        /* \"contracts/multi.sol\":4955:4972  bytes memory data */\n      0x60\n        /* \"contracts/multi.sol\":4987:5000  bool executed */\n      0x00\n        /* \"contracts/multi.sol\":5015:5039  uint256 numConfirmations */\n      dup1\n        /* \"contracts/multi.sol\":5067:5098  Transaction storage transaction */\n      0x00\n        /* \"contracts/multi.sol\":5101:5113  transactions */\n      0x04\n        /* \"contracts/multi.sol\":5114:5122  _txIndex */\n      dup8\n        /* \"contracts/multi.sol\":5101:5123  transactions[_txIndex] */\n      dup2\n      sload\n      dup2\n      lt\n      tag_111\n      jumpi\n      tag_112\n      tag_95\n      jump\t// in\n    tag_112:\n    tag_111:\n      swap1\n      0x00\n      mstore\n      keccak256(0x00, 0x20)\n      swap1\n      0x05\n      mul\n      add\n        /* \"contracts/multi.sol\":5067:5123  Transaction storage transaction = transactions[_txIndex] */\n      swap1\n      pop\n        /* \"contracts/multi.sol\":5158:5169  transaction */\n      dup1\n        /* \"contracts/multi.sol\":5158:5172  transaction.to */\n      0x00\n      add\n      0x00\n      swap1\n      sload\n      swap1\n      0x0100\n      exp\n      swap1\n      div\n      0xffffffffffffffffffffffffffffffffffffffff\n      and\n        /* \"contracts/multi.sol\":5187:5198  transaction */\n      dup2\n        /* \"contracts/multi.sol\":5187:5204  transaction.value */\n      0x01\n      add\n      sload\n        /* \"contracts/multi.sol\":5219:5230  transaction */\n      dup3\n        /* \"contracts/multi.sol\":5219:5235  transaction.data */\n      0x02\n      add\n        /* \"contracts/multi.sol\":5250:5261  transaction */\n      dup4\n        /* \"contracts/multi.sol\":5250:5270  transaction.executed */\n      0x03\n      add\n      0x00\n      swap1\n      sload\n      swap1\n      0x0100\n      exp\n      swap1\n      div\n      0xff\n      and\n        /* \"contracts/multi.sol\":5285:5296  transaction */\n      dup5\n        /* \"contracts/multi.sol\":5285:5313  transaction.numConfirmations */\n      0x04\n      add\n      sload\n        /* \"contracts/multi.sol\":5136:5324  return (... */\n      dup3\n      dup1\n      sload\n      tag_114\n      swap1\n      tag_115\n      jump\t// in\n    tag_114:\n      dup1\n      0x1f\n      add\n      0x20\n      dup1\n      swap2\n      div\n      mul\n      0x20\n      add\n      mload(0x40)\n      swap1\n      dup2\n      add\n      0x40\n      mstore\n      dup1\n      swap3\n      swap2\n      swap1\n      dup2\n      dup2\n      mstore\n      0x20\n      add\n      dup3\n      dup1\n      sload\n      tag_116\n      swap1\n      tag_115\n      jump\t// in\n    tag_116:\n      dup1\n      iszero\n      tag_117\n      jumpi\n      dup1\n      0x1f\n      lt\n      tag_118\n      jumpi\n      0x0100\n      dup1\n      dup4\n      sload\n      div\n      mul\n      dup4\n      mstore\n      swap2\n      0x20\n      add\n      swap2\n      jump(tag_117)\n    tag_118:\n      dup3\n      add\n      swap2\n      swap1\n      0x00\n      mstore\n      keccak256(0x00, 0x20)\n      swap1\n    tag_119:\n      dup2\n      sload\n      dup2\n      mstore\n      swap1\n      0x01\n      add\n      swap1\n      0x20\n      add\n      dup1\n      dup4\n      gt\n      tag_119\n      jumpi\n      dup3\n      swap1\n      sub\n      0x1f\n      and\n      dup3\n      add\n      swap2\n    tag_117:\n      pop\n      pop\n      pop\n      pop\n      pop\n      swap3\n      pop\n      swap6\n      pop\n      swap6\n      pop\n      swap6\n      pop\n      swap6\n      pop\n      swap6\n      pop\n      pop\n        /* \"contracts/multi.sol\":4798:5332  function getTransaction(uint256 _txIndex)... */\n      swap2\n      swap4\n      swap6\n      swap1\n      swap3\n      swap5\n      pop\n      jump\t// out\n        /* \"contracts/multi.sol\":916:979  mapping(uint256 => mapping(address => bool)) public isConfirmed */\n    tag_53:\n      mstore(0x20, 0x03)\n      dup2\n      0x00\n      mstore\n      mstore(0x20, keccak256(0x00, 0x40))\n      dup1\n      0x00\n      mstore\n      keccak256(0x00, 0x40)\n      0x00\n      swap2\n      pop\n      swap2\n      pop\n      swap1\n      sload\n      swap1\n      0x0100\n      exp\n      swap1\n      div\n      0xff\n      and\n      dup2\n      jump\t// out\n        /* \"contracts/multi.sol\":988:1021  Transaction[] public transactions */\n    tag_58:\n      0x04\n      dup2\n      dup2\n      sload\n      dup2\n      lt\n      tag_120\n      jumpi\n      0x00\n      dup1\n      revert\n    tag_120:\n      swap1\n      0x00\n      mstore\n      keccak256(0x00, 0x20)\n      swap1\n      0x05\n      mul\n      add\n      0x00\n      swap2\n      pop\n      swap1\n      pop\n      dup1\n      0x00\n      add\n      0x00\n      swap1\n      sload\n      swap1\n      0x0100\n      exp\n      swap1\n      div\n      0xffffffffffffffffffffffffffffffffffffffff\n      and\n      swap1\n      dup1\n      0x01\n      add\n      sload\n      swap1\n      dup1\n      0x02\n      add\n      dup1\n      sload\n      tag_122\n      swap1\n      tag_115\n      jump\t// in\n    tag_122:\n      dup1\n      0x1f\n      add\n      0x20\n      dup1\n      swap2\n      div\n      mul\n      0x20\n      add\n      mload(0x40)\n      swap1\n      dup2\n      add\n      0x40\n      mstore\n      dup1\n      swap3\n      swap2\n      swap1\n      dup2\n      dup2\n      mstore\n      0x20\n      add\n      dup3\n      dup1\n      sload\n      tag_123\n      swap1\n      tag_115\n      jump\t// in\n    tag_123:\n      dup1\n      iszero\n      tag_124\n      jumpi\n      dup1\n      0x1f\n      lt\n      tag_125\n      jumpi\n      0x0100\n      dup1\n      dup4\n      sload\n      div\n      mul\n      dup4\n      mstore\n      swap2\n      0x20\n      add\n      swap2\n      jump(tag_124)\n    tag_125:\n      dup3\n      add\n      swap2\n      swap1\n      0x00\n      mstore\n      keccak256(0x00, 0x20)\n      swap1\n    tag_126:\n      dup2\n      sload\n      dup2\n      mstore\n      swap1\n      0x01\n      add\n      swap1\n      0x20\n      add\n      dup1\n      dup4\n      gt\n      tag_126\n      jumpi\n      dup3\n      swap1\n      sub\n      0x1f\n      and\n      dup3\n      add\n      swap2\n    tag_124:\n      pop\n      pop\n      pop\n      pop\n      pop\n      swap1\n      dup1\n      0x03\n      add\n      0x00\n      swap1\n      sload\n      swap1\n      0x0100\n      exp\n      swap1\n      div\n      0xff\n      and\n      swap1\n      dup1\n      0x04\n      add\n      sload\n      swap1\n      pop\n      dup6\n      jump\t// out\n        /* \"contracts/multi.sol\":4584:4676  function getOwners() public view returns (address[] memory) {... */\n    tag_62:\n        /* \"contracts/multi.sol\":4626:4642  address[] memory */\n      0x60\n        /* \"contracts/multi.sol\":4662:4668  owners */\n      0x00\n        /* \"contracts/multi.sol\":4655:4668  return owners */\n      dup1\n      sload\n      dup1\n      0x20\n      mul\n      0x20\n      add\n      mload(0x40)\n      swap1\n      dup2\n      add\n      0x40\n      mstore\n      dup1\n      swap3\n      swap2\n      swap1\n      dup2\n      dup2\n      mstore\n      0x20\n      add\n      dup3\n      dup1\n      sload\n      dup1\n      iszero\n      tag_128\n      jumpi\n      0x20\n      mul\n      dup3\n      add\n      swap2\n      swap1\n      0x00\n      mstore\n      keccak256(0x00, 0x20)\n      swap1\n    tag_129:\n      dup2\n      0x00\n      swap1\n      sload\n      swap1\n      0x0100\n      exp\n      swap1\n      div\n      0xffffffffffffffffffffffffffffffffffffffff\n      and\n      0xffffffffffffffffffffffffffffffffffffffff\n      and\n      dup2\n      mstore\n      0x20\n      add\n      swap1\n      0x01\n      add\n      swap1\n      dup1\n      dup4\n      gt\n      tag_129\n      jumpi\n    tag_128:\n      pop\n      pop\n      pop\n      pop\n      pop\n      swap1\n      pop\n        /* \"contracts/multi.sol\":4584:4676  function getOwners() public view returns (address[] memory) {... */\n      swap1\n      jump\t// out\n        /* \"contracts/multi.sol\":2926:3555  function confirmTransaction(uint256 _txIndex)... */\n    tag_68:\n        /* \"contracts/multi.sol\":1070:1077  isOwner */\n      0x01\n        /* \"contracts/multi.sol\":1070:1089  isOwner[msg.sender] */\n      0x00\n        /* \"contracts/multi.sol\":1078:1088  msg.sender */\n      caller\n        /* \"contracts/multi.sol\":1070:1089  isOwner[msg.sender] */\n      0xffffffffffffffffffffffffffffffffffffffff\n      and\n      0xffffffffffffffffffffffffffffffffffffffff\n      and\n      dup2\n      mstore\n      0x20\n      add\n      swap1\n      dup2\n      mstore\n      0x20\n      add\n      0x00\n      keccak256\n      0x00\n      swap1\n      sload\n      swap1\n      0x0100\n      exp\n      swap1\n      div\n      0xff\n      and\n        /* \"contracts/multi.sol\":1062:1103  require(isOwner[msg.sender], \"not owner\") */\n      tag_131\n      jumpi\n      mload(0x40)\n      0x08c379a000000000000000000000000000000000000000000000000000000000\n      dup2\n      mstore\n      0x04\n      add\n      tag_132\n      swap1\n      tag_87\n      jump\t// in\n    tag_132:\n      mload(0x40)\n      dup1\n      swap2\n      sub\n      swap1\n      revert\n    tag_131:\n        /* \"contracts/multi.sol\":3025:3033  _txIndex */\n      dup1\n        /* \"contracts/multi.sol\":1208:1220  transactions */\n      0x04\n        /* \"contracts/multi.sol\":1208:1227  transactions.length */\n      dup1\n      sload\n      swap1\n      pop\n        /* \"contracts/multi.sol\":1197:1205  _txIndex */\n      dup2\n        /* \"contracts/multi.sol\":1197:1227  _txIndex < transactions.length */\n      lt\n        /* \"contracts/multi.sol\":1189:1258  require(_txIndex < transactions.length, \"Transaction does not exist\") */\n      tag_134\n      jumpi\n      mload(0x40)\n      0x08c379a000000000000000000000000000000000000000000000000000000000\n      dup2\n      mstore\n      0x04\n      add\n      tag_135\n      swap1\n      tag_91\n      jump\t// in\n    tag_135:\n      mload(0x40)\n      dup1\n      swap2\n      sub\n      swap1\n      revert\n    tag_134:\n        /* \"contracts/multi.sol\":3056:3064  _txIndex */\n      dup2\n        /* \"contracts/multi.sol\":1355:1367  transactions */\n      0x04\n        /* \"contracts/multi.sol\":1368:1376  _txIndex */\n      dup2\n        /* \"contracts/multi.sol\":1355:1377  transactions[_txIndex] */\n      dup2\n      sload\n      dup2\n      lt\n      tag_137\n      jumpi\n      tag_138\n      tag_95\n      jump\t// in\n    tag_138:\n    tag_137:\n      swap1\n      0x00\n      mstore\n      keccak256(0x00, 0x20)\n      swap1\n      0x05\n      mul\n      add\n        /* \"contracts/multi.sol\":1355:1386  transactions[_txIndex].executed */\n      0x03\n      add\n      0x00\n      swap1\n      sload\n      swap1\n      0x0100\n      exp\n      swap1\n      div\n      0xff\n      and\n        /* \"contracts/multi.sol\":1354:1386  !transactions[_txIndex].executed */\n      iszero\n        /* \"contracts/multi.sol\":1346:1410  require(!transactions[_txIndex].executed, \"tx already executed\") */\n      tag_140\n      jumpi\n      mload(0x40)\n      0x08c379a000000000000000000000000000000000000000000000000000000000\n      dup2\n      mstore\n      0x04\n      add\n      tag_141\n      swap1\n      tag_99\n      jump\t// in\n    tag_141:\n      mload(0x40)\n      dup1\n      swap2\n      sub\n      swap1\n      revert\n    tag_140:\n        /* \"contracts/multi.sol\":3088:3096  _txIndex */\n      dup3\n        /* \"contracts/multi.sol\":1499:1510  isConfirmed */\n      0x03\n        /* \"contracts/multi.sol\":1499:1520  isConfirmed[_txIndex] */\n      0x00\n        /* \"contracts/multi.sol\":1511:1519  _txIndex */\n      dup3\n        /* \"contracts/multi.sol\":1499:1520  isConfirmed[_txIndex] */\n      dup2\n      mstore\n      0x20\n      add\n      swap1\n      dup2\n      mstore\n      0x20\n      add\n      0x00\n      keccak256\n        /* \"contracts/multi.sol\":1499:1532  isConfirmed[_txIndex][msg.sender] */\n      0x00\n        /* \"contracts/multi.sol\":1521:1531  msg.sender */\n      caller\n        /* \"contracts/multi.sol\":1499:1532  isConfirmed[_txIndex][msg.sender] */\n      0xffffffffffffffffffffffffffffffffffffffff\n      and\n      0xffffffffffffffffffffffffffffffffffffffff\n      and\n      dup2\n      mstore\n      0x20\n      add\n      swap1\n      dup2\n      mstore\n      0x20\n      add\n      0x00\n      keccak256\n      0x00\n      swap1\n      sload\n      swap1\n      0x0100\n      exp\n      swap1\n      div\n      0xff\n      and\n        /* \"contracts/multi.sol\":1498:1532  !isConfirmed[_txIndex][msg.sender] */\n      iszero\n        /* \"contracts/multi.sol\":1490:1566  require(!isConfirmed[_txIndex][msg.sender], \"Transaction already confirmed\") */\n      tag_143\n      jumpi\n      mload(0x40)\n      0x08c379a000000000000000000000000000000000000000000000000000000000\n      dup2\n      mstore\n      0x04\n      add\n      tag_144\n      swap1\n      tag_145\n      jump\t// in\n    tag_144:\n      mload(0x40)\n      dup1\n      swap2\n      sub\n      swap1\n      revert\n    tag_143:\n        /* \"contracts/multi.sol\":3165:3189  numConfirmationsRequired */\n      sload(0x02)\n        /* \"contracts/multi.sol\":3122:3134  transactions */\n      0x04\n        /* \"contracts/multi.sol\":3135:3143  _txIndex */\n      dup6\n        /* \"contracts/multi.sol\":3122:3144  transactions[_txIndex] */\n      dup2\n      sload\n      dup2\n      lt\n      tag_147\n      jumpi\n      tag_148\n      tag_95\n      jump\t// in\n    tag_148:\n    tag_147:\n      swap1\n      0x00\n      mstore\n      keccak256(0x00, 0x20)\n      swap1\n      0x05\n      mul\n      add\n        /* \"contracts/multi.sol\":3122:3161  transactions[_txIndex].numConfirmations */\n      0x04\n      add\n      sload\n        /* \"contracts/multi.sol\":3122:3189  transactions[_txIndex].numConfirmations >= numConfirmationsRequired */\n      lt\n      iszero\n        /* \"contracts/multi.sol\":3114:3218  require(transactions[_txIndex].numConfirmations >= numConfirmationsRequired, \"Not enough confirmations\") */\n      tag_150\n      jumpi\n      mload(0x40)\n      0x08c379a000000000000000000000000000000000000000000000000000000000\n      dup2\n      mstore\n      0x04\n      add\n      tag_151\n      swap1\n      tag_152\n      jump\t// in\n    tag_151:\n      mload(0x40)\n      dup1\n      swap2\n      sub\n      swap1\n      revert\n    tag_150:\n        /* \"contracts/multi.sol\":3231:3262  Transaction storage transaction */\n      0x00\n        /* \"contracts/multi.sol\":3265:3277  transactions */\n      0x04\n        /* \"contracts/multi.sol\":3278:3286  _txIndex */\n      dup6\n        /* \"contracts/multi.sol\":3265:3287  transactions[_txIndex] */\n      dup2\n      sload\n      dup2\n      lt\n      tag_153\n      jumpi\n      tag_154\n      tag_95\n      jump\t// in\n    tag_154:\n    tag_153:\n      swap1\n      0x00\n      mstore\n      keccak256(0x00, 0x20)\n      swap1\n      0x05\n      mul\n      add\n        /* \"contracts/multi.sol\":3231:3287  Transaction storage transaction = transactions[_txIndex] */\n      swap1\n      pop\n        /* \"contracts/multi.sol\":3321:3325  true */\n      0x01\n        /* \"contracts/multi.sol\":3298:3309  transaction */\n      dup2\n        /* \"contracts/multi.sol\":3298:3318  transaction.executed */\n      0x03\n      add\n      0x00\n        /* \"contracts/multi.sol\":3298:3325  transaction.executed = true */\n      0x0100\n      exp\n      dup2\n      sload\n      dup2\n      0xff\n      mul\n      not\n      and\n      swap1\n      dup4\n      iszero\n      iszero\n      mul\n      or\n      swap1\n      sstore\n      pop\n        /* \"contracts/multi.sol\":3339:3351  bool success */\n      0x00\n        /* \"contracts/multi.sol\":3357:3368  transaction */\n      dup2\n        /* \"contracts/multi.sol\":3357:3371  transaction.to */\n      0x00\n      add\n      0x00\n      swap1\n      sload\n      swap1\n      0x0100\n      exp\n      swap1\n      div\n      0xffffffffffffffffffffffffffffffffffffffff\n      and\n        /* \"contracts/multi.sol\":3357:3376  transaction.to.call */\n      0xffffffffffffffffffffffffffffffffffffffff\n      and\n        /* \"contracts/multi.sol\":3384:3395  transaction */\n      dup3\n        /* \"contracts/multi.sol\":3384:3401  transaction.value */\n      0x01\n      add\n      sload\n        /* \"contracts/multi.sol\":3403:3414  transaction */\n      dup4\n        /* \"contracts/multi.sol\":3403:3419  transaction.data */\n      0x02\n      add\n        /* \"contracts/multi.sol\":3357:3420  transaction.to.call{value: transaction.value}(transaction.data) */\n      mload(0x40)\n      tag_156\n      swap2\n      swap1\n      tag_157\n      jump\t// in\n    tag_156:\n      0x00\n      mload(0x40)\n      dup1\n      dup4\n      sub\n      dup2\n      dup6\n      dup8\n      gas\n      call\n      swap3\n      pop\n      pop\n      pop\n      returndatasize\n      dup1\n      0x00\n      dup2\n      eq\n      tag_160\n      jumpi\n      mload(0x40)\n      swap2\n      pop\n      and(add(returndatasize, 0x3f), not(0x1f))\n      dup3\n      add\n      0x40\n      mstore\n      returndatasize\n      dup3\n      mstore\n      returndatasize\n      0x00\n      0x20\n      dup5\n      add\n      returndatacopy\n      jump(tag_159)\n    tag_160:\n      0x60\n      swap2\n      pop\n    tag_159:\n      pop\n        /* \"contracts/multi.sol\":3338:3420  (bool success, ) = transaction.to.call{value: transaction.value}(transaction.data) */\n      pop\n      swap1\n      pop\n        /* \"contracts/multi.sol\":3439:3446  success */\n      dup1\n        /* \"contracts/multi.sol\":3431:3479  require(success, \"Transaction execution failed\") */\n      tag_161\n      jumpi\n      mload(0x40)\n      0x08c379a000000000000000000000000000000000000000000000000000000000\n      dup2\n      mstore\n      0x04\n      add\n      tag_162\n      swap1\n      tag_163\n      jump\t// in\n    tag_162:\n      mload(0x40)\n      dup1\n      swap2\n      sub\n      swap1\n      revert\n    tag_161:\n        /* \"contracts/multi.sol\":3528:3536  _txIndex */\n      dup6\n        /* \"contracts/multi.sol\":3516:3526  msg.sender */\n      caller\n        /* \"contracts/multi.sol\":3497:3537  ExecuteTransaction(msg.sender, _txIndex) */\n      0xffffffffffffffffffffffffffffffffffffffff\n      and\n      0x5445f318f4f5fcfb66592e68e0cc5822aa15664039bd5f0ffde24c5a8142b1ac\n      mload(0x40)\n      mload(0x40)\n      dup1\n      swap2\n      sub\n      swap1\n      log3\n        /* \"contracts/multi.sol\":3103:3555  {... */\n      pop\n      pop\n        /* \"contracts/multi.sol\":1421:1422  _ */\n      pop\n        /* \"contracts/multi.sol\":1269:1270  _ */\n      pop\n        /* \"contracts/multi.sol\":1114:1115  _ */\n      pop\n        /* \"contracts/multi.sol\":2926:3555  function confirmTransaction(uint256 _txIndex)... */\n      pop\n      jump\t// out\n        /* \"contracts/multi.sol\":2425:2918  function submitTransaction(address _to, uint256 _value, bytes memory _data)... */\n    tag_73:\n        /* \"contracts/multi.sol\":1070:1077  isOwner */\n      0x01\n        /* \"contracts/multi.sol\":1070:1089  isOwner[msg.sender] */\n      0x00\n        /* \"contracts/multi.sol\":1078:1088  msg.sender */\n      caller\n        /* \"contracts/multi.sol\":1070:1089  isOwner[msg.sender] */\n      0xffffffffffffffffffffffffffffffffffffffff\n      and\n      0xffffffffffffffffffffffffffffffffffffffff\n      and\n      dup2\n      mstore\n      0x20\n      add\n      swap1\n      dup2\n      mstore\n      0x20\n      add\n      0x00\n      keccak256\n      0x00\n      swap1\n      sload\n      swap1\n      0x0100\n      exp\n      swap1\n      div\n      0xff\n      and\n        /* \"contracts/multi.sol\":1062:1103  require(isOwner[msg.sender], \"not owner\") */\n      tag_165\n      jumpi\n      mload(0x40)\n      0x08c379a000000000000000000000000000000000000000000000000000000000\n      dup2\n      mstore\n      0x04\n      add\n      tag_166\n      swap1\n      tag_87\n      jump\t// in\n    tag_166:\n      mload(0x40)\n      dup1\n      swap2\n      sub\n      swap1\n      revert\n    tag_165:\n        /* \"contracts/multi.sol\":2546:2561  uint256 txIndex */\n      0x00\n        /* \"contracts/multi.sol\":2564:2576  transactions */\n      0x04\n        /* \"contracts/multi.sol\":2564:2583  transactions.length */\n      dup1\n      sload\n      swap1\n      pop\n        /* \"contracts/multi.sol\":2546:2583  uint256 txIndex = transactions.length */\n      swap1\n      pop\n        /* \"contracts/multi.sol\":2596:2608  transactions */\n      0x04\n        /* \"contracts/multi.sol\":2628:2820  Transaction({... */\n      mload(0x40)\n      dup1\n      0xa0\n      add\n      0x40\n      mstore\n      dup1\n        /* \"contracts/multi.sol\":2663:2666  _to */\n      dup7\n        /* \"contracts/multi.sol\":2628:2820  Transaction({... */\n      0xffffffffffffffffffffffffffffffffffffffff\n      and\n      dup2\n      mstore\n      0x20\n      add\n        /* \"contracts/multi.sol\":2692:2698  _value */\n      dup6\n        /* \"contracts/multi.sol\":2628:2820  Transaction({... */\n      dup2\n      mstore\n      0x20\n      add\n        /* \"contracts/multi.sol\":2723:2728  _data */\n      dup5\n        /* \"contracts/multi.sol\":2628:2820  Transaction({... */\n      dup2\n      mstore\n      0x20\n      add\n        /* \"contracts/multi.sol\":2757:2762  false */\n      0x00\n        /* \"contracts/multi.sol\":2628:2820  Transaction({... */\n      iszero\n      iszero\n      dup2\n      mstore\n      0x20\n      add\n        /* \"contracts/multi.sol\":2799:2800  0 */\n      0x00\n        /* \"contracts/multi.sol\":2628:2820  Transaction({... */\n      dup2\n      mstore\n      pop\n        /* \"contracts/multi.sol\":2596:2831  transactions.push(... */\n      swap1\n      dup1\n      0x01\n      dup2\n      sload\n      add\n      dup1\n      dup3\n      sstore\n      dup1\n      swap2\n      pop\n      pop\n      0x01\n      swap1\n      sub\n      swap1\n      0x00\n      mstore\n      keccak256(0x00, 0x20)\n      swap1\n      0x05\n      mul\n      add\n      0x00\n      swap1\n      swap2\n      swap1\n      swap2\n      swap1\n      swap2\n      pop\n      0x00\n      dup3\n      add\n      mload\n      dup2\n      0x00\n      add\n      exp(0x0100, 0x00)\n      dup2\n      sload\n      dup2\n      0xffffffffffffffffffffffffffffffffffffffff\n      mul\n      not\n      and\n      swap1\n      dup4\n      0xffffffffffffffffffffffffffffffffffffffff\n      and\n      mul\n      or\n      swap1\n      sstore\n      pop\n      0x20\n      dup3\n      add\n      mload\n      dup2\n      0x01\n      add\n      sstore\n      0x40\n      dup3\n      add\n      mload\n      dup2\n      0x02\n      add\n      swap1\n      dup2\n      tag_169\n      swap2\n      swap1\n      tag_170\n      jump\t// in\n    tag_169:\n      pop\n      0x60\n      dup3\n      add\n      mload\n      dup2\n      0x03\n      add\n      exp(0x0100, 0x00)\n      dup2\n      sload\n      dup2\n      0xff\n      mul\n      not\n      and\n      swap1\n      dup4\n      iszero\n      iszero\n      mul\n      or\n      swap1\n      sstore\n      pop\n      0x80\n      dup3\n      add\n      mload\n      dup2\n      0x04\n      add\n      sstore\n      pop\n      pop\n        /* \"contracts/multi.sol\":2888:2891  _to */\n      dup4\n        /* \"contracts/multi.sol\":2849:2907  SubmitTransaction(msg.sender, txIndex, _to, _value, _data) */\n      0xffffffffffffffffffffffffffffffffffffffff\n      and\n        /* \"contracts/multi.sol\":2879:2886  txIndex */\n      dup2\n        /* \"contracts/multi.sol\":2867:2877  msg.sender */\n      caller\n        /* \"contracts/multi.sol\":2849:2907  SubmitTransaction(msg.sender, txIndex, _to, _value, _data) */\n      0xffffffffffffffffffffffffffffffffffffffff\n      and\n      0xd5a05bf70715ad82a09a756320284a1b54c9ff74cd0f8cce6219e79b563fe59d\n        /* \"contracts/multi.sol\":2893:2899  _value */\n      dup7\n        /* \"contracts/multi.sol\":2901:2906  _data */\n      dup7\n        /* \"contracts/multi.sol\":2849:2907  SubmitTransaction(msg.sender, txIndex, _to, _value, _data) */\n      mload(0x40)\n      tag_171\n      swap3\n      swap2\n      swap1\n      tag_172\n      jump\t// in\n    tag_171:\n      mload(0x40)\n      dup1\n      swap2\n      sub\n      swap1\n      log4\n        /* \"contracts/multi.sol\":2535:2918  {... */\n      pop\n        /* \"contracts/multi.sol\":2425:2918  function submitTransaction(address _to, uint256 _value, bytes memory _data)... */\n      pop\n      pop\n      pop\n      jump\t// out\n        /* \"contracts/multi.sol\":661:700  uint256 public numConfirmationsRequired */\n    tag_76:\n      sload(0x02)\n      dup2\n      jump\t// out\n        /* \"contracts/multi.sol\":3563:4159  function executeTransaction(uint256 _txIndex)... */\n    tag_81:\n        /* \"contracts/multi.sol\":1070:1077  isOwner */\n      0x01\n        /* \"contracts/multi.sol\":1070:1089  isOwner[msg.sender] */\n      0x00\n        /* \"contracts/multi.sol\":1078:1088  msg.sender */\n      caller\n        /* \"contracts/multi.sol\":1070:1089  isOwner[msg.sender] */\n      0xffffffffffffffffffffffffffffffffffffffff\n      and\n      0xffffffffffffffffffffffffffffffffffffffff\n      and\n      dup2\n      mstore\n      0x20\n      add\n      swap1\n      dup2\n      mstore\n      0x20\n      add\n      0x00\n      keccak256\n      0x00\n      swap1\n      sload\n      swap1\n      0x0100\n      exp\n      swap1\n      div\n      0xff\n      and\n        /* \"contracts/multi.sol\":1062:1103  require(isOwner[msg.sender], \"not owner\") */\n      tag_174\n      jumpi\n      mload(0x40)\n      0x08c379a000000000000000000000000000000000000000000000000000000000\n      dup2\n      mstore\n      0x04\n      add\n      tag_175\n      swap1\n      tag_87\n      jump\t// in\n    tag_175:\n      mload(0x40)\n      dup1\n      swap2\n      sub\n      swap1\n      revert\n    tag_174:\n        /* \"contracts/multi.sol\":3662:3670  _txIndex */\n      dup1\n        /* \"contracts/multi.sol\":1208:1220  transactions */\n      0x04\n        /* \"contracts/multi.sol\":1208:1227  transactions.length */\n      dup1\n      sload\n      swap1\n      pop\n        /* \"contracts/multi.sol\":1197:1205  _txIndex */\n      dup2\n        /* \"contracts/multi.sol\":1197:1227  _txIndex < transactions.length */\n      lt\n        /* \"contracts/multi.sol\":1189:1258  require(_txIndex < transactions.length, \"Transaction does not exist\") */\n      tag_177\n      jumpi\n      mload(0x40)\n      0x08c379a000000000000000000000000000000000000000000000000000000000\n      dup2\n      mstore\n      0x04\n      add\n      tag_178\n      swap1\n      tag_91\n      jump\t// in\n    tag_178:\n      mload(0x40)\n      dup1\n      swap2\n      sub\n      swap1\n      revert\n    tag_177:\n        /* \"contracts/multi.sol\":3693:3701  _txIndex */\n      dup2\n        /* \"contracts/multi.sol\":1355:1367  transactions */\n      0x04\n        /* \"contracts/multi.sol\":1368:1376  _txIndex */\n      dup2\n        /* \"contracts/multi.sol\":1355:1377  transactions[_txIndex] */\n      dup2\n      sload\n      dup2\n      lt\n      tag_180\n      jumpi\n      tag_181\n      tag_95\n      jump\t// in\n    tag_181:\n    tag_180:\n      swap1\n      0x00\n      mstore\n      keccak256(0x00, 0x20)\n      swap1\n      0x05\n      mul\n      add\n        /* \"contracts/multi.sol\":1355:1386  transactions[_txIndex].executed */\n      0x03\n      add\n      0x00\n      swap1\n      sload\n      swap1\n      0x0100\n      exp\n      swap1\n      div\n      0xff\n      and\n        /* \"contracts/multi.sol\":1354:1386  !transactions[_txIndex].executed */\n      iszero\n        /* \"contracts/multi.sol\":1346:1410  require(!transactions[_txIndex].executed, \"tx already executed\") */\n      tag_183\n      jumpi\n      mload(0x40)\n      0x08c379a000000000000000000000000000000000000000000000000000000000\n      dup2\n      mstore\n      0x04\n      add\n      tag_184\n      swap1\n      tag_99\n      jump\t// in\n    tag_184:\n      mload(0x40)\n      dup1\n      swap2\n      sub\n      swap1\n      revert\n    tag_183:\n        /* \"contracts/multi.sol\":3770:3794  numConfirmationsRequired */\n      sload(0x02)\n        /* \"contracts/multi.sol\":3727:3739  transactions */\n      0x04\n        /* \"contracts/multi.sol\":3740:3748  _txIndex */\n      dup5\n        /* \"contracts/multi.sol\":3727:3749  transactions[_txIndex] */\n      dup2\n      sload\n      dup2\n      lt\n      tag_186\n      jumpi\n      tag_187\n      tag_95\n      jump\t// in\n    tag_187:\n    tag_186:\n      swap1\n      0x00\n      mstore\n      keccak256(0x00, 0x20)\n      swap1\n      0x05\n      mul\n      add\n        /* \"contracts/multi.sol\":3727:3766  transactions[_txIndex].numConfirmations */\n      0x04\n      add\n      sload\n        /* \"contracts/multi.sol\":3727:3794  transactions[_txIndex].numConfirmations >= numConfirmationsRequired */\n      lt\n      iszero\n        /* \"contracts/multi.sol\":3719:3823  require(transactions[_txIndex].numConfirmations >= numConfirmationsRequired, \"Not enough confirmations\") */\n      tag_189\n      jumpi\n      mload(0x40)\n      0x08c379a000000000000000000000000000000000000000000000000000000000\n      dup2\n      mstore\n      0x04\n      add\n      tag_190\n      swap1\n      tag_152\n      jump\t// in\n    tag_190:\n      mload(0x40)\n      dup1\n      swap2\n      sub\n      swap1\n      revert\n    tag_189:\n        /* \"contracts/multi.sol\":3836:3867  Transaction storage transaction */\n      0x00\n        /* \"contracts/multi.sol\":3870:3882  transactions */\n      0x04\n        /* \"contracts/multi.sol\":3883:3891  _txIndex */\n      dup5\n        /* \"contracts/multi.sol\":3870:3892  transactions[_txIndex] */\n      dup2\n      sload\n      dup2\n      lt\n      tag_191\n      jumpi\n      tag_192\n      tag_95\n      jump\t// in\n    tag_192:\n    tag_191:\n      swap1\n      0x00\n      mstore\n      keccak256(0x00, 0x20)\n      swap1\n      0x05\n      mul\n      add\n        /* \"contracts/multi.sol\":3836:3892  Transaction storage transaction = transactions[_txIndex] */\n      swap1\n      pop\n        /* \"contracts/multi.sol\":3926:3930  true */\n      0x01\n        /* \"contracts/multi.sol\":3903:3914  transaction */\n      dup2\n        /* \"contracts/multi.sol\":3903:3923  transaction.executed */\n      0x03\n      add\n      0x00\n        /* \"contracts/multi.sol\":3903:3930  transaction.executed = true */\n      0x0100\n      exp\n      dup2\n      sload\n      dup2\n      0xff\n      mul\n      not\n      and\n      swap1\n      dup4\n      iszero\n      iszero\n      mul\n      or\n      swap1\n      sstore\n      pop\n        /* \"contracts/multi.sol\":3944:3956  bool success */\n      0x00\n        /* \"contracts/multi.sol\":3962:3973  transaction */\n      dup2\n        /* \"contracts/multi.sol\":3962:3976  transaction.to */\n      0x00\n      add\n      0x00\n      swap1\n      sload\n      swap1\n      0x0100\n      exp\n      swap1\n      div\n      0xffffffffffffffffffffffffffffffffffffffff\n      and\n        /* \"contracts/multi.sol\":3962:3981  transaction.to.call */\n      0xffffffffffffffffffffffffffffffffffffffff\n      and\n        /* \"contracts/multi.sol\":3989:4000  transaction */\n      dup3\n        /* \"contracts/multi.sol\":3989:4006  transaction.value */\n      0x01\n      add\n      sload\n        /* \"contracts/multi.sol\":4008:4019  transaction */\n      dup4\n        /* \"contracts/multi.sol\":4008:4024  transaction.data */\n      0x02\n      add\n        /* \"contracts/multi.sol\":3962:4025  transaction.to.call{value: transaction.value}(transaction.data) */\n      mload(0x40)\n      tag_194\n      swap2\n      swap1\n      tag_157\n      jump\t// in\n    tag_194:\n      0x00\n      mload(0x40)\n      dup1\n      dup4\n      sub\n      dup2\n      dup6\n      dup8\n      gas\n      call\n      swap3\n      pop\n      pop\n      pop\n      returndatasize\n      dup1\n      0x00\n      dup2\n      eq\n      tag_197\n      jumpi\n      mload(0x40)\n      swap2\n      pop\n      and(add(returndatasize, 0x3f), not(0x1f))\n      dup3\n      add\n      0x40\n      mstore\n      returndatasize\n      dup3\n      mstore\n      returndatasize\n      0x00\n      0x20\n      dup5\n      add\n      returndatacopy\n      jump(tag_196)\n    tag_197:\n      0x60\n      swap2\n      pop\n    tag_196:\n      pop\n        /* \"contracts/multi.sol\":3943:4025  (bool success, ) = transaction.to.call{value: transaction.value}(transaction.data) */\n      pop\n      swap1\n      pop\n        /* \"contracts/multi.sol\":4044:4051  success */\n      dup1\n        /* \"contracts/multi.sol\":4036:4084  require(success, \"Transaction execution failed\") */\n      tag_198\n      jumpi\n      mload(0x40)\n      0x08c379a000000000000000000000000000000000000000000000000000000000\n      dup2\n      mstore\n      0x04\n      add\n      tag_199\n      swap1\n      tag_163\n      jump\t// in\n    tag_199:\n      mload(0x40)\n      dup1\n      swap2\n      sub\n      swap1\n      revert\n    tag_198:\n        /* \"contracts/multi.sol\":4133:4141  _txIndex */\n      dup5\n        /* \"contracts/multi.sol\":4121:4131  msg.sender */\n      caller\n        /* \"contracts/multi.sol\":4102:4142  ExecuteTransaction(msg.sender, _txIndex) */\n      0xffffffffffffffffffffffffffffffffffffffff\n      and\n      0x5445f318f4f5fcfb66592e68e0cc5822aa15664039bd5f0ffde24c5a8142b1ac\n      mload(0x40)\n      mload(0x40)\n      dup1\n      swap2\n      sub\n      swap1\n      log3\n        /* \"contracts/multi.sol\":3708:4159  {... */\n      pop\n      pop\n        /* \"contracts/multi.sol\":1269:1270  _ */\n      pop\n        /* \"contracts/multi.sol\":1114:1115  _ */\n      pop\n        /* \"contracts/multi.sol\":3563:4159  function executeTransaction(uint256 _txIndex)... */\n      pop\n      jump\t// out\n        /* \"#utility.yul\":7:84   */\n    tag_200:\n        /* \"#utility.yul\":44:51   */\n      0x00\n        /* \"#utility.yul\":73:78   */\n      dup2\n        /* \"#utility.yul\":62:78   */\n      swap1\n      pop\n        /* \"#utility.yul\":7:84   */\n      swap2\n      swap1\n      pop\n      jump\t// out\n        /* \"#utility.yul\":90:208   */\n    tag_201:\n        /* \"#utility.yul\":177:201   */\n      tag_272\n        /* \"#utility.yul\":195:200   */\n      dup2\n        /* \"#utility.yul\":177:201   */\n      tag_200\n      jump\t// in\n    tag_272:\n        /* \"#utility.yul\":172:175   */\n      dup3\n        /* \"#utility.yul\":165:202   */\n      mstore\n        /* \"#utility.yul\":90:208   */\n      pop\n      pop\n      jump\t// out\n        /* \"#utility.yul\":214:546   */\n    tag_19:\n        /* \"#utility.yul\":335:339   */\n      0x00\n        /* \"#utility.yul\":373:375   */\n      0x40\n        /* \"#utility.yul\":362:371   */\n      dup3\n        /* \"#utility.yul\":358:376   */\n      add\n        /* \"#utility.yul\":350:376   */\n      swap1\n      pop\n        /* \"#utility.yul\":386:457   */\n      tag_274\n        /* \"#utility.yul\":454:455   */\n      0x00\n        /* \"#utility.yul\":443:452   */\n      dup4\n        /* \"#utility.yul\":439:456   */\n      add\n        /* \"#utility.yul\":430:436   */\n      dup6\n        /* \"#utility.yul\":386:457   */\n      tag_201\n      jump\t// in\n    tag_274:\n        /* \"#utility.yul\":467:539   */\n      tag_275\n        /* \"#utility.yul\":535:537   */\n      0x20\n        /* \"#utility.yul\":524:533   */\n      dup4\n        /* \"#utility.yul\":520:538   */\n      add\n        /* \"#utility.yul\":511:517   */\n      dup5\n        /* \"#utility.yul\":467:539   */\n      tag_201\n      jump\t// in\n    tag_275:\n        /* \"#utility.yul\":214:546   */\n      swap4\n      swap3\n      pop\n      pop\n      pop\n      jump\t// out\n        /* \"#utility.yul\":552:627   */\n    tag_202:\n        /* \"#utility.yul\":585:591   */\n      0x00\n        /* \"#utility.yul\":618:620   */\n      0x40\n        /* \"#utility.yul\":612:621   */\n      mload\n        /* \"#utility.yul\":602:621   */\n      swap1\n      pop\n        /* \"#utility.yul\":552:627   */\n      swap1\n      jump\t// out\n        /* \"#utility.yul\":633:750   */\n    tag_203:\n        /* \"#utility.yul\":742:743   */\n      0x00\n        /* \"#utility.yul\":739:740   */\n      dup1\n        /* \"#utility.yul\":732:744   */\n      revert\n        /* \"#utility.yul\":756:873   */\n    tag_204:\n        /* \"#utility.yul\":865:866   */\n      0x00\n        /* \"#utility.yul\":862:863   */\n      dup1\n        /* \"#utility.yul\":855:867   */\n      revert\n        /* \"#utility.yul\":879:1001   */\n    tag_205:\n        /* \"#utility.yul\":952:976   */\n      tag_280\n        /* \"#utility.yul\":970:975   */\n      dup2\n        /* \"#utility.yul\":952:976   */\n      tag_200\n      jump\t// in\n    tag_280:\n        /* \"#utility.yul\":945:950   */\n      dup2\n        /* \"#utility.yul\":942:977   */\n      eq\n        /* \"#utility.yul\":932:995   */\n      tag_281\n      jumpi\n        /* \"#utility.yul\":991:992   */\n      0x00\n        /* \"#utility.yul\":988:989   */\n      dup1\n        /* \"#utility.yul\":981:993   */\n      revert\n        /* \"#utility.yul\":932:995   */\n    tag_281:\n        /* \"#utility.yul\":879:1001   */\n      pop\n      jump\t// out\n        /* \"#utility.yul\":1007:1146   */\n    tag_206:\n        /* \"#utility.yul\":1053:1058   */\n      0x00\n        /* \"#utility.yul\":1091:1097   */\n      dup2\n        /* \"#utility.yul\":1078:1098   */\n      calldataload\n        /* \"#utility.yul\":1069:1098   */\n      swap1\n      pop\n        /* \"#utility.yul\":1107:1140   */\n      tag_283\n        /* \"#utility.yul\":1134:1139   */\n      dup2\n        /* \"#utility.yul\":1107:1140   */\n      tag_205\n      jump\t// in\n    tag_283:\n        /* \"#utility.yul\":1007:1146   */\n      swap3\n      swap2\n      pop\n      pop\n      jump\t// out\n        /* \"#utility.yul\":1152:1481   */\n    tag_23:\n        /* \"#utility.yul\":1211:1217   */\n      0x00\n        /* \"#utility.yul\":1260:1262   */\n      0x20\n        /* \"#utility.yul\":1248:1257   */\n      dup3\n        /* \"#utility.yul\":1239:1246   */\n      dup5\n        /* \"#utility.yul\":1235:1258   */\n      sub\n        /* \"#utility.yul\":1231:1263   */\n      slt\n        /* \"#utility.yul\":1228:1347   */\n      iszero\n      tag_285\n      jumpi\n        /* \"#utility.yul\":1266:1345   */\n      tag_286\n      tag_203\n      jump\t// in\n    tag_286:\n        /* \"#utility.yul\":1228:1347   */\n    tag_285:\n        /* \"#utility.yul\":1386:1387   */\n      0x00\n        /* \"#utility.yul\":1411:1464   */\n      tag_287\n        /* \"#utility.yul\":1456:1463   */\n      dup5\n        /* \"#utility.yul\":1447:1453   */\n      dup3\n        /* \"#utility.yul\":1436:1445   */\n      dup6\n        /* \"#utility.yul\":1432:1454   */\n      add\n        /* \"#utility.yul\":1411:1464   */\n      tag_206\n      jump\t// in\n    tag_287:\n        /* \"#utility.yul\":1401:1464   */\n      swap2\n      pop\n        /* \"#utility.yul\":1357:1474   */\n      pop\n        /* \"#utility.yul\":1152:1481   */\n      swap3\n      swap2\n      pop\n      pop\n      jump\t// out\n        /* \"#utility.yul\":1487:1613   */\n    tag_207:\n        /* \"#utility.yul\":1524:1531   */\n      0x00\n        /* \"#utility.yul\":1564:1606   */\n      0xffffffffffffffffffffffffffffffffffffffff\n        /* \"#utility.yul\":1557:1562   */\n      dup3\n        /* \"#utility.yul\":1553:1607   */\n      and\n        /* \"#utility.yul\":1542:1607   */\n      swap1\n      pop\n        /* \"#utility.yul\":1487:1613   */\n      swap2\n      swap1\n      pop\n      jump\t// out\n        /* \"#utility.yul\":1619:1715   */\n    tag_208:\n        /* \"#utility.yul\":1656:1663   */\n      0x00\n        /* \"#utility.yul\":1685:1709   */\n      tag_290\n        /* \"#utility.yul\":1703:1708   */\n      dup3\n        /* \"#utility.yul\":1685:1709   */\n      tag_207\n      jump\t// in\n    tag_290:\n        /* \"#utility.yul\":1674:1709   */\n      swap1\n      pop\n        /* \"#utility.yul\":1619:1715   */\n      swap2\n      swap1\n      pop\n      jump\t// out\n        /* \"#utility.yul\":1721:1839   */\n    tag_209:\n        /* \"#utility.yul\":1808:1832   */\n      tag_292\n        /* \"#utility.yul\":1826:1831   */\n      dup2\n        /* \"#utility.yul\":1808:1832   */\n      tag_208\n      jump\t// in\n    tag_292:\n        /* \"#utility.yul\":1803:1806   */\n      dup3\n        /* \"#utility.yul\":1796:1833   */\n      mstore\n        /* \"#utility.yul\":1721:1839   */\n      pop\n      pop\n      jump\t// out\n        /* \"#utility.yul\":1845:2067   */\n    tag_26:\n        /* \"#utility.yul\":1938:1942   */\n      0x00\n        /* \"#utility.yul\":1976:1978   */\n      0x20\n        /* \"#utility.yul\":1965:1974   */\n      dup3\n        /* \"#utility.yul\":1961:1979   */\n      add\n        /* \"#utility.yul\":1953:1979   */\n      swap1\n      pop\n        /* \"#utility.yul\":1989:2060   */\n      tag_294\n        /* \"#utility.yul\":2057:2058   */\n      0x00\n        /* \"#utility.yul\":2046:2055   */\n      dup4\n        /* \"#utility.yul\":2042:2059   */\n      add\n        /* \"#utility.yul\":2033:2039   */\n      dup5\n        /* \"#utility.yul\":1989:2060   */\n      tag_209\n      jump\t// in\n    tag_294:\n        /* \"#utility.yul\":1845:2067   */\n      swap3\n      swap2\n      pop\n      pop\n      jump\t// out\n        /* \"#utility.yul\":2073:2295   */\n    tag_35:\n        /* \"#utility.yul\":2166:2170   */\n      0x00\n        /* \"#utility.yul\":2204:2206   */\n      0x20\n        /* \"#utility.yul\":2193:2202   */\n      dup3\n        /* \"#utility.yul\":2189:2207   */\n      add\n        /* \"#utility.yul\":2181:2207   */\n      swap1\n      pop\n        /* \"#utility.yul\":2217:2288   */\n      tag_296\n        /* \"#utility.yul\":2285:2286   */\n      0x00\n        /* \"#utility.yul\":2274:2283   */\n      dup4\n        /* \"#utility.yul\":2270:2287   */\n      add\n        /* \"#utility.yul\":2261:2267   */\n      dup5\n        /* \"#utility.yul\":2217:2288   */\n      tag_201\n      jump\t// in\n    tag_296:\n        /* \"#utility.yul\":2073:2295   */\n      swap3\n      swap2\n      pop\n      pop\n      jump\t// out\n        /* \"#utility.yul\":2301:2423   */\n    tag_210:\n        /* \"#utility.yul\":2374:2398   */\n      tag_298\n        /* \"#utility.yul\":2392:2397   */\n      dup2\n        /* \"#utility.yul\":2374:2398   */\n      tag_208\n      jump\t// in\n    tag_298:\n        /* \"#utility.yul\":2367:2372   */\n      dup2\n        /* \"#utility.yul\":2364:2399   */\n      eq\n        /* \"#utility.yul\":2354:2417   */\n      tag_299\n      jumpi\n        /* \"#utility.yul\":2413:2414   */\n      0x00\n        /* \"#utility.yul\":2410:2411   */\n      dup1\n        /* \"#utility.yul\":2403:2415   */\n      revert\n        /* \"#utility.yul\":2354:2417   */\n    tag_299:\n        /* \"#utility.yul\":2301:2423   */\n      pop\n      jump\t// out\n        /* \"#utility.yul\":2429:2568   */\n    tag_211:\n        /* \"#utility.yul\":2475:2480   */\n      0x00\n        /* \"#utility.yul\":2513:2519   */\n      dup2\n        /* \"#utility.yul\":2500:2520   */\n      calldataload\n        /* \"#utility.yul\":2491:2520   */\n      swap1\n      pop\n        /* \"#utility.yul\":2529:2562   */\n      tag_301\n        /* \"#utility.yul\":2556:2561   */\n      dup2\n        /* \"#utility.yul\":2529:2562   */\n      tag_210\n      jump\t// in\n    tag_301:\n        /* \"#utility.yul\":2429:2568   */\n      swap3\n      swap2\n      pop\n      pop\n      jump\t// out\n        /* \"#utility.yul\":2574:2903   */\n    tag_39:\n        /* \"#utility.yul\":2633:2639   */\n      0x00\n        /* \"#utility.yul\":2682:2684   */\n      0x20\n        /* \"#utility.yul\":2670:2679   */\n      dup3\n        /* \"#utility.yul\":2661:2668   */\n      dup5\n        /* \"#utility.yul\":2657:2680   */\n      sub\n        /* \"#utility.yul\":2653:2685   */\n      slt\n        /* \"#utility.yul\":2650:2769   */\n      iszero\n      tag_303\n      jumpi\n        /* \"#utility.yul\":2688:2767   */\n      tag_304\n      tag_203\n      jump\t// in\n    tag_304:\n        /* \"#utility.yul\":2650:2769   */\n    tag_303:\n        /* \"#utility.yul\":2808:2809   */\n      0x00\n        /* \"#utility.yul\":2833:2886   */\n      tag_305\n        /* \"#utility.yul\":2878:2885   */\n      dup5\n        /* \"#utility.yul\":2869:2875   */\n      dup3\n        /* \"#utility.yul\":2858:2867   */\n      dup6\n        /* \"#utility.yul\":2854:2876   */\n      add\n        /* \"#utility.yul\":2833:2886   */\n      tag_211\n      jump\t// in\n    tag_305:\n        /* \"#utility.yul\":2823:2886   */\n      swap2\n      pop\n        /* \"#utility.yul\":2779:2896   */\n      pop\n        /* \"#utility.yul\":2574:2903   */\n      swap3\n      swap2\n      pop\n      pop\n      jump\t// out\n        /* \"#utility.yul\":2909:2999   */\n    tag_212:\n        /* \"#utility.yul\":2943:2950   */\n      0x00\n        /* \"#utility.yul\":2986:2991   */\n      dup2\n        /* \"#utility.yul\":2979:2992   */\n      iszero\n        /* \"#utility.yul\":2972:2993   */\n      iszero\n        /* \"#utility.yul\":2961:2993   */\n      swap1\n      pop\n        /* \"#utility.yul\":2909:2999   */\n      swap2\n      swap1\n      pop\n      jump\t// out\n        /* \"#utility.yul\":3005:3114   */\n    tag_213:\n        /* \"#utility.yul\":3086:3107   */\n      tag_308\n        /* \"#utility.yul\":3101:3106   */\n      dup2\n        /* \"#utility.yul\":3086:3107   */\n      tag_212\n      jump\t// in\n    tag_308:\n        /* \"#utility.yul\":3081:3084   */\n      dup3\n        /* \"#utility.yul\":3074:3108   */\n      mstore\n        /* \"#utility.yul\":3005:3114   */\n      pop\n      pop\n      jump\t// out\n        /* \"#utility.yul\":3120:3330   */\n    tag_42:\n        /* \"#utility.yul\":3207:3211   */\n      0x00\n        /* \"#utility.yul\":3245:3247   */\n      0x20\n        /* \"#utility.yul\":3234:3243   */\n      dup3\n        /* \"#utility.yul\":3230:3248   */\n      add\n        /* \"#utility.yul\":3222:3248   */\n      swap1\n      pop\n        /* \"#utility.yul\":3258:3323   */\n      tag_310\n        /* \"#utility.yul\":3320:3321   */\n      0x00\n        /* \"#utility.yul\":3309:3318   */\n      dup4\n        /* \"#utility.yul\":3305:3322   */\n      add\n        /* \"#utility.yul\":3296:3302   */\n      dup5\n        /* \"#utility.yul\":3258:3323   */\n      tag_213\n      jump\t// in\n    tag_310:\n        /* \"#utility.yul\":3120:3330   */\n      swap3\n      swap2\n      pop\n      pop\n      jump\t// out\n        /* \"#utility.yul\":3336:3434   */\n    tag_214:\n        /* \"#utility.yul\":3387:3393   */\n      0x00\n        /* \"#utility.yul\":3421:3426   */\n      dup2\n        /* \"#utility.yul\":3415:3427   */\n      mload\n        /* \"#utility.yul\":3405:3427   */\n      swap1\n      pop\n        /* \"#utility.yul\":3336:3434   */\n      swap2\n      swap1\n      pop\n      jump\t// out\n        /* \"#utility.yul\":3440:3608   */\n    tag_215:\n        /* \"#utility.yul\":3523:3534   */\n      0x00\n        /* \"#utility.yul\":3557:3563   */\n      dup3\n        /* \"#utility.yul\":3552:3555   */\n      dup3\n        /* \"#utility.yul\":3545:3564   */\n      mstore\n        /* \"#utility.yul\":3597:3601   */\n      0x20\n        /* \"#utility.yul\":3592:3595   */\n      dup3\n        /* \"#utility.yul\":3588:3602   */\n      add\n        /* \"#utility.yul\":3573:3602   */\n      swap1\n      pop\n        /* \"#utility.yul\":3440:3608   */\n      swap3\n      swap2\n      pop\n      pop\n      jump\t// out\n        /* \"#utility.yul\":3614:3753   */\n    tag_216:\n        /* \"#utility.yul\":3703:3709   */\n      dup3\n        /* \"#utility.yul\":3698:3701   */\n      dup2\n        /* \"#utility.yul\":3693:3696   */\n      dup4\n        /* \"#utility.yul\":3687:3710   */\n      mcopy\n        /* \"#utility.yul\":3744:3745   */\n      0x00\n        /* \"#utility.yul\":3735:3741   */\n      dup4\n        /* \"#utility.yul\":3730:3733   */\n      dup4\n        /* \"#utility.yul\":3726:3742   */\n      add\n        /* \"#utility.yul\":3719:3746   */\n      mstore\n        /* \"#utility.yul\":3614:3753   */\n      pop\n      pop\n      pop\n      jump\t// out\n        /* \"#utility.yul\":3759:3861   */\n    tag_217:\n        /* \"#utility.yul\":3800:3806   */\n      0x00\n        /* \"#utility.yul\":3851:3853   */\n      0x1f\n        /* \"#utility.yul\":3847:3854   */\n      not\n        /* \"#utility.yul\":3842:3844   */\n      0x1f\n        /* \"#utility.yul\":3835:3840   */\n      dup4\n        /* \"#utility.yul\":3831:3845   */\n      add\n        /* \"#utility.yul\":3827:3855   */\n      and\n        /* \"#utility.yul\":3817:3855   */\n      swap1\n      pop\n        /* \"#utility.yul\":3759:3861   */\n      swap2\n      swap1\n      pop\n      jump\t// out\n        /* \"#utility.yul\":3867:4240   */\n    tag_218:\n        /* \"#utility.yul\":3953:3956   */\n      0x00\n        /* \"#utility.yul\":3981:4019   */\n      tag_316\n        /* \"#utility.yul\":4013:4018   */\n      dup3\n        /* \"#utility.yul\":3981:4019   */\n      tag_214\n      jump\t// in\n    tag_316:\n        /* \"#utility.yul\":4035:4105   */\n      tag_317\n        /* \"#utility.yul\":4098:4104   */\n      dup2\n        /* \"#utility.yul\":4093:4096   */\n      dup6\n        /* \"#utility.yul\":4035:4105   */\n      tag_215\n      jump\t// in\n    tag_317:\n        /* \"#utility.yul\":4028:4105   */\n      swap4\n      pop\n        /* \"#utility.yul\":4114:4179   */\n      tag_318\n        /* \"#utility.yul\":4172:4178   */\n      dup2\n        /* \"#utility.yul\":4167:4170   */\n      dup6\n        /* \"#utility.yul\":4160:4164   */\n      0x20\n        /* \"#utility.yul\":4153:4158   */\n      dup7\n        /* \"#utility.yul\":4149:4165   */\n      add\n        /* \"#utility.yul\":4114:4179   */\n      tag_216\n      jump\t// in\n    tag_318:\n        /* \"#utility.yul\":4204:4233   */\n      tag_319\n        /* \"#utility.yul\":4226:4232   */\n      dup2\n        /* \"#utility.yul\":4204:4233   */\n      tag_217\n      jump\t// in\n    tag_319:\n        /* \"#utility.yul\":4199:4202   */\n      dup5\n        /* \"#utility.yul\":4195:4234   */\n      add\n        /* \"#utility.yul\":4188:4234   */\n      swap2\n      pop\n        /* \"#utility.yul\":3957:4240   */\n      pop\n        /* \"#utility.yul\":3867:4240   */\n      swap3\n      swap2\n      pop\n      pop\n      jump\t// out\n        /* \"#utility.yul\":4246:4985   */\n    tag_48:\n        /* \"#utility.yul\":4463:4467   */\n      0x00\n        /* \"#utility.yul\":4501:4504   */\n      0xa0\n        /* \"#utility.yul\":4490:4499   */\n      dup3\n        /* \"#utility.yul\":4486:4505   */\n      add\n        /* \"#utility.yul\":4478:4505   */\n      swap1\n      pop\n        /* \"#utility.yul\":4515:4586   */\n      tag_321\n        /* \"#utility.yul\":4583:4584   */\n      0x00\n        /* \"#utility.yul\":4572:4581   */\n      dup4\n        /* \"#utility.yul\":4568:4585   */\n      add\n        /* \"#utility.yul\":4559:4565   */\n      dup9\n        /* \"#utility.yul\":4515:4586   */\n      tag_209\n      jump\t// in\n    tag_321:\n        /* \"#utility.yul\":4596:4668   */\n      tag_322\n        /* \"#utility.yul\":4664:4666   */\n      0x20\n        /* \"#utility.yul\":4653:4662   */\n      dup4\n        /* \"#utility.yul\":4649:4667   */\n      add\n        /* \"#utility.yul\":4640:4646   */\n      dup8\n        /* \"#utility.yul\":4596:4668   */\n      tag_201\n      jump\t// in\n    tag_322:\n        /* \"#utility.yul\":4715:4724   */\n      dup2\n        /* \"#utility.yul\":4709:4713   */\n      dup2\n        /* \"#utility.yul\":4705:4725   */\n      sub\n        /* \"#utility.yul\":4700:4702   */\n      0x40\n        /* \"#utility.yul\":4689:4698   */\n      dup4\n        /* \"#utility.yul\":4685:4703   */\n      add\n        /* \"#utility.yul\":4678:4726   */\n      mstore\n        /* \"#utility.yul\":4743:4819   */\n      tag_323\n        /* \"#utility.yul\":4814:4818   */\n      dup2\n        /* \"#utility.yul\":4805:4811   */\n      dup7\n        /* \"#utility.yul\":4743:4819   */\n      tag_218\n      jump\t// in\n    tag_323:\n        /* \"#utility.yul\":4735:4819   */\n      swap1\n      pop\n        /* \"#utility.yul\":4829:4895   */\n      tag_324\n        /* \"#utility.yul\":4891:4893   */\n      0x60\n        /* \"#utility.yul\":4880:4889   */\n      dup4\n        /* \"#utility.yul\":4876:4894   */\n      add\n        /* \"#utility.yul\":4867:4873   */\n      dup6\n        /* \"#utility.yul\":4829:4895   */\n      tag_213\n      jump\t// in\n    tag_324:\n        /* \"#utility.yul\":4905:4978   */\n      tag_325\n        /* \"#utility.yul\":4973:4976   */\n      0x80\n        /* \"#utility.yul\":4962:4971   */\n      dup4\n        /* \"#utility.yul\":4958:4977   */\n      add\n        /* \"#utility.yul\":4949:4955   */\n      dup5\n        /* \"#utility.yul\":4905:4978   */\n      tag_201\n      jump\t// in\n    tag_325:\n        /* \"#utility.yul\":4246:4985   */\n      swap7\n      swap6\n      pop\n      pop\n      pop\n      pop\n      pop\n      pop\n      jump\t// out\n        /* \"#utility.yul\":4991:5465   */\n    tag_52:\n        /* \"#utility.yul\":5059:5065   */\n      0x00\n        /* \"#utility.yul\":5067:5073   */\n      dup1\n        /* \"#utility.yul\":5116:5118   */\n      0x40\n        /* \"#utility.yul\":5104:5113   */\n      dup4\n        /* \"#utility.yul\":5095:5102   */\n      dup6\n        /* \"#utility.yul\":5091:5114   */\n      sub\n        /* \"#utility.yul\":5087:5119   */\n      slt\n        /* \"#utility.yul\":5084:5203   */\n      iszero\n      tag_327\n      jumpi\n        /* \"#utility.yul\":5122:5201   */\n      tag_328\n      tag_203\n      jump\t// in\n    tag_328:\n        /* \"#utility.yul\":5084:5203   */\n    tag_327:\n        /* \"#utility.yul\":5242:5243   */\n      0x00\n        /* \"#utility.yul\":5267:5320   */\n      tag_329\n        /* \"#utility.yul\":5312:5319   */\n      dup6\n        /* \"#utility.yul\":5303:5309   */\n      dup3\n        /* \"#utility.yul\":5292:5301   */\n      dup7\n        /* \"#utility.yul\":5288:5310   */\n      add\n        /* \"#utility.yul\":5267:5320   */\n      tag_206\n      jump\t// in\n    tag_329:\n        /* \"#utility.yul\":5257:5320   */\n      swap3\n      pop\n        /* \"#utility.yul\":5213:5330   */\n      pop\n        /* \"#utility.yul\":5369:5371   */\n      0x20\n        /* \"#utility.yul\":5395:5448   */\n      tag_330\n        /* \"#utility.yul\":5440:5447   */\n      dup6\n        /* \"#utility.yul\":5431:5437   */\n      dup3\n        /* \"#utility.yul\":5420:5429   */\n      dup7\n        /* \"#utility.yul\":5416:5438   */\n      add\n        /* \"#utility.yul\":5395:5448   */\n      tag_211\n      jump\t// in\n    tag_330:\n        /* \"#utility.yul\":5385:5448   */\n      swap2\n      pop\n        /* \"#utility.yul\":5340:5458   */\n      pop\n        /* \"#utility.yul\":4991:5465   */\n      swap3\n      pop\n      swap3\n      swap1\n      pop\n      jump\t// out\n        /* \"#utility.yul\":5471:5585   */\n    tag_219:\n        /* \"#utility.yul\":5538:5544   */\n      0x00\n        /* \"#utility.yul\":5572:5577   */\n      dup2\n        /* \"#utility.yul\":5566:5578   */\n      mload\n        /* \"#utility.yul\":5556:5578   */\n      swap1\n      pop\n        /* \"#utility.yul\":5471:5585   */\n      swap2\n      swap1\n      pop\n      jump\t// out\n        /* \"#utility.yul\":5591:5775   */\n    tag_220:\n        /* \"#utility.yul\":5690:5701   */\n      0x00\n        /* \"#utility.yul\":5724:5730   */\n      dup3\n        /* \"#utility.yul\":5719:5722   */\n      dup3\n        /* \"#utility.yul\":5712:5731   */\n      mstore\n        /* \"#utility.yul\":5764:5768   */\n      0x20\n        /* \"#utility.yul\":5759:5762   */\n      dup3\n        /* \"#utility.yul\":5755:5769   */\n      add\n        /* \"#utility.yul\":5740:5769   */\n      swap1\n      pop\n        /* \"#utility.yul\":5591:5775   */\n      swap3\n      swap2\n      pop\n      pop\n      jump\t// out\n        /* \"#utility.yul\":5781:5913   */\n    tag_221:\n        /* \"#utility.yul\":5848:5852   */\n      0x00\n        /* \"#utility.yul\":5871:5874   */\n      dup2\n        /* \"#utility.yul\":5863:5874   */\n      swap1\n      pop\n        /* \"#utility.yul\":5901:5905   */\n      0x20\n        /* \"#utility.yul\":5896:5899   */\n      dup3\n        /* \"#utility.yul\":5892:5906   */\n      add\n        /* \"#utility.yul\":5884:5906   */\n      swap1\n      pop\n        /* \"#utility.yul\":5781:5913   */\n      swap2\n      swap1\n      pop\n      jump\t// out\n        /* \"#utility.yul\":5919:6027   */\n    tag_222:\n        /* \"#utility.yul\":5996:6020   */\n      tag_335\n        /* \"#utility.yul\":6014:6019   */\n      dup2\n        /* \"#utility.yul\":5996:6020   */\n      tag_208\n      jump\t// in\n    tag_335:\n        /* \"#utility.yul\":5991:5994   */\n      dup3\n        /* \"#utility.yul\":5984:6021   */\n      mstore\n        /* \"#utility.yul\":5919:6027   */\n      pop\n      pop\n      jump\t// out\n        /* \"#utility.yul\":6033:6212   */\n    tag_223:\n        /* \"#utility.yul\":6102:6112   */\n      0x00\n        /* \"#utility.yul\":6123:6169   */\n      tag_337\n        /* \"#utility.yul\":6165:6168   */\n      dup4\n        /* \"#utility.yul\":6157:6163   */\n      dup4\n        /* \"#utility.yul\":6123:6169   */\n      tag_222\n      jump\t// in\n    tag_337:\n        /* \"#utility.yul\":6201:6205   */\n      0x20\n        /* \"#utility.yul\":6196:6199   */\n      dup4\n        /* \"#utility.yul\":6192:6206   */\n      add\n        /* \"#utility.yul\":6178:6206   */\n      swap1\n      pop\n        /* \"#utility.yul\":6033:6212   */\n      swap3\n      swap2\n      pop\n      pop\n      jump\t// out\n        /* \"#utility.yul\":6218:6331   */\n    tag_224:\n        /* \"#utility.yul\":6288:6292   */\n      0x00\n        /* \"#utility.yul\":6320:6324   */\n      0x20\n        /* \"#utility.yul\":6315:6318   */\n      dup3\n        /* \"#utility.yul\":6311:6325   */\n      add\n        /* \"#utility.yul\":6303:6325   */\n      swap1\n      pop\n        /* \"#utility.yul\":6218:6331   */\n      swap2\n      swap1\n      pop\n      jump\t// out\n        /* \"#utility.yul\":6367:7099   */\n    tag_225:\n        /* \"#utility.yul\":6486:6489   */\n      0x00\n        /* \"#utility.yul\":6515:6569   */\n      tag_340\n        /* \"#utility.yul\":6563:6568   */\n      dup3\n        /* \"#utility.yul\":6515:6569   */\n      tag_219\n      jump\t// in\n    tag_340:\n        /* \"#utility.yul\":6585:6671   */\n      tag_341\n        /* \"#utility.yul\":6664:6670   */\n      dup2\n        /* \"#utility.yul\":6659:6662   */\n      dup6\n        /* \"#utility.yul\":6585:6671   */\n      tag_220\n      jump\t// in\n    tag_341:\n        /* \"#utility.yul\":6578:6671   */\n      swap4\n      pop\n        /* \"#utility.yul\":6695:6751   */\n      tag_342\n        /* \"#utility.yul\":6745:6750   */\n      dup4\n        /* \"#utility.yul\":6695:6751   */\n      tag_221\n      jump\t// in\n    tag_342:\n        /* \"#utility.yul\":6774:6781   */\n      dup1\n        /* \"#utility.yul\":6805:6806   */\n      0x00\n        /* \"#utility.yul\":6790:7074   */\n    tag_343:\n        /* \"#utility.yul\":6815:6821   */\n      dup4\n        /* \"#utility.yul\":6812:6813   */\n      dup2\n        /* \"#utility.yul\":6809:6822   */\n      lt\n        /* \"#utility.yul\":6790:7074   */\n      iszero\n      tag_345\n      jumpi\n        /* \"#utility.yul\":6891:6897   */\n      dup2\n        /* \"#utility.yul\":6885:6898   */\n      mload\n        /* \"#utility.yul\":6918:6981   */\n      tag_346\n        /* \"#utility.yul\":6977:6980   */\n      dup9\n        /* \"#utility.yul\":6962:6975   */\n      dup3\n        /* \"#utility.yul\":6918:6981   */\n      tag_223\n      jump\t// in\n    tag_346:\n        /* \"#utility.yul\":6911:6981   */\n      swap8\n      pop\n        /* \"#utility.yul\":7004:7064   */\n      tag_347\n        /* \"#utility.yul\":7057:7063   */\n      dup4\n        /* \"#utility.yul\":7004:7064   */\n      tag_224\n      jump\t// in\n    tag_347:\n        /* \"#utility.yul\":6994:7064   */\n      swap3\n      pop\n        /* \"#utility.yul\":6850:7074   */\n      pop\n        /* \"#utility.yul\":6837:6838   */\n      0x01\n        /* \"#utility.yul\":6834:6835   */\n      dup2\n        /* \"#utility.yul\":6830:6839   */\n      add\n        /* \"#utility.yul\":6825:6839   */\n      swap1\n      pop\n        /* \"#utility.yul\":6790:7074   */\n      jump(tag_343)\n    tag_345:\n        /* \"#utility.yul\":6794:6808   */\n      pop\n        /* \"#utility.yul\":7090:7093   */\n      dup6\n        /* \"#utility.yul\":7083:7093   */\n      swap4\n      pop\n        /* \"#utility.yul\":6491:7099   */\n      pop\n      pop\n      pop\n        /* \"#utility.yul\":6367:7099   */\n      swap3\n      swap2\n      pop\n      pop\n      jump\t// out\n        /* \"#utility.yul\":7105:7478   */\n    tag_64:\n        /* \"#utility.yul\":7248:7252   */\n      0x00\n        /* \"#utility.yul\":7286:7288   */\n      0x20\n        /* \"#utility.yul\":7275:7284   */\n      dup3\n        /* \"#utility.yul\":7271:7289   */\n      add\n        /* \"#utility.yul\":7263:7289   */\n      swap1\n      pop\n        /* \"#utility.yul\":7335:7344   */\n      dup2\n        /* \"#utility.yul\":7329:7333   */\n      dup2\n        /* \"#utility.yul\":7325:7345   */\n      sub\n        /* \"#utility.yul\":7321:7322   */\n      0x00\n        /* \"#utility.yul\":7310:7319   */\n      dup4\n        /* \"#utility.yul\":7306:7323   */\n      add\n        /* \"#utility.yul\":7299:7346   */\n      mstore\n        /* \"#utility.yul\":7363:7471   */\n      tag_349\n        /* \"#utility.yul\":7466:7470   */\n      dup2\n        /* \"#utility.yul\":7457:7463   */\n      dup5\n        /* \"#utility.yul\":7363:7471   */\n      tag_225\n      jump\t// in\n    tag_349:\n        /* \"#utility.yul\":7355:7471   */\n      swap1\n      pop\n        /* \"#utility.yul\":7105:7478   */\n      swap3\n      swap2\n      pop\n      pop\n      jump\t// out\n        /* \"#utility.yul\":7484:7601   */\n    tag_226:\n        /* \"#utility.yul\":7593:7594   */\n      0x00\n        /* \"#utility.yul\":7590:7591   */\n      dup1\n        /* \"#utility.yul\":7583:7595   */\n      revert\n        /* \"#utility.yul\":7607:7724   */\n    tag_227:\n        /* \"#utility.yul\":7716:7717   */\n      0x00\n        /* \"#utility.yul\":7713:7714   */\n      dup1\n        /* \"#utility.yul\":7706:7718   */\n      revert\n        /* \"#utility.yul\":7730:7910   */\n    tag_228:\n        /* \"#utility.yul\":7778:7855   */\n      0x4e487b7100000000000000000000000000000000000000000000000000000000\n        /* \"#utility.yul\":7775:7776   */\n      0x00\n        /* \"#utility.yul\":7768:7856   */\n      mstore\n        /* \"#utility.yul\":7875:7879   */\n      0x41\n        /* \"#utility.yul\":7872:7873   */\n      0x04\n        /* \"#utility.yul\":7865:7880   */\n      mstore\n        /* \"#utility.yul\":7899:7903   */\n      0x24\n        /* \"#utility.yul\":7896:7897   */\n      0x00\n        /* \"#utility.yul\":7889:7904   */\n      revert\n        /* \"#utility.yul\":7916:8197   */\n    tag_229:\n        /* \"#utility.yul\":7999:8026   */\n      tag_354\n        /* \"#utility.yul\":8021:8025   */\n      dup3\n        /* \"#utility.yul\":7999:8026   */\n      tag_217\n      jump\t// in\n    tag_354:\n        /* \"#utility.yul\":7991:7997   */\n      dup2\n        /* \"#utility.yul\":7987:8027   */\n      add\n        /* \"#utility.yul\":8129:8135   */\n      dup2\n        /* \"#utility.yul\":8117:8127   */\n      dup2\n        /* \"#utility.yul\":8114:8136   */\n      lt\n        /* \"#utility.yul\":8093:8111   */\n      0xffffffffffffffff\n        /* \"#utility.yul\":8081:8091   */\n      dup3\n        /* \"#utility.yul\":8078:8112   */\n      gt\n        /* \"#utility.yul\":8075:8137   */\n      or\n        /* \"#utility.yul\":8072:8160   */\n      iszero\n      tag_355\n      jumpi\n        /* \"#utility.yul\":8140:8158   */\n      tag_356\n      tag_228\n      jump\t// in\n    tag_356:\n        /* \"#utility.yul\":8072:8160   */\n    tag_355:\n        /* \"#utility.yul\":8180:8190   */\n      dup1\n        /* \"#utility.yul\":8176:8178   */\n      0x40\n        /* \"#utility.yul\":8169:8191   */\n      mstore\n        /* \"#utility.yul\":7959:8197   */\n      pop\n        /* \"#utility.yul\":7916:8197   */\n      pop\n      pop\n      jump\t// out\n        /* \"#utility.yul\":8203:8332   */\n    tag_230:\n        /* \"#utility.yul\":8237:8243   */\n      0x00\n        /* \"#utility.yul\":8264:8284   */\n      tag_358\n      tag_202\n      jump\t// in\n    tag_358:\n        /* \"#utility.yul\":8254:8284   */\n      swap1\n      pop\n        /* \"#utility.yul\":8293:8326   */\n      tag_359\n        /* \"#utility.yul\":8321:8325   */\n      dup3\n        /* \"#utility.yul\":8313:8319   */\n      dup3\n        /* \"#utility.yul\":8293:8326   */\n      tag_229\n      jump\t// in\n    tag_359:\n        /* \"#utility.yul\":8203:8332   */\n      swap2\n      swap1\n      pop\n      jump\t// out\n        /* \"#utility.yul\":8338:8645   */\n    tag_231:\n        /* \"#utility.yul\":8399:8403   */\n      0x00\n        /* \"#utility.yul\":8489:8507   */\n      0xffffffffffffffff\n        /* \"#utility.yul\":8481:8487   */\n      dup3\n        /* \"#utility.yul\":8478:8508   */\n      gt\n        /* \"#utility.yul\":8475:8531   */\n      iszero\n      tag_361\n      jumpi\n        /* \"#utility.yul\":8511:8529   */\n      tag_362\n      tag_228\n      jump\t// in\n    tag_362:\n        /* \"#utility.yul\":8475:8531   */\n    tag_361:\n        /* \"#utility.yul\":8549:8578   */\n      tag_363\n        /* \"#utility.yul\":8571:8577   */\n      dup3\n        /* \"#utility.yul\":8549:8578   */\n      tag_217\n      jump\t// in\n    tag_363:\n        /* \"#utility.yul\":8541:8578   */\n      swap1\n      pop\n        /* \"#utility.yul\":8633:8637   */\n      0x20\n        /* \"#utility.yul\":8627:8631   */\n      dup2\n        /* \"#utility.yul\":8623:8638   */\n      add\n        /* \"#utility.yul\":8615:8638   */\n      swap1\n      pop\n        /* \"#utility.yul\":8338:8645   */\n      swap2\n      swap1\n      pop\n      jump\t// out\n        /* \"#utility.yul\":8651:8799   */\n    tag_232:\n        /* \"#utility.yul\":8749:8755   */\n      dup3\n        /* \"#utility.yul\":8744:8747   */\n      dup2\n        /* \"#utility.yul\":8739:8742   */\n      dup4\n        /* \"#utility.yul\":8726:8756   */\n      calldatacopy\n        /* \"#utility.yul\":8790:8791   */\n      0x00\n        /* \"#utility.yul\":8781:8787   */\n      dup4\n        /* \"#utility.yul\":8776:8779   */\n      dup4\n        /* \"#utility.yul\":8772:8788   */\n      add\n        /* \"#utility.yul\":8765:8792   */\n      mstore\n        /* \"#utility.yul\":8651:8799   */\n      pop\n      pop\n      pop\n      jump\t// out\n        /* \"#utility.yul\":8805:9228   */\n    tag_233:\n        /* \"#utility.yul\":8882:8887   */\n      0x00\n        /* \"#utility.yul\":8907:8972   */\n      tag_366\n        /* \"#utility.yul\":8923:8971   */\n      tag_367\n        /* \"#utility.yul\":8964:8970   */\n      dup5\n        /* \"#utility.yul\":8923:8971   */\n      tag_231\n      jump\t// in\n    tag_367:\n        /* \"#utility.yul\":8907:8972   */\n      tag_230\n      jump\t// in\n    tag_366:\n        /* \"#utility.yul\":8898:8972   */\n      swap1\n      pop\n        /* \"#utility.yul\":8995:9001   */\n      dup3\n        /* \"#utility.yul\":8988:8993   */\n      dup2\n        /* \"#utility.yul\":8981:9002   */\n      mstore\n        /* \"#utility.yul\":9033:9037   */\n      0x20\n        /* \"#utility.yul\":9026:9031   */\n      dup2\n        /* \"#utility.yul\":9022:9038   */\n      add\n        /* \"#utility.yul\":9071:9074   */\n      dup5\n        /* \"#utility.yul\":9062:9068   */\n      dup5\n        /* \"#utility.yul\":9057:9060   */\n      dup5\n        /* \"#utility.yul\":9053:9069   */\n      add\n        /* \"#utility.yul\":9050:9075   */\n      gt\n        /* \"#utility.yul\":9047:9159   */\n      iszero\n      tag_368\n      jumpi\n        /* \"#utility.yul\":9078:9157   */\n      tag_369\n      tag_227\n      jump\t// in\n    tag_369:\n        /* \"#utility.yul\":9047:9159   */\n    tag_368:\n        /* \"#utility.yul\":9168:9222   */\n      tag_370\n        /* \"#utility.yul\":9215:9221   */\n      dup5\n        /* \"#utility.yul\":9210:9213   */\n      dup3\n        /* \"#utility.yul\":9205:9208   */\n      dup6\n        /* \"#utility.yul\":9168:9222   */\n      tag_232\n      jump\t// in\n    tag_370:\n        /* \"#utility.yul\":8888:9228   */\n      pop\n        /* \"#utility.yul\":8805:9228   */\n      swap4\n      swap3\n      pop\n      pop\n      pop\n      jump\t// out\n        /* \"#utility.yul\":9247:9585   */\n    tag_234:\n        /* \"#utility.yul\":9302:9307   */\n      0x00\n        /* \"#utility.yul\":9351:9354   */\n      dup3\n        /* \"#utility.yul\":9344:9348   */\n      0x1f\n        /* \"#utility.yul\":9336:9342   */\n      dup4\n        /* \"#utility.yul\":9332:9349   */\n      add\n        /* \"#utility.yul\":9328:9355   */\n      slt\n        /* \"#utility.yul\":9318:9440   */\n      tag_372\n      jumpi\n        /* \"#utility.yul\":9359:9438   */\n      tag_373\n      tag_226\n      jump\t// in\n    tag_373:\n        /* \"#utility.yul\":9318:9440   */\n    tag_372:\n        /* \"#utility.yul\":9476:9482   */\n      dup2\n        /* \"#utility.yul\":9463:9483   */\n      calldataload\n        /* \"#utility.yul\":9501:9579   */\n      tag_374\n        /* \"#utility.yul\":9575:9578   */\n      dup5\n        /* \"#utility.yul\":9567:9573   */\n      dup3\n        /* \"#utility.yul\":9560:9564   */\n      0x20\n        /* \"#utility.yul\":9552:9558   */\n      dup7\n        /* \"#utility.yul\":9548:9565   */\n      add\n        /* \"#utility.yul\":9501:9579   */\n      tag_233\n      jump\t// in\n    tag_374:\n        /* \"#utility.yul\":9492:9579   */\n      swap2\n      pop\n        /* \"#utility.yul\":9308:9585   */\n      pop\n        /* \"#utility.yul\":9247:9585   */\n      swap3\n      swap2\n      pop\n      pop\n      jump\t// out\n        /* \"#utility.yul\":9591:10388   */\n    tag_72:\n        /* \"#utility.yul\":9677:9683   */\n      0x00\n        /* \"#utility.yul\":9685:9691   */\n      dup1\n        /* \"#utility.yul\":9693:9699   */\n      0x00\n        /* \"#utility.yul\":9742:9744   */\n      0x60\n        /* \"#utility.yul\":9730:9739   */\n      dup5\n        /* \"#utility.yul\":9721:9728   */\n      dup7\n        /* \"#utility.yul\":9717:9740   */\n      sub\n        /* \"#utility.yul\":9713:9745   */\n      slt\n        /* \"#utility.yul\":9710:9829   */\n      iszero\n      tag_376\n      jumpi\n        /* \"#utility.yul\":9748:9827   */\n      tag_377\n      tag_203\n      jump\t// in\n    tag_377:\n        /* \"#utility.yul\":9710:9829   */\n    tag_376:\n        /* \"#utility.yul\":9868:9869   */\n      0x00\n        /* \"#utility.yul\":9893:9946   */\n      tag_378\n        /* \"#utility.yul\":9938:9945   */\n      dup7\n        /* \"#utility.yul\":9929:9935   */\n      dup3\n        /* \"#utility.yul\":9918:9927   */\n      dup8\n        /* \"#utility.yul\":9914:9936   */\n      add\n        /* \"#utility.yul\":9893:9946   */\n      tag_211\n      jump\t// in\n    tag_378:\n        /* \"#utility.yul\":9883:9946   */\n      swap4\n      pop\n        /* \"#utility.yul\":9839:9956   */\n      pop\n        /* \"#utility.yul\":9995:9997   */\n      0x20\n        /* \"#utility.yul\":10021:10074   */\n      tag_379\n        /* \"#utility.yul\":10066:10073   */\n      dup7\n        /* \"#utility.yul\":10057:10063   */\n      dup3\n        /* \"#utility.yul\":10046:10055   */\n      dup8\n        /* \"#utility.yul\":10042:10064   */\n      add\n        /* \"#utility.yul\":10021:10074   */\n      tag_206\n      jump\t// in\n    tag_379:\n        /* \"#utility.yul\":10011:10074   */\n      swap3\n      pop\n        /* \"#utility.yul\":9966:10084   */\n      pop\n        /* \"#utility.yul\":10151:10153   */\n      0x40\n        /* \"#utility.yul\":10140:10149   */\n      dup5\n        /* \"#utility.yul\":10136:10154   */\n      add\n        /* \"#utility.yul\":10123:10155   */\n      calldataload\n        /* \"#utility.yul\":10182:10200   */\n      0xffffffffffffffff\n        /* \"#utility.yul\":10174:10180   */\n      dup2\n        /* \"#utility.yul\":10171:10201   */\n      gt\n        /* \"#utility.yul\":10168:10285   */\n      iszero\n      tag_380\n      jumpi\n        /* \"#utility.yul\":10204:10283   */\n      tag_381\n      tag_204\n      jump\t// in\n    tag_381:\n        /* \"#utility.yul\":10168:10285   */\n    tag_380:\n        /* \"#utility.yul\":10309:10371   */\n      tag_382\n        /* \"#utility.yul\":10363:10370   */\n      dup7\n        /* \"#utility.yul\":10354:10360   */\n      dup3\n        /* \"#utility.yul\":10343:10352   */\n      dup8\n        /* \"#utility.yul\":10339:10361   */\n      add\n        /* \"#utility.yul\":10309:10371   */\n      tag_234\n      jump\t// in\n    tag_382:\n        /* \"#utility.yul\":10299:10371   */\n      swap2\n      pop\n        /* \"#utility.yul\":10094:10381   */\n      pop\n        /* \"#utility.yul\":9591:10388   */\n      swap3\n      pop\n      swap3\n      pop\n      swap3\n      jump\t// out\n        /* \"#utility.yul\":10394:10563   */\n    tag_235:\n        /* \"#utility.yul\":10478:10489   */\n      0x00\n        /* \"#utility.yul\":10512:10518   */\n      dup3\n        /* \"#utility.yul\":10507:10510   */\n      dup3\n        /* \"#utility.yul\":10500:10519   */\n      mstore\n        /* \"#utility.yul\":10552:10556   */\n      0x20\n        /* \"#utility.yul\":10547:10550   */\n      dup3\n        /* \"#utility.yul\":10543:10557   */\n      add\n        /* \"#utility.yul\":10528:10557   */\n      swap1\n      pop\n        /* \"#utility.yul\":10394:10563   */\n      swap3\n      swap2\n      pop\n      pop\n      jump\t// out\n        /* \"#utility.yul\":10569:10728   */\n    tag_236:\n        /* \"#utility.yul\":10709:10720   */\n      0x6e6f74206f776e65720000000000000000000000000000000000000000000000\n        /* \"#utility.yul\":10705:10706   */\n      0x00\n        /* \"#utility.yul\":10697:10703   */\n      dup3\n        /* \"#utility.yul\":10693:10707   */\n      add\n        /* \"#utility.yul\":10686:10721   */\n      mstore\n        /* \"#utility.yul\":10569:10728   */\n      pop\n      jump\t// out\n        /* \"#utility.yul\":10734:11099   */\n    tag_237:\n        /* \"#utility.yul\":10876:10879   */\n      0x00\n        /* \"#utility.yul\":10897:10963   */\n      tag_386\n        /* \"#utility.yul\":10961:10962   */\n      0x09\n        /* \"#utility.yul\":10956:10959   */\n      dup4\n        /* \"#utility.yul\":10897:10963   */\n      tag_235\n      jump\t// in\n    tag_386:\n        /* \"#utility.yul\":10890:10963   */\n      swap2\n      pop\n        /* \"#utility.yul\":10972:11065   */\n      tag_387\n        /* \"#utility.yul\":11061:11064   */\n      dup3\n        /* \"#utility.yul\":10972:11065   */\n      tag_236\n      jump\t// in\n    tag_387:\n        /* \"#utility.yul\":11090:11092   */\n      0x20\n        /* \"#utility.yul\":11085:11088   */\n      dup3\n        /* \"#utility.yul\":11081:11093   */\n      add\n        /* \"#utility.yul\":11074:11093   */\n      swap1\n      pop\n        /* \"#utility.yul\":10734:11099   */\n      swap2\n      swap1\n      pop\n      jump\t// out\n        /* \"#utility.yul\":11105:11524   */\n    tag_87:\n        /* \"#utility.yul\":11271:11275   */\n      0x00\n        /* \"#utility.yul\":11309:11311   */\n      0x20\n        /* \"#utility.yul\":11298:11307   */\n      dup3\n        /* \"#utility.yul\":11294:11312   */\n      add\n        /* \"#utility.yul\":11286:11312   */\n      swap1\n      pop\n        /* \"#utility.yul\":11358:11367   */\n      dup2\n        /* \"#utility.yul\":11352:11356   */\n      dup2\n        /* \"#utility.yul\":11348:11368   */\n      sub\n        /* \"#utility.yul\":11344:11345   */\n      0x00\n        /* \"#utility.yul\":11333:11342   */\n      dup4\n        /* \"#utility.yul\":11329:11346   */\n      add\n        /* \"#utility.yul\":11322:11369   */\n      mstore\n        /* \"#utility.yul\":11386:11517   */\n      tag_389\n        /* \"#utility.yul\":11512:11516   */\n      dup2\n        /* \"#utility.yul\":11386:11517   */\n      tag_237\n      jump\t// in\n    tag_389:\n        /* \"#utility.yul\":11378:11517   */\n      swap1\n      pop\n        /* \"#utility.yul\":11105:11524   */\n      swap2\n      swap1\n      pop\n      jump\t// out\n        /* \"#utility.yul\":11530:11706   */\n    tag_238:\n        /* \"#utility.yul\":11670:11698   */\n      0x5472616e73616374696f6e20646f6573206e6f74206578697374000000000000\n        /* \"#utility.yul\":11666:11667   */\n      0x00\n        /* \"#utility.yul\":11658:11664   */\n      dup3\n        /* \"#utility.yul\":11654:11668   */\n      add\n        /* \"#utility.yul\":11647:11699   */\n      mstore\n        /* \"#utility.yul\":11530:11706   */\n      pop\n      jump\t// out\n        /* \"#utility.yul\":11712:12078   */\n    tag_239:\n        /* \"#utility.yul\":11854:11857   */\n      0x00\n        /* \"#utility.yul\":11875:11942   */\n      tag_392\n        /* \"#utility.yul\":11939:11941   */\n      0x1a\n        /* \"#utility.yul\":11934:11937   */\n      dup4\n        /* \"#utility.yul\":11875:11942   */\n      tag_235\n      jump\t// in\n    tag_392:\n        /* \"#utility.yul\":11868:11942   */\n      swap2\n      pop\n        /* \"#utility.yul\":11951:12044   */\n      tag_393\n        /* \"#utility.yul\":12040:12043   */\n      dup3\n        /* \"#utility.yul\":11951:12044   */\n      tag_238\n      jump\t// in\n    tag_393:\n        /* \"#utility.yul\":12069:12071   */\n      0x20\n        /* \"#utility.yul\":12064:12067   */\n      dup3\n        /* \"#utility.yul\":12060:12072   */\n      add\n        /* \"#utility.yul\":12053:12072   */\n      swap1\n      pop\n        /* \"#utility.yul\":11712:12078   */\n      swap2\n      swap1\n      pop\n      jump\t// out\n        /* \"#utility.yul\":12084:12503   */\n    tag_91:\n        /* \"#utility.yul\":12250:12254   */\n      0x00\n        /* \"#utility.yul\":12288:12290   */\n      0x20\n        /* \"#utility.yul\":12277:12286   */\n      dup3\n        /* \"#utility.yul\":12273:12291   */\n      add\n        /* \"#utility.yul\":12265:12291   */\n      swap1\n      pop\n        /* \"#utility.yul\":12337:12346   */\n      dup2\n        /* \"#utility.yul\":12331:12335   */\n      dup2\n        /* \"#utility.yul\":12327:12347   */\n      sub\n        /* \"#utility.yul\":12323:12324   */\n      0x00\n        /* \"#utility.yul\":12312:12321   */\n      dup4\n        /* \"#utility.yul\":12308:12325   */\n      add\n        /* \"#utility.yul\":12301:12348   */\n      mstore\n        /* \"#utility.yul\":12365:12496   */\n      tag_395\n        /* \"#utility.yul\":12491:12495   */\n      dup2\n        /* \"#utility.yul\":12365:12496   */\n      tag_239\n      jump\t// in\n    tag_395:\n        /* \"#utility.yul\":12357:12496   */\n      swap1\n      pop\n        /* \"#utility.yul\":12084:12503   */\n      swap2\n      swap1\n      pop\n      jump\t// out\n        /* \"#utility.yul\":12509:12689   */\n    tag_95:\n        /* \"#utility.yul\":12557:12634   */\n      0x4e487b7100000000000000000000000000000000000000000000000000000000\n        /* \"#utility.yul\":12554:12555   */\n      0x00\n        /* \"#utility.yul\":12547:12635   */\n      mstore\n        /* \"#utility.yul\":12654:12658   */\n      0x32\n        /* \"#utility.yul\":12651:12652   */\n      0x04\n        /* \"#utility.yul\":12644:12659   */\n      mstore\n        /* \"#utility.yul\":12678:12682   */\n      0x24\n        /* \"#utility.yul\":12675:12676   */\n      0x00\n        /* \"#utility.yul\":12668:12683   */\n      revert\n        /* \"#utility.yul\":12695:12864   */\n    tag_240:\n        /* \"#utility.yul\":12835:12856   */\n      0x747820616c726561647920657865637574656400000000000000000000000000\n        /* \"#utility.yul\":12831:12832   */\n      0x00\n        /* \"#utility.yul\":12823:12829   */\n      dup3\n        /* \"#utility.yul\":12819:12833   */\n      add\n        /* \"#utility.yul\":12812:12857   */\n      mstore\n        /* \"#utility.yul\":12695:12864   */\n      pop\n      jump\t// out\n        /* \"#utility.yul\":12870:13236   */\n    tag_241:\n        /* \"#utility.yul\":13012:13015   */\n      0x00\n        /* \"#utility.yul\":13033:13100   */\n      tag_399\n        /* \"#utility.yul\":13097:13099   */\n      0x13\n        /* \"#utility.yul\":13092:13095   */\n      dup4\n        /* \"#utility.yul\":13033:13100   */\n      tag_235\n      jump\t// in\n    tag_399:\n        /* \"#utility.yul\":13026:13100   */\n      swap2\n      pop\n        /* \"#utility.yul\":13109:13202   */\n      tag_400\n        /* \"#utility.yul\":13198:13201   */\n      dup3\n        /* \"#utility.yul\":13109:13202   */\n      tag_240\n      jump\t// in\n    tag_400:\n        /* \"#utility.yul\":13227:13229   */\n      0x20\n        /* \"#utility.yul\":13222:13225   */\n      dup3\n        /* \"#utility.yul\":13218:13230   */\n      add\n        /* \"#utility.yul\":13211:13230   */\n      swap1\n      pop\n        /* \"#utility.yul\":12870:13236   */\n      swap2\n      swap1\n      pop\n      jump\t// out\n        /* \"#utility.yul\":13242:13661   */\n    tag_99:\n        /* \"#utility.yul\":13408:13412   */\n      0x00\n        /* \"#utility.yul\":13446:13448   */\n      0x20\n        /* \"#utility.yul\":13435:13444   */\n      dup3\n        /* \"#utility.yul\":13431:13449   */\n      add\n        /* \"#utility.yul\":13423:13449   */\n      swap1\n      pop\n        /* \"#utility.yul\":13495:13504   */\n      dup2\n        /* \"#utility.yul\":13489:13493   */\n      dup2\n        /* \"#utility.yul\":13485:13505   */\n      sub\n        /* \"#utility.yul\":13481:13482   */\n      0x00\n        /* \"#utility.yul\":13470:13479   */\n      dup4\n        /* \"#utility.yul\":13466:13483   */\n      add\n        /* \"#utility.yul\":13459:13506   */\n      mstore\n        /* \"#utility.yul\":13523:13654   */\n      tag_402\n        /* \"#utility.yul\":13649:13653   */\n      dup2\n        /* \"#utility.yul\":13523:13654   */\n      tag_241\n      jump\t// in\n    tag_402:\n        /* \"#utility.yul\":13515:13654   */\n      swap1\n      pop\n        /* \"#utility.yul\":13242:13661   */\n      swap2\n      swap1\n      pop\n      jump\t// out\n        /* \"#utility.yul\":13667:13842   */\n    tag_242:\n        /* \"#utility.yul\":13807:13834   */\n      0x5472616e73616374696f6e206e6f7420636f6e6669726d656400000000000000\n        /* \"#utility.yul\":13803:13804   */\n      0x00\n        /* \"#utility.yul\":13795:13801   */\n      dup3\n        /* \"#utility.yul\":13791:13805   */\n      add\n        /* \"#utility.yul\":13784:13835   */\n      mstore\n        /* \"#utility.yul\":13667:13842   */\n      pop\n      jump\t// out\n        /* \"#utility.yul\":13848:14214   */\n    tag_243:\n        /* \"#utility.yul\":13990:13993   */\n      0x00\n        /* \"#utility.yul\":14011:14078   */\n      tag_405\n        /* \"#utility.yul\":14075:14077   */\n      0x19\n        /* \"#utility.yul\":14070:14073   */\n      dup4\n        /* \"#utility.yul\":14011:14078   */\n      tag_235\n      jump\t// in\n    tag_405:\n        /* \"#utility.yul\":14004:14078   */\n      swap2\n      pop\n        /* \"#utility.yul\":14087:14180   */\n      tag_406\n        /* \"#utility.yul\":14176:14179   */\n      dup3\n        /* \"#utility.yul\":14087:14180   */\n      tag_242\n      jump\t// in\n    tag_406:\n        /* \"#utility.yul\":14205:14207   */\n      0x20\n        /* \"#utility.yul\":14200:14203   */\n      dup3\n        /* \"#utility.yul\":14196:14208   */\n      add\n        /* \"#utility.yul\":14189:14208   */\n      swap1\n      pop\n        /* \"#utility.yul\":13848:14214   */\n      swap2\n      swap1\n      pop\n      jump\t// out\n        /* \"#utility.yul\":14220:14639   */\n    tag_103:\n        /* \"#utility.yul\":14386:14390   */\n      0x00\n        /* \"#utility.yul\":14424:14426   */\n      0x20\n        /* \"#utility.yul\":14413:14422   */\n      dup3\n        /* \"#utility.yul\":14409:14427   */\n      add\n        /* \"#utility.yul\":14401:14427   */\n      swap1\n      pop\n        /* \"#utility.yul\":14473:14482   */\n      dup2\n        /* \"#utility.yul\":14467:14471   */\n      dup2\n        /* \"#utility.yul\":14463:14483   */\n      sub\n        /* \"#utility.yul\":14459:14460   */\n      0x00\n        /* \"#utility.yul\":14448:14457   */\n      dup4\n        /* \"#utility.yul\":14444:14461   */\n      add\n        /* \"#utility.yul\":14437:14484   */\n      mstore\n        /* \"#utility.yul\":14501:14632   */\n      tag_408\n        /* \"#utility.yul\":14627:14631   */\n      dup2\n        /* \"#utility.yul\":14501:14632   */\n      tag_243\n      jump\t// in\n    tag_408:\n        /* \"#utility.yul\":14493:14632   */\n      swap1\n      pop\n        /* \"#utility.yul\":14220:14639   */\n      swap2\n      swap1\n      pop\n      jump\t// out\n        /* \"#utility.yul\":14645:14825   */\n    tag_244:\n        /* \"#utility.yul\":14693:14770   */\n      0x4e487b7100000000000000000000000000000000000000000000000000000000\n        /* \"#utility.yul\":14690:14691   */\n      0x00\n        /* \"#utility.yul\":14683:14771   */\n      mstore\n        /* \"#utility.yul\":14790:14794   */\n      0x11\n        /* \"#utility.yul\":14787:14788   */\n      0x04\n        /* \"#utility.yul\":14780:14795   */\n      mstore\n        /* \"#utility.yul\":14814:14818   */\n      0x24\n        /* \"#utility.yul\":14811:14812   */\n      0x00\n        /* \"#utility.yul\":14804:14819   */\n      revert\n        /* \"#utility.yul\":14831:15002   */\n    tag_108:\n        /* \"#utility.yul\":14870:14873   */\n      0x00\n        /* \"#utility.yul\":14893:14917   */\n      tag_411\n        /* \"#utility.yul\":14911:14916   */\n      dup3\n        /* \"#utility.yul\":14893:14917   */\n      tag_200\n      jump\t// in\n    tag_411:\n        /* \"#utility.yul\":14884:14917   */\n      swap2\n      pop\n        /* \"#utility.yul\":14939:14943   */\n      0x00\n        /* \"#utility.yul\":14932:14937   */\n      dup3\n        /* \"#utility.yul\":14929:14944   */\n      sub\n        /* \"#utility.yul\":14926:14967   */\n      tag_412\n      jumpi\n        /* \"#utility.yul\":14947:14965   */\n      tag_413\n      tag_244\n      jump\t// in\n    tag_413:\n        /* \"#utility.yul\":14926:14967   */\n    tag_412:\n        /* \"#utility.yul\":14994:14995   */\n      0x01\n        /* \"#utility.yul\":14987:14992   */\n      dup3\n        /* \"#utility.yul\":14983:14996   */\n      sub\n        /* \"#utility.yul\":14976:14996   */\n      swap1\n      pop\n        /* \"#utility.yul\":14831:15002   */\n      swap2\n      swap1\n      pop\n      jump\t// out\n        /* \"#utility.yul\":15008:15188   */\n    tag_245:\n        /* \"#utility.yul\":15056:15133   */\n      0x4e487b7100000000000000000000000000000000000000000000000000000000\n        /* \"#utility.yul\":15053:15054   */\n      0x00\n        /* \"#utility.yul\":15046:15134   */\n      mstore\n        /* \"#utility.yul\":15153:15157   */\n      0x22\n        /* \"#utility.yul\":15150:15151   */\n      0x04\n        /* \"#utility.yul\":15143:15158   */\n      mstore\n        /* \"#utility.yul\":15177:15181   */\n      0x24\n        /* \"#utility.yul\":15174:15175   */\n      0x00\n        /* \"#utility.yul\":15167:15182   */\n      revert\n        /* \"#utility.yul\":15194:15514   */\n    tag_115:\n        /* \"#utility.yul\":15238:15244   */\n      0x00\n        /* \"#utility.yul\":15275:15276   */\n      0x02\n        /* \"#utility.yul\":15269:15273   */\n      dup3\n        /* \"#utility.yul\":15265:15277   */\n      div\n        /* \"#utility.yul\":15255:15277   */\n      swap1\n      pop\n        /* \"#utility.yul\":15322:15323   */\n      0x01\n        /* \"#utility.yul\":15316:15320   */\n      dup3\n        /* \"#utility.yul\":15312:15324   */\n      and\n        /* \"#utility.yul\":15343:15361   */\n      dup1\n        /* \"#utility.yul\":15333:15414   */\n      tag_416\n      jumpi\n        /* \"#utility.yul\":15399:15403   */\n      0x7f\n        /* \"#utility.yul\":15391:15397   */\n      dup3\n        /* \"#utility.yul\":15387:15404   */\n      and\n        /* \"#utility.yul\":15377:15404   */\n      swap2\n      pop\n        /* \"#utility.yul\":15333:15414   */\n    tag_416:\n        /* \"#utility.yul\":15461:15463   */\n      0x20\n        /* \"#utility.yul\":15453:15459   */\n      dup3\n        /* \"#utility.yul\":15450:15464   */\n      lt\n        /* \"#utility.yul\":15430:15448   */\n      dup2\n        /* \"#utility.yul\":15427:15465   */\n      sub\n        /* \"#utility.yul\":15424:15508   */\n      tag_417\n      jumpi\n        /* \"#utility.yul\":15480:15498   */\n      tag_418\n      tag_245\n      jump\t// in\n    tag_418:\n        /* \"#utility.yul\":15424:15508   */\n    tag_417:\n        /* \"#utility.yul\":15245:15514   */\n      pop\n        /* \"#utility.yul\":15194:15514   */\n      swap2\n      swap1\n      pop\n      jump\t// out\n        /* \"#utility.yul\":15520:15699   */\n    tag_246:\n        /* \"#utility.yul\":15660:15691   */\n      0x5472616e73616374696f6e20616c726561647920636f6e6669726d6564000000\n        /* \"#utility.yul\":15656:15657   */\n      0x00\n        /* \"#utility.yul\":15648:15654   */\n      dup3\n        /* \"#utility.yul\":15644:15658   */\n      add\n        /* \"#utility.yul\":15637:15692   */\n      mstore\n        /* \"#utility.yul\":15520:15699   */\n      pop\n      jump\t// out\n        /* \"#utility.yul\":15705:16071   */\n    tag_247:\n        /* \"#utility.yul\":15847:15850   */\n      0x00\n        /* \"#utility.yul\":15868:15935   */\n      tag_421\n        /* \"#utility.yul\":15932:15934   */\n      0x1d\n        /* \"#utility.yul\":15927:15930   */\n      dup4\n        /* \"#utility.yul\":15868:15935   */\n      tag_235\n      jump\t// in\n    tag_421:\n        /* \"#utility.yul\":15861:15935   */\n      swap2\n      pop\n        /* \"#utility.yul\":15944:16037   */\n      tag_422\n        /* \"#utility.yul\":16033:16036   */\n      dup3\n        /* \"#utility.yul\":15944:16037   */\n      tag_246\n      jump\t// in\n    tag_422:\n        /* \"#utility.yul\":16062:16064   */\n      0x20\n        /* \"#utility.yul\":16057:16060   */\n      dup3\n        /* \"#utility.yul\":16053:16065   */\n      add\n        /* \"#utility.yul\":16046:16065   */\n      swap1\n      pop\n        /* \"#utility.yul\":15705:16071   */\n      swap2\n      swap1\n      pop\n      jump\t// out\n        /* \"#utility.yul\":16077:16496   */\n    tag_145:\n        /* \"#utility.yul\":16243:16247   */\n      0x00\n        /* \"#utility.yul\":16281:16283   */\n      0x20\n        /* \"#utility.yul\":16270:16279   */\n      dup3\n        /* \"#utility.yul\":16266:16284   */\n      add\n        /* \"#utility.yul\":16258:16284   */\n      swap1\n      pop\n        /* \"#utility.yul\":16330:16339   */\n      dup2\n        /* \"#utility.yul\":16324:16328   */\n      dup2\n        /* \"#utility.yul\":16320:16340   */\n      sub\n        /* \"#utility.yul\":16316:16317   */\n      0x00\n        /* \"#utility.yul\":16305:16314   */\n      dup4\n        /* \"#utility.yul\":16301:16318   */\n      add\n        /* \"#utility.yul\":16294:16341   */\n      mstore\n        /* \"#utility.yul\":16358:16489   */\n      tag_424\n        /* \"#utility.yul\":16484:16488   */\n      dup2\n        /* \"#utility.yul\":16358:16489   */\n      tag_247\n      jump\t// in\n    tag_424:\n        /* \"#utility.yul\":16350:16489   */\n      swap1\n      pop\n        /* \"#utility.yul\":16077:16496   */\n      swap2\n      swap1\n      pop\n      jump\t// out\n        /* \"#utility.yul\":16502:16676   */\n    tag_248:\n        /* \"#utility.yul\":16642:16668   */\n      0x4e6f7420656e6f75676820636f6e6669726d6174696f6e730000000000000000\n        /* \"#utility.yul\":16638:16639   */\n      0x00\n        /* \"#utility.yul\":16630:16636   */\n      dup3\n        /* \"#utility.yul\":16626:16640   */\n      add\n        /* \"#utility.yul\":16619:16669   */\n      mstore\n        /* \"#utility.yul\":16502:16676   */\n      pop\n      jump\t// out\n        /* \"#utility.yul\":16682:17048   */\n    tag_249:\n        /* \"#utility.yul\":16824:16827   */\n      0x00\n        /* \"#utility.yul\":16845:16912   */\n      tag_427\n        /* \"#utility.yul\":16909:16911   */\n      0x18\n        /* \"#utility.yul\":16904:16907   */\n      dup4\n        /* \"#utility.yul\":16845:16912   */\n      tag_235\n      jump\t// in\n    tag_427:\n        /* \"#utility.yul\":16838:16912   */\n      swap2\n      pop\n        /* \"#utility.yul\":16921:17014   */\n      tag_428\n        /* \"#utility.yul\":17010:17013   */\n      dup3\n        /* \"#utility.yul\":16921:17014   */\n      tag_248\n      jump\t// in\n    tag_428:\n        /* \"#utility.yul\":17039:17041   */\n      0x20\n        /* \"#utility.yul\":17034:17037   */\n      dup3\n        /* \"#utility.yul\":17030:17042   */\n      add\n        /* \"#utility.yul\":17023:17042   */\n      swap1\n      pop\n        /* \"#utility.yul\":16682:17048   */\n      swap2\n      swap1\n      pop\n      jump\t// out\n        /* \"#utility.yul\":17054:17473   */\n    tag_152:\n        /* \"#utility.yul\":17220:17224   */\n      0x00\n        /* \"#utility.yul\":17258:17260   */\n      0x20\n        /* \"#utility.yul\":17247:17256   */\n      dup3\n        /* \"#utility.yul\":17243:17261   */\n      add\n        /* \"#utility.yul\":17235:17261   */\n      swap1\n      pop\n        /* \"#utility.yul\":17307:17316   */\n      dup2\n        /* \"#utility.yul\":17301:17305   */\n      dup2\n        /* \"#utility.yul\":17297:17317   */\n      sub\n        /* \"#utility.yul\":17293:17294   */\n      0x00\n        /* \"#utility.yul\":17282:17291   */\n      dup4\n        /* \"#utility.yul\":17278:17295   */\n      add\n        /* \"#utility.yul\":17271:17318   */\n      mstore\n        /* \"#utility.yul\":17335:17466   */\n      tag_430\n        /* \"#utility.yul\":17461:17465   */\n      dup2\n        /* \"#utility.yul\":17335:17466   */\n      tag_249\n      jump\t// in\n    tag_430:\n        /* \"#utility.yul\":17327:17466   */\n      swap1\n      pop\n        /* \"#utility.yul\":17054:17473   */\n      swap2\n      swap1\n      pop\n      jump\t// out\n        /* \"#utility.yul\":17479:17626   */\n    tag_250:\n        /* \"#utility.yul\":17580:17591   */\n      0x00\n        /* \"#utility.yul\":17617:17620   */\n      dup2\n        /* \"#utility.yul\":17602:17620   */\n      swap1\n      pop\n        /* \"#utility.yul\":17479:17626   */\n      swap3\n      swap2\n      pop\n      pop\n      jump\t// out\n        /* \"#utility.yul\":17632:17772   */\n    tag_251:\n        /* \"#utility.yul\":17680:17684   */\n      0x00\n        /* \"#utility.yul\":17703:17706   */\n      dup2\n        /* \"#utility.yul\":17695:17706   */\n      swap1\n      pop\n        /* \"#utility.yul\":17726:17729   */\n      dup2\n        /* \"#utility.yul\":17723:17724   */\n      0x00\n        /* \"#utility.yul\":17716:17730   */\n      mstore\n        /* \"#utility.yul\":17760:17764   */\n      0x20\n        /* \"#utility.yul\":17757:17758   */\n      0x00\n        /* \"#utility.yul\":17747:17765   */\n      keccak256\n        /* \"#utility.yul\":17739:17765   */\n      swap1\n      pop\n        /* \"#utility.yul\":17632:17772   */\n      swap2\n      swap1\n      pop\n      jump\t// out\n        /* \"#utility.yul\":17800:18670   */\n    tag_252:\n        /* \"#utility.yul\":17901:17904   */\n      0x00\n        /* \"#utility.yul\":17938:17943   */\n      dup2\n        /* \"#utility.yul\":17932:17944   */\n      sload\n        /* \"#utility.yul\":17967:18003   */\n      tag_434\n        /* \"#utility.yul\":17993:18002   */\n      dup2\n        /* \"#utility.yul\":17967:18003   */\n      tag_115\n      jump\t// in\n    tag_434:\n        /* \"#utility.yul\":18019:18107   */\n      tag_435\n        /* \"#utility.yul\":18100:18106   */\n      dup2\n        /* \"#utility.yul\":18095:18098   */\n      dup7\n        /* \"#utility.yul\":18019:18107   */\n      tag_250\n      jump\t// in\n    tag_435:\n        /* \"#utility.yul\":18012:18107   */\n      swap5\n      pop\n        /* \"#utility.yul\":18138:18139   */\n      0x01\n        /* \"#utility.yul\":18127:18136   */\n      dup3\n        /* \"#utility.yul\":18123:18140   */\n      and\n        /* \"#utility.yul\":18154:18155   */\n      0x00\n        /* \"#utility.yul\":18149:18315   */\n      dup2\n      eq\n      tag_437\n      jumpi\n        /* \"#utility.yul\":18329:18330   */\n      0x01\n        /* \"#utility.yul\":18324:18664   */\n      dup2\n      eq\n      tag_438\n      jumpi\n        /* \"#utility.yul\":18116:18664   */\n      jump(tag_436)\n        /* \"#utility.yul\":18149:18315   */\n    tag_437:\n        /* \"#utility.yul\":18233:18237   */\n      0xff\n        /* \"#utility.yul\":18229:18238   */\n      not\n        /* \"#utility.yul\":18218:18227   */\n      dup4\n        /* \"#utility.yul\":18214:18239   */\n      and\n        /* \"#utility.yul\":18209:18212   */\n      dup7\n        /* \"#utility.yul\":18202:18240   */\n      mstore\n        /* \"#utility.yul\":18295:18301   */\n      dup2\n        /* \"#utility.yul\":18288:18302   */\n      iszero\n        /* \"#utility.yul\":18281:18303   */\n      iszero\n        /* \"#utility.yul\":18273:18279   */\n      dup3\n        /* \"#utility.yul\":18269:18304   */\n      mul\n        /* \"#utility.yul\":18264:18267   */\n      dup7\n        /* \"#utility.yul\":18260:18305   */\n      add\n        /* \"#utility.yul\":18253:18305   */\n      swap4\n      pop\n        /* \"#utility.yul\":18149:18315   */\n      jump(tag_436)\n        /* \"#utility.yul\":18324:18664   */\n    tag_438:\n        /* \"#utility.yul\":18391:18428   */\n      tag_439\n        /* \"#utility.yul\":18422:18427   */\n      dup6\n        /* \"#utility.yul\":18391:18428   */\n      tag_251\n      jump\t// in\n    tag_439:\n        /* \"#utility.yul\":18450:18451   */\n      0x00\n        /* \"#utility.yul\":18464:18618   */\n    tag_440:\n        /* \"#utility.yul\":18478:18484   */\n      dup4\n        /* \"#utility.yul\":18475:18476   */\n      dup2\n        /* \"#utility.yul\":18472:18485   */\n      lt\n        /* \"#utility.yul\":18464:18618   */\n      iszero\n      tag_442\n      jumpi\n        /* \"#utility.yul\":18552:18559   */\n      dup2\n        /* \"#utility.yul\":18546:18560   */\n      sload\n        /* \"#utility.yul\":18542:18543   */\n      dup2\n        /* \"#utility.yul\":18537:18540   */\n      dup10\n        /* \"#utility.yul\":18533:18544   */\n      add\n        /* \"#utility.yul\":18526:18561   */\n      mstore\n        /* \"#utility.yul\":18602:18603   */\n      0x01\n        /* \"#utility.yul\":18593:18600   */\n      dup3\n        /* \"#utility.yul\":18589:18604   */\n      add\n        /* \"#utility.yul\":18578:18604   */\n      swap2\n      pop\n        /* \"#utility.yul\":18500:18504   */\n      0x20\n        /* \"#utility.yul\":18497:18498   */\n      dup2\n        /* \"#utility.yul\":18493:18505   */\n      add\n        /* \"#utility.yul\":18488:18505   */\n      swap1\n      pop\n        /* \"#utility.yul\":18464:18618   */\n      jump(tag_440)\n    tag_442:\n        /* \"#utility.yul\":18647:18653   */\n      dup4\n        /* \"#utility.yul\":18642:18645   */\n      dup9\n        /* \"#utility.yul\":18638:18654   */\n      add\n        /* \"#utility.yul\":18631:18654   */\n      swap6\n      pop\n        /* \"#utility.yul\":18331:18664   */\n      pop\n      pop\n        /* \"#utility.yul\":18116:18664   */\n    tag_436:\n      pop\n        /* \"#utility.yul\":17905:18670   */\n      pop\n      pop\n        /* \"#utility.yul\":17800:18670   */\n      swap3\n      swap2\n      pop\n      pop\n      jump\t// out\n        /* \"#utility.yul\":18676:18941   */\n    tag_157:\n        /* \"#utility.yul\":18803:18806   */\n      0x00\n        /* \"#utility.yul\":18825:18915   */\n      tag_444\n        /* \"#utility.yul\":18911:18914   */\n      dup3\n        /* \"#utility.yul\":18902:18908   */\n      dup5\n        /* \"#utility.yul\":18825:18915   */\n      tag_252\n      jump\t// in\n    tag_444:\n        /* \"#utility.yul\":18818:18915   */\n      swap2\n      pop\n        /* \"#utility.yul\":18932:18935   */\n      dup2\n        /* \"#utility.yul\":18925:18935   */\n      swap1\n      pop\n        /* \"#utility.yul\":18676:18941   */\n      swap3\n      swap2\n      pop\n      pop\n      jump\t// out\n        /* \"#utility.yul\":18947:19125   */\n    tag_253:\n        /* \"#utility.yul\":19087:19117   */\n      0x5472616e73616374696f6e20657865637574696f6e206661696c656400000000\n        /* \"#utility.yul\":19083:19084   */\n      0x00\n        /* \"#utility.yul\":19075:19081   */\n      dup3\n        /* \"#utility.yul\":19071:19085   */\n      add\n        /* \"#utility.yul\":19064:19118   */\n      mstore\n        /* \"#utility.yul\":18947:19125   */\n      pop\n      jump\t// out\n        /* \"#utility.yul\":19131:19497   */\n    tag_254:\n        /* \"#utility.yul\":19273:19276   */\n      0x00\n        /* \"#utility.yul\":19294:19361   */\n      tag_447\n        /* \"#utility.yul\":19358:19360   */\n      0x1c\n        /* \"#utility.yul\":19353:19356   */\n      dup4\n        /* \"#utility.yul\":19294:19361   */\n      tag_235\n      jump\t// in\n    tag_447:\n        /* \"#utility.yul\":19287:19361   */\n      swap2\n      pop\n        /* \"#utility.yul\":19370:19463   */\n      tag_448\n        /* \"#utility.yul\":19459:19462   */\n      dup3\n        /* \"#utility.yul\":19370:19463   */\n      tag_253\n      jump\t// in\n    tag_448:\n        /* \"#utility.yul\":19488:19490   */\n      0x20\n        /* \"#utility.yul\":19483:19486   */\n      dup3\n        /* \"#utility.yul\":19479:19491   */\n      add\n        /* \"#utility.yul\":19472:19491   */\n      swap1\n      pop\n        /* \"#utility.yul\":19131:19497   */\n      swap2\n      swap1\n      pop\n      jump\t// out\n        /* \"#utility.yul\":19503:19922   */\n    tag_163:\n        /* \"#utility.yul\":19669:19673   */\n      0x00\n        /* \"#utility.yul\":19707:19709   */\n      0x20\n        /* \"#utility.yul\":19696:19705   */\n      dup3\n        /* \"#utility.yul\":19692:19710   */\n      add\n        /* \"#utility.yul\":19684:19710   */\n      swap1\n      pop\n        /* \"#utility.yul\":19756:19765   */\n      dup2\n        /* \"#utility.yul\":19750:19754   */\n      dup2\n        /* \"#utility.yul\":19746:19766   */\n      sub\n        /* \"#utility.yul\":19742:19743   */\n      0x00\n        /* \"#utility.yul\":19731:19740   */\n      dup4\n        /* \"#utility.yul\":19727:19744   */\n      add\n        /* \"#utility.yul\":19720:19767   */\n      mstore\n        /* \"#utility.yul\":19784:19915   */\n      tag_450\n        /* \"#utility.yul\":19910:19914   */\n      dup2\n        /* \"#utility.yul\":19784:19915   */\n      tag_254\n      jump\t// in\n    tag_450:\n        /* \"#utility.yul\":19776:19915   */\n      swap1\n      pop\n        /* \"#utility.yul\":19503:19922   */\n      swap2\n      swap1\n      pop\n      jump\t// out\n        /* \"#utility.yul\":19928:20021   */\n    tag_255:\n        /* \"#utility.yul\":19965:19971   */\n      0x00\n        /* \"#utility.yul\":20012:20014   */\n      0x20\n        /* \"#utility.yul\":20007:20009   */\n      0x1f\n        /* \"#utility.yul\":20000:20005   */\n      dup4\n        /* \"#utility.yul\":19996:20010   */\n      add\n        /* \"#utility.yul\":19992:20015   */\n      div\n        /* \"#utility.yul\":19982:20015   */\n      swap1\n      pop\n        /* \"#utility.yul\":19928:20021   */\n      swap2\n      swap1\n      pop\n      jump\t// out\n        /* \"#utility.yul\":20027:20134   */\n    tag_256:\n        /* \"#utility.yul\":20071:20079   */\n      0x00\n        /* \"#utility.yul\":20121:20126   */\n      dup3\n        /* \"#utility.yul\":20115:20119   */\n      dup3\n        /* \"#utility.yul\":20111:20127   */\n      shl\n        /* \"#utility.yul\":20090:20127   */\n      swap1\n      pop\n        /* \"#utility.yul\":20027:20134   */\n      swap3\n      swap2\n      pop\n      pop\n      jump\t// out\n        /* \"#utility.yul\":20140:20533   */\n    tag_257:\n        /* \"#utility.yul\":20209:20215   */\n      0x00\n        /* \"#utility.yul\":20259:20260   */\n      0x08\n        /* \"#utility.yul\":20247:20257   */\n      dup4\n        /* \"#utility.yul\":20243:20261   */\n      mul\n        /* \"#utility.yul\":20282:20379   */\n      tag_454\n        /* \"#utility.yul\":20312:20378   */\n      0xffffffffffffffffffffffffffffffffffffffffffffffffffffffffffffffff\n        /* \"#utility.yul\":20301:20310   */\n      dup3\n        /* \"#utility.yul\":20282:20379   */\n      tag_256\n      jump\t// in\n    tag_454:\n        /* \"#utility.yul\":20400:20439   */\n      tag_455\n        /* \"#utility.yul\":20430:20438   */\n      dup7\n        /* \"#utility.yul\":20419:20428   */\n      dup4\n        /* \"#utility.yul\":20400:20439   */\n      tag_256\n      jump\t// in\n    tag_455:\n        /* \"#utility.yul\":20388:20439   */\n      swap6\n      pop\n        /* \"#utility.yul\":20472:20476   */\n      dup1\n        /* \"#utility.yul\":20468:20477   */\n      not\n        /* \"#utility.yul\":20461:20466   */\n      dup5\n        /* \"#utility.yul\":20457:20478   */\n      and\n        /* \"#utility.yul\":20448:20478   */\n      swap4\n      pop\n        /* \"#utility.yul\":20521:20525   */\n      dup1\n        /* \"#utility.yul\":20511:20519   */\n      dup7\n        /* \"#utility.yul\":20507:20526   */\n      and\n        /* \"#utility.yul\":20500:20505   */\n      dup5\n        /* \"#utility.yul\":20497:20527   */\n      or\n        /* \"#utility.yul\":20487:20527   */\n      swap3\n      pop\n        /* \"#utility.yul\":20216:20533   */\n      pop\n      pop\n        /* \"#utility.yul\":20140:20533   */\n      swap4\n      swap3\n      pop\n      pop\n      pop\n      jump\t// out\n        /* \"#utility.yul\":20539:20599   */\n    tag_258:\n        /* \"#utility.yul\":20567:20570   */\n      0x00\n        /* \"#utility.yul\":20588:20593   */\n      dup2\n        /* \"#utility.yul\":20581:20593   */\n      swap1\n      pop\n        /* \"#utility.yul\":20539:20599   */\n      swap2\n      swap1\n      pop\n      jump\t// out\n        /* \"#utility.yul\":20605:20747   */\n    tag_259:\n        /* \"#utility.yul\":20655:20664   */\n      0x00\n        /* \"#utility.yul\":20688:20741   */\n      tag_458\n        /* \"#utility.yul\":20706:20740   */\n      tag_459\n        /* \"#utility.yul\":20715:20739   */\n      tag_460\n        /* \"#utility.yul\":20733:20738   */\n      dup5\n        /* \"#utility.yul\":20715:20739   */\n      tag_200\n      jump\t// in\n    tag_460:\n        /* \"#utility.yul\":20706:20740   */\n      tag_258\n      jump\t// in\n    tag_459:\n        /* \"#utility.yul\":20688:20741   */\n      tag_200\n      jump\t// in\n    tag_458:\n        /* \"#utility.yul\":20675:20741   */\n      swap1\n      pop\n        /* \"#utility.yul\":20605:20747   */\n      swap2\n      swap1\n      pop\n      jump\t// out\n        /* \"#utility.yul\":20753:20828   */\n    tag_260:\n        /* \"#utility.yul\":20796:20799   */\n      0x00\n        /* \"#utility.yul\":20817:20822   */\n      dup2\n        /* \"#utility.yul\":20810:20822   */\n      swap1\n      pop\n        /* \"#utility.yul\":20753:20828   */\n      swap2\n      swap1\n      pop\n      jump\t// out\n        /* \"#utility.yul\":20834:21103   */\n    tag_261:\n        /* \"#utility.yul\":20944:20983   */\n      tag_463\n        /* \"#utility.yul\":20975:20982   */\n      dup4\n        /* \"#utility.yul\":20944:20983   */\n      tag_259\n      jump\t// in\n    tag_463:\n        /* \"#utility.yul\":21005:21096   */\n      tag_464\n        /* \"#utility.yul\":21054:21095   */\n      tag_465\n        /* \"#utility.yul\":21078:21094   */\n      dup3\n        /* \"#utility.yul\":21054:21095   */\n      tag_260\n      jump\t// in\n    tag_465:\n        /* \"#utility.yul\":21046:21052   */\n      dup5\n        /* \"#utility.yul\":21039:21043   */\n      dup5\n        /* \"#utility.yul\":21033:21044   */\n      sload\n        /* \"#utility.yul\":21005:21096   */\n      tag_257\n      jump\t// in\n    tag_464:\n        /* \"#utility.yul\":20999:21003   */\n      dup3\n        /* \"#utility.yul\":20992:21097   */\n      sstore\n        /* \"#utility.yul\":20910:21103   */\n      pop\n        /* \"#utility.yul\":20834:21103   */\n      pop\n      pop\n      pop\n      jump\t// out\n        /* \"#utility.yul\":21109:21182   */\n    tag_262:\n        /* \"#utility.yul\":21154:21157   */\n      0x00\n        /* \"#utility.yul\":21109:21182   */\n      swap1\n      jump\t// out\n        /* \"#utility.yul\":21188:21377   */\n    tag_263:\n        /* \"#utility.yul\":21265:21297   */\n      tag_468\n      tag_262\n      jump\t// in\n    tag_468:\n        /* \"#utility.yul\":21306:21371   */\n      tag_469\n        /* \"#utility.yul\":21364:21370   */\n      dup2\n        /* \"#utility.yul\":21356:21362   */\n      dup5\n        /* \"#utility.yul\":21350:21354   */\n      dup5\n        /* \"#utility.yul\":21306:21371   */\n      tag_261\n      jump\t// in\n    tag_469:\n        /* \"#utility.yul\":21241:21377   */\n      pop\n        /* \"#utility.yul\":21188:21377   */\n      pop\n      pop\n      jump\t// out\n        /* \"#utility.yul\":21383:21569   */\n    tag_264:\n        /* \"#utility.yul\":21443:21563   */\n    tag_471:\n        /* \"#utility.yul\":21460:21463   */\n      dup2\n        /* \"#utility.yul\":21453:21458   */\n      dup2\n        /* \"#utility.yul\":21450:21464   */\n      lt\n        /* \"#utility.yul\":21443:21563   */\n      iszero\n      tag_473\n      jumpi\n        /* \"#utility.yul\":21514:21553   */\n      tag_474\n        /* \"#utility.yul\":21551:21552   */\n      0x00\n        /* \"#utility.yul\":21544:21549   */\n      dup3\n        /* \"#utility.yul\":21514:21553   */\n      tag_263\n      jump\t// in\n    tag_474:\n        /* \"#utility.yul\":21487:21488   */\n      0x01\n        /* \"#utility.yul\":21480:21485   */\n      dup2\n        /* \"#utility.yul\":21476:21489   */\n      add\n        /* \"#utility.yul\":21467:21489   */\n      swap1\n      pop\n        /* \"#utility.yul\":21443:21563   */\n      jump(tag_471)\n    tag_473:\n        /* \"#utility.yul\":21383:21569   */\n      pop\n      pop\n      jump\t// out\n        /* \"#utility.yul\":21575:22116   */\n    tag_265:\n        /* \"#utility.yul\":21675:21677   */\n      0x1f\n        /* \"#utility.yul\":21670:21673   */\n      dup3\n        /* \"#utility.yul\":21667:21678   */\n      gt\n        /* \"#utility.yul\":21664:22109   */\n      iszero\n      tag_476\n      jumpi\n        /* \"#utility.yul\":21709:21746   */\n      tag_477\n        /* \"#utility.yul\":21740:21745   */\n      dup2\n        /* \"#utility.yul\":21709:21746   */\n      tag_251\n      jump\t// in\n    tag_477:\n        /* \"#utility.yul\":21792:21821   */\n      tag_478\n        /* \"#utility.yul\":21810:21820   */\n      dup5\n        /* \"#utility.yul\":21792:21821   */\n      tag_255\n      jump\t// in\n    tag_478:\n        /* \"#utility.yul\":21782:21790   */\n      dup2\n        /* \"#utility.yul\":21778:21822   */\n      add\n        /* \"#utility.yul\":21975:21977   */\n      0x20\n        /* \"#utility.yul\":21963:21973   */\n      dup6\n        /* \"#utility.yul\":21960:21978   */\n      lt\n        /* \"#utility.yul\":21957:22006   */\n      iszero\n      tag_479\n      jumpi\n        /* \"#utility.yul\":21996:22004   */\n      dup2\n        /* \"#utility.yul\":21981:22004   */\n      swap1\n      pop\n        /* \"#utility.yul\":21957:22006   */\n    tag_479:\n        /* \"#utility.yul\":22019:22099   */\n      tag_480\n        /* \"#utility.yul\":22075:22097   */\n      tag_481\n        /* \"#utility.yul\":22093:22096   */\n      dup6\n        /* \"#utility.yul\":22075:22097   */\n      tag_255\n      jump\t// in\n    tag_481:\n        /* \"#utility.yul\":22065:22073   */\n      dup4\n        /* \"#utility.yul\":22061:22098   */\n      add\n        /* \"#utility.yul\":22048:22059   */\n      dup3\n        /* \"#utility.yul\":22019:22099   */\n      tag_264\n      jump\t// in\n    tag_480:\n        /* \"#utility.yul\":21679:22109   */\n      pop\n      pop\n        /* \"#utility.yul\":21664:22109   */\n    tag_476:\n        /* \"#utility.yul\":21575:22116   */\n      pop\n      pop\n      pop\n      jump\t// out\n        /* \"#utility.yul\":22122:22239   */\n    tag_266:\n        /* \"#utility.yul\":22176:22184   */\n      0x00\n        /* \"#utility.yul\":22226:22231   */\n      dup3\n        /* \"#utility.yul\":22220:22224   */\n      dup3\n        /* \"#utility.yul\":22216:22232   */\n      shr\n        /* \"#utility.yul\":22195:22232   */\n      swap1\n      pop\n        /* \"#utility.yul\":22122:22239   */\n      swap3\n      swap2\n      pop\n      pop\n      jump\t// out\n        /* \"#utility.yul\":22245:22414   */\n    tag_267:\n        /* \"#utility.yul\":22289:22295   */\n      0x00\n        /* \"#utility.yul\":22322:22373   */\n      tag_484\n        /* \"#utility.yul\":22370:22371   */\n      0x00\n        /* \"#utility.yul\":22366:22372   */\n      not\n        /* \"#utility.yul\":22358:22363   */\n      dup5\n        /* \"#utility.yul\":22355:22356   */\n      0x08\n        /* \"#utility.yul\":22351:22364   */\n      mul\n        /* \"#utility.yul\":22322:22373   */\n      tag_266\n      jump\t// in\n    tag_484:\n        /* \"#utility.yul\":22318:22374   */\n      not\n        /* \"#utility.yul\":22403:22407   */\n      dup1\n        /* \"#utility.yul\":22397:22401   */\n      dup4\n        /* \"#utility.yul\":22393:22408   */\n      and\n        /* \"#utility.yul\":22383:22408   */\n      swap2\n      pop\n        /* \"#utility.yul\":22296:22414   */\n      pop\n        /* \"#utility.yul\":22245:22414   */\n      swap3\n      swap2\n      pop\n      pop\n      jump\t// out\n        /* \"#utility.yul\":22419:22714   */\n    tag_268:\n        /* \"#utility.yul\":22495:22499   */\n      0x00\n        /* \"#utility.yul\":22641:22670   */\n      tag_486\n        /* \"#utility.yul\":22666:22669   */\n      dup4\n        /* \"#utility.yul\":22660:22664   */\n      dup4\n        /* \"#utility.yul\":22641:22670   */\n      tag_267\n      jump\t// in\n    tag_486:\n        /* \"#utility.yul\":22633:22670   */\n      swap2\n      pop\n        /* \"#utility.yul\":22703:22706   */\n      dup3\n        /* \"#utility.yul\":22700:22701   */\n      0x02\n        /* \"#utility.yul\":22696:22707   */\n      mul\n        /* \"#utility.yul\":22690:22694   */\n      dup3\n        /* \"#utility.yul\":22687:22708   */\n      or\n        /* \"#utility.yul\":22679:22708   */\n      swap1\n      pop\n        /* \"#utility.yul\":22419:22714   */\n      swap3\n      swap2\n      pop\n      pop\n      jump\t// out\n        /* \"#utility.yul\":22719:24109   */\n    tag_170:\n        /* \"#utility.yul\":22834:22870   */\n      tag_488\n        /* \"#utility.yul\":22866:22869   */\n      dup3\n        /* \"#utility.yul\":22834:22870   */\n      tag_214\n      jump\t// in\n    tag_488:\n        /* \"#utility.yul\":22935:22953   */\n      0xffffffffffffffff\n        /* \"#utility.yul\":22927:22933   */\n      dup2\n        /* \"#utility.yul\":22924:22954   */\n      gt\n        /* \"#utility.yul\":22921:22977   */\n      iszero\n      tag_489\n      jumpi\n        /* \"#utility.yul\":22957:22975   */\n      tag_490\n      tag_228\n      jump\t// in\n    tag_490:\n        /* \"#utility.yul\":22921:22977   */\n    tag_489:\n        /* \"#utility.yul\":23001:23039   */\n      tag_491\n        /* \"#utility.yul\":23033:23037   */\n      dup3\n        /* \"#utility.yul\":23027:23038   */\n      sload\n        /* \"#utility.yul\":23001:23039   */\n      tag_115\n      jump\t// in\n    tag_491:\n        /* \"#utility.yul\":23086:23152   */\n      tag_492\n        /* \"#utility.yul\":23145:23151   */\n      dup3\n        /* \"#utility.yul\":23137:23143   */\n      dup3\n        /* \"#utility.yul\":23131:23135   */\n      dup6\n        /* \"#utility.yul\":23086:23152   */\n      tag_265\n      jump\t// in\n    tag_492:\n        /* \"#utility.yul\":23179:23180   */\n      0x00\n        /* \"#utility.yul\":23203:23207   */\n      0x20\n        /* \"#utility.yul\":23190:23207   */\n      swap1\n      pop\n        /* \"#utility.yul\":23235:23237   */\n      0x1f\n        /* \"#utility.yul\":23227:23233   */\n      dup4\n        /* \"#utility.yul\":23224:23238   */\n      gt\n        /* \"#utility.yul\":23252:23253   */\n      0x01\n        /* \"#utility.yul\":23247:23864   */\n      dup2\n      eq\n      tag_494\n      jumpi\n        /* \"#utility.yul\":23908:23909   */\n      0x00\n        /* \"#utility.yul\":23925:23931   */\n      dup5\n        /* \"#utility.yul\":23922:23999   */\n      iszero\n      tag_495\n      jumpi\n        /* \"#utility.yul\":23974:23983   */\n      dup3\n        /* \"#utility.yul\":23969:23972   */\n      dup8\n        /* \"#utility.yul\":23965:23984   */\n      add\n        /* \"#utility.yul\":23959:23985   */\n      mload\n        /* \"#utility.yul\":23950:23985   */\n      swap1\n      pop\n        /* \"#utility.yul\":23922:23999   */\n    tag_495:\n        /* \"#utility.yul\":24025:24092   */\n      tag_496\n        /* \"#utility.yul\":24085:24091   */\n      dup6\n        /* \"#utility.yul\":24078:24083   */\n      dup3\n        /* \"#utility.yul\":24025:24092   */\n      tag_268\n      jump\t// in\n    tag_496:\n        /* \"#utility.yul\":24019:24023   */\n      dup7\n        /* \"#utility.yul\":24012:24093   */\n      sstore\n        /* \"#utility.yul\":23881:24103   */\n      pop\n        /* \"#utility.yul\":23217:24103   */\n      jump(tag_493)\n        /* \"#utility.yul\":23247:23864   */\n    tag_494:\n        /* \"#utility.yul\":23299:23303   */\n      0x1f\n        /* \"#utility.yul\":23295:23304   */\n      not\n        /* \"#utility.yul\":23287:23293   */\n      dup5\n        /* \"#utility.yul\":23283:23305   */\n      and\n        /* \"#utility.yul\":23333:23369   */\n      tag_497\n        /* \"#utility.yul\":23364:23368   */\n      dup7\n        /* \"#utility.yul\":23333:23369   */\n      tag_251\n      jump\t// in\n    tag_497:\n        /* \"#utility.yul\":23391:23392   */\n      0x00\n        /* \"#utility.yul\":23405:23613   */\n    tag_498:\n        /* \"#utility.yul\":23419:23426   */\n      dup3\n        /* \"#utility.yul\":23416:23417   */\n      dup2\n        /* \"#utility.yul\":23413:23427   */\n      lt\n        /* \"#utility.yul\":23405:23613   */\n      iszero\n      tag_500\n      jumpi\n        /* \"#utility.yul\":23498:23507   */\n      dup5\n        /* \"#utility.yul\":23493:23496   */\n      dup10\n        /* \"#utility.yul\":23489:23508   */\n      add\n        /* \"#utility.yul\":23483:23509   */\n      mload\n        /* \"#utility.yul\":23475:23481   */\n      dup3\n        /* \"#utility.yul\":23468:23510   */\n      sstore\n        /* \"#utility.yul\":23549:23550   */\n      0x01\n        /* \"#utility.yul\":23541:23547   */\n      dup3\n        /* \"#utility.yul\":23537:23551   */\n      add\n        /* \"#utility.yul\":23527:23551   */\n      swap2\n      pop\n        /* \"#utility.yul\":23596:23598   */\n      0x20\n        /* \"#utility.yul\":23585:23594   */\n      dup6\n        /* \"#utility.yul\":23581:23599   */\n      add\n        /* \"#utility.yul\":23568:23599   */\n      swap5\n      pop\n        /* \"#utility.yul\":23442:23446   */\n      0x20\n        /* \"#utility.yul\":23439:23440   */\n      dup2\n        /* \"#utility.yul\":23435:23447   */\n      add\n        /* \"#utility.yul\":23430:23447   */\n      swap1\n      pop\n        /* \"#utility.yul\":23405:23613   */\n      jump(tag_498)\n    tag_500:\n        /* \"#utility.yul\":23641:23647   */\n      dup7\n        /* \"#utility.yul\":23632:23639   */\n      dup4\n        /* \"#utility.yul\":23629:23648   */\n      lt\n        /* \"#utility.yul\":23626:23805   */\n      iszero\n      tag_501\n      jumpi\n        /* \"#utility.yul\":23699:23708   */\n      dup5\n        /* \"#utility.yul\":23694:23697   */\n      dup10\n        /* \"#utility.yul\":23690:23709   */\n      add\n        /* \"#utility.yul\":23684:23710   */\n      mload\n        /* \"#utility.yul\":23742:23790   */\n      tag_502\n        /* \"#utility.yul\":23784:23788   */\n      0x1f\n        /* \"#utility.yul\":23776:23782   */\n      dup10\n        /* \"#utility.yul\":23772:23789   */\n      and\n        /* \"#utility.yul\":23761:23770   */\n      dup3\n        /* \"#utility.yul\":23742:23790   */\n      tag_267\n      jump\t// in\n    tag_502:\n        /* \"#utility.yul\":23734:23740   */\n      dup4\n        /* \"#utility.yul\":23727:23791   */\n      sstore\n        /* \"#utility.yul\":23649:23805   */\n      pop\n        /* \"#utility.yul\":23626:23805   */\n    tag_501:\n        /* \"#utility.yul\":23851:23852   */\n      0x01\n        /* \"#utility.yul\":23847:23848   */\n      0x02\n        /* \"#utility.yul\":23839:23845   */\n      dup9\n        /* \"#utility.yul\":23835:23849   */\n      mul\n        /* \"#utility.yul\":23831:23853   */\n      add\n        /* \"#utility.yul\":23825:23829   */\n      dup9\n        /* \"#utility.yul\":23818:23854   */\n      sstore\n        /* \"#utility.yul\":23254:23864   */\n      pop\n      pop\n      pop\n        /* \"#utility.yul\":23217:24103   */\n    tag_493:\n      pop\n        /* \"#utility.yul\":22809:24109   */\n      pop\n      pop\n      pop\n        /* \"#utility.yul\":22719:24109   */\n      pop\n      pop\n      jump\t// out\n        /* \"#utility.yul\":24115:24534   */\n    tag_172:\n        /* \"#utility.yul\":24254:24258   */\n      0x00\n        /* \"#utility.yul\":24292:24294   */\n      0x40\n        /* \"#utility.yul\":24281:24290   */\n      dup3\n        /* \"#utility.yul\":24277:24295   */\n      add\n        /* \"#utility.yul\":24269:24295   */\n      swap1\n      pop\n        /* \"#utility.yul\":24305:24376   */\n      tag_504\n        /* \"#utility.yul\":24373:24374   */\n      0x00\n        /* \"#utility.yul\":24362:24371   */\n      dup4\n        /* \"#utility.yul\":24358:24375   */\n      add\n        /* \"#utility.yul\":24349:24355   */\n      dup6\n        /* \"#utility.yul\":24305:24376   */\n      tag_201\n      jump\t// in\n    tag_504:\n        /* \"#utility.yul\":24423:24432   */\n      dup2\n        /* \"#utility.yul\":24417:24421   */\n      dup2\n        /* \"#utility.yul\":24413:24433   */\n      sub\n        /* \"#utility.yul\":24408:24410   */\n      0x20\n        /* \"#utility.yul\":24397:24406   */\n      dup4\n        /* \"#utility.yul\":24393:24411   */\n      add\n        /* \"#utility.yul\":24386:24434   */\n      mstore\n        /* \"#utility.yul\":24451:24527   */\n      tag_505\n        /* \"#utility.yul\":24522:24526   */\n      dup2\n        /* \"#utility.yul\":24513:24519   */\n      dup5\n        /* \"#utility.yul\":24451:24527   */\n      tag_218\n      jump\t// in\n    tag_505:\n        /* \"#utility.yul\":24443:24527   */\n      swap1\n      pop\n        /* \"#utility.yul\":24115:24534   */\n      swap4\n      swap3\n      pop\n      pop\n      pop\n      jump\t// out\n\n    auxdata: 0xa26469706673582212203958a8b834b349661941f7df72b73ba422a26275e5dd68d381236ab63da8bc9c64736f6c634300081a0033\n}\n",
				"bytecode": {
					"linkReferences": {},
					"object": "608060405234801561000f575f80fd5b50604051612521380380612521833981810160405281019061003191906104a2565b5f825111610074576040517f08c379a000000000000000000000000000000000000000000000000000000000815260040161006b90610556565b60405180910390fd5b5f81118015610084575081518111155b6100c3576040517f08c379a00000000000000000000000000000000000000000000000000000000081526004016100ba906105e4565b60405180910390fd5b5f5b82518110156102a5575f8382815181106100e2576100e1610602565b5b602002602001015190505f73ffffffffffffffffffffffffffffffffffffffff168173ffffffffffffffffffffffffffffffffffffffff160361015a576040517f08c379a000000000000000000000000000000000000000000000000000000000815260040161015190610679565b60405180910390fd5b60015f8273ffffffffffffffffffffffffffffffffffffffff1673ffffffffffffffffffffffffffffffffffffffff1681526020019081526020015f205f9054906101000a900460ff16156101e4576040517f08c379a00000000000000000000000000000000000000000000000000000000081526004016101db906106e1565b60405180910390fd5b6001805f8373ffffffffffffffffffffffffffffffffffffffff1673ffffffffffffffffffffffffffffffffffffffff1681526020019081526020015f205f6101000a81548160ff0219169083151502179055505f81908060018154018082558091505060019003905f5260205f20015f9091909190916101000a81548173ffffffffffffffffffffffffffffffffffffffff021916908373ffffffffffffffffffffffffffffffffffffffff1602179055505080806001019150506100c5565b508060028190555050506106ff565b5f604051905090565b5f80fd5b5f80fd5b5f80fd5b5f601f19601f8301169050919050565b7f4e487b71000000000000000000000000000000000000000000000000000000005f52604160045260245ffd5b61030f826102c9565b810181811067ffffffffffffffff8211171561032e5761032d6102d9565b5b80604052505050565b5f6103406102b4565b905061034c8282610306565b919050565b5f67ffffffffffffffff82111561036b5761036a6102d9565b5b602082029050602081019050919050565b5f80fd5b5f73ffffffffffffffffffffffffffffffffffffffff82169050919050565b5f6103a982610380565b9050919050565b6103b98161039f565b81146103c3575f80fd5b50565b5f815190506103d4816103b0565b92915050565b5f6103ec6103e784610351565b610337565b9050808382526020820190506020840283018581111561040f5761040e61037c565b5b835b81811015610438578061042488826103c6565b845260208401935050602081019050610411565b5050509392505050565b5f82601f830112610456576104556102c5565b5b81516104668482602086016103da565b91505092915050565b5f819050919050565b6104818161046f565b811461048b575f80fd5b50565b5f8151905061049c81610478565b92915050565b5f80604083850312156104b8576104b76102bd565b5b5f83015167ffffffffffffffff8111156104d5576104d46102c1565b5b6104e185828601610442565b92505060206104f28582860161048e565b9150509250929050565b5f82825260208201905092915050565b7f6f776e65727320726571756972656400000000000000000000000000000000005f82015250565b5f610540600f836104fc565b915061054b8261050c565b602082019050919050565b5f6020820190508181035f83015261056d81610534565b9050919050565b7f696e76616c6964206e756d626572206f6620726571756972656420636f6e66695f8201527f726d6174696f6e73000000000000000000000000000000000000000000000000602082015250565b5f6105ce6028836104fc565b91506105d982610574565b604082019050919050565b5f6020820190508181035f8301526105fb816105c2565b9050919050565b7f4e487b71000000000000000000000000000000000000000000000000000000005f52603260045260245ffd5b7f696e76616c6964206f776e6572000000000000000000000000000000000000005f82015250565b5f610663600d836104fc565b915061066e8261062f565b602082019050919050565b5f6020820190508181035f83015261069081610657565b9050919050565b7f6f776e6572206e6f7420756e69717565000000000000000000000000000000005f82015250565b5f6106cb6010836104fc565b91506106d682610697565b602082019050919050565b5f6020820190508181035f8301526106f8816106bf565b9050919050565b611e158061070c5f395ff3fe6080604052600436106100aa575f3560e01c80639ace38c2116100635780639ace38c21461024b578063a0e67e2b1461028b578063c01a8c84146102b5578063c6427474146102dd578063d0549b8514610305578063ee22610b1461032f57610101565b8063025e7c271461010557806320ea8d86146101415780632e7700f0146101695780632f54bf6e1461019357806333ea3dc8146101cf57806380f59a651461020f57610101565b36610101573373ffffffffffffffffffffffffffffffffffffffff167f90890809c654f11d6e72a28fa60149770a0d11ec6c92319d6ceb2bb0a4ea1a1534476040516100f79291906111e4565b60405180910390a2005b5f80fd5b348015610110575f80fd5b5061012b60048036038101906101269190611246565b610357565b60405161013891906112b0565b60405180910390f35b34801561014c575f80fd5b5061016760048036038101906101629190611246565b610391565b005b348015610174575f80fd5b5061017d61064f565b60405161018a91906112c9565b60405180910390f35b34801561019e575f80fd5b506101b960048036038101906101b4919061130c565b61065b565b6040516101c69190611351565b60405180910390f35b3480156101da575f80fd5b506101f560048036038101906101f09190611246565b610678565b6040516102069594939291906113da565b60405180910390f35b34801561021a575f80fd5b5061023560048036038101906102309190611432565b610781565b6040516102429190611351565b60405180910390f35b348015610256575f80fd5b50610271600480360381019061026c9190611246565b6107ab565b6040516102829594939291906113da565b60405180910390f35b348015610296575f80fd5b5061029f61089d565b6040516102ac9190611527565b60405180910390f35b3480156102c0575f80fd5b506102db60048036038101906102d69190611246565b610927565b005b3480156102e8575f80fd5b5061030360048036038101906102fe9190611673565b610cc9565b005b348015610310575f80fd5b50610319610ebf565b60405161032691906112c9565b60405180910390f35b34801561033a575f80fd5b5061035560048036038101906103509190611246565b610ec5565b005b5f8181548110610365575f80fd5b905f5260205f20015f915054906101000a900473ffffffffffffffffffffffffffffffffffffffff1681565b60015f3373ffffffffffffffffffffffffffffffffffffffff1673ffffffffffffffffffffffffffffffffffffffff1681526020019081526020015f205f9054906101000a900460ff1661041a576040517f08c379a000000000000000000000000000000000000000000000000000000000815260040161041190611739565b60405180910390fd5b806004805490508110610462576040517f08c379a0000000000000000000000000000000000000000000000000000000008152600401610459906117a1565b60405180910390fd5b8160048181548110610477576104766117bf565b5b905f5260205f2090600502016003015f9054906101000a900460ff16156104d3576040517f08c379a00000000000000000000000000000000000000000000000000000000081526004016104ca90611836565b60405180910390fd5b60035f8481526020019081526020015f205f3373ffffffffffffffffffffffffffffffffffffffff1673ffffffffffffffffffffffffffffffffffffffff1681526020019081526020015f205f9054906101000a900460ff1661056b576040517f08c379a00000000000000000000000000000000000000000000000000000000081526004016105629061189e565b60405180910390fd5b5f60035f8581526020019081526020015f205f3373ffffffffffffffffffffffffffffffffffffffff1673ffffffffffffffffffffffffffffffffffffffff1681526020019081526020015f205f6101000a81548160ff021916908315150217905550600483815481106105e2576105e16117bf565b5b905f5260205f2090600502016004015f815480929190610601906118e9565b9190505550823373ffffffffffffffffffffffffffffffffffffffff167ff0dca620e2e81f7841d07bcc105e1704fb01475b278a9d4c236e1c62945edd5560405160405180910390a3505050565b5f600480549050905090565b6001602052805f5260405f205f915054906101000a900460ff1681565b5f8060605f805f60048781548110610693576106926117bf565b5b905f5260205f2090600502019050805f015f9054906101000a900473ffffffffffffffffffffffffffffffffffffffff16816001015482600201836003015f9054906101000a900460ff1684600401548280546106ef9061193d565b80601f016020809104026020016040519081016040528092919081815260200182805461071b9061193d565b80156107665780601f1061073d57610100808354040283529160200191610766565b820191905f5260205f20905b81548152906001019060200180831161074957829003601f168201915b50505050509250955095509550955095505091939590929450565b6003602052815f5260405f20602052805f5260405f205f915091509054906101000a900460ff1681565b600481815481106107ba575f80fd5b905f5260205f2090600502015f91509050805f015f9054906101000a900473ffffffffffffffffffffffffffffffffffffffff16908060010154908060020180546108049061193d565b80601f01602080910402602001604051908101604052809291908181526020018280546108309061193d565b801561087b5780601f106108525761010080835404028352916020019161087b565b820191905f5260205f20905b81548152906001019060200180831161085e57829003601f168201915b505050505090806003015f9054906101000a900460ff16908060040154905085565b60605f80548060200260200160405190810160405280929190818152602001828054801561091d57602002820191905f5260205f20905b815f9054906101000a900473ffffffffffffffffffffffffffffffffffffffff1673ffffffffffffffffffffffffffffffffffffffff16815260200190600101908083116108d4575b5050505050905090565b60015f3373ffffffffffffffffffffffffffffffffffffffff1673ffffffffffffffffffffffffffffffffffffffff1681526020019081526020015f205f9054906101000a900460ff166109b0576040517f08c379a00000000000000000000000000000000000000000000000000000000081526004016109a790611739565b60405180910390fd5b8060048054905081106109f8576040517f08c379a00000000000000000000000000000000000000000000000000000000081526004016109ef906117a1565b60405180910390fd5b8160048181548110610a0d57610a0c6117bf565b5b905f5260205f2090600502016003015f9054906101000a900460ff1615610a69576040517f08c379a0000000000000000000000000000000000000000000000000000000008152600401610a6090611836565b60405180910390fd5b8260035f8281526020019081526020015f205f3373ffffffffffffffffffffffffffffffffffffffff1673ffffffffffffffffffffffffffffffffffffffff1681526020019081526020015f205f9054906101000a900460ff1615610b03576040517f08c379a0000000000000000000000000000000000000000000000000000000008152600401610afa906119b7565b60405180910390fd5b60025460048581548110610b1a57610b196117bf565b5b905f5260205f209060050201600401541015610b6b576040517f08c379a0000000000000000000000000000000000000000000000000000000008152600401610b6290611a1f565b60405180910390fd5b5f60048581548110610b8057610b7f6117bf565b5b905f5260205f20906005020190506001816003015f6101000a81548160ff0219169083151502179055505f815f015f9054906101000a900473ffffffffffffffffffffffffffffffffffffffff1673ffffffffffffffffffffffffffffffffffffffff16826001015483600201604051610bfa9190611ad9565b5f6040518083038185875af1925050503d805f8114610c34576040519150601f19603f3d011682016040523d82523d5f602084013e610c39565b606091505b5050905080610c7d576040517f08c379a0000000000000000000000000000000000000000000000000000000008152600401610c7490611b39565b60405180910390fd5b853373ffffffffffffffffffffffffffffffffffffffff167f5445f318f4f5fcfb66592e68e0cc5822aa15664039bd5f0ffde24c5a8142b1ac60405160405180910390a3505050505050565b60015f3373ffffffffffffffffffffffffffffffffffffffff1673ffffffffffffffffffffffffffffffffffffffff1681526020019081526020015f205f9054906101000a900460ff16610d52576040517f08c379a0000000000000000000000000000000000000000000000000000000008152600401610d4990611739565b60405180910390fd5b5f600480549050905060046040518060a001604052808673ffffffffffffffffffffffffffffffffffffffff1681526020018581526020018481526020015f151581526020015f815250908060018154018082558091505060019003905f5260205f2090600502015f909190919091505f820151815f015f6101000a81548173ffffffffffffffffffffffffffffffffffffffff021916908373ffffffffffffffffffffffffffffffffffffffff160217905550602082015181600101556040820151816002019081610e259190611ce2565b506060820151816003015f6101000a81548160ff0219169083151502179055506080820151816004015550508373ffffffffffffffffffffffffffffffffffffffff16813373ffffffffffffffffffffffffffffffffffffffff167fd5a05bf70715ad82a09a756320284a1b54c9ff74cd0f8cce6219e79b563fe59d8686604051610eb1929190611db1565b60405180910390a450505050565b60025481565b60015f3373ffffffffffffffffffffffffffffffffffffffff1673ffffffffffffffffffffffffffffffffffffffff1681526020019081526020015f205f9054906101000a900460ff16610f4e576040517f08c379a0000000000000000000000000000000000000000000000000000000008152600401610f4590611739565b60405180910390fd5b806004805490508110610f96576040517f08c379a0000000000000000000000000000000000000000000000000000000008152600401610f8d906117a1565b60405180910390fd5b8160048181548110610fab57610faa6117bf565b5b905f5260205f2090600502016003015f9054906101000a900460ff1615611007576040517f08c379a0000000000000000000000000000000000000000000000000000000008152600401610ffe90611836565b60405180910390fd5b6002546004848154811061101e5761101d6117bf565b5b905f5260205f20906005020160040154101561106f576040517f08c379a000000000000000000000000000000000000000000000000000000000815260040161106690611a1f565b60405180910390fd5b5f60048481548110611084576110836117bf565b5b905f5260205f20906005020190506001816003015f6101000a81548160ff0219169083151502179055505f815f015f9054906101000a900473ffffffffffffffffffffffffffffffffffffffff1673ffffffffffffffffffffffffffffffffffffffff168260010154836002016040516110fe9190611ad9565b5f6040518083038185875af1925050503d805f8114611138576040519150601f19603f3d011682016040523d82523d5f602084013e61113d565b606091505b5050905080611181576040517f08c379a000000000000000000000000000000000000000000000000000000000815260040161117890611b39565b60405180910390fd5b843373ffffffffffffffffffffffffffffffffffffffff167f5445f318f4f5fcfb66592e68e0cc5822aa15664039bd5f0ffde24c5a8142b1ac60405160405180910390a35050505050565b5f819050919050565b6111de816111cc565b82525050565b5f6040820190506111f75f8301856111d5565b61120460208301846111d5565b9392505050565b5f604051905090565b5f80fd5b5f80fd5b611225816111cc565b811461122f575f80fd5b50565b5f813590506112408161121c565b92915050565b5f6020828403121561125b5761125a611214565b5b5f61126884828501611232565b91505092915050565b5f73ffffffffffffffffffffffffffffffffffffffff82169050919050565b5f61129a82611271565b9050919050565b6112aa81611290565b82525050565b5f6020820190506112c35f8301846112a1565b92915050565b5f6020820190506112dc5f8301846111d5565b92915050565b6112eb81611290565b81146112f5575f80fd5b50565b5f81359050611306816112e2565b92915050565b5f6020828403121561132157611320611214565b5b5f61132e848285016112f8565b91505092915050565b5f8115159050919050565b61134b81611337565b82525050565b5f6020820190506113645f830184611342565b92915050565b5f81519050919050565b5f82825260208201905092915050565b8281835e5f83830152505050565b5f601f19601f8301169050919050565b5f6113ac8261136a565b6113b68185611374565b93506113c6818560208601611384565b6113cf81611392565b840191505092915050565b5f60a0820190506113ed5f8301886112a1565b6113fa60208301876111d5565b818103604083015261140c81866113a2565b905061141b6060830185611342565b61142860808301846111d5565b9695505050505050565b5f806040838503121561144857611447611214565b5b5f61145585828601611232565b9250506020611466858286016112f8565b9150509250929050565b5f81519050919050565b5f82825260208201905092915050565b5f819050602082019050919050565b6114a281611290565b82525050565b5f6114b38383611499565b60208301905092915050565b5f602082019050919050565b5f6114d582611470565b6114df818561147a565b93506114ea8361148a565b805f5b8381101561151a57815161150188826114a8565b975061150c836114bf565b9250506001810190506114ed565b5085935050505092915050565b5f6020820190508181035f83015261153f81846114cb565b905092915050565b5f80fd5b5f80fd5b7f4e487b71000000000000000000000000000000000000000000000000000000005f52604160045260245ffd5b61158582611392565b810181811067ffffffffffffffff821117156115a4576115a361154f565b5b80604052505050565b5f6115b661120b565b90506115c2828261157c565b919050565b5f67ffffffffffffffff8211156115e1576115e061154f565b5b6115ea82611392565b9050602081019050919050565b828183375f83830152505050565b5f611617611612846115c7565b6115ad565b9050828152602081018484840111156116335761163261154b565b5b61163e8482856115f7565b509392505050565b5f82601f83011261165a57611659611547565b5b813561166a848260208601611605565b91505092915050565b5f805f6060848603121561168a57611689611214565b5b5f611697868287016112f8565b93505060206116a886828701611232565b925050604084013567ffffffffffffffff8111156116c9576116c8611218565b5b6116d586828701611646565b9150509250925092565b5f82825260208201905092915050565b7f6e6f74206f776e657200000000000000000000000000000000000000000000005f82015250565b5f6117236009836116df565b915061172e826116ef565b602082019050919050565b5f6020820190508181035f83015261175081611717565b9050919050565b7f5472616e73616374696f6e20646f6573206e6f742065786973740000000000005f82015250565b5f61178b601a836116df565b915061179682611757565b602082019050919050565b5f6020820190508181035f8301526117b88161177f565b9050919050565b7f4e487b71000000000000000000000000000000000000000000000000000000005f52603260045260245ffd5b7f747820616c7265616479206578656375746564000000000000000000000000005f82015250565b5f6118206013836116df565b915061182b826117ec565b602082019050919050565b5f6020820190508181035f83015261184d81611814565b9050919050565b7f5472616e73616374696f6e206e6f7420636f6e6669726d6564000000000000005f82015250565b5f6118886019836116df565b915061189382611854565b602082019050919050565b5f6020820190508181035f8301526118b58161187c565b9050919050565b7f4e487b71000000000000000000000000000000000000000000000000000000005f52601160045260245ffd5b5f6118f3826111cc565b91505f8203611905576119046118bc565b5b600182039050919050565b7f4e487b71000000000000000000000000000000000000000000000000000000005f52602260045260245ffd5b5f600282049050600182168061195457607f821691505b60208210810361196757611966611910565b5b50919050565b7f5472616e73616374696f6e20616c726561647920636f6e6669726d65640000005f82015250565b5f6119a1601d836116df565b91506119ac8261196d565b602082019050919050565b5f6020820190508181035f8301526119ce81611995565b9050919050565b7f4e6f7420656e6f75676820636f6e6669726d6174696f6e7300000000000000005f82015250565b5f611a096018836116df565b9150611a14826119d5565b602082019050919050565b5f6020820190508181035f830152611a36816119fd565b9050919050565b5f81905092915050565b5f819050815f5260205f209050919050565b5f8154611a658161193d565b611a6f8186611a3d565b9450600182165f8114611a895760018114611a9e57611ad0565b60ff1983168652811515820286019350611ad0565b611aa785611a47565b5f5b83811015611ac857815481890152600182019150602081019050611aa9565b838801955050505b50505092915050565b5f611ae48284611a59565b915081905092915050565b7f5472616e73616374696f6e20657865637574696f6e206661696c6564000000005f82015250565b5f611b23601c836116df565b9150611b2e82611aef565b602082019050919050565b5f6020820190508181035f830152611b5081611b17565b9050919050565b5f6020601f8301049050919050565b5f82821b905092915050565b5f60088302611ba17fffffffffffffffffffffffffffffffffffffffffffffffffffffffffffffffff82611b66565b611bab8683611b66565b95508019841693508086168417925050509392505050565b5f819050919050565b5f611be6611be1611bdc846111cc565b611bc3565b6111cc565b9050919050565b5f819050919050565b611bff83611bcc565b611c13611c0b82611bed565b848454611b72565b825550505050565b5f90565b611c27611c1b565b611c32818484611bf6565b505050565b5b81811015611c5557611c4a5f82611c1f565b600181019050611c38565b5050565b601f821115611c9a57611c6b81611a47565b611c7484611b57565b81016020851015611c83578190505b611c97611c8f85611b57565b830182611c37565b50505b505050565b5f82821c905092915050565b5f611cba5f1984600802611c9f565b1980831691505092915050565b5f611cd28383611cab565b9150826002028217905092915050565b611ceb8261136a565b67ffffffffffffffff811115611d0457611d0361154f565b5b611d0e825461193d565b611d19828285611c59565b5f60209050601f831160018114611d4a575f8415611d38578287015190505b611d428582611cc7565b865550611da9565b601f198416611d5886611a47565b5f5b82811015611d7f57848901518255600182019150602085019450602081019050611d5a565b86831015611d9c5784890151611d98601f891682611cab565b8355505b6001600288020188555050505b505050505050565b5f604082019050611dc45f8301856111d5565b8181036020830152611dd681846113a2565b9050939250505056fea26469706673582212203958a8b834b349661941f7df72b73ba422a26275e5dd68d381236ab63da8bc9c64736f6c634300081a0033",
					"opcodes": "PUSH1 0x80 PUSH1 0x40 MSTORE CALLVALUE DUP1 ISZERO PUSH2 0xF JUMPI PUSH0 DUP1 REVERT JUMPDEST POP PUSH1 0x40 MLOAD PUSH2 0x2521 CODESIZE SUB DUP1 PUSH2 0x2521 DUP4 CODECOPY DUP2 DUP2 ADD PUSH1 0x40 MSTORE DUP2 ADD SWAP1 PUSH2 0x31 SWAP2 SWAP1 PUSH2 0x4A2 JUMP JUMPDEST PUSH0 DUP3 MLOAD GT PUSH2 0x74 JUMPI PUSH1 0x40 MLOAD PUSH32 0x8C379A000000000000000000000000000000000000000000000000000000000 DUP2 MSTORE PUSH1 0x4 ADD PUSH2 0x6B SWAP1 PUSH2 0x556 JUMP JUMPDEST PUSH1 0x40 MLOAD DUP1 SWAP2 SUB SWAP1 REVERT JUMPDEST PUSH0 DUP2 GT DUP1 ISZERO PUSH2 0x84 JUMPI POP DUP2 MLOAD DUP2 GT ISZERO JUMPDEST PUSH2 0xC3 JUMPI PUSH1 0x40 MLOAD PUSH32 0x8C379A000000000000000000000000000000000000000000000000000000000 DUP2 MSTORE PUSH1 0x4 ADD PUSH2 0xBA SWAP1 PUSH2 0x5E4 JUMP JUMPDEST PUSH1 0x40 MLOAD DUP1 SWAP2 SUB SWAP1 REVERT JUMPDEST PUSH0 JUMPDEST DUP3 MLOAD DUP2 LT ISZERO PUSH2 0x2A5 JUMPI PUSH0 DUP4 DUP3 DUP2 MLOAD DUP2 LT PUSH2 0xE2 JUMPI PUSH2 0xE1 PUSH2 0x602 JUMP JUMPDEST JUMPDEST PUSH1 0x20 MUL PUSH1 0x20 ADD ADD MLOAD SWAP1 POP PUSH0 PUSH20 0xFFFFFFFFFFFFFFFFFFFFFFFFFFFFFFFFFFFFFFFF AND DUP2 PUSH20 0xFFFFFFFFFFFFFFFFFFFFFFFFFFFFFFFFFFFFFFFF AND SUB PUSH2 0x15A JUMPI PUSH1 0x40 MLOAD PUSH32 0x8C379A000000000000000000000000000000000000000000000000000000000 DUP2 MSTORE PUSH1 0x4 ADD PUSH2 0x151 SWAP1 PUSH2 0x679 JUMP JUMPDEST PUSH1 0x40 MLOAD DUP1 SWAP2 SUB SWAP1 REVERT JUMPDEST PUSH1 0x1 PUSH0 DUP3 PUSH20 0xFFFFFFFFFFFFFFFFFFFFFFFFFFFFFFFFFFFFFFFF AND PUSH20 0xFFFFFFFFFFFFFFFFFFFFFFFFFFFFFFFFFFFFFFFF AND DUP2 MSTORE PUSH1 0x20 ADD SWAP1 DUP2 MSTORE PUSH1 0x20 ADD PUSH0 KECCAK256 PUSH0 SWAP1 SLOAD SWAP1 PUSH2 0x100 EXP SWAP1 DIV PUSH1 0xFF AND ISZERO PUSH2 0x1E4 JUMPI PUSH1 0x40 MLOAD PUSH32 0x8C379A000000000000000000000000000000000000000000000000000000000 DUP2 MSTORE PUSH1 0x4 ADD PUSH2 0x1DB SWAP1 PUSH2 0x6E1 JUMP JUMPDEST PUSH1 0x40 MLOAD DUP1 SWAP2 SUB SWAP1 REVERT JUMPDEST PUSH1 0x1 DUP1 PUSH0 DUP4 PUSH20 0xFFFFFFFFFFFFFFFFFFFFFFFFFFFFFFFFFFFFFFFF AND PUSH20 0xFFFFFFFFFFFFFFFFFFFFFFFFFFFFFFFFFFFFFFFF AND DUP2 MSTORE PUSH1 0x20 ADD SWAP1 DUP2 MSTORE PUSH1 0x20 ADD PUSH0 KECCAK256 PUSH0 PUSH2 0x100 EXP DUP2 SLOAD DUP2 PUSH1 0xFF MUL NOT AND SWAP1 DUP4 ISZERO ISZERO MUL OR SWAP1 SSTORE POP PUSH0 DUP2 SWAP1 DUP1 PUSH1 0x1 DUP2 SLOAD ADD DUP1 DUP3 SSTORE DUP1 SWAP2 POP POP PUSH1 0x1 SWAP1 SUB SWAP1 PUSH0 MSTORE PUSH1 0x20 PUSH0 KECCAK256 ADD PUSH0 SWAP1 SWAP2 SWAP1 SWAP2 SWAP1 SWAP2 PUSH2 0x100 EXP DUP2 SLOAD DUP2 PUSH20 0xFFFFFFFFFFFFFFFFFFFFFFFFFFFFFFFFFFFFFFFF MUL NOT AND SWAP1 DUP4 PUSH20 0xFFFFFFFFFFFFFFFFFFFFFFFFFFFFFFFFFFFFFFFF AND MUL OR SWAP1 SSTORE POP POP DUP1 DUP1 PUSH1 0x1 ADD SWAP2 POP POP PUSH2 0xC5 JUMP JUMPDEST POP DUP1 PUSH1 0x2 DUP2 SWAP1 SSTORE POP POP POP PUSH2 0x6FF JUMP JUMPDEST PUSH0 PUSH1 0x40 MLOAD SWAP1 POP SWAP1 JUMP JUMPDEST PUSH0 DUP1 REVERT JUMPDEST PUSH0 DUP1 REVERT JUMPDEST PUSH0 DUP1 REVERT JUMPDEST PUSH0 PUSH1 0x1F NOT PUSH1 0x1F DUP4 ADD AND SWAP1 POP SWAP2 SWAP1 POP JUMP JUMPDEST PUSH32 0x4E487B7100000000000000000000000000000000000000000000000000000000 PUSH0 MSTORE PUSH1 0x41 PUSH1 0x4 MSTORE PUSH1 0x24 PUSH0 REVERT JUMPDEST PUSH2 0x30F DUP3 PUSH2 0x2C9 JUMP JUMPDEST DUP2 ADD DUP2 DUP2 LT PUSH8 0xFFFFFFFFFFFFFFFF DUP3 GT OR ISZERO PUSH2 0x32E JUMPI PUSH2 0x32D PUSH2 0x2D9 JUMP JUMPDEST JUMPDEST DUP1 PUSH1 0x40 MSTORE POP POP POP JUMP JUMPDEST PUSH0 PUSH2 0x340 PUSH2 0x2B4 JUMP JUMPDEST SWAP1 POP PUSH2 0x34C DUP3 DUP3 PUSH2 0x306 JUMP JUMPDEST SWAP2 SWAP1 POP JUMP JUMPDEST PUSH0 PUSH8 0xFFFFFFFFFFFFFFFF DUP3 GT ISZERO PUSH2 0x36B JUMPI PUSH2 0x36A PUSH2 0x2D9 JUMP JUMPDEST JUMPDEST PUSH1 0x20 DUP3 MUL SWAP1 POP PUSH1 0x20 DUP2 ADD SWAP1 POP SWAP2 SWAP1 POP JUMP JUMPDEST PUSH0 DUP1 REVERT JUMPDEST PUSH0 PUSH20 0xFFFFFFFFFFFFFFFFFFFFFFFFFFFFFFFFFFFFFFFF DUP3 AND SWAP1 POP SWAP2 SWAP1 POP JUMP JUMPDEST PUSH0 PUSH2 0x3A9 DUP3 PUSH2 0x380 JUMP JUMPDEST SWAP1 POP SWAP2 SWAP1 POP JUMP JUMPDEST PUSH2 0x3B9 DUP2 PUSH2 0x39F JUMP JUMPDEST DUP2 EQ PUSH2 0x3C3 JUMPI PUSH0 DUP1 REVERT JUMPDEST POP JUMP JUMPDEST PUSH0 DUP2 MLOAD SWAP1 POP PUSH2 0x3D4 DUP2 PUSH2 0x3B0 JUMP JUMPDEST SWAP3 SWAP2 POP POP JUMP JUMPDEST PUSH0 PUSH2 0x3EC PUSH2 0x3E7 DUP5 PUSH2 0x351 JUMP JUMPDEST PUSH2 0x337 JUMP JUMPDEST SWAP1 POP DUP1 DUP4 DUP3 MSTORE PUSH1 0x20 DUP3 ADD SWAP1 POP PUSH1 0x20 DUP5 MUL DUP4 ADD DUP6 DUP2 GT ISZERO PUSH2 0x40F JUMPI PUSH2 0x40E PUSH2 0x37C JUMP JUMPDEST JUMPDEST DUP4 JUMPDEST DUP2 DUP2 LT ISZERO PUSH2 0x438 JUMPI DUP1 PUSH2 0x424 DUP9 DUP3 PUSH2 0x3C6 JUMP JUMPDEST DUP5 MSTORE PUSH1 0x20 DUP5 ADD SWAP4 POP POP PUSH1 0x20 DUP2 ADD SWAP1 POP PUSH2 0x411 JUMP JUMPDEST POP POP POP SWAP4 SWAP3 POP POP POP JUMP JUMPDEST PUSH0 DUP3 PUSH1 0x1F DUP4 ADD SLT PUSH2 0x456 JUMPI PUSH2 0x455 PUSH2 0x2C5 JUMP JUMPDEST JUMPDEST DUP2 MLOAD PUSH2 0x466 DUP5 DUP3 PUSH1 0x20 DUP7 ADD PUSH2 0x3DA JUMP JUMPDEST SWAP2 POP POP SWAP3 SWAP2 POP POP JUMP JUMPDEST PUSH0 DUP2 SWAP1 POP SWAP2 SWAP1 POP JUMP JUMPDEST PUSH2 0x481 DUP2 PUSH2 0x46F JUMP JUMPDEST DUP2 EQ PUSH2 0x48B JUMPI PUSH0 DUP1 REVERT JUMPDEST POP JUMP JUMPDEST PUSH0 DUP2 MLOAD SWAP1 POP PUSH2 0x49C DUP2 PUSH2 0x478 JUMP JUMPDEST SWAP3 SWAP2 POP POP JUMP JUMPDEST PUSH0 DUP1 PUSH1 0x40 DUP4 DUP6 SUB SLT ISZERO PUSH2 0x4B8 JUMPI PUSH2 0x4B7 PUSH2 0x2BD JUMP JUMPDEST JUMPDEST PUSH0 DUP4 ADD MLOAD PUSH8 0xFFFFFFFFFFFFFFFF DUP2 GT ISZERO PUSH2 0x4D5 JUMPI PUSH2 0x4D4 PUSH2 0x2C1 JUMP JUMPDEST JUMPDEST PUSH2 0x4E1 DUP6 DUP3 DUP7 ADD PUSH2 0x442 JUMP JUMPDEST SWAP3 POP POP PUSH1 0x20 PUSH2 0x4F2 DUP6 DUP3 DUP7 ADD PUSH2 0x48E JUMP JUMPDEST SWAP2 POP POP SWAP3 POP SWAP3 SWAP1 POP JUMP JUMPDEST PUSH0 DUP3 DUP3 MSTORE PUSH1 0x20 DUP3 ADD SWAP1 POP SWAP3 SWAP2 POP POP JUMP JUMPDEST PUSH32 0x6F776E6572732072657175697265640000000000000000000000000000000000 PUSH0 DUP3 ADD MSTORE POP JUMP JUMPDEST PUSH0 PUSH2 0x540 PUSH1 0xF DUP4 PUSH2 0x4FC JUMP JUMPDEST SWAP2 POP PUSH2 0x54B DUP3 PUSH2 0x50C JUMP JUMPDEST PUSH1 0x20 DUP3 ADD SWAP1 POP SWAP2 SWAP1 POP JUMP JUMPDEST PUSH0 PUSH1 0x20 DUP3 ADD SWAP1 POP DUP2 DUP2 SUB PUSH0 DUP4 ADD MSTORE PUSH2 0x56D DUP2 PUSH2 0x534 JUMP JUMPDEST SWAP1 POP SWAP2 SWAP1 POP JUMP JUMPDEST PUSH32 0x696E76616C6964206E756D626572206F6620726571756972656420636F6E6669 PUSH0 DUP3 ADD MSTORE PUSH32 0x726D6174696F6E73000000000000000000000000000000000000000000000000 PUSH1 0x20 DUP3 ADD MSTORE POP JUMP JUMPDEST PUSH0 PUSH2 0x5CE PUSH1 0x28 DUP4 PUSH2 0x4FC JUMP JUMPDEST SWAP2 POP PUSH2 0x5D9 DUP3 PUSH2 0x574 JUMP JUMPDEST PUSH1 0x40 DUP3 ADD SWAP1 POP SWAP2 SWAP1 POP JUMP JUMPDEST PUSH0 PUSH1 0x20 DUP3 ADD SWAP1 POP DUP2 DUP2 SUB PUSH0 DUP4 ADD MSTORE PUSH2 0x5FB DUP2 PUSH2 0x5C2 JUMP JUMPDEST SWAP1 POP SWAP2 SWAP1 POP JUMP JUMPDEST PUSH32 0x4E487B7100000000000000000000000000000000000000000000000000000000 PUSH0 MSTORE PUSH1 0x32 PUSH1 0x4 MSTORE PUSH1 0x24 PUSH0 REVERT JUMPDEST PUSH32 0x696E76616C6964206F776E657200000000000000000000000000000000000000 PUSH0 DUP3 ADD MSTORE POP JUMP JUMPDEST PUSH0 PUSH2 0x663 PUSH1 0xD DUP4 PUSH2 0x4FC JUMP JUMPDEST SWAP2 POP PUSH2 0x66E DUP3 PUSH2 0x62F JUMP JUMPDEST PUSH1 0x20 DUP3 ADD SWAP1 POP SWAP2 SWAP1 POP JUMP JUMPDEST PUSH0 PUSH1 0x20 DUP3 ADD SWAP1 POP DUP2 DUP2 SUB PUSH0 DUP4 ADD MSTORE PUSH2 0x690 DUP2 PUSH2 0x657 JUMP JUMPDEST SWAP1 POP SWAP2 SWAP1 POP JUMP JUMPDEST PUSH32 0x6F776E6572206E6F7420756E6971756500000000000000000000000000000000 PUSH0 DUP3 ADD MSTORE POP JUMP JUMPDEST PUSH0 PUSH2 0x6CB PUSH1 0x10 DUP4 PUSH2 0x4FC JUMP JUMPDEST SWAP2 POP PUSH2 0x6D6 DUP3 PUSH2 0x697 JUMP JUMPDEST PUSH1 0x20 DUP3 ADD SWAP1 POP SWAP2 SWAP1 POP JUMP JUMPDEST PUSH0 PUSH1 0x20 DUP3 ADD SWAP1 POP DUP2 DUP2 SUB PUSH0 DUP4 ADD MSTORE PUSH2 0x6F8 DUP2 PUSH2 0x6BF JUMP JUMPDEST SWAP1 POP SWAP2 SWAP1 POP JUMP JUMPDEST PUSH2 0x1E15 DUP1 PUSH2 0x70C PUSH0 CODECOPY PUSH0 RETURN INVALID PUSH1 0x80 PUSH1 0x40 MSTORE PUSH1 0x4 CALLDATASIZE LT PUSH2 0xAA JUMPI PUSH0 CALLDATALOAD PUSH1 0xE0 SHR DUP1 PUSH4 0x9ACE38C2 GT PUSH2 0x63 JUMPI DUP1 PUSH4 0x9ACE38C2 EQ PUSH2 0x24B JUMPI DUP1 PUSH4 0xA0E67E2B EQ PUSH2 0x28B JUMPI DUP1 PUSH4 0xC01A8C84 EQ PUSH2 0x2B5 JUMPI DUP1 PUSH4 0xC6427474 EQ PUSH2 0x2DD JUMPI DUP1 PUSH4 0xD0549B85 EQ PUSH2 0x305 JUMPI DUP1 PUSH4 0xEE22610B EQ PUSH2 0x32F JUMPI PUSH2 0x101 JUMP JUMPDEST DUP1 PUSH4 0x25E7C27 EQ PUSH2 0x105 JUMPI DUP1 PUSH4 0x20EA8D86 EQ PUSH2 0x141 JUMPI DUP1 PUSH4 0x2E7700F0 EQ PUSH2 0x169 JUMPI DUP1 PUSH4 0x2F54BF6E EQ PUSH2 0x193 JUMPI DUP1 PUSH4 0x33EA3DC8 EQ PUSH2 0x1CF JUMPI DUP1 PUSH4 0x80F59A65 EQ PUSH2 0x20F JUMPI PUSH2 0x101 JUMP JUMPDEST CALLDATASIZE PUSH2 0x101 JUMPI CALLER PUSH20 0xFFFFFFFFFFFFFFFFFFFFFFFFFFFFFFFFFFFFFFFF AND PUSH32 0x90890809C654F11D6E72A28FA60149770A0D11EC6C92319D6CEB2BB0A4EA1A15 CALLVALUE SELFBALANCE PUSH1 0x40 MLOAD PUSH2 0xF7 SWAP3 SWAP2 SWAP1 PUSH2 0x11E4 JUMP JUMPDEST PUSH1 0x40 MLOAD DUP1 SWAP2 SUB SWAP1 LOG2 STOP JUMPDEST PUSH0 DUP1 REVERT JUMPDEST CALLVALUE DUP1 ISZERO PUSH2 0x110 JUMPI PUSH0 DUP1 REVERT JUMPDEST POP PUSH2 0x12B PUSH1 0x4 DUP1 CALLDATASIZE SUB DUP2 ADD SWAP1 PUSH2 0x126 SWAP2 SWAP1 PUSH2 0x1246 JUMP JUMPDEST PUSH2 0x357 JUMP JUMPDEST PUSH1 0x40 MLOAD PUSH2 0x138 SWAP2 SWAP1 PUSH2 0x12B0 JUMP JUMPDEST PUSH1 0x40 MLOAD DUP1 SWAP2 SUB SWAP1 RETURN JUMPDEST CALLVALUE DUP1 ISZERO PUSH2 0x14C JUMPI PUSH0 DUP1 REVERT JUMPDEST POP PUSH2 0x167 PUSH1 0x4 DUP1 CALLDATASIZE SUB DUP2 ADD SWAP1 PUSH2 0x162 SWAP2 SWAP1 PUSH2 0x1246 JUMP JUMPDEST PUSH2 0x391 JUMP JUMPDEST STOP JUMPDEST CALLVALUE DUP1 ISZERO PUSH2 0x174 JUMPI PUSH0 DUP1 REVERT JUMPDEST POP PUSH2 0x17D PUSH2 0x64F JUMP JUMPDEST PUSH1 0x40 MLOAD PUSH2 0x18A SWAP2 SWAP1 PUSH2 0x12C9 JUMP JUMPDEST PUSH1 0x40 MLOAD DUP1 SWAP2 SUB SWAP1 RETURN JUMPDEST CALLVALUE DUP1 ISZERO PUSH2 0x19E JUMPI PUSH0 DUP1 REVERT JUMPDEST POP PUSH2 0x1B9 PUSH1 0x4 DUP1 CALLDATASIZE SUB DUP2 ADD SWAP1 PUSH2 0x1B4 SWAP2 SWAP1 PUSH2 0x130C JUMP JUMPDEST PUSH2 0x65B JUMP JUMPDEST PUSH1 0x40 MLOAD PUSH2 0x1C6 SWAP2 SWAP1 PUSH2 0x1351 JUMP JUMPDEST PUSH1 0x40 MLOAD DUP1 SWAP2 SUB SWAP1 RETURN JUMPDEST CALLVALUE DUP1 ISZERO PUSH2 0x1DA JUMPI PUSH0 DUP1 REVERT JUMPDEST POP PUSH2 0x1F5 PUSH1 0x4 DUP1 CALLDATASIZE SUB DUP2 ADD SWAP1 PUSH2 0x1F0 SWAP2 SWAP1 PUSH2 0x1246 JUMP JUMPDEST PUSH2 0x678 JUMP JUMPDEST PUSH1 0x40 MLOAD PUSH2 0x206 SWAP6 SWAP5 SWAP4 SWAP3 SWAP2 SWAP1 PUSH2 0x13DA JUMP JUMPDEST PUSH1 0x40 MLOAD DUP1 SWAP2 SUB SWAP1 RETURN JUMPDEST CALLVALUE DUP1 ISZERO PUSH2 0x21A JUMPI PUSH0 DUP1 REVERT JUMPDEST POP PUSH2 0x235 PUSH1 0x4 DUP1 CALLDATASIZE SUB DUP2 ADD SWAP1 PUSH2 0x230 SWAP2 SWAP1 PUSH2 0x1432 JUMP JUMPDEST PUSH2 0x781 JUMP JUMPDEST PUSH1 0x40 MLOAD PUSH2 0x242 SWAP2 SWAP1 PUSH2 0x1351 JUMP JUMPDEST PUSH1 0x40 MLOAD DUP1 SWAP2 SUB SWAP1 RETURN JUMPDEST CALLVALUE DUP1 ISZERO PUSH2 0x256 JUMPI PUSH0 DUP1 REVERT JUMPDEST POP PUSH2 0x271 PUSH1 0x4 DUP1 CALLDATASIZE SUB DUP2 ADD SWAP1 PUSH2 0x26C SWAP2 SWAP1 PUSH2 0x1246 JUMP JUMPDEST PUSH2 0x7AB JUMP JUMPDEST PUSH1 0x40 MLOAD PUSH2 0x282 SWAP6 SWAP5 SWAP4 SWAP3 SWAP2 SWAP1 PUSH2 0x13DA JUMP JUMPDEST PUSH1 0x40 MLOAD DUP1 SWAP2 SUB SWAP1 RETURN JUMPDEST CALLVALUE DUP1 ISZERO PUSH2 0x296 JUMPI PUSH0 DUP1 REVERT JUMPDEST POP PUSH2 0x29F PUSH2 0x89D JUMP JUMPDEST PUSH1 0x40 MLOAD PUSH2 0x2AC SWAP2 SWAP1 PUSH2 0x1527 JUMP JUMPDEST PUSH1 0x40 MLOAD DUP1 SWAP2 SUB SWAP1 RETURN JUMPDEST CALLVALUE DUP1 ISZERO PUSH2 0x2C0 JUMPI PUSH0 DUP1 REVERT JUMPDEST POP PUSH2 0x2DB PUSH1 0x4 DUP1 CALLDATASIZE SUB DUP2 ADD SWAP1 PUSH2 0x2D6 SWAP2 SWAP1 PUSH2 0x1246 JUMP JUMPDEST PUSH2 0x927 JUMP JUMPDEST STOP JUMPDEST CALLVALUE DUP1 ISZERO PUSH2 0x2E8 JUMPI PUSH0 DUP1 REVERT JUMPDEST POP PUSH2 0x303 PUSH1 0x4 DUP1 CALLDATASIZE SUB DUP2 ADD SWAP1 PUSH2 0x2FE SWAP2 SWAP1 PUSH2 0x1673 JUMP JUMPDEST PUSH2 0xCC9 JUMP JUMPDEST STOP JUMPDEST CALLVALUE DUP1 ISZERO PUSH2 0x310 JUMPI PUSH0 DUP1 REVERT JUMPDEST POP PUSH2 0x319 PUSH2 0xEBF JUMP JUMPDEST PUSH1 0x40 MLOAD PUSH2 0x326 SWAP2 SWAP1 PUSH2 0x12C9 JUMP JUMPDEST PUSH1 0x40 MLOAD DUP1 SWAP2 SUB SWAP1 RETURN JUMPDEST CALLVALUE DUP1 ISZERO PUSH2 0x33A JUMPI PUSH0 DUP1 REVERT JUMPDEST POP PUSH2 0x355 PUSH1 0x4 DUP1 CALLDATASIZE SUB DUP2 ADD SWAP1 PUSH2 0x350 SWAP2 SWAP1 PUSH2 0x1246 JUMP JUMPDEST PUSH2 0xEC5 JUMP JUMPDEST STOP JUMPDEST PUSH0 DUP2 DUP2 SLOAD DUP2 LT PUSH2 0x365 JUMPI PUSH0 DUP1 REVERT JUMPDEST SWAP1 PUSH0 MSTORE PUSH1 0x20 PUSH0 KECCAK256 ADD PUSH0 SWAP2 POP SLOAD SWAP1 PUSH2 0x100 EXP SWAP1 DIV PUSH20 0xFFFFFFFFFFFFFFFFFFFFFFFFFFFFFFFFFFFFFFFF AND DUP2 JUMP JUMPDEST PUSH1 0x1 PUSH0 CALLER PUSH20 0xFFFFFFFFFFFFFFFFFFFFFFFFFFFFFFFFFFFFFFFF AND PUSH20 0xFFFFFFFFFFFFFFFFFFFFFFFFFFFFFFFFFFFFFFFF AND DUP2 MSTORE PUSH1 0x20 ADD SWAP1 DUP2 MSTORE PUSH1 0x20 ADD PUSH0 KECCAK256 PUSH0 SWAP1 SLOAD SWAP1 PUSH2 0x100 EXP SWAP1 DIV PUSH1 0xFF AND PUSH2 0x41A JUMPI PUSH1 0x40 MLOAD PUSH32 0x8C379A000000000000000000000000000000000000000000000000000000000 DUP2 MSTORE PUSH1 0x4 ADD PUSH2 0x411 SWAP1 PUSH2 0x1739 JUMP JUMPDEST PUSH1 0x40 MLOAD DUP1 SWAP2 SUB SWAP1 REVERT JUMPDEST DUP1 PUSH1 0x4 DUP1 SLOAD SWAP1 POP DUP2 LT PUSH2 0x462 JUMPI PUSH1 0x40 MLOAD PUSH32 0x8C379A000000000000000000000000000000000000000000000000000000000 DUP2 MSTORE PUSH1 0x4 ADD PUSH2 0x459 SWAP1 PUSH2 0x17A1 JUMP JUMPDEST PUSH1 0x40 MLOAD DUP1 SWAP2 SUB SWAP1 REVERT JUMPDEST DUP2 PUSH1 0x4 DUP2 DUP2 SLOAD DUP2 LT PUSH2 0x477 JUMPI PUSH2 0x476 PUSH2 0x17BF JUMP JUMPDEST JUMPDEST SWAP1 PUSH0 MSTORE PUSH1 0x20 PUSH0 KECCAK256 SWAP1 PUSH1 0x5 MUL ADD PUSH1 0x3 ADD PUSH0 SWAP1 SLOAD SWAP1 PUSH2 0x100 EXP SWAP1 DIV PUSH1 0xFF AND ISZERO PUSH2 0x4D3 JUMPI PUSH1 0x40 MLOAD PUSH32 0x8C379A000000000000000000000000000000000000000000000000000000000 DUP2 MSTORE PUSH1 0x4 ADD PUSH2 0x4CA SWAP1 PUSH2 0x1836 JUMP JUMPDEST PUSH1 0x40 MLOAD DUP1 SWAP2 SUB SWAP1 REVERT JUMPDEST PUSH1 0x3 PUSH0 DUP5 DUP2 MSTORE PUSH1 0x20 ADD SWAP1 DUP2 MSTORE PUSH1 0x20 ADD PUSH0 KECCAK256 PUSH0 CALLER PUSH20 0xFFFFFFFFFFFFFFFFFFFFFFFFFFFFFFFFFFFFFFFF AND PUSH20 0xFFFFFFFFFFFFFFFFFFFFFFFFFFFFFFFFFFFFFFFF AND DUP2 MSTORE PUSH1 0x20 ADD SWAP1 DUP2 MSTORE PUSH1 0x20 ADD PUSH0 KECCAK256 PUSH0 SWAP1 SLOAD SWAP1 PUSH2 0x100 EXP SWAP1 DIV PUSH1 0xFF AND PUSH2 0x56B JUMPI PUSH1 0x40 MLOAD PUSH32 0x8C379A000000000000000000000000000000000000000000000000000000000 DUP2 MSTORE PUSH1 0x4 ADD PUSH2 0x562 SWAP1 PUSH2 0x189E JUMP JUMPDEST PUSH1 0x40 MLOAD DUP1 SWAP2 SUB SWAP1 REVERT JUMPDEST PUSH0 PUSH1 0x3 PUSH0 DUP6 DUP2 MSTORE PUSH1 0x20 ADD SWAP1 DUP2 MSTORE PUSH1 0x20 ADD PUSH0 KECCAK256 PUSH0 CALLER PUSH20 0xFFFFFFFFFFFFFFFFFFFFFFFFFFFFFFFFFFFFFFFF AND PUSH20 0xFFFFFFFFFFFFFFFFFFFFFFFFFFFFFFFFFFFFFFFF AND DUP2 MSTORE PUSH1 0x20 ADD SWAP1 DUP2 MSTORE PUSH1 0x20 ADD PUSH0 KECCAK256 PUSH0 PUSH2 0x100 EXP DUP2 SLOAD DUP2 PUSH1 0xFF MUL NOT AND SWAP1 DUP4 ISZERO ISZERO MUL OR SWAP1 SSTORE POP PUSH1 0x4 DUP4 DUP2 SLOAD DUP2 LT PUSH2 0x5E2 JUMPI PUSH2 0x5E1 PUSH2 0x17BF JUMP JUMPDEST JUMPDEST SWAP1 PUSH0 MSTORE PUSH1 0x20 PUSH0 KECCAK256 SWAP1 PUSH1 0x5 MUL ADD PUSH1 0x4 ADD PUSH0 DUP2 SLOAD DUP1 SWAP3 SWAP2 SWAP1 PUSH2 0x601 SWAP1 PUSH2 0x18E9 JUMP JUMPDEST SWAP2 SWAP1 POP SSTORE POP DUP3 CALLER PUSH20 0xFFFFFFFFFFFFFFFFFFFFFFFFFFFFFFFFFFFFFFFF AND PUSH32 0xF0DCA620E2E81F7841D07BCC105E1704FB01475B278A9D4C236E1C62945EDD55 PUSH1 0x40 MLOAD PUSH1 0x40 MLOAD DUP1 SWAP2 SUB SWAP1 LOG3 POP POP POP JUMP JUMPDEST PUSH0 PUSH1 0x4 DUP1 SLOAD SWAP1 POP SWAP1 POP SWAP1 JUMP JUMPDEST PUSH1 0x1 PUSH1 0x20 MSTORE DUP1 PUSH0 MSTORE PUSH1 0x40 PUSH0 KECCAK256 PUSH0 SWAP2 POP SLOAD SWAP1 PUSH2 0x100 EXP SWAP1 DIV PUSH1 0xFF AND DUP2 JUMP JUMPDEST PUSH0 DUP1 PUSH1 0x60 PUSH0 DUP1 PUSH0 PUSH1 0x4 DUP8 DUP2 SLOAD DUP2 LT PUSH2 0x693 JUMPI PUSH2 0x692 PUSH2 0x17BF JUMP JUMPDEST JUMPDEST SWAP1 PUSH0 MSTORE PUSH1 0x20 PUSH0 KECCAK256 SWAP1 PUSH1 0x5 MUL ADD SWAP1 POP DUP1 PUSH0 ADD PUSH0 SWAP1 SLOAD SWAP1 PUSH2 0x100 EXP SWAP1 DIV PUSH20 0xFFFFFFFFFFFFFFFFFFFFFFFFFFFFFFFFFFFFFFFF AND DUP2 PUSH1 0x1 ADD SLOAD DUP3 PUSH1 0x2 ADD DUP4 PUSH1 0x3 ADD PUSH0 SWAP1 SLOAD SWAP1 PUSH2 0x100 EXP SWAP1 DIV PUSH1 0xFF AND DUP5 PUSH1 0x4 ADD SLOAD DUP3 DUP1 SLOAD PUSH2 0x6EF SWAP1 PUSH2 0x193D JUMP JUMPDEST DUP1 PUSH1 0x1F ADD PUSH1 0x20 DUP1 SWAP2 DIV MUL PUSH1 0x20 ADD PUSH1 0x40 MLOAD SWAP1 DUP2 ADD PUSH1 0x40 MSTORE DUP1 SWAP3 SWAP2 SWAP1 DUP2 DUP2 MSTORE PUSH1 0x20 ADD DUP3 DUP1 SLOAD PUSH2 0x71B SWAP1 PUSH2 0x193D JUMP JUMPDEST DUP1 ISZERO PUSH2 0x766 JUMPI DUP1 PUSH1 0x1F LT PUSH2 0x73D JUMPI PUSH2 0x100 DUP1 DUP4 SLOAD DIV MUL DUP4 MSTORE SWAP2 PUSH1 0x20 ADD SWAP2 PUSH2 0x766 JUMP JUMPDEST DUP3 ADD SWAP2 SWAP1 PUSH0 MSTORE PUSH1 0x20 PUSH0 KECCAK256 SWAP1 JUMPDEST DUP2 SLOAD DUP2 MSTORE SWAP1 PUSH1 0x1 ADD SWAP1 PUSH1 0x20 ADD DUP1 DUP4 GT PUSH2 0x749 JUMPI DUP3 SWAP1 SUB PUSH1 0x1F AND DUP3 ADD SWAP2 JUMPDEST POP POP POP POP POP SWAP3 POP SWAP6 POP SWAP6 POP SWAP6 POP SWAP6 POP SWAP6 POP POP SWAP2 SWAP4 SWAP6 SWAP1 SWAP3 SWAP5 POP JUMP JUMPDEST PUSH1 0x3 PUSH1 0x20 MSTORE DUP2 PUSH0 MSTORE PUSH1 0x40 PUSH0 KECCAK256 PUSH1 0x20 MSTORE DUP1 PUSH0 MSTORE PUSH1 0x40 PUSH0 KECCAK256 PUSH0 SWAP2 POP SWAP2 POP SWAP1 SLOAD SWAP1 PUSH2 0x100 EXP SWAP1 DIV PUSH1 0xFF AND DUP2 JUMP JUMPDEST PUSH1 0x4 DUP2 DUP2 SLOAD DUP2 LT PUSH2 0x7BA JUMPI PUSH0 DUP1 REVERT JUMPDEST SWAP1 PUSH0 MSTORE PUSH1 0x20 PUSH0 KECCAK256 SWAP1 PUSH1 0x5 MUL ADD PUSH0 SWAP2 POP SWAP1 POP DUP1 PUSH0 ADD PUSH0 SWAP1 SLOAD SWAP1 PUSH2 0x100 EXP SWAP1 DIV PUSH20 0xFFFFFFFFFFFFFFFFFFFFFFFFFFFFFFFFFFFFFFFF AND SWAP1 DUP1 PUSH1 0x1 ADD SLOAD SWAP1 DUP1 PUSH1 0x2 ADD DUP1 SLOAD PUSH2 0x804 SWAP1 PUSH2 0x193D JUMP JUMPDEST DUP1 PUSH1 0x1F ADD PUSH1 0x20 DUP1 SWAP2 DIV MUL PUSH1 0x20 ADD PUSH1 0x40 MLOAD SWAP1 DUP2 ADD PUSH1 0x40 MSTORE DUP1 SWAP3 SWAP2 SWAP1 DUP2 DUP2 MSTORE PUSH1 0x20 ADD DUP3 DUP1 SLOAD PUSH2 0x830 SWAP1 PUSH2 0x193D JUMP JUMPDEST DUP1 ISZERO PUSH2 0x87B JUMPI DUP1 PUSH1 0x1F LT PUSH2 0x852 JUMPI PUSH2 0x100 DUP1 DUP4 SLOAD DIV MUL DUP4 MSTORE SWAP2 PUSH1 0x20 ADD SWAP2 PUSH2 0x87B JUMP JUMPDEST DUP3 ADD SWAP2 SWAP1 PUSH0 MSTORE PUSH1 0x20 PUSH0 KECCAK256 SWAP1 JUMPDEST DUP2 SLOAD DUP2 MSTORE SWAP1 PUSH1 0x1 ADD SWAP1 PUSH1 0x20 ADD DUP1 DUP4 GT PUSH2 0x85E JUMPI DUP3 SWAP1 SUB PUSH1 0x1F AND DUP3 ADD SWAP2 JUMPDEST POP POP POP POP POP SWAP1 DUP1 PUSH1 0x3 ADD PUSH0 SWAP1 SLOAD SWAP1 PUSH2 0x100 EXP SWAP1 DIV PUSH1 0xFF AND SWAP1 DUP1 PUSH1 0x4 ADD SLOAD SWAP1 POP DUP6 JUMP JUMPDEST PUSH1 0x60 PUSH0 DUP1 SLOAD DUP1 PUSH1 0x20 MUL PUSH1 0x20 ADD PUSH1 0x40 MLOAD SWAP1 DUP2 ADD PUSH1 0x40 MSTORE DUP1 SWAP3 SWAP2 SWAP1 DUP2 DUP2 MSTORE PUSH1 0x20 ADD DUP3 DUP1 SLOAD DUP1 ISZERO PUSH2 0x91D JUMPI PUSH1 0x20 MUL DUP3 ADD SWAP2 SWAP1 PUSH0 MSTORE PUSH1 0x20 PUSH0 KECCAK256 SWAP1 JUMPDEST DUP2 PUSH0 SWAP1 SLOAD SWAP1 PUSH2 0x100 EXP SWAP1 DIV PUSH20 0xFFFFFFFFFFFFFFFFFFFFFFFFFFFFFFFFFFFFFFFF AND PUSH20 0xFFFFFFFFFFFFFFFFFFFFFFFFFFFFFFFFFFFFFFFF AND DUP2 MSTORE PUSH1 0x20 ADD SWAP1 PUSH1 0x1 ADD SWAP1 DUP1 DUP4 GT PUSH2 0x8D4 JUMPI JUMPDEST POP POP POP POP POP SWAP1 POP SWAP1 JUMP JUMPDEST PUSH1 0x1 PUSH0 CALLER PUSH20 0xFFFFFFFFFFFFFFFFFFFFFFFFFFFFFFFFFFFFFFFF AND PUSH20 0xFFFFFFFFFFFFFFFFFFFFFFFFFFFFFFFFFFFFFFFF AND DUP2 MSTORE PUSH1 0x20 ADD SWAP1 DUP2 MSTORE PUSH1 0x20 ADD PUSH0 KECCAK256 PUSH0 SWAP1 SLOAD SWAP1 PUSH2 0x100 EXP SWAP1 DIV PUSH1 0xFF AND PUSH2 0x9B0 JUMPI PUSH1 0x40 MLOAD PUSH32 0x8C379A000000000000000000000000000000000000000000000000000000000 DUP2 MSTORE PUSH1 0x4 ADD PUSH2 0x9A7 SWAP1 PUSH2 0x1739 JUMP JUMPDEST PUSH1 0x40 MLOAD DUP1 SWAP2 SUB SWAP1 REVERT JUMPDEST DUP1 PUSH1 0x4 DUP1 SLOAD SWAP1 POP DUP2 LT PUSH2 0x9F8 JUMPI PUSH1 0x40 MLOAD PUSH32 0x8C379A000000000000000000000000000000000000000000000000000000000 DUP2 MSTORE PUSH1 0x4 ADD PUSH2 0x9EF SWAP1 PUSH2 0x17A1 JUMP JUMPDEST PUSH1 0x40 MLOAD DUP1 SWAP2 SUB SWAP1 REVERT JUMPDEST DUP2 PUSH1 0x4 DUP2 DUP2 SLOAD DUP2 LT PUSH2 0xA0D JUMPI PUSH2 0xA0C PUSH2 0x17BF JUMP JUMPDEST JUMPDEST SWAP1 PUSH0 MSTORE PUSH1 0x20 PUSH0 KECCAK256 SWAP1 PUSH1 0x5 MUL ADD PUSH1 0x3 ADD PUSH0 SWAP1 SLOAD SWAP1 PUSH2 0x100 EXP SWAP1 DIV PUSH1 0xFF AND ISZERO PUSH2 0xA69 JUMPI PUSH1 0x40 MLOAD PUSH32 0x8C379A000000000000000000000000000000000000000000000000000000000 DUP2 MSTORE PUSH1 0x4 ADD PUSH2 0xA60 SWAP1 PUSH2 0x1836 JUMP JUMPDEST PUSH1 0x40 MLOAD DUP1 SWAP2 SUB SWAP1 REVERT JUMPDEST DUP3 PUSH1 0x3 PUSH0 DUP3 DUP2 MSTORE PUSH1 0x20 ADD SWAP1 DUP2 MSTORE PUSH1 0x20 ADD PUSH0 KECCAK256 PUSH0 CALLER PUSH20 0xFFFFFFFFFFFFFFFFFFFFFFFFFFFFFFFFFFFFFFFF AND PUSH20 0xFFFFFFFFFFFFFFFFFFFFFFFFFFFFFFFFFFFFFFFF AND DUP2 MSTORE PUSH1 0x20 ADD SWAP1 DUP2 MSTORE PUSH1 0x20 ADD PUSH0 KECCAK256 PUSH0 SWAP1 SLOAD SWAP1 PUSH2 0x100 EXP SWAP1 DIV PUSH1 0xFF AND ISZERO PUSH2 0xB03 JUMPI PUSH1 0x40 MLOAD PUSH32 0x8C379A000000000000000000000000000000000000000000000000000000000 DUP2 MSTORE PUSH1 0x4 ADD PUSH2 0xAFA SWAP1 PUSH2 0x19B7 JUMP JUMPDEST PUSH1 0x40 MLOAD DUP1 SWAP2 SUB SWAP1 REVERT JUMPDEST PUSH1 0x2 SLOAD PUSH1 0x4 DUP6 DUP2 SLOAD DUP2 LT PUSH2 0xB1A JUMPI PUSH2 0xB19 PUSH2 0x17BF JUMP JUMPDEST JUMPDEST SWAP1 PUSH0 MSTORE PUSH1 0x20 PUSH0 KECCAK256 SWAP1 PUSH1 0x5 MUL ADD PUSH1 0x4 ADD SLOAD LT ISZERO PUSH2 0xB6B JUMPI PUSH1 0x40 MLOAD PUSH32 0x8C379A000000000000000000000000000000000000000000000000000000000 DUP2 MSTORE PUSH1 0x4 ADD PUSH2 0xB62 SWAP1 PUSH2 0x1A1F JUMP JUMPDEST PUSH1 0x40 MLOAD DUP1 SWAP2 SUB SWAP1 REVERT JUMPDEST PUSH0 PUSH1 0x4 DUP6 DUP2 SLOAD DUP2 LT PUSH2 0xB80 JUMPI PUSH2 0xB7F PUSH2 0x17BF JUMP JUMPDEST JUMPDEST SWAP1 PUSH0 MSTORE PUSH1 0x20 PUSH0 KECCAK256 SWAP1 PUSH1 0x5 MUL ADD SWAP1 POP PUSH1 0x1 DUP2 PUSH1 0x3 ADD PUSH0 PUSH2 0x100 EXP DUP2 SLOAD DUP2 PUSH1 0xFF MUL NOT AND SWAP1 DUP4 ISZERO ISZERO MUL OR SWAP1 SSTORE POP PUSH0 DUP2 PUSH0 ADD PUSH0 SWAP1 SLOAD SWAP1 PUSH2 0x100 EXP SWAP1 DIV PUSH20 0xFFFFFFFFFFFFFFFFFFFFFFFFFFFFFFFFFFFFFFFF AND PUSH20 0xFFFFFFFFFFFFFFFFFFFFFFFFFFFFFFFFFFFFFFFF AND DUP3 PUSH1 0x1 ADD SLOAD DUP4 PUSH1 0x2 ADD PUSH1 0x40 MLOAD PUSH2 0xBFA SWAP2 SWAP1 PUSH2 0x1AD9 JUMP JUMPDEST PUSH0 PUSH1 0x40 MLOAD DUP1 DUP4 SUB DUP2 DUP6 DUP8 GAS CALL SWAP3 POP POP POP RETURNDATASIZE DUP1 PUSH0 DUP2 EQ PUSH2 0xC34 JUMPI PUSH1 0x40 MLOAD SWAP2 POP PUSH1 0x1F NOT PUSH1 0x3F RETURNDATASIZE ADD AND DUP3 ADD PUSH1 0x40 MSTORE RETURNDATASIZE DUP3 MSTORE RETURNDATASIZE PUSH0 PUSH1 0x20 DUP5 ADD RETURNDATACOPY PUSH2 0xC39 JUMP JUMPDEST PUSH1 0x60 SWAP2 POP JUMPDEST POP POP SWAP1 POP DUP1 PUSH2 0xC7D JUMPI PUSH1 0x40 MLOAD PUSH32 0x8C379A000000000000000000000000000000000000000000000000000000000 DUP2 MSTORE PUSH1 0x4 ADD PUSH2 0xC74 SWAP1 PUSH2 0x1B39 JUMP JUMPDEST PUSH1 0x40 MLOAD DUP1 SWAP2 SUB SWAP1 REVERT JUMPDEST DUP6 CALLER PUSH20 0xFFFFFFFFFFFFFFFFFFFFFFFFFFFFFFFFFFFFFFFF AND PUSH32 0x5445F318F4F5FCFB66592E68E0CC5822AA15664039BD5F0FFDE24C5A8142B1AC PUSH1 0x40 MLOAD PUSH1 0x40 MLOAD DUP1 SWAP2 SUB SWAP1 LOG3 POP POP POP POP POP POP JUMP JUMPDEST PUSH1 0x1 PUSH0 CALLER PUSH20 0xFFFFFFFFFFFFFFFFFFFFFFFFFFFFFFFFFFFFFFFF AND PUSH20 0xFFFFFFFFFFFFFFFFFFFFFFFFFFFFFFFFFFFFFFFF AND DUP2 MSTORE PUSH1 0x20 ADD SWAP1 DUP2 MSTORE PUSH1 0x20 ADD PUSH0 KECCAK256 PUSH0 SWAP1 SLOAD SWAP1 PUSH2 0x100 EXP SWAP1 DIV PUSH1 0xFF AND PUSH2 0xD52 JUMPI PUSH1 0x40 MLOAD PUSH32 0x8C379A000000000000000000000000000000000000000000000000000000000 DUP2 MSTORE PUSH1 0x4 ADD PUSH2 0xD49 SWAP1 PUSH2 0x1739 JUMP JUMPDEST PUSH1 0x40 MLOAD DUP1 SWAP2 SUB SWAP1 REVERT JUMPDEST PUSH0 PUSH1 0x4 DUP1 SLOAD SWAP1 POP SWAP1 POP PUSH1 0x4 PUSH1 0x40 MLOAD DUP1 PUSH1 0xA0 ADD PUSH1 0x40 MSTORE DUP1 DUP7 PUSH20 0xFFFFFFFFFFFFFFFFFFFFFFFFFFFFFFFFFFFFFFFF AND DUP2 MSTORE PUSH1 0x20 ADD DUP6 DUP2 MSTORE PUSH1 0x20 ADD DUP5 DUP2 MSTORE PUSH1 0x20 ADD PUSH0 ISZERO ISZERO DUP2 MSTORE PUSH1 0x20 ADD PUSH0 DUP2 MSTORE POP SWAP1 DUP1 PUSH1 0x1 DUP2 SLOAD ADD DUP1 DUP3 SSTORE DUP1 SWAP2 POP POP PUSH1 0x1 SWAP1 SUB SWAP1 PUSH0 MSTORE PUSH1 0x20 PUSH0 KECCAK256 SWAP1 PUSH1 0x5 MUL ADD PUSH0 SWAP1 SWAP2 SWAP1 SWAP2 SWAP1 SWAP2 POP PUSH0 DUP3 ADD MLOAD DUP2 PUSH0 ADD PUSH0 PUSH2 0x100 EXP DUP2 SLOAD DUP2 PUSH20 0xFFFFFFFFFFFFFFFFFFFFFFFFFFFFFFFFFFFFFFFF MUL NOT AND SWAP1 DUP4 PUSH20 0xFFFFFFFFFFFFFFFFFFFFFFFFFFFFFFFFFFFFFFFF AND MUL OR SWAP1 SSTORE POP PUSH1 0x20 DUP3 ADD MLOAD DUP2 PUSH1 0x1 ADD SSTORE PUSH1 0x40 DUP3 ADD MLOAD DUP2 PUSH1 0x2 ADD SWAP1 DUP2 PUSH2 0xE25 SWAP2 SWAP1 PUSH2 0x1CE2 JUMP JUMPDEST POP PUSH1 0x60 DUP3 ADD MLOAD DUP2 PUSH1 0x3 ADD PUSH0 PUSH2 0x100 EXP DUP2 SLOAD DUP2 PUSH1 0xFF MUL NOT AND SWAP1 DUP4 ISZERO ISZERO MUL OR SWAP1 SSTORE POP PUSH1 0x80 DUP3 ADD MLOAD DUP2 PUSH1 0x4 ADD SSTORE POP POP DUP4 PUSH20 0xFFFFFFFFFFFFFFFFFFFFFFFFFFFFFFFFFFFFFFFF AND DUP2 CALLER PUSH20 0xFFFFFFFFFFFFFFFFFFFFFFFFFFFFFFFFFFFFFFFF AND PUSH32 0xD5A05BF70715AD82A09A756320284A1B54C9FF74CD0F8CCE6219E79B563FE59D DUP7 DUP7 PUSH1 0x40 MLOAD PUSH2 0xEB1 SWAP3 SWAP2 SWAP1 PUSH2 0x1DB1 JUMP JUMPDEST PUSH1 0x40 MLOAD DUP1 SWAP2 SUB SWAP1 LOG4 POP POP POP POP JUMP JUMPDEST PUSH1 0x2 SLOAD DUP2 JUMP JUMPDEST PUSH1 0x1 PUSH0 CALLER PUSH20 0xFFFFFFFFFFFFFFFFFFFFFFFFFFFFFFFFFFFFFFFF AND PUSH20 0xFFFFFFFFFFFFFFFFFFFFFFFFFFFFFFFFFFFFFFFF AND DUP2 MSTORE PUSH1 0x20 ADD SWAP1 DUP2 MSTORE PUSH1 0x20 ADD PUSH0 KECCAK256 PUSH0 SWAP1 SLOAD SWAP1 PUSH2 0x100 EXP SWAP1 DIV PUSH1 0xFF AND PUSH2 0xF4E JUMPI PUSH1 0x40 MLOAD PUSH32 0x8C379A000000000000000000000000000000000000000000000000000000000 DUP2 MSTORE PUSH1 0x4 ADD PUSH2 0xF45 SWAP1 PUSH2 0x1739 JUMP JUMPDEST PUSH1 0x40 MLOAD DUP1 SWAP2 SUB SWAP1 REVERT JUMPDEST DUP1 PUSH1 0x4 DUP1 SLOAD SWAP1 POP DUP2 LT PUSH2 0xF96 JUMPI PUSH1 0x40 MLOAD PUSH32 0x8C379A000000000000000000000000000000000000000000000000000000000 DUP2 MSTORE PUSH1 0x4 ADD PUSH2 0xF8D SWAP1 PUSH2 0x17A1 JUMP JUMPDEST PUSH1 0x40 MLOAD DUP1 SWAP2 SUB SWAP1 REVERT JUMPDEST DUP2 PUSH1 0x4 DUP2 DUP2 SLOAD DUP2 LT PUSH2 0xFAB JUMPI PUSH2 0xFAA PUSH2 0x17BF JUMP JUMPDEST JUMPDEST SWAP1 PUSH0 MSTORE PUSH1 0x20 PUSH0 KECCAK256 SWAP1 PUSH1 0x5 MUL ADD PUSH1 0x3 ADD PUSH0 SWAP1 SLOAD SWAP1 PUSH2 0x100 EXP SWAP1 DIV PUSH1 0xFF AND ISZERO PUSH2 0x1007 JUMPI PUSH1 0x40 MLOAD PUSH32 0x8C379A000000000000000000000000000000000000000000000000000000000 DUP2 MSTORE PUSH1 0x4 ADD PUSH2 0xFFE SWAP1 PUSH2 0x1836 JUMP JUMPDEST PUSH1 0x40 MLOAD DUP1 SWAP2 SUB SWAP1 REVERT JUMPDEST PUSH1 0x2 SLOAD PUSH1 0x4 DUP5 DUP2 SLOAD DUP2 LT PUSH2 0x101E JUMPI PUSH2 0x101D PUSH2 0x17BF JUMP JUMPDEST JUMPDEST SWAP1 PUSH0 MSTORE PUSH1 0x20 PUSH0 KECCAK256 SWAP1 PUSH1 0x5 MUL ADD PUSH1 0x4 ADD SLOAD LT ISZERO PUSH2 0x106F JUMPI PUSH1 0x40 MLOAD PUSH32 0x8C379A000000000000000000000000000000000000000000000000000000000 DUP2 MSTORE PUSH1 0x4 ADD PUSH2 0x1066 SWAP1 PUSH2 0x1A1F JUMP JUMPDEST PUSH1 0x40 MLOAD DUP1 SWAP2 SUB SWAP1 REVERT JUMPDEST PUSH0 PUSH1 0x4 DUP5 DUP2 SLOAD DUP2 LT PUSH2 0x1084 JUMPI PUSH2 0x1083 PUSH2 0x17BF JUMP JUMPDEST JUMPDEST SWAP1 PUSH0 MSTORE PUSH1 0x20 PUSH0 KECCAK256 SWAP1 PUSH1 0x5 MUL ADD SWAP1 POP PUSH1 0x1 DUP2 PUSH1 0x3 ADD PUSH0 PUSH2 0x100 EXP DUP2 SLOAD DUP2 PUSH1 0xFF MUL NOT AND SWAP1 DUP4 ISZERO ISZERO MUL OR SWAP1 SSTORE POP PUSH0 DUP2 PUSH0 ADD PUSH0 SWAP1 SLOAD SWAP1 PUSH2 0x100 EXP SWAP1 DIV PUSH20 0xFFFFFFFFFFFFFFFFFFFFFFFFFFFFFFFFFFFFFFFF AND PUSH20 0xFFFFFFFFFFFFFFFFFFFFFFFFFFFFFFFFFFFFFFFF AND DUP3 PUSH1 0x1 ADD SLOAD DUP4 PUSH1 0x2 ADD PUSH1 0x40 MLOAD PUSH2 0x10FE SWAP2 SWAP1 PUSH2 0x1AD9 JUMP JUMPDEST PUSH0 PUSH1 0x40 MLOAD DUP1 DUP4 SUB DUP2 DUP6 DUP8 GAS CALL SWAP3 POP POP POP RETURNDATASIZE DUP1 PUSH0 DUP2 EQ PUSH2 0x1138 JUMPI PUSH1 0x40 MLOAD SWAP2 POP PUSH1 0x1F NOT PUSH1 0x3F RETURNDATASIZE ADD AND DUP3 ADD PUSH1 0x40 MSTORE RETURNDATASIZE DUP3 MSTORE RETURNDATASIZE PUSH0 PUSH1 0x20 DUP5 ADD RETURNDATACOPY PUSH2 0x113D JUMP JUMPDEST PUSH1 0x60 SWAP2 POP JUMPDEST POP POP SWAP1 POP DUP1 PUSH2 0x1181 JUMPI PUSH1 0x40 MLOAD PUSH32 0x8C379A000000000000000000000000000000000000000000000000000000000 DUP2 MSTORE PUSH1 0x4 ADD PUSH2 0x1178 SWAP1 PUSH2 0x1B39 JUMP JUMPDEST PUSH1 0x40 MLOAD DUP1 SWAP2 SUB SWAP1 REVERT JUMPDEST DUP5 CALLER PUSH20 0xFFFFFFFFFFFFFFFFFFFFFFFFFFFFFFFFFFFFFFFF AND PUSH32 0x5445F318F4F5FCFB66592E68E0CC5822AA15664039BD5F0FFDE24C5A8142B1AC PUSH1 0x40 MLOAD PUSH1 0x40 MLOAD DUP1 SWAP2 SUB SWAP1 LOG3 POP POP POP POP POP JUMP JUMPDEST PUSH0 DUP2 SWAP1 POP SWAP2 SWAP1 POP JUMP JUMPDEST PUSH2 0x11DE DUP2 PUSH2 0x11CC JUMP JUMPDEST DUP3 MSTORE POP POP JUMP JUMPDEST PUSH0 PUSH1 0x40 DUP3 ADD SWAP1 POP PUSH2 0x11F7 PUSH0 DUP4 ADD DUP6 PUSH2 0x11D5 JUMP JUMPDEST PUSH2 0x1204 PUSH1 0x20 DUP4 ADD DUP5 PUSH2 0x11D5 JUMP JUMPDEST SWAP4 SWAP3 POP POP POP JUMP JUMPDEST PUSH0 PUSH1 0x40 MLOAD SWAP1 POP SWAP1 JUMP JUMPDEST PUSH0 DUP1 REVERT JUMPDEST PUSH0 DUP1 REVERT JUMPDEST PUSH2 0x1225 DUP2 PUSH2 0x11CC JUMP JUMPDEST DUP2 EQ PUSH2 0x122F JUMPI PUSH0 DUP1 REVERT JUMPDEST POP JUMP JUMPDEST PUSH0 DUP2 CALLDATALOAD SWAP1 POP PUSH2 0x1240 DUP2 PUSH2 0x121C JUMP JUMPDEST SWAP3 SWAP2 POP POP JUMP JUMPDEST PUSH0 PUSH1 0x20 DUP3 DUP5 SUB SLT ISZERO PUSH2 0x125B JUMPI PUSH2 0x125A PUSH2 0x1214 JUMP JUMPDEST JUMPDEST PUSH0 PUSH2 0x1268 DUP5 DUP3 DUP6 ADD PUSH2 0x1232 JUMP JUMPDEST SWAP2 POP POP SWAP3 SWAP2 POP POP JUMP JUMPDEST PUSH0 PUSH20 0xFFFFFFFFFFFFFFFFFFFFFFFFFFFFFFFFFFFFFFFF DUP3 AND SWAP1 POP SWAP2 SWAP1 POP JUMP JUMPDEST PUSH0 PUSH2 0x129A DUP3 PUSH2 0x1271 JUMP JUMPDEST SWAP1 POP SWAP2 SWAP1 POP JUMP JUMPDEST PUSH2 0x12AA DUP2 PUSH2 0x1290 JUMP JUMPDEST DUP3 MSTORE POP POP JUMP JUMPDEST PUSH0 PUSH1 0x20 DUP3 ADD SWAP1 POP PUSH2 0x12C3 PUSH0 DUP4 ADD DUP5 PUSH2 0x12A1 JUMP JUMPDEST SWAP3 SWAP2 POP POP JUMP JUMPDEST PUSH0 PUSH1 0x20 DUP3 ADD SWAP1 POP PUSH2 0x12DC PUSH0 DUP4 ADD DUP5 PUSH2 0x11D5 JUMP JUMPDEST SWAP3 SWAP2 POP POP JUMP JUMPDEST PUSH2 0x12EB DUP2 PUSH2 0x1290 JUMP JUMPDEST DUP2 EQ PUSH2 0x12F5 JUMPI PUSH0 DUP1 REVERT JUMPDEST POP JUMP JUMPDEST PUSH0 DUP2 CALLDATALOAD SWAP1 POP PUSH2 0x1306 DUP2 PUSH2 0x12E2 JUMP JUMPDEST SWAP3 SWAP2 POP POP JUMP JUMPDEST PUSH0 PUSH1 0x20 DUP3 DUP5 SUB SLT ISZERO PUSH2 0x1321 JUMPI PUSH2 0x1320 PUSH2 0x1214 JUMP JUMPDEST JUMPDEST PUSH0 PUSH2 0x132E DUP5 DUP3 DUP6 ADD PUSH2 0x12F8 JUMP JUMPDEST SWAP2 POP POP SWAP3 SWAP2 POP POP JUMP JUMPDEST PUSH0 DUP2 ISZERO ISZERO SWAP1 POP SWAP2 SWAP1 POP JUMP JUMPDEST PUSH2 0x134B DUP2 PUSH2 0x1337 JUMP JUMPDEST DUP3 MSTORE POP POP JUMP JUMPDEST PUSH0 PUSH1 0x20 DUP3 ADD SWAP1 POP PUSH2 0x1364 PUSH0 DUP4 ADD DUP5 PUSH2 0x1342 JUMP JUMPDEST SWAP3 SWAP2 POP POP JUMP JUMPDEST PUSH0 DUP2 MLOAD SWAP1 POP SWAP2 SWAP1 POP JUMP JUMPDEST PUSH0 DUP3 DUP3 MSTORE PUSH1 0x20 DUP3 ADD SWAP1 POP SWAP3 SWAP2 POP POP JUMP JUMPDEST DUP3 DUP2 DUP4 MCOPY PUSH0 DUP4 DUP4 ADD MSTORE POP POP POP JUMP JUMPDEST PUSH0 PUSH1 0x1F NOT PUSH1 0x1F DUP4 ADD AND SWAP1 POP SWAP2 SWAP1 POP JUMP JUMPDEST PUSH0 PUSH2 0x13AC DUP3 PUSH2 0x136A JUMP JUMPDEST PUSH2 0x13B6 DUP2 DUP6 PUSH2 0x1374 JUMP JUMPDEST SWAP4 POP PUSH2 0x13C6 DUP2 DUP6 PUSH1 0x20 DUP7 ADD PUSH2 0x1384 JUMP JUMPDEST PUSH2 0x13CF DUP2 PUSH2 0x1392 JUMP JUMPDEST DUP5 ADD SWAP2 POP POP SWAP3 SWAP2 POP POP JUMP JUMPDEST PUSH0 PUSH1 0xA0 DUP3 ADD SWAP1 POP PUSH2 0x13ED PUSH0 DUP4 ADD DUP9 PUSH2 0x12A1 JUMP JUMPDEST PUSH2 0x13FA PUSH1 0x20 DUP4 ADD DUP8 PUSH2 0x11D5 JUMP JUMPDEST DUP2 DUP2 SUB PUSH1 0x40 DUP4 ADD MSTORE PUSH2 0x140C DUP2 DUP7 PUSH2 0x13A2 JUMP JUMPDEST SWAP1 POP PUSH2 0x141B PUSH1 0x60 DUP4 ADD DUP6 PUSH2 0x1342 JUMP JUMPDEST PUSH2 0x1428 PUSH1 0x80 DUP4 ADD DUP5 PUSH2 0x11D5 JUMP JUMPDEST SWAP7 SWAP6 POP POP POP POP POP POP JUMP JUMPDEST PUSH0 DUP1 PUSH1 0x40 DUP4 DUP6 SUB SLT ISZERO PUSH2 0x1448 JUMPI PUSH2 0x1447 PUSH2 0x1214 JUMP JUMPDEST JUMPDEST PUSH0 PUSH2 0x1455 DUP6 DUP3 DUP7 ADD PUSH2 0x1232 JUMP JUMPDEST SWAP3 POP POP PUSH1 0x20 PUSH2 0x1466 DUP6 DUP3 DUP7 ADD PUSH2 0x12F8 JUMP JUMPDEST SWAP2 POP POP SWAP3 POP SWAP3 SWAP1 POP JUMP JUMPDEST PUSH0 DUP2 MLOAD SWAP1 POP SWAP2 SWAP1 POP JUMP JUMPDEST PUSH0 DUP3 DUP3 MSTORE PUSH1 0x20 DUP3 ADD SWAP1 POP SWAP3 SWAP2 POP POP JUMP JUMPDEST PUSH0 DUP2 SWAP1 POP PUSH1 0x20 DUP3 ADD SWAP1 POP SWAP2 SWAP1 POP JUMP JUMPDEST PUSH2 0x14A2 DUP2 PUSH2 0x1290 JUMP JUMPDEST DUP3 MSTORE POP POP JUMP JUMPDEST PUSH0 PUSH2 0x14B3 DUP4 DUP4 PUSH2 0x1499 JUMP JUMPDEST PUSH1 0x20 DUP4 ADD SWAP1 POP SWAP3 SWAP2 POP POP JUMP JUMPDEST PUSH0 PUSH1 0x20 DUP3 ADD SWAP1 POP SWAP2 SWAP1 POP JUMP JUMPDEST PUSH0 PUSH2 0x14D5 DUP3 PUSH2 0x1470 JUMP JUMPDEST PUSH2 0x14DF DUP2 DUP6 PUSH2 0x147A JUMP JUMPDEST SWAP4 POP PUSH2 0x14EA DUP4 PUSH2 0x148A JUMP JUMPDEST DUP1 PUSH0 JUMPDEST DUP4 DUP2 LT ISZERO PUSH2 0x151A JUMPI DUP2 MLOAD PUSH2 0x1501 DUP9 DUP3 PUSH2 0x14A8 JUMP JUMPDEST SWAP8 POP PUSH2 0x150C DUP4 PUSH2 0x14BF JUMP JUMPDEST SWAP3 POP POP PUSH1 0x1 DUP2 ADD SWAP1 POP PUSH2 0x14ED JUMP JUMPDEST POP DUP6 SWAP4 POP POP POP POP SWAP3 SWAP2 POP POP JUMP JUMPDEST PUSH0 PUSH1 0x20 DUP3 ADD SWAP1 POP DUP2 DUP2 SUB PUSH0 DUP4 ADD MSTORE PUSH2 0x153F DUP2 DUP5 PUSH2 0x14CB JUMP JUMPDEST SWAP1 POP SWAP3 SWAP2 POP POP JUMP JUMPDEST PUSH0 DUP1 REVERT JUMPDEST PUSH0 DUP1 REVERT JUMPDEST PUSH32 0x4E487B7100000000000000000000000000000000000000000000000000000000 PUSH0 MSTORE PUSH1 0x41 PUSH1 0x4 MSTORE PUSH1 0x24 PUSH0 REVERT JUMPDEST PUSH2 0x1585 DUP3 PUSH2 0x1392 JUMP JUMPDEST DUP2 ADD DUP2 DUP2 LT PUSH8 0xFFFFFFFFFFFFFFFF DUP3 GT OR ISZERO PUSH2 0x15A4 JUMPI PUSH2 0x15A3 PUSH2 0x154F JUMP JUMPDEST JUMPDEST DUP1 PUSH1 0x40 MSTORE POP POP POP JUMP JUMPDEST PUSH0 PUSH2 0x15B6 PUSH2 0x120B JUMP JUMPDEST SWAP1 POP PUSH2 0x15C2 DUP3 DUP3 PUSH2 0x157C JUMP JUMPDEST SWAP2 SWAP1 POP JUMP JUMPDEST PUSH0 PUSH8 0xFFFFFFFFFFFFFFFF DUP3 GT ISZERO PUSH2 0x15E1 JUMPI PUSH2 0x15E0 PUSH2 0x154F JUMP JUMPDEST JUMPDEST PUSH2 0x15EA DUP3 PUSH2 0x1392 JUMP JUMPDEST SWAP1 POP PUSH1 0x20 DUP2 ADD SWAP1 POP SWAP2 SWAP1 POP JUMP JUMPDEST DUP3 DUP2 DUP4 CALLDATACOPY PUSH0 DUP4 DUP4 ADD MSTORE POP POP POP JUMP JUMPDEST PUSH0 PUSH2 0x1617 PUSH2 0x1612 DUP5 PUSH2 0x15C7 JUMP JUMPDEST PUSH2 0x15AD JUMP JUMPDEST SWAP1 POP DUP3 DUP2 MSTORE PUSH1 0x20 DUP2 ADD DUP5 DUP5 DUP5 ADD GT ISZERO PUSH2 0x1633 JUMPI PUSH2 0x1632 PUSH2 0x154B JUMP JUMPDEST JUMPDEST PUSH2 0x163E DUP5 DUP3 DUP6 PUSH2 0x15F7 JUMP JUMPDEST POP SWAP4 SWAP3 POP POP POP JUMP JUMPDEST PUSH0 DUP3 PUSH1 0x1F DUP4 ADD SLT PUSH2 0x165A JUMPI PUSH2 0x1659 PUSH2 0x1547 JUMP JUMPDEST JUMPDEST DUP2 CALLDATALOAD PUSH2 0x166A DUP5 DUP3 PUSH1 0x20 DUP7 ADD PUSH2 0x1605 JUMP JUMPDEST SWAP2 POP POP SWAP3 SWAP2 POP POP JUMP JUMPDEST PUSH0 DUP1 PUSH0 PUSH1 0x60 DUP5 DUP7 SUB SLT ISZERO PUSH2 0x168A JUMPI PUSH2 0x1689 PUSH2 0x1214 JUMP JUMPDEST JUMPDEST PUSH0 PUSH2 0x1697 DUP7 DUP3 DUP8 ADD PUSH2 0x12F8 JUMP JUMPDEST SWAP4 POP POP PUSH1 0x20 PUSH2 0x16A8 DUP7 DUP3 DUP8 ADD PUSH2 0x1232 JUMP JUMPDEST SWAP3 POP POP PUSH1 0x40 DUP5 ADD CALLDATALOAD PUSH8 0xFFFFFFFFFFFFFFFF DUP2 GT ISZERO PUSH2 0x16C9 JUMPI PUSH2 0x16C8 PUSH2 0x1218 JUMP JUMPDEST JUMPDEST PUSH2 0x16D5 DUP7 DUP3 DUP8 ADD PUSH2 0x1646 JUMP JUMPDEST SWAP2 POP POP SWAP3 POP SWAP3 POP SWAP3 JUMP JUMPDEST PUSH0 DUP3 DUP3 MSTORE PUSH1 0x20 DUP3 ADD SWAP1 POP SWAP3 SWAP2 POP POP JUMP JUMPDEST PUSH32 0x6E6F74206F776E65720000000000000000000000000000000000000000000000 PUSH0 DUP3 ADD MSTORE POP JUMP JUMPDEST PUSH0 PUSH2 0x1723 PUSH1 0x9 DUP4 PUSH2 0x16DF JUMP JUMPDEST SWAP2 POP PUSH2 0x172E DUP3 PUSH2 0x16EF JUMP JUMPDEST PUSH1 0x20 DUP3 ADD SWAP1 POP SWAP2 SWAP1 POP JUMP JUMPDEST PUSH0 PUSH1 0x20 DUP3 ADD SWAP1 POP DUP2 DUP2 SUB PUSH0 DUP4 ADD MSTORE PUSH2 0x1750 DUP2 PUSH2 0x1717 JUMP JUMPDEST SWAP1 POP SWAP2 SWAP1 POP JUMP JUMPDEST PUSH32 0x5472616E73616374696F6E20646F6573206E6F74206578697374000000000000 PUSH0 DUP3 ADD MSTORE POP JUMP JUMPDEST PUSH0 PUSH2 0x178B PUSH1 0x1A DUP4 PUSH2 0x16DF JUMP JUMPDEST SWAP2 POP PUSH2 0x1796 DUP3 PUSH2 0x1757 JUMP JUMPDEST PUSH1 0x20 DUP3 ADD SWAP1 POP SWAP2 SWAP1 POP JUMP JUMPDEST PUSH0 PUSH1 0x20 DUP3 ADD SWAP1 POP DUP2 DUP2 SUB PUSH0 DUP4 ADD MSTORE PUSH2 0x17B8 DUP2 PUSH2 0x177F JUMP JUMPDEST SWAP1 POP SWAP2 SWAP1 POP JUMP JUMPDEST PUSH32 0x4E487B7100000000000000000000000000000000000000000000000000000000 PUSH0 MSTORE PUSH1 0x32 PUSH1 0x4 MSTORE PUSH1 0x24 PUSH0 REVERT JUMPDEST PUSH32 0x747820616C726561647920657865637574656400000000000000000000000000 PUSH0 DUP3 ADD MSTORE POP JUMP JUMPDEST PUSH0 PUSH2 0x1820 PUSH1 0x13 DUP4 PUSH2 0x16DF JUMP JUMPDEST SWAP2 POP PUSH2 0x182B DUP3 PUSH2 0x17EC JUMP JUMPDEST PUSH1 0x20 DUP3 ADD SWAP1 POP SWAP2 SWAP1 POP JUMP JUMPDEST PUSH0 PUSH1 0x20 DUP3 ADD SWAP1 POP DUP2 DUP2 SUB PUSH0 DUP4 ADD MSTORE PUSH2 0x184D DUP2 PUSH2 0x1814 JUMP JUMPDEST SWAP1 POP SWAP2 SWAP1 POP JUMP JUMPDEST PUSH32 0x5472616E73616374696F6E206E6F7420636F6E6669726D656400000000000000 PUSH0 DUP3 ADD MSTORE POP JUMP JUMPDEST PUSH0 PUSH2 0x1888 PUSH1 0x19 DUP4 PUSH2 0x16DF JUMP JUMPDEST SWAP2 POP PUSH2 0x1893 DUP3 PUSH2 0x1854 JUMP JUMPDEST PUSH1 0x20 DUP3 ADD SWAP1 POP SWAP2 SWAP1 POP JUMP JUMPDEST PUSH0 PUSH1 0x20 DUP3 ADD SWAP1 POP DUP2 DUP2 SUB PUSH0 DUP4 ADD MSTORE PUSH2 0x18B5 DUP2 PUSH2 0x187C JUMP JUMPDEST SWAP1 POP SWAP2 SWAP1 POP JUMP JUMPDEST PUSH32 0x4E487B7100000000000000000000000000000000000000000000000000000000 PUSH0 MSTORE PUSH1 0x11 PUSH1 0x4 MSTORE PUSH1 0x24 PUSH0 REVERT JUMPDEST PUSH0 PUSH2 0x18F3 DUP3 PUSH2 0x11CC JUMP JUMPDEST SWAP2 POP PUSH0 DUP3 SUB PUSH2 0x1905 JUMPI PUSH2 0x1904 PUSH2 0x18BC JUMP JUMPDEST JUMPDEST PUSH1 0x1 DUP3 SUB SWAP1 POP SWAP2 SWAP1 POP JUMP JUMPDEST PUSH32 0x4E487B7100000000000000000000000000000000000000000000000000000000 PUSH0 MSTORE PUSH1 0x22 PUSH1 0x4 MSTORE PUSH1 0x24 PUSH0 REVERT JUMPDEST PUSH0 PUSH1 0x2 DUP3 DIV SWAP1 POP PUSH1 0x1 DUP3 AND DUP1 PUSH2 0x1954 JUMPI PUSH1 0x7F DUP3 AND SWAP2 POP JUMPDEST PUSH1 0x20 DUP3 LT DUP2 SUB PUSH2 0x1967 JUMPI PUSH2 0x1966 PUSH2 0x1910 JUMP JUMPDEST JUMPDEST POP SWAP2 SWAP1 POP JUMP JUMPDEST PUSH32 0x5472616E73616374696F6E20616C726561647920636F6E6669726D6564000000 PUSH0 DUP3 ADD MSTORE POP JUMP JUMPDEST PUSH0 PUSH2 0x19A1 PUSH1 0x1D DUP4 PUSH2 0x16DF JUMP JUMPDEST SWAP2 POP PUSH2 0x19AC DUP3 PUSH2 0x196D JUMP JUMPDEST PUSH1 0x20 DUP3 ADD SWAP1 POP SWAP2 SWAP1 POP JUMP JUMPDEST PUSH0 PUSH1 0x20 DUP3 ADD SWAP1 POP DUP2 DUP2 SUB PUSH0 DUP4 ADD MSTORE PUSH2 0x19CE DUP2 PUSH2 0x1995 JUMP JUMPDEST SWAP1 POP SWAP2 SWAP1 POP JUMP JUMPDEST PUSH32 0x4E6F7420656E6F75676820636F6E6669726D6174696F6E730000000000000000 PUSH0 DUP3 ADD MSTORE POP JUMP JUMPDEST PUSH0 PUSH2 0x1A09 PUSH1 0x18 DUP4 PUSH2 0x16DF JUMP JUMPDEST SWAP2 POP PUSH2 0x1A14 DUP3 PUSH2 0x19D5 JUMP JUMPDEST PUSH1 0x20 DUP3 ADD SWAP1 POP SWAP2 SWAP1 POP JUMP JUMPDEST PUSH0 PUSH1 0x20 DUP3 ADD SWAP1 POP DUP2 DUP2 SUB PUSH0 DUP4 ADD MSTORE PUSH2 0x1A36 DUP2 PUSH2 0x19FD JUMP JUMPDEST SWAP1 POP SWAP2 SWAP1 POP JUMP JUMPDEST PUSH0 DUP2 SWAP1 POP SWAP3 SWAP2 POP POP JUMP JUMPDEST PUSH0 DUP2 SWAP1 POP DUP2 PUSH0 MSTORE PUSH1 0x20 PUSH0 KECCAK256 SWAP1 POP SWAP2 SWAP1 POP JUMP JUMPDEST PUSH0 DUP2 SLOAD PUSH2 0x1A65 DUP2 PUSH2 0x193D JUMP JUMPDEST PUSH2 0x1A6F DUP2 DUP7 PUSH2 0x1A3D JUMP JUMPDEST SWAP5 POP PUSH1 0x1 DUP3 AND PUSH0 DUP2 EQ PUSH2 0x1A89 JUMPI PUSH1 0x1 DUP2 EQ PUSH2 0x1A9E JUMPI PUSH2 0x1AD0 JUMP JUMPDEST PUSH1 0xFF NOT DUP4 AND DUP7 MSTORE DUP2 ISZERO ISZERO DUP3 MUL DUP7 ADD SWAP4 POP PUSH2 0x1AD0 JUMP JUMPDEST PUSH2 0x1AA7 DUP6 PUSH2 0x1A47 JUMP JUMPDEST PUSH0 JUMPDEST DUP4 DUP2 LT ISZERO PUSH2 0x1AC8 JUMPI DUP2 SLOAD DUP2 DUP10 ADD MSTORE PUSH1 0x1 DUP3 ADD SWAP2 POP PUSH1 0x20 DUP2 ADD SWAP1 POP PUSH2 0x1AA9 JUMP JUMPDEST DUP4 DUP9 ADD SWAP6 POP POP POP JUMPDEST POP POP POP SWAP3 SWAP2 POP POP JUMP JUMPDEST PUSH0 PUSH2 0x1AE4 DUP3 DUP5 PUSH2 0x1A59 JUMP JUMPDEST SWAP2 POP DUP2 SWAP1 POP SWAP3 SWAP2 POP POP JUMP JUMPDEST PUSH32 0x5472616E73616374696F6E20657865637574696F6E206661696C656400000000 PUSH0 DUP3 ADD MSTORE POP JUMP JUMPDEST PUSH0 PUSH2 0x1B23 PUSH1 0x1C DUP4 PUSH2 0x16DF JUMP JUMPDEST SWAP2 POP PUSH2 0x1B2E DUP3 PUSH2 0x1AEF JUMP JUMPDEST PUSH1 0x20 DUP3 ADD SWAP1 POP SWAP2 SWAP1 POP JUMP JUMPDEST PUSH0 PUSH1 0x20 DUP3 ADD SWAP1 POP DUP2 DUP2 SUB PUSH0 DUP4 ADD MSTORE PUSH2 0x1B50 DUP2 PUSH2 0x1B17 JUMP JUMPDEST SWAP1 POP SWAP2 SWAP1 POP JUMP JUMPDEST PUSH0 PUSH1 0x20 PUSH1 0x1F DUP4 ADD DIV SWAP1 POP SWAP2 SWAP1 POP JUMP JUMPDEST PUSH0 DUP3 DUP3 SHL SWAP1 POP SWAP3 SWAP2 POP POP JUMP JUMPDEST PUSH0 PUSH1 0x8 DUP4 MUL PUSH2 0x1BA1 PUSH32 0xFFFFFFFFFFFFFFFFFFFFFFFFFFFFFFFFFFFFFFFFFFFFFFFFFFFFFFFFFFFFFFFF DUP3 PUSH2 0x1B66 JUMP JUMPDEST PUSH2 0x1BAB DUP7 DUP4 PUSH2 0x1B66 JUMP JUMPDEST SWAP6 POP DUP1 NOT DUP5 AND SWAP4 POP DUP1 DUP7 AND DUP5 OR SWAP3 POP POP POP SWAP4 SWAP3 POP POP POP JUMP JUMPDEST PUSH0 DUP2 SWAP1 POP SWAP2 SWAP1 POP JUMP JUMPDEST PUSH0 PUSH2 0x1BE6 PUSH2 0x1BE1 PUSH2 0x1BDC DUP5 PUSH2 0x11CC JUMP JUMPDEST PUSH2 0x1BC3 JUMP JUMPDEST PUSH2 0x11CC JUMP JUMPDEST SWAP1 POP SWAP2 SWAP1 POP JUMP JUMPDEST PUSH0 DUP2 SWAP1 POP SWAP2 SWAP1 POP JUMP JUMPDEST PUSH2 0x1BFF DUP4 PUSH2 0x1BCC JUMP JUMPDEST PUSH2 0x1C13 PUSH2 0x1C0B DUP3 PUSH2 0x1BED JUMP JUMPDEST DUP5 DUP5 SLOAD PUSH2 0x1B72 JUMP JUMPDEST DUP3 SSTORE POP POP POP POP JUMP JUMPDEST PUSH0 SWAP1 JUMP JUMPDEST PUSH2 0x1C27 PUSH2 0x1C1B JUMP JUMPDEST PUSH2 0x1C32 DUP2 DUP5 DUP5 PUSH2 0x1BF6 JUMP JUMPDEST POP POP POP JUMP JUMPDEST JUMPDEST DUP2 DUP2 LT ISZERO PUSH2 0x1C55 JUMPI PUSH2 0x1C4A PUSH0 DUP3 PUSH2 0x1C1F JUMP JUMPDEST PUSH1 0x1 DUP2 ADD SWAP1 POP PUSH2 0x1C38 JUMP JUMPDEST POP POP JUMP JUMPDEST PUSH1 0x1F DUP3 GT ISZERO PUSH2 0x1C9A JUMPI PUSH2 0x1C6B DUP2 PUSH2 0x1A47 JUMP JUMPDEST PUSH2 0x1C74 DUP5 PUSH2 0x1B57 JUMP JUMPDEST DUP2 ADD PUSH1 0x20 DUP6 LT ISZERO PUSH2 0x1C83 JUMPI DUP2 SWAP1 POP JUMPDEST PUSH2 0x1C97 PUSH2 0x1C8F DUP6 PUSH2 0x1B57 JUMP JUMPDEST DUP4 ADD DUP3 PUSH2 0x1C37 JUMP JUMPDEST POP POP JUMPDEST POP POP POP JUMP JUMPDEST PUSH0 DUP3 DUP3 SHR SWAP1 POP SWAP3 SWAP2 POP POP JUMP JUMPDEST PUSH0 PUSH2 0x1CBA PUSH0 NOT DUP5 PUSH1 0x8 MUL PUSH2 0x1C9F JUMP JUMPDEST NOT DUP1 DUP4 AND SWAP2 POP POP SWAP3 SWAP2 POP POP JUMP JUMPDEST PUSH0 PUSH2 0x1CD2 DUP4 DUP4 PUSH2 0x1CAB JUMP JUMPDEST SWAP2 POP DUP3 PUSH1 0x2 MUL DUP3 OR SWAP1 POP SWAP3 SWAP2 POP POP JUMP JUMPDEST PUSH2 0x1CEB DUP3 PUSH2 0x136A JUMP JUMPDEST PUSH8 0xFFFFFFFFFFFFFFFF DUP2 GT ISZERO PUSH2 0x1D04 JUMPI PUSH2 0x1D03 PUSH2 0x154F JUMP JUMPDEST JUMPDEST PUSH2 0x1D0E DUP3 SLOAD PUSH2 0x193D JUMP JUMPDEST PUSH2 0x1D19 DUP3 DUP3 DUP6 PUSH2 0x1C59 JUMP JUMPDEST PUSH0 PUSH1 0x20 SWAP1 POP PUSH1 0x1F DUP4 GT PUSH1 0x1 DUP2 EQ PUSH2 0x1D4A JUMPI PUSH0 DUP5 ISZERO PUSH2 0x1D38 JUMPI DUP3 DUP8 ADD MLOAD SWAP1 POP JUMPDEST PUSH2 0x1D42 DUP6 DUP3 PUSH2 0x1CC7 JUMP JUMPDEST DUP7 SSTORE POP PUSH2 0x1DA9 JUMP JUMPDEST PUSH1 0x1F NOT DUP5 AND PUSH2 0x1D58 DUP7 PUSH2 0x1A47 JUMP JUMPDEST PUSH0 JUMPDEST DUP3 DUP2 LT ISZERO PUSH2 0x1D7F JUMPI DUP5 DUP10 ADD MLOAD DUP3 SSTORE PUSH1 0x1 DUP3 ADD SWAP2 POP PUSH1 0x20 DUP6 ADD SWAP5 POP PUSH1 0x20 DUP2 ADD SWAP1 POP PUSH2 0x1D5A JUMP JUMPDEST DUP7 DUP4 LT ISZERO PUSH2 0x1D9C JUMPI DUP5 DUP10 ADD MLOAD PUSH2 0x1D98 PUSH1 0x1F DUP10 AND DUP3 PUSH2 0x1CAB JUMP JUMPDEST DUP4 SSTORE POP JUMPDEST PUSH1 0x1 PUSH1 0x2 DUP9 MUL ADD DUP9 SSTORE POP POP POP JUMPDEST POP POP POP POP POP POP JUMP JUMPDEST PUSH0 PUSH1 0x40 DUP3 ADD SWAP1 POP PUSH2 0x1DC4 PUSH0 DUP4 ADD DUP6 PUSH2 0x11D5 JUMP JUMPDEST DUP2 DUP2 SUB PUSH1 0x20 DUP4 ADD MSTORE PUSH2 0x1DD6 DUP2 DUP5 PUSH2 0x13A2 JUMP JUMPDEST SWAP1 POP SWAP4 SWAP3 POP POP POP JUMP INVALID LOG2 PUSH5 0x6970667358 0x22 SLT KECCAK256 CODECOPY PC 0xA8 0xB8 CALLVALUE 0xB3 BLOBHASH PUSH7 0x1941F7DF72B73B LOG4 0x22 LOG2 PUSH3 0x75E5DD PUSH9 0xD381236AB63DA8BC9C PUSH5 0x736F6C6343 STOP ADDMOD BYTE STOP CALLER "
				},
				"gasEstimates": {
					"creation": {
						"codeDepositCost": "1540200",
						"executionCost": "infinite",
						"totalCost": "infinite"
					},
					"external": {
						"confirmTransaction(uint256)": "infinite",
						"executeTransaction(uint256)": "infinite",
						"getOwners()": "infinite",
						"getTransaction(uint256)": "infinite",
						"getTransactionCount()": "2485",
						"isConfirmed(uint256,address)": "3182",
						"isOwner(address)": "2900",
						"numConfirmationsRequired()": "2513",
						"owners(uint256)": "4944",
						"revokeConfirmation(uint256)": "infinite",
						"submitTransaction(address,uint256,bytes)": "infinite",
						"transactions(uint256)": "infinite"
					}
				},
				"methodIdentifiers": {
					"confirmTransaction(uint256)": "c01a8c84",
					"executeTransaction(uint256)": "ee22610b",
					"getOwners()": "a0e67e2b",
					"getTransaction(uint256)": "33ea3dc8",
					"getTransactionCount()": "2e7700f0",
					"isConfirmed(uint256,address)": "80f59a65",
					"isOwner(address)": "2f54bf6e",
					"numConfirmationsRequired()": "d0549b85",
					"owners(uint256)": "025e7c27",
					"revokeConfirmation(uint256)": "20ea8d86",
					"submitTransaction(address,uint256,bytes)": "c6427474",
					"transactions(uint256)": "9ace38c2"
				}
			},
			"storageLayout": {
				"storage": [
					{
						"astId": 42,
						"contract": "contracts/multi.sol:MultiSigWallet",
						"label": "owners",
						"offset": 0,
						"slot": "0",
						"type": "t_array(t_address)dyn_storage"
					},
					{
						"astId": 46,
						"contract": "contracts/multi.sol:MultiSigWallet",
						"label": "isOwner",
						"offset": 0,
						"slot": "1",
						"type": "t_mapping(t_address,t_bool)"
					},
					{
						"astId": 48,
						"contract": "contracts/multi.sol:MultiSigWallet",
						"label": "numConfirmationsRequired",
						"offset": 0,
						"slot": "2",
						"type": "t_uint256"
					},
					{
						"astId": 65,
						"contract": "contracts/multi.sol:MultiSigWallet",
						"label": "isConfirmed",
						"offset": 0,
						"slot": "3",
						"type": "t_mapping(t_uint256,t_mapping(t_address,t_bool))"
					},
					{
						"astId": 69,
						"contract": "contracts/multi.sol:MultiSigWallet",
						"label": "transactions",
						"offset": 0,
						"slot": "4",
						"type": "t_array(t_struct(Transaction)59_storage)dyn_storage"
					}
				],
				"types": {
					"t_address": {
						"encoding": "inplace",
						"label": "address",
						"numberOfBytes": "20"
					},
					"t_array(t_address)dyn_storage": {
						"base": "t_address",
						"encoding": "dynamic_array",
						"label": "address[]",
						"numberOfBytes": "32"
					},
					"t_array(t_struct(Transaction)59_storage)dyn_storage": {
						"base": "t_struct(Transaction)59_storage",
						"encoding": "dynamic_array",
						"label": "struct MultiSigWallet.Transaction[]",
						"numberOfBytes": "32"
					},
					"t_bool": {
						"encoding": "inplace",
						"label": "bool",
						"numberOfBytes": "1"
					},
					"t_bytes_storage": {
						"encoding": "bytes",
						"label": "bytes",
						"numberOfBytes": "32"
					},
					"t_mapping(t_address,t_bool)": {
						"encoding": "mapping",
						"key": "t_address",
						"label": "mapping(address => bool)",
						"numberOfBytes": "32",
						"value": "t_bool"
					},
					"t_mapping(t_uint256,t_mapping(t_address,t_bool))": {
						"encoding": "mapping",
						"key": "t_uint256",
						"label": "mapping(uint256 => mapping(address => bool))",
						"numberOfBytes": "32",
						"value": "t_mapping(t_address,t_bool)"
					},
					"t_struct(Transaction)59_storage": {
						"encoding": "inplace",
						"label": "struct MultiSigWallet.Transaction",
						"members": [
							{
								"astId": 50,
								"contract": "contracts/multi.sol:MultiSigWallet",
								"label": "to",
								"offset": 0,
								"slot": "0",
								"type": "t_address"
							},
							{
								"astId": 52,
								"contract": "contracts/multi.sol:MultiSigWallet",
								"label": "value",
								"offset": 0,
								"slot": "1",
								"type": "t_uint256"
							},
							{
								"astId": 54,
								"contract": "contracts/multi.sol:MultiSigWallet",
								"label": "data",
								"offset": 0,
								"slot": "2",
								"type": "t_bytes_storage"
							},
							{
								"astId": 56,
								"contract": "contracts/multi.sol:MultiSigWallet",
								"label": "executed",
								"offset": 0,
								"slot": "3",
								"type": "t_bool"
							},
							{
								"astId": 58,
								"contract": "contracts/multi.sol:MultiSigWallet",
								"label": "numConfirmations",
								"offset": 0,
								"slot": "4",
								"type": "t_uint256"
							}
						],
						"numberOfBytes": "160"
					},
					"t_uint256": {
						"encoding": "inplace",
						"label": "uint256",
						"numberOfBytes": "32"
					}
				}
			},
			"userdoc": {
				"kind": "user",
				"methods": {},
				"version": 1
			}
		}
	}
}